:020000040800F2
:10000000B813002051900008A5900008FD83000857
:10001000A9900008AD900008B19000080000000011
:10002000000000000000000000000000B590000883
:10003000B990000800000000BD9000086584000829
:10004000C1900008C5900008C9900008CD90000834
:10005000D1900008D5900008D9900008DD900008E4
:10006000E1900008E5900008E9900008ED90000894
:10007000F1900008F5900008F9900008FD90000844
:100080000191000805910008458300080000000068
:1000900000000000000000000000000009910008BE
:1000A0006B8300085B8300080D9100081191000824
:1000B00015910008199100081D9100082191000870
:1000C00025910008299100082D9100083191000820
:1000D00035910008399100088F8300080000000066
:1000E000898400083D91000841910008000000004B
:1000F0000000000000000000000000004591000822
:1001000000000000499100084D910008519100083D
:1001100000000000000000000000000000000000DF
:1001200055910008599100085D91000861910008FF
:1001300065910008000000000000000000000000C1
:1001400000000000000000000000000069910008AD
:100150006D9100087191000875910008799100086F
:100160007D9100088191000800000000000000005F
:10017000000000000000000000000000000000007F
:100180000000000085910008000000000000000051
:100190008991000810B50446DF48606301F01AFE3B
:1001A000002084F8300084F83A00204600F09BF8E4
:1001B000002084F82401F7EE000AD4F8400590ED01
:1001C000000A2069B8EE400A84ED100A80EE800A29
:1001D00084ED0F0A01F021FE00EE100AD4F840056C
:1001E000B8EE400A84ED110AF6EE000A90ED130A0B
:1001F00090ED091A60EE200AC0EE810AFDEEE00AD9
:1002000010EE901AA4F84810F0EE000A90ED060ADD
:1002100090ED071A60EE200A60EE810A90ED130A55
:1002200080EE200A84ED130AF5EE000AC16A21650A
:1002300090ED0B0A60EE200AC4ED160AC06A6065F4
:100240000020E06520666066A06684F88C00C4F833
:100250009000C4F8940084F89800C4F89C00C4F896
:10026000A000C4F8A400C4F8A800C4F8AC00C4F806
:10027000B000C4F8B40084F83C05204601F0E4F96D
:100280000020C4F8CC00C4F8D000C4F8D40084F82E
:10029000D800DFED9D0AD4F84005DFF8FC2C816B17
:1002A000C4F8DC10416CC4F8E01081FB02329210FB
:1002B00002EBD27200EE101AC4F8E820B8EEC00AC1
:1002C00020EE200A4FF4FA72BDEEC00A0021C4F8F5
:1002D000E82084ED390AA4F82C11C06BC4F8300171
:1002E00084F8341110BD002180F83B1080F8EC1028
:1002F000A0F8181180F81A11A0F81C11C0F82011EC
:10030000C0F83811704710B50446002194F83B003E
:10031000042808D1082184F83010002084F8EC006B
:100320000121084610BD94F83000C0B9206801F0E2
:1003300076FD0020012184F83A0084F83010204630
:10034000FFF7D1FF002084F824010121606D2065B2
:10035000002084F88C0084F898000120208708464B
:1003600010BD10B50446206801F05EFD94F8300021
:10037000062818BF072804D00A281CBF002084F8CC
:10038000300010BD30B5044681B094F83000401EF6
:10039000072800F2B680DFE800F00404040422B469
:1003A000B43F206801F045FD90B1072184F830107A
:1003B000E06801F07DFD206801F0F1FD94ED4A0A4E
:1003C000DFED520A20EE200A204601F061FC93E0A6
:1003D000204600F0F9FF84ED4A0A01B030BD2068E4
:1003E00001F027FD002800F08C80072084F8300001
:1003F0000721E06801F05CFD206801F0D0FD94ED7C
:100400004A0ADFED420A20EE200A204601F040FCB5
:10041000206DC4F828016FE094F83B00042870D0E8
:10042000206801F006FD00286BD094ED4A0ADFED4C
:10043000370A20EE200A204601F02AFCD4F84005B5
:1004400094ED140A84ED4A0A9FED311AD0ED060AA4
:10045000D0ED071A20EE811A21EE211AD0ED130AF1
:10046000C1EE200A20EE800ABDEEC00A10EE100A8E
:10047000451E206A2AB2002101F093FD206A2AB2AB
:10048000012101F08EFD206A2AB2022101F089FDCE
:10049000206A2AB2032101F084FD206A2AB20421D5
:1004A00001F07FFD94F8EC0001281BD1206901F0D8
:1004B0007EFDC0EB00118800DFF8DC2A80FB0232F1
:1004C000921002EBD27200EE102AB8EEC00ADFEDF5
:1004D000110A60EE200AFDEEE00AC4ED390A20465A
:1004E00001F05CFB062084F830000721E06801F091
:1004F000DFFC206801F053FDDFF8100E0188491C75
:10050000018001B030BD0000CDCCCC3E6666663FB8
:1005100000008047CDCC4C3F840600202DE9F04FF1
:1005200004460FF69C2081B000272DED048B066851
:1005300086B094F83000D4F83490092800F21C8575
:10054000DFE810F0F4040A0054000A007D005E01A8
:10055000F9041A05EA02E60494ED140A204601F0B3
:1005600011F8012823D194F8300001280DD102217F
:1005700084F83010484601F02DFCD4F84005428E36
:100580004EF66021484601F015FD94F8300003282E
:100590004FD1042184F83010484601F01BFCD4F8F8
:1005A0004005828E218F484601F004FD41E0208FF6
:1005B0004EF6602188423CD12787204600F004FF98
:1005C0006FF0130084F8D800F6EE000A94F8980053
:1005D000401C84F8980020EE200AC0B2032884ED65
:1005E000140A26D3092084F8300022E094ED140A7E
:1005F000204600F0C7FF484601F0F4FB484601F0F2
:100600001DFDB0B1032084F83000F5EE000A94ED32
:10061000140A20EE200A6FF01300C4F8A870C4F882
:10062000AC70C4F8B07084ED140A84ED160A84F836
:10063000D800218F206801F007FD00F0A1BC94EDE7
:10064000140A204600F09EFF278F484601F0CAFB9F
:10065000204600F0B9FED4F8B000D4ED2A0A401CC0
:10066000C4F8B00030EE800A606884ED2A0A01F018
:10067000F5FC00EE900A60684188384601EE101AD9
:10068000F8EE600AB8EE411A9FEDC20A60EE810AE8
:1006900001EE100AB8EE411A60EE800A21EE000A5F
:1006A00094ED2B1AC4ED170A00EE201A84ED2B1AD4
:1006B000484601F0C3FC002800F0298294ED2C0A82
:1006C00094F88C00D4ED2A0A94ED2B1AB8EE400A67
:1006D00080EE800A04EB800184ED240AD4ED2C0A1C
:1006E00081ED1B0AF8EE600A94F88C0004EB80019F
:1006F000C1EE200AC1ED1F0A94F88C00401C84F85A
:100700008C00C0B2042816D26FF0130084F8D80011
:100710000020C4F8A800C4F8AC00C4F8B00094ED00
:10072000140AD4ED160A30EE200A032084ED140AD0
:1007300084F83000EBE1052084F830009FED968AC4
:10074000002084F83A00484601F044FB64224EF64B
:100750006021484601F02EFC2146032091ED200A3D
:10076000D1ED1F0A91ED1B1A30EE600AD1ED1C0A83
:1007700070EEC10A091D80EE200A401E30EE088A84
:10078000ECD1B0EE080AD4F8401588EE000A84EDEA
:10079000180A91F8400020BBD1ED0A0A30EE600A39
:1007A000DFED7E0AB4EE600AF1EE10FA84ED180A6D
:1007B00003D5DFF8AC0D206605E0F6EE000A20EE6A
:1007C000200A84ED180ADFED760A94ED240A60EE23
:1007D000200A0020C4ED250AC4F8A400C4F8A00033
:1007E00095E10A2084F830000721E06801F060FB01
:1007F000206801F0D4FB206801F016FB002786E199
:10080000204600F0E1FD94F83A0010B1022808D02B
:1008100018E0DFED640AB4EE600AF1EE10FA11D5CB
:100820000DE0D4ED250A278FB4EE600AF1EE10FA40
:1008300005D5D4F89C00401CC4F89C0002E0484652
:1008400001F00EFC484601F0CDFA484601F0F6FBF7
:10085000002800F05C8194F83A0018B1022810D00A
:1008600008D354E1012084F83A00484601F0B2FA76
:100870000A2247E1022084F83A000020C4F89C00D4
:100880003CE1002084F83A0094ED270AD4ED0F0AE9
:10089000D4F8A00094ED291AB8EE400A20EE200A00
:1008A000D4ED180A00EE201A401C142884ED291AF1
:1008B000C4F8A00040F02281062084F8300007210F
:1008C000E06801F0F5FA206801F069FB206801F0AA
:1008D000ABFA94ED280AD4ED290A6068B8EE400A14
:1008E00080EE800A84ED190A01F0B8FB00EE100AD0
:1008F000606894ED182A4188D4F84005D4ED4C1A6C
:1009000000EE901AB8EE400AF8EE600A20EE200AD7
:100910009FED201A20EE010A84ED170A0022D0ED87
:10092000060A20EE200AD0ED070A20EE200AD0EDBC
:10093000130A80EE201A94ED190AD4ED370A20EE3E
:10094000210A62EE211A94ED0F2A80EE010A61EE6F
:10095000821A002760EE200A81EE811A4FF0100CF7
:100960001020102190460F2547F6FF734FF0010B22
:100970000BFA05F601EE906AF8EEE11A61EE801AC4
:10098000FDEEE11A11EE906A9E4210DA4FFA85FCF4
:100990000DE000BF0000803700000000CDCC4C3ED1
:1009A0009ED2213F0AD7233CBEF1100FE0D01FFAA0
:1009B00080FEBEF1100F0FD10BFA05F201EE902A66
:1009C000F8EEE11A61EEA01AFDEEE11A11EE902A9E
:1009D0009A42B8BF68B200BF1FFA81FEBEF1100F85
:1009E0000ED10BFA05FE01EE90EAF8EEE11A61EE87
:1009F000811AFDEEE11A11EE908A9845B8BF69B2EE
:100A00006D1E1FFA8CFECFD5BEF1100F83460D462A
:100A1000924609D0A0691FFA8CF101F025FBA0696C
:100A200031B201F027FB02E0092084F830001FFA00
:100A30008BF010280AD0E0691FFA8BF101F014FB4B
:100A4000E0690FFA8AF101F015FB02E0092084F851
:100A50003000A8B2102812D0A069A9B201F00CFB96
:100A6000E069A9B201F008FBA0690FFA88F101F072
:100A700016FBE0690FFA88F101F011FB02E0092092
:100A800084F83000DFEDA00AD4F8400590ED060AA6
:100A900090ED071A60EE200A60EE810A90ED130ACD
:100AA00080EE800AD4ED140A20EE200ABDEEC00AC2
:100AB00010EE100A461E206A32B2002101F071FACF
:100AC000206A32B2012101F06CFA206A32B20221AE
:100AD00001F067FA206A32B2032101F062FA206A5B
:100AE00032B2042101F05DFAD4F84005428E206A4A
:100AF000002101F0D6FA204601F050F8484601F0F6
:100B000069F964224EF66021484601F053FA2068E4
:100B1000394601F099FA33E2E06801F0C8FA001FA3
:100B20000F2800F22982DFE810F0100010001000FA
:100B3000E6012702270227022702270227022702AF
:100B400027022702270227021000A06A01F0B1FA4B
:100B500001F0B1FA0646A068006801F0AFFA074656
:100B6000314601F0CFFA0190A068B0F91010BDF93C
:100B70000400091AA06901F0F9FAADF80800A068AC
:100B8000B0F91210BDF90600091AE06901F0EEFA99
:100B9000ADF80A000299606901F028FB82463146EF
:100BA00001F04FFB05462068294601F069FB8046AD
:100BB000A06847600497A1680198C860A068C0F861
:100BC00016A0A168D1F81A000390A168C1F81A50C4
:100BD000A0680684606801F041FAADF8140003A92A
:100BE000606A01F01FFCADF80000606A01F00AFDC8
:100BF0002069694601F031FD94F83B00052800F2B8
:100C0000C081DFE810F006008300BE014901BE018B
:100C10006101204600F024FD022884F8240122D13D
:100C2000206901F0C4F9C0EB00118800DA4A80FBAA
:100C30000232921002EBD272C4F8E420206901F073
:100C4000B6F90146204601F001F8012084F83B0086
:100C5000204600F0F9FC06B01FFA88F0BDEC048BCA
:100C600001B0BDE8F08F012800F08B81032821D16D
:100C700094ED3A0ABBEEEF0AFCEEC00AC4ED3A0A64
:100C8000204600F08BFF062084F830000721E06842
:100C900001F00EF9206801F082F9DFF87006418852
:100CA000491C418006B01FFA88F0BDEC048B01B0EE
:100CB000BDE8F08F042840F0648194ED480AB8EE56
:100CC000400ADFEDB40A60EE200AFDEEE00AC4ED52
:100CD000390A204600F062FF062084F83000072120
:100CE000E06801F0E5F8206801F059F9DFF81C062A
:100CF0008188491C818006B01FFA88F0BDEC048B06
:100D000001B0BDE8F08F00BF00008047D4F8400577
:100D1000A168D0ED060AB1F90C20D0ED071A9FEDBD
:100D20009F1A20EE811A21EE211AD0ED130A00EE4F
:100D3000102AC0EE810AB8EEC00A94ED2E1A60683F
:100D400000EE201A84ED2E1A01F088F900EE100A48
:100D500060684188A06800EE901AB8EE400AF8EE8C
:100D6000600A20EE200A9FED8E1A20EE010A84ED23
:100D7000170ADFED8C0AB0F91610A06801EE101A00
:100D8000B8EEC11A21EE000A94ED2F1A00EE201AD7
:100D900084ED2F1AB0F9181094ED171AD4F8C80082
:100DA00000EE101AB8EEC00A20EE010A94ED301AD7
:100DB00042F2107100EE201A401C884284ED301A75
:100DC000C4F8C800C0F0DD8000EE100AB8EE400A9A
:100DD000D4ED2E0A80EE808AD4ED2F0AC0EE808AF0
:100DE000D4ED300A80EE809A204600F02DFC206978
:100DF00001F0DDF800EE100AB8EEC00AF2EE040AC7
:100E000080EE200ADFED680A60EE209AD4ED180A21
:100E1000D4ED191A40EEC88AD4ED110A20EE200A4A
:100E20009FED621A20EE011A21EE211A01EE089AB6
:100E300028EEA80A09EE090AB5EE400AF1EE10FA0A
:100E400002DBB1EEC08A01E09FED598A9FED590A9D
:100E500028EE000ADFED580A60EE200A80EEA90AAB
:100E6000E06A84ED1A0A02F0E2F8D4ED170A9FED69
:100E7000531A89EE880A80EE811A20EE010A84ED69
:100E8000330A022084F83B0006B01FFA88F0BDEC5C
:100E9000048B01B0BDE8F08F484600F0A3FF484640
:100EA00001F0CCF800286CD0606A01F080F800EE08
:100EB000100ABAEE670ABDEEC00A10EE101A09B2A7
:100EC000204600F0C3FE0BE0206A02F0B6F810B135
:100ED000032084F83B00E06801F0E9F8062850D1CF
:100EE000042084F83B0006B01FFA88F0BDEC048BA8
:100EF00001B0BDE8F08F206801F051F884F830703F
:100F000006B01FFA88F0BDEC048B01B0BDE8F08F8D
:100F1000E068072100F0CCFF84F8307006B01FFABB
:100F200088F0BDEC048B01B0BDE8F08FE06801F003
:100F3000BEF8142820D1D4F8B400B0F5807F08BFE3
:100F4000C4F8B470204600F069FA2168032081F8E3
:100F50003A00D4F8B40004EB800181ED4F0AD4F8D4
:100F6000B400401CC4F8B40006B01FFA88F0BDEC11
:100F7000048B01B0BDE8F08F2068314601F080F9A4
:100F8000804606B01FFA88F0BDEC048B01B0BDE8C6
:100F9000F08F0000CDCC4C3F67666666000080474E
:100FA0000000803746CD933700007042DB0FC94008
:100FB0000000000071C49C3F00007A44D7B3DD3FBD
:100FC0000000000070B52DED048B044686B0656B03
:100FD000E06801F06CF894F83010062909D0C0F0F0
:100FE0001181082969D0C0F0FC8006B0BDEC048BEB
:100FF00070BD0B2800F20681DFE810F00C00040140
:10100000040104014F00040104010401040104016E
:1010100004010101204600F0B1FC002840F0F280FC
:1010200094ED100AD4ED190A94ED181AE06820EE38
:10103000802A81EE022AF7EE002AF5EE001A32EE3F
:10104000C22A22EE212AF5EE002A72EE222AB8EEFA
:10105000003A32EE833A81EE201A03EE001A84ED54
:10106000341AB7EE001A31EE421AFDEE002A31EEC4
:10107000221A02EE211A21EE001A21EE000A20EEB9
:10108000200A84ED350A032100F012FF206800F0E9
:1010900086FF06B0BDEC048B70BD082084F83000DC
:1010A0002046FFF720F9012084F82401204600F0B3
:1010B000CBFA06B0BDEC048B70BD94F83B0002285F
:1010C00040F0A080D4ED331A94ED1A2A61EE821A12
:1010D000DFEDD02A61EEA22A9FEDCF3AB4F9483075
:1010E000D4ED138AD4ED191A94ED109A82EE838A06
:1010F00021EEA82A02EE903A61EE891A94ED183A90
:1011000022EE092AF8EEE22AC3EE211AC2EE822A62
:1011100094ED343A9FEDCE0ADFEDCD0A9FEDCC1A67
:10112000002100200E2288EE022A83EE093ADFED2C
:10113000C93A9FEDC94A012303FA02F604EE906A08
:10114000F8EEE44A21EEA45AB4EE445AF1EE10FA55
:10115000BEBF23EE241AB4EE441AF1EE10FA12DAEE
:10116000B4EE631AF1EE10FA0DD422EE240AB4EEB6
:10117000440AF1EE10FABEBF62EEA40AF4EE440A8D
:10118000F1EE10FA23DB521E56B2012ED4DAD4ED62
:10119000351A61EEA81AC1EE881A0E22C1EE891A1C
:1011A00003FA02F602EE106AB8EEC22A61EE822A53
:1011B000F4EE442AF1EE10FA04DAF4EE632AF1EECA
:1011C00010FA23D5521E56B2012EE9DA27E052B2A8
:1011D00001EE902AF8EEE11AFDEEE11A11EE901AF6
:1011E000D5E750B9E068032100F062FE002084F8E2
:1011F000300006B0BDEC048B70BD0B2802D1E06856
:1012000001F021FF06B0BDEC048B70BD52B201EEBF
:10121000902AF8EEE11AFDEEE11A11EE900AFDEEC9
:10122000C51A11EE902AADF80020BDEEC11A11EEDC
:10123000102AADF80220BDEEC00A10EE102AADF85B
:101240000420BDEEE20A10EE102AADF80620BDEE35
:10125000E00A10EE102AADF80820BDEEE40A10EE08
:10126000102AADF80A20BDEEC20A10EE102AADF821
:101270001000ADF80C20ADF80E106946606A00F061
:1012800047F894ED331A94ED100AD4ED110A606A10
:10129000DFEDB41A61EE211A61EEA01A20EE002AE9
:1012A000C1EE821AB5EE002A61EE821AFDEEE11A55
:1012B00011EE902ADFEDAC1A21EE211A61EE200A20
:1012C00080EE800ABDEEC00A10EE101A12B209B20A
:1012D00001F0C4FE206900F0EEFE0646206901F030
:1012E000CDFE0146606A324601F0CBFE284600F092
:1012F00071FDFA224EF66021284600F05BFE0320C5
:1013000084F83B0006B0BDEC048B70BDAC0F002030
:1013100002460888908301234888D08388881084F7
:10132000C8885084088990844889108588895085A8
:10133000C889A2F81801088AA2F81A010020D085ED
:10134000B1F90CC0DFF8440A90FBFCF000B258B3CE
:10135000B2F82EC000EBD070C0030CF1010C0014E9
:101360005B00A2F82EC0F8B100EBD070C0030CF106
:10137000010C00145B00A2F82EC0A8B100EBD070E5
:10138000C00300145B000CF1010C0028A2F82EC071
:101390000AD000EBD070C00300145B000CF1010C0C
:1013A0000028A2F82EC0D3D19385B1F90C00B2F970
:1013B0002C10DFF8DC3910FB01F080FB03C31B129B
:1013C00003EBD373D3847047D0F84015806891ED58
:1013D000060A91ED071ADFED9B0A60EE200A60EE27
:1013E000810A91ED130AB0F90010B0F9020080EE05
:1013F000200A00EE901AF8EEE00A01EE100A60EE04
:10140000C00AB8EEC11A41EE400AB6EE000A20EE5C
:10141000800A70478104B53F0080D844D0F8401559
:101420008068D1ED060AB0F90020D1ED071A9FEDD2
:10143000851A20EE811A00EE102A21EE211AD1ED34
:10144000130AB8EEC00AC0EE810A20EE600A7047A7
:101450000000000000FEFFC601FEFF4605207047A9
:1014600030B5044681B0E06A01F0FFFC0025012898
:1014700008BF84F83451E06800F019FE0A2806D14C
:1014800084F8345184F83050284601B030BD94F8C7
:1014900030000A281BD8DFE800F006090D111111F1
:1014A00015151506190094F8340180B10125284658
:1014B00001B030BD0225284601B030BD03252846C5
:1014C00001B030BD0425284601B030BD0E252846A8
:1014D00001B030BD90ED180A01F0E3BD90ED190A9E
:1014E00001F0DFBD90ED1A0A01F0DBBD90ED170AA7
:1014F00001F0D7BD90F83B1004291CBF90F83020B4
:101500000A2A22D1002180F83B1080F8EC10A0F8C4
:10151000181180F81A11A0F81C11C0F82011C0F899
:10152000381180F82411DFF86C28D0F8E01081FB26
:101530000232921002EBD272C0F8E82000214FF480
:10154000FA72C0F8E82080F83010012180F83411D8
:101550000021DFF824040180418081807047000071
:10156000CDCCCC3DB0EDB7490000054410B50446E4
:10157000206800F014FD002184F8301084F8341144
:1015800010BD0000D0F840250021D2ED060AD2EDB2
:10159000071A9FED2C1A20EE811A21EE211AD2EDA6
:1015A000130A8268535EB2F90220C0EE810A01EE8E
:1015B000103AB8EEC11A01EE902A21EE601AF8EE48
:1015C000E11A01EEE01AF6EE000A61EE200AF4EEEE
:1015D000400A028FF1EE10FA1DDB0AB1521E02879B
:1015E00030EEC00ADFEDCC0AB4EE600AF1EE10FA7C
:1015F00020D490F9D820521E53B213F1130FB8BF64
:101600006FF0130280F8D82090F9D800002858BF56
:101610000121084670474EF6602C30EE600A6245A4
:10162000DFEDBD0ABCBF521C0287B4EE600AF1EECA
:1016300010FADED590F8D820521C53B2142BE1DBFF
:101640001422DFE7000080470021C0F8B810C0F87E
:10165000BC10C0F8C010C0F8C410C0F8C810704763
:1016600070B504462DED068BD4F84005A168D0ED89
:10167000060AB1F90C20D0ED071A9FEDBC1A20EE36
:10168000811A21EE211AD0ED130A00EE102AC0EEC5
:10169000810AB8EEC00A94ED2E1A606800EE201A96
:1016A00084ED2E1A00F0DAFC616800EE100A48881A
:1016B00000EE900AB8EE400AF8EE600A20EE200A2A
:1016C0009FEDAB1AA06820EE010A84ED170ADFED4A
:1016D000A90AB0F91610A06801EE101AB8EEC11AE6
:1016E00021EE000A94ED2F1A00EE201A84ED2F1A35
:1016F0000125B0F9181094ED171A206900EE101AA0
:10170000B8EEC00A20EE010A94ED301A00EE201A5D
:1017100084ED301A00F04BFC46F2676110FB01F1DA
:10172000881400EBD07000B200EE100AD4F8C800A4
:10173000D4ED110A94ED311AB8EEC00A42F21071DC
:1017400000EE201A401C884284ED311AC4F8C8000B
:10175000C0F0DE8000EE100AB8EE400AD4ED2E0A8A
:10176000C0EE808AD4ED2F0AC0EE809AD4ED300A04
:1017700080EE80AAD4ED310A80EE809A2046FFF7F1
:1017800063FFB5EE409AF1EE10FA00F0C1802069D7
:1017900000F00DFCC0EB00118800DFF8F82580FB9D
:1017A0000232921002EBD27200EE102AB8EEC00A9A
:1017B000BDEEC00A10EE106A9FEDAD0A29EE008A58
:1017C00094ED180A40EE689A94ED190A28EE000A82
:1017D00000EE28AA29EEA90A0AEE0A0AB5EE400A86
:1017E000F1EE10FA02DBF1EEC08A01E0DFEDA18A32
:1017F000B4F8181104F1F00000EB8100C0ED008A8C
:1018000004F58270B4F8181100EB810080ED008AB5
:10181000B4F81801401CA4F8180180B2052804D3BC
:101820000020A4F8180184F81A5194F81A21002A0B
:1018300050D0D4F8E00001F039FCDFF85C25DFF887
:101840005C3501F057FC01F031FDB04242DA05226F
:1018500004F1F00104F5827000F00EF99FEDCD2A3D
:10186000F0EE681AB0EE481A204600F057F800284B
:1018700094F8EC000ED050B9D4F8E410DFF820054D
:10188000711881FB002000EBD070C4F8380184F897
:10189000EC501FE0012815D19FEDBF0A29EE000A88
:1018A000D4ED110A80EE200A0021BCEEC00A84F8B3
:1018B000EC1084ED480AA4F81C110425BDEC068B3D
:1018C000284670BDB4F81C01401CA4F81C0180B26D
:1018D00004280FDA206A01F006FD002894F8EC00D5
:1018E0000AD038B10021A4F81C110225BDEC068BEA
:1018F000284670BD032508E050B1D4F83811B14234
:1019000006D2206A01F0F9FC02250020A4F81C018F
:101910002846BDEC068B70BDCDCC4C3E01EE200AB6
:10192000B7EE001A32EE011AF7EE002A21EE001A85
:1019300032EEC22A014622EE000A0020B4EE610A0D
:10194000F1EE10FA44BFF4EE411AF1EE10FA0BD5A5
:101950009FEDCA0A91ED111A80EE010AB4EE600AF9
:10196000F1EE10FA48BF01207047000000008047E8
:101970000000803746CD9337AC0F002030B50546C8
:1019800081B095F83C05012490B9286801F07AFEF1
:1019900041F28830A5F82E014FF47A710020C5F885
:1019A000B400A5F82C1185F83C45204601B030BDA7
:1019B000B5F82E01002853D0401EA5F82E019FED4A
:1019C000CD0A05F59E714020D1ED000A30EE200AC7
:1019D000D1ED010A30EE200AD1ED020A30EE200AE4
:1019E000D1ED030A1031401E30EE200AECD1DFEDBC
:1019F000C20A20EE200A9FEDBF1A05F59E71402015
:101A0000D1ED001A91ED012AD1ED022A91ED033AB0
:101A100071EEC01A32EE402A01EEA11A72EEC02A0F
:101A200002EE021A103133EE403A02EEA21A401EC4
:101A300003EE031AE4D121EE200ADFEDC70AB4EE6B
:101A4000600AF1EE10FAA8BF4FF47A7003DAB5F825
:101A50002C0128B1401EA5F82C0101B0204630BD54
:101A6000002085F83C050024204601B030BD000070
:101A7000DB0FC9400000000003460FF2503070B485
:101A800090EC021A90B202EE100A81B09FED990A12
:101A9000DFED980AB8EE422ADFED962A002458B30B
:101AA000C5070AD593ED000A30EE200AD1ED000AF1
:101AB0009FED903A70EE830A0124400800F01C80EC
:101AC00003EB840501EB840695ED003A30EE030A42
:101AD000641C96ED003A03EB840570EE830A95EDE5
:101AE000003A01EB840630EE030A641C96ED003ADE
:101AF000401E70EE830AE3D180EE023A002094B2D9
:101B0000D4B392B2D40710D5D3ED002A91ED004A98
:101B100072EEC33AF0EE614ADFED762A43EE844A74
:101B200043EEA32AF0EE641A0120520800F024804C
:101B300003EB800401EB8005D4ED003AD5ED004ABB
:101B4000401C73EEC33AB0EE614A03EB800401EB34
:101B5000800503EEA44AD4ED004A401C74EEC34A4B
:101B600043EEA32AD5ED003A04EEA34A521E44EEFA
:101B7000A42AF0EE441ADBD101B070BCC1EEA22A57
:101B800040EE620AF0EE621A80EE820AF0EE610A1E
:101B900070470000CDCCCC3D0000704230B581B024
:101BA00004462DED028BD4F8E80094ED390A00EEDE
:101BB000900AB8EEC00AF8EE600AC0EE200A9FED67
:101BC0006C1A20EE818ADFED6B0AB4EE608AF1EECA
:101BD00010FA09DB00EB801000EE100A84ED390AE0
:101BE000B8EEC00A9FED648AF2EE040A20EE200AE5
:101BF0009FED621A80EE010ABDEEC00A10EE105A87
:101C000029B2204600F022F8206A2AB2012101F010
:101C10008CFD206A2AB2022101F087FD206A2AB2D7
:101C2000032101F082FD206A2AB2042101F07DFD2A
:101C3000BDEEC80A10EE100A82B2206ABDEC028B1B
:101C4000012101B0BDE8304000F02BBA00EE101ABF
:101C5000B8EEC00ADFED4A0A20EE200AB5EE400ACF
:101C6000F1EE10FA48BFB1EE400ABDEEC00A10EE28
:101C7000101A406A89B201F05EBD000017B7D13A70
:101C800000EE101AB8EE400A80ED110A704700000D
:101C900030B5F5EE000A044660EE200A81B0C4EDCE
:101CA000160A84ED140A84ED150ADFED360AD4F81D
:101CB000400520EE200AD0ED060A20EE200AD0EDE5
:101CC000070A20EE200AD0ED130AA06A80EE200A4F
:101CD000BDEEC00A10EE105A10B1A9B201F02EFDEF
:101CE000E06A28B1A9B201B0BDE8304001F05CB9AA
:101CF00001B030BD000000000000803B90ED150AEF
:101D0000704780ED370A704790ED370A7047000042
:101D100011B9D0F84015496C1E4AC0F8E01081FB9B
:101D20000232921002EBD27200EE101AC0F8E820D4
:101D3000B8EEC00ADFED140A20EE200A4FF4FA7262
:101D4000BDEEC00AD0F8E010C0F8E82080ED390AF6
:101D5000C06A01F069B900000BD7233CD0F8E0005D
:101D60007047D0F8E4007047D0F8E80070470000F2
:101D700000007A4401FF7F4700E87D470000704281
:101D8000CDCC8C3F00008047CDCCCC3E5EEA0F002E
:101D9000C58D4806676666669A9999999999B93F7B
:101DA0005655555590ED150A704780ED4C0A704711
:101DB00090ED4C0A7047D0F84005B0F848007047E5
:101DC000D0F8400590F84A0070470000000000007D
:101DD00000000000002181604160C16001610121BB
:101DE0004161704781B0C3688268012B09D90169DC
:101DF0008A185B1EC3608260406992FBF0F001B0FC
:101E0000704704D1426841694A430021C160826041
:101E1000406992FBF0F001B07047407B7047416A27
:101E2000002918BF08477047816A002918BF084772
:101E30007047C1690847F0B40246106895681318E6
:101E4000506803EB5004C00721D54D441FE0F0BC9F
:101E500002F10C00704713F8017B05F8017B491E65
:101E6000F9D1A0B1B60813F8011B06F00306032E42
:101E700008BF13F8016B01EB06214942801C29447D
:101E800005D011F8016B05F8016B401EF9D1A34292
:101E9000DDD013F8016B16F0030104BF13F8011B2A
:101EA000C91C30090F28DAD113F8010B0F30D6E71F
:101EB00010B582B002780024142A0ED8DFE802F0B0
:101EC00019235B2F4A595B5D5F660D0D0B292B2D86
:101ED000393B435241000A005CD003291CBF012951
:101EE000072903D00022802101F02CFC204602B0FB
:101EF00010BD0A46032A4DD0012A49D101240170A0
:101F0000204602B010BD072918BF0D2942D00E2966
:101F100036E00E2918E00F2916E0022914E00729FF
:101F200018BF102936D0042918BF112932D0012931
:101F300026E0112908E0122918BF07292AD0142900
:101F40001EE0122900E0042915D101240170204669
:101F500002B010BD0A46132A07D1012401702046A1
:101F600002B010BD0A46042A14D0072A12D0052A4E
:101F700006E006290ED0072902E0082900E0092919
:101F8000ABD101240170204602B010BD0A0001D07F
:101F90000C2AA2D101240170204602B010BD816834
:101FA000084701EB410300EB830002827047B0F960
:101FB000040070472DE9F04705460F46A868696997
:101FC0005FEA020890FBF1F40CD1384601F0D6FB31
:101FD0006861474300202861AF600021E96001206B
:101FE000BDE8F0873E1B304601F0C8FB8146204625
:101FF00001F0C4FB8246384601F0C0FBD14528BF42
:10200000D146814588BF8146C5F8149009FB04F488
:10201000AC606F602868084A08FB00F8A8FB022142
:102020006869490A491C464396FBF1F02861E9605A
:102030000120BDE8F08700BF986E128301460020A2
:10204000C96801B90120704700B581B0C36A012297
:102050000BB198470246104601B000BDC0887047DA
:102060000021C160016170478183012202FA01F100
:10207000018370478180704730B5044681B00125E7
:10208000E1838D406583C5EBC53101F08AFBA5EB8B
:10209000C531204601B0BDE8304001F084BBC180AD
:1020A000704701EB410300EB8300828170470078A9
:1020B000704740697047B0F90000704701B481B0C3
:1020C00044F6E612BDF90400ADF8000001460B48E5
:1020D00011FB00F0BDF9061011FB02F2A0EB42006B
:1020E000C01300F30F00ADF8020010F5004F04BF5D
:1020F0000349ADF80210009802B070471AB6FFFF0E
:102100000180FFFF31B582B008B201F053FB0190AE
:10211000BDF90420BDF90830BDF90600BDF90A106B
:1021200013FB02F400FB1144E41304F30F04ADF8B5
:10213000004013FB00F0BDF900500A4CA54204BF5B
:10214000094DADF8005011FB0200C01300F30F0061
:10215000ADF80200A04204BF0348ADF802000098A9
:1021600003B030BD0080FFFF0180FFFFF0B4B0F985
:102170000430B0F91450B0F91660B0F9062000240C
:102180004B430AB9002115E0514382688F1806D5E8
:10219000002AC8BF002906DD6FF0004703E0002ACF
:1021A00044BF0029104FC168B94203DB0169B9423D
:1021B000B8BF394681600A46818BC78B0B4142FA12
:1021C00007F1CB189D4206DAEC1AA4182B4684605E
:1021D00018B2F0BC7047B342BCBFF41A3346A4181F
:1021E000846018B2F0BC70470100008002B481B076
:1021F0000091BDF90430BDF9062013FB03F112FB79
:10220000021C01884943614518D290F8B2104FEA88
:102210001C6CACEB010C5FFA8CFC00EB4C00808872
:10222000434342439913901303EB514302EB504253
:10223000DB13D213ADF80030ADF80220009802B0E5
:10224000704711B583B008B201F0B4FA0190BDF93E
:102250000420BDF90C30BDF90600BDF90E1013FBCA
:1022600002F411FB004411FB02F100FB1310C01338
:10227000E413ADF80200ADF80040009804B010BDC2
:1022800070B481B002B481B0B0F85030BDF90650DE
:10229000BDF90420018E5D436D424A436D00511922
:1022A000AA1A01EBD17102EBD27249105210002927
:1022B00048D5002A17D5042480F83A408C1A6514B2
:1022C00004EB9534A41404EB930314140D1402EBE3
:1022D000D43201EBD53103EB6242A3EB61410C46F2
:1022E0001D46164675E02C14002D05EBD43414DC85
:1022F000032180F83A10AD1A691405EB9135AD143D
:1023000005EB9303151402EBD53203EB6242A2EB0B
:1023100064410C4615461E465BE0022280F83A20D6
:102320004D1B6A1405EB9235AD1405EB93030D14A8
:1023300001EBD531A3EB614101EB644214460D463C
:102340001E4646E0002A16D4012480F83A408C1A32
:10235000651404EB9534A41404EB9303141402EBFA
:10236000D4320D1403EB624201EBD531A3EB614192
:1023700014461D462CE02C14002D05EBD43414DC3F
:10238000052280F83A204D1B6A1405EB9235AD14F6
:1023900005EB93030D1401EBD531A3EB614101EB88
:1023A00064421C460D46164613E0002180F83A10A0
:1023B000AD1A691405EB9135AD1405EB93031514B3
:1023C00002EBD53203EB6242A2EB64411C46154698
:1023D0000E46C186A0F84060C58784874386828602
:1023E000B0F84E10012919D1B0F94830418EB0F83B
:1023F0005420002BCCBF5118891A4186B0F94A30BD
:10240000818E002BCCBF5118891A8186B0F94C30CF
:10241000C18E002BCCBF52188A1AC286816903B0C4
:1024200070BC08472DE9F04F054685B0B5F92A0084
:102430006B6EC0EBC0329A42B8BF6A6604DBA0EB99
:10244000C0309842A8BF68666E6EB5F81A01AB6ED0
:102450000641B5F92A009A4236B2B8BFAA6604DB33
:10246000A0EBC0309842A8BFA866AA6EB5F81A01C2
:10247000EB6D42FA00F00FFA80FBB5F92800C0EBD3
:10248000C0329A42B8BFEA6504DBA0EBC030984284
:10249000A8BFE8652B6EB5F928009A42B8BF2A6636
:1024A00004DBA0EBC0309842A8BF2866B5F818310D
:1024B000EA6D88882F6E049742FA03F4201A00B25E
:1024C00047FA03F3ADF80230BDF80270CB88FB1A6F
:1024D000B5F9207003971BB20F890297B5F91CA0BC
:1024E000029FB5F91E90B5F924E0DDF80C801AFBC7
:1024F00004F4121BB1F900407C4310FB09222414A0
:102500001EFB042206FB1828B5F926200192EA8D4D
:102510008DF80020B5F922C06C6E9DF80070B5F9F9
:10252000062010FB0C404BFA07F4019F14FB02F449
:1025300007FB0404BDF90200049F1AFB00F03F1AD8
:1025400013FB0979029FB1F90200784300141EFBC6
:102550000091A86EDDF80C9013FB0C039DF80000B1
:102560000BFB191946FA00F00199A5F86C60A5F863
:102570006EB010FB02F2B5F920019A460028B5F9B9
:10258000000001FB12AA54BF01274FF0FF3701F0F2
:1025900011F900901BFB07F0BDF90010404210FB41
:1025A00001F1BDF902007E43490016FB00F0091459
:1025B0004000A1EB204105F13000FFF7D7FD95F871
:1025C000F01095F80A212881491CC9B2914208BF30
:1025D000002105EB4102B2F87030A5F80831A2F8ED
:1025E000700085F8F010298840182880C5F85C80B4
:1025F0006C66C5F86090C5F868A0B5F9000005B034
:10260000BDE8F08F10B490F80A4190F80B1190F8E3
:10261000F020D0F80431611A07D100F1700131F9CE
:1026200012105A18B0F908110DE08918A142ACBF78
:102630000C1B0C4600F1700131F912105A1800F110
:10264000700131F91410511AB0F81C21C0F80411AE
:1026500041FA02F3C38010BC7047F0B490F82F2009
:102660000124012A08BFB1F900203DD0437BB0F915
:102670000650828D468895FBF3F3AA189E1990F8B0
:1026800028308285012B46802ED1B0F92A3043B9FB
:10269000CA5E80F8294000210173028010B2F0BCAC
:1026A00070475B1E4385002DB1F90060B0F93270B0
:1026B00052BFB51A951B4FF0FF342DB215FB03F333
:1026C00093FBF7F313FB04F3002D1BB208D4012294
:1026D00080F82E200988CA1A028010B2F0BC704718
:1026E00090F82E1001B19A19028010B2F0BC704718
:1026F00010B50446DFF828092061FFF76BFB0020C6
:10270000A4F85800A4F85A0020626062A062E06257
:102710002065D4F89C00C16BC4F8801081692163E6
:10272000002184F83410A163E163A4F84010A4F8F8
:102730004C10A4F84E1090ED000AD0ED070AB8EE48
:10274000400A20EE200ABDEEC00A10EE101AA4F8CE
:102750005C1090ED090AD0ED070A80EE200ABDEE6C
:10276000C00A10EE101AA4F85E1090ED000AD0ED29
:102770000C0AB8EE400A20EE200ABDEEC00A10EEA8
:10278000101AA4F8601090ED000AD0ED0D0AB8EE12
:10279000400A20EE200ABDEEC00A10EE100AA4F88E
:1027A0007400002084F862006066A06684F86C0003
:1027B0002067D4F89C0090F82010D4F89C0084F88E
:1027C0007610418CA4F87810016CC4F88410416C28
:1027D000C4F88810806CC4F88C000020C4F8900005
:1027E000C4F8940010BD90F8621079B9002280F806
:1027F00034208163C163A0F84010A0F84C10A0F809
:102800004E10C0F89010C0F8941070470A2180F85C
:1028100034107047002180F8341070472DE9F041E2
:10282000054695F834002C69092800F2EF82DFE8AC
:1028300010F00A004800ED02ED02ED02A000CB000E
:102840004501710111026A68002082F8240000210C
:10285000E86800F0FBFF01200021A5F84A00A96309
:10286000E963A5F84010A5F84810A5F84C10A5F8A4
:102870004E1085F86C102868FFF799FBC0EB00112B
:102880008800DFF8A03780FB03639910002201EB7A
:10289000D1712046FFF78EFBD5F880104FF47A7285
:1028A0002046FFF787FB012085F834006868B0F9FF
:1028B000101000EE101AB8EEC00A85ED240ABDE82B
:1028C000F0812046FFF78EFA00EE100AB8EEC00A3B
:1028D00085ED1C0A284600F0D1FA06462046FFF78F
:1028E000ADFB002800F09282B5F84E00401C012E8E
:1028F000A5F84E0005D0B5F8741080B2814280F082
:1029000085822868FFF753FBC0EB00118800DFF8D1
:10291000142780FB0232921002EBD27200EE102AD2
:10292000D5F89C00B8EEC00A85ED140A41F2883251
:10293000D0ED0A0A60EE200AFDEEE00A10EE901AD1
:10294000A5F85810D0ED0B0A20EE200ABDEEC00A03
:1029500010EE101A0020A5F85A10E863A5F8400000
:102960006864A5F84E0009B22046FFF723FB052056
:102970004AE22046FFF736FA00EE100AB8EEC00A27
:1029800085ED1C0A284600F079FA06462046FFF736
:1029900055FB002800F03A82B5F84E00401C012E8D
:1029A000A5F84E0005D0B5F8741080B2814280F0D1
:1029B0002D820020E863A5F840006864A5F848006F
:1029C000A5F84E0006201FE295ED1C0A284600F0EF
:1029D00055FA2868FFF7EBFA00EB80025200DFF8A7
:1029E0004406E96BB5F85C6082FB0030801000EBB8
:1029F000D0706A684118E963A86BB2F90C30B5F879
:102A00004020C0186B6C521C97B25B1CBE42A8637E
:102A1000A5F840206B6480F0F98192B291FBF2F14D
:102A2000B5F84820A5F84810521AA5F84A2016B261
:102A3000002E44BF324652420021E963A5F84010FF
:102A4000B5F86010994203DB12B2042A00F3DE816C
:102A500090FBF3F0A882DFED7E0AB5F9480095F807
:102A6000761000EE100AB8EEC00A01EE101A60EE01
:102A7000200AB8EE411A60EE810AC5ED060A286800
:102A8000FFF795FAC0EB00118800DFF89825B5F93B
:102A9000581080FB0232921002EBD27200EE102A24
:102AA0000022A5F84E20B8EEC00A85ED1C0A41F2BE
:102AB00088322046FFF77EFA0720A5E12046FFF77F
:102AC00091F900EE100AB8EEC00A85ED1C0A2846FE
:102AD00000F0D4F906462046FFF7B0FA002800F0CF
:102AE0009581B5F84E00401C012EA5F84E0005D08A
:102AF000B5F8741080B2814280F088810020A8630C
:102B0000E863A5F840006864A5F84800A5F84E0001
:102B1000082079E195ED1C0A284600F0AFF92868F5
:102B2000FFF745FA00EB80025200DFF8F804E96B8A
:102B3000B5F85C4082FB0030801000EBD0706A6812
:102B40004118E963A86BB2F90C30B5F84020C01801
:102B50006B6C521C96B25B1CB442A863A5F8402073
:102B60006B6480F0538192B291FBF2F1B5F848208A
:102B7000A5F84810521AA5F84A2014B2002C44BFF8
:102B8000224652420021E963A5F84010B5F86010D2
:102B9000994203DB12B2042A00F3388190FBF3F070
:102BA000E882DFED2B0AB5F9480095F87610B5F903
:102BB000162000EE100AB5F91400B8EEC00A01EEB6
:102BC000101A60EE200AB8EE411A20EE810A00EEDB
:102BD000900AB5F91600B5F9141085ED070A01EE53
:102BE000100AF8EEE00AB8EEC11A70EEC10A95EDCF
:102BF000061AE86831EE400A80EE800ADFED840AAA
:102C0000B4EE600AF1EE10FA48BFB0EE600A85ED4E
:102C1000080A95ED060AD5ED070A30EE600A9FED29
:102C20007D1A20EE010A85ED090A8A42D5ED070AD0
:102C300030EE200A85ED090AB2BF00220022B5F964
:102C4000781000F007FE0020A5F84E000920DBE018
:102C50009CC4203FB5F84E00401CA5F84E002868E3
:102C6000FFF7A5F900EB80025000DFF8B83395F8C4
:102C70007610D5ED091A80FB03439B1000EE101A65
:102C800003EBD373F8EE400A01EE103A9FEDD60A3B
:102C9000B8EEC11A21EE001A21EE201AB4EE611A24
:102CA000B5F84E10F1EE10FA06DAB5F8740000EB44
:102CB0004000884280F2AA80D5F89C00AE68D0ED32
:102CC000001AB3EE0E2A01EE101AB8EE411AF8EE11
:102CD000611A81EE211AF6EE001AC1EE811A61EE38
:102CE000821AC5ED0C1A85ED0A1A102195ED082AF5
:102CF00021EE022A62EE211A21EE800A20EE200A3D
:102D000085ED0B2A85ED190AC0EE010A90ED001A37
:102D1000B8EE411AC0EE810AC5ED1A0A10274FF02D
:102D200000080F2047F6FF725FF0010303FA00F47A
:102D300001EE104AB8EEC11A21EE001ABDEEC11A1A
:102D400011EE104A944204DA41B202E0BCF1100FD5
:102D5000ECD01FFA87FCBCF1100F0ED103FA00FC77
:102D600001EE10CAB8EEC11A21EE201ABDEEC11A4A
:102D700011EE108A9045B8BF47B2401E1FFA81FC81
:102D8000E4D5BCF1100F07D089B23046FFF76CF9DB
:102D900021B23046FFF76EF9B8B2102808D0B9B2A8
:102DA0003046FFF769F90FFA88F13046FFF777F9F7
:102DB000B5F97810304600F09BFDB5F8781049421F
:102DC00009B2304600F096FD304600F095FD04460D
:102DD000B5F8780044432146304600F0E2FC6442F6
:102DE0002146304600F0DFFC012085F86200012119
:102DF000E86800F02BFD2868FFF7D9F80146E8687D
:102E0000002200F027FD0A2085F83400BDE8F0819B
:102E10000AD7233CAE47213F10B5044694F8620020
:102E2000A8B96068002180F82410E06800F00EFD69
:102E30006068B0F91010E068002200F00BFDE06857
:102E4000BDE810404FF47A62002100F003BD10BDD0
:102E5000002180F86210704790ED140A00F021B94B
:102E60000B20704790F8340070470146002091F81D
:102E700034100A2908BF01207047000030B504460D
:102E800081B000252DED048BD4F89C00D0ED0E8A86
:102E90002068B0EE408AFFF78AF8C0EB0011890085
:102EA000604A94ED221AD4ED210A81FB023292107D
:102EB00002EBD27200EE102AB8EEC09A38EE490A40
:102EC000B5EE401A60EE800AF1EE10FA08BF9FEDF1
:102ED000520A09D0D4ED251A70EE611A94ED240A35
:102EE00001EE810A70EE800AB4F8780084ED240ABD
:102EF000014601EE101AB8EE411AB4EE601AB0EEB7
:102F0000600AF1EE10FA48BFB0EE410A404201EE0D
:102F1000100AB8EEC11AF4EE410AF1EE10FA48BFF9
:102F2000B0EE410A70EEC00A94ED231AE068BDEEDF
:102F3000C00A60EE810A10EE101AC4ED250A0022C4
:102F400009B200F087FC28EE280AB4EE409A94F902
:102F50006C00F1EE10FA1CD4B4EE489AF1EE10FABF
:102F60000AD4B0EE000A30EE680A20EE080AB4EE89
:102F7000409AF1EE10FA0CD5401C41B21429A4BFBE
:102F80001420012584F86C002846BDEC048B01B0A8
:102F900030BD002084F86C002846BDEC048B01B0E5
:102FA00030BD80F876107047A0F87810704780ED3B
:102FB0000C0A704790ED0C0A70470000D0F89C1086
:102FC00090ED0B0A90ED261ADFED140A60EE200A50
:102FD00060EE810A91ED130A91ED141A20EE010AB8
:102FE00080EE800A704700009CC4203FD0F89C10FF
:102FF00090ED080A90ED261ADFED080A60EE200A2F
:1030000060EE810A91ED130A91ED141A20EE010A87
:1030100080EE800A7047000000000000CB151E35CE
:10302000E00B002067666666C0F88010704780ED90
:10303000260A704790F862007047014600208968B0
:1030400001B901207047014600200A780B2A04D1FB
:1030500009200870002088800120704730B50446A0
:1030600081B0154604F13000FFF704F8294604F159
:10307000300001B0BDE83040FFF711B8B0F90600EC
:10308000704770B504460D46164604F1300000F056
:1030900033FC00FB05F104F1300000F02FFC26802A
:1030A00070BD2DED010A009801B07047C11768B1DD
:1030B0004840401AB0FA80F29040D21CC907C2F5CD
:1030C000846241EA025202EBD0214005704790F839
:1030D0001C1169B90022012180F81D2180F81C1102
:1030E000D0F82001C16841F02001C1600220704782
:1030F00001207047B0B581EA030C0CF0004C40F29F
:10310000FF7515EA11541DBF15EA1357AC42AF42C3
:1031100039E0E41923EA455343F48013C90241F02E
:10312000004141EA505EC7021100A7FB02020028DD
:103130004FF00000EEFB01204FF00001E3FB072100
:1031400018BF42F00102401800214941E3FB0E0183
:10315000A4F580640F0302D252004041494154F16A
:1031600001046CDD470872F1004250F1000051EBA0
:103170000451A1F580115CBF41EA0C01B0BD4CEADD
:1031800005510020B0BD05EA1357AC4214BFAF4251
:1031900041E050EA410E1CBF52EA430E02E0614694
:1031A0000020B0BD24423C441BD15FEA070EF6D09C
:1031B000090302BF01460020AEF1140EB1FA81F7F7
:1031C000AEEB070401FA07FE0C37C7F1200100FA45
:1031D00007F7C8404EEA000E23EA455343F4801334
:1031E000A2E733F00043B3FA83F704BFB2FA82FEDA
:1031F00077440B3FE41BB7F1200E2FBF02FA0EF30A
:10320000BB40C7F1200E22FA0EFE38BF43EA0E0380
:10321000BA40641C82E750EA410E14BF52EA430EE2
:103220006FF000014FF4001717EB430F8ABF1946E8
:1032300017EB410FB5E74CEA05510020B0BDD4F1C2
:103240000104B4F120070FDAC4F12007520828BFA7
:1032500042F0010210FA07F501FA07F7E1BF2A432D
:10326000E0403843E1400FE0352C98DCC7F1200402
:1032700052EA400220FA07F218BF42F0010231FA86
:1032800007F0A1400A43002172F1004250F1000012
:1032900051EB0C01B0BD0146002091F87420012AC9
:1032A00003D10023402081F874307047C1F30A53E2
:1032B00040F2FE329B1A14DDD3F120034FEAE17293
:1032C00008DDC90241EA505141F00040D840801861
:1032D0005040704703F2E13010B1D24382F0004019
:1032E0007047002070470146002091F8582091F85F
:1032F00049108A4228BF0120704710B5C46E0021D2
:10330000816081802046FEF752FE01462046BDE8DE
:103310001040002200F0F4BA70B4826F5268136A51
:1033200023F48053136290F87320102A18D2826F0E
:1033300090F87240C36D02EB8405AE6B326890F872
:103340007240D318826FC36502EB84052E6D036E45
:103350003268D318036690F87320521C80F87320EB
:1033600000200880488070BC704730B481B0816F05
:103370004A6890F84710002943D102F1180100254E
:103380000C6824F0730444F060040C60146A44F088
:1033900001041462146A24F0040414625563846FF7
:1033A00094F86E40012C0DD10C6824F4E64444F4EA
:1033B00080540C60136A23F010031362136A43F005
:1033C00040030EE0022C0DD10C6824F4E64444F4D2
:1033D00000540C60136A43F010031362136A23F065
:1033E0004003136251F8043F23F0730343F070036A
:1033F0000B60116A21F480711162116A21F48061FD
:1034000011620FF2A5110FF25112416142600FF2E9
:10341000E111C1605F498160012180F8471001B06E
:1034200030BC7047816F90F847204968012A00D06E
:10343000704730B481B00B68DA06FCD50A68D30651
:10344000FCD4826F92F86D300B6301F1180214689E
:1034500024F0730444F0600414600C6A44F0010426
:103460000C62846F94F86E40012C03D10C6A44F016
:10347000040404E0022C03D10C6A24F004040C625E
:10348000B0F8704064084C63156825F4E64545F4CF
:10349000C04515600B6A43F010030B62836F93F80D
:1034A0006E30012B03D10B6A43F0400304E0022B82
:1034B00003D10B6A23F040030B62B0F870305B0855
:1034C0008B6352F8043F23F0730343F060031360EF
:1034D0000A6A42F480720A62826F92F86E20012AB0
:1034E00003D10A6A42F4806204E0022A03D10A6A24
:1034F00022F480620A62B0F870205208CA63816FB9
:1035000009684A6822F480524A602349416023498D
:1035100041612349C1601F498160002180F8471043
:1035200001B030BC70470246906FB2F8703040680E
:103530005943090C5186032182F83A10518E416398
:10354000006A118F000B012900F0010002D1002355
:103550000120138770470000826F5268136A23F4BA
:1035600080531362026E836F90F83A0003EB80037E
:10357000D3F850C0DCF80000A2EB400209488242B8
:1035800003DD47F6FF70824200DB02460A804A8074
:1035900070470000DB7F0008418D0008A97B000810
:1035A000A58C00080180FFFF816F496800224A63F3
:1035B0006FF001020A610B695FEAC37CFBD50A6107
:1035C0004A6C42F400424A64816F91F86E20022AEC
:1035D0000CD14A6989688A61816F8A69C968120455
:1035E0008A61806FC16900690904816170470000C8
:1035F000F0B481B0826F51681268002380F84230C5
:103600000B68DC06FCD40C68E306FCD501234B6395
:10361000B0F870305B1F0B646FF001030B610C6935
:10362000E507FCD50B614C6C44F480644C644C6C35
:1036300044F400444C64846F94F86E50022D16D10B
:10364000A56864690E6A40F255573E4203D0AC61EA
:10365000846FA56904E02404AC61846FA5692D041E
:10366000E468A561806FC4690069240484616FF017
:10367000040414600B61C86840F00100C86001B028
:10368000F0BC704730B4816F4A6809686FF001037D
:1036900013611469E507FCD5136100235363936339
:1036A000D363B0F870305B1F13641369DC07FCD57B
:1036B000536C43F480635364536C43F4004353648A
:1036C000826F92F86E30022B0AD15369926893612F
:1036D000826F9369D2689361806FC2690069826169
:1036E0008A6842F480128A6030BC704770B4826F7E
:1036F0005268136A23F48053136290F87320102ADF
:103700000ED2826F90F87240436E02EB84052E6DEC
:103710003268D318436690F87320521C80F87320E7
:1037200000200880488070BC704701EB410300EB2B
:103730008300C2817047A0F810117047C1844942CC
:10374000018570470346B3F802C0187841EA0C0CB3
:103750002CEA0202B3F804C041EA0C010A285A809C
:10376000998002D122B90B2001E00AB10A20187019
:1037700070470068012180F81E117047010048BFA2
:10378000494201225FF00100C2F11F0300FA03F376
:1037900099423EBF521CD3B2202BF5D3511E884014
:1037A0007047C1607047016170470068012180F86F
:1037B0001F117047A0F500400004800D10F4407107
:1037C00081B021D0B1F5807F2CD0B1F5007F05D03C
:1037D000B1F5407F0BD0009801B070471A49C2B2D2
:1037E00031F81220ADF80220C0F1FF0023E01649A5
:1037F000C0F1FF02D2B231F81220ADF80220C0B2FF
:1038000031F91000404219E00F49C2B231F91220DB
:103810005242C0F1FF00ADF80220C0B231F91000F1
:1038200040420BE00849C0F1FF02D2B231F9122048
:103830005242ADF80220C0B231F91000ADF80000DC
:10384000009801B0704700BF44810008017000215A
:10385000C16070472DE9F041064682B030780C46D1
:1038600017460125B0B9304600F08CF8F18CB6F956
:103870002820A142B8BF002594421EDB290030D089
:1038800007BB3078270401280CBF7760B7600020A1
:10389000F06025E07068C11300EB1140F18B00145B
:1038A000A142A4BFB6F92420944206DB318C8C429D
:1038B000BCBFB6F92210A142E2DA0025284602B0C8
:1038C000BDE8F0817480B18B084B07FB01F8A8FBC1
:1038D0000332510A271A491C3F04F16097FBF1F0AB
:1038E000B061284602B0BDE8F08100BF986E128337
:1038F00081827047C1827047408B704781607047FA
:10390000134690F82820002A00D07047F0B41A001F
:1039100012D18269818002FB01F3C28AC18402EB69
:103920008204640093FBF4F3447B13FB04F3002252
:10393000C3808284F0BC7047028E114DC184534312
:10394000826902FB01F6C28AA3FB0554B0F9065056
:1039500002EB8207630A447B7F005B1C96FBF7F651
:1039600095FBF4F2838436B212B2B61A36049BB2D7
:1039700096FBF3F254432D04C4610562F0BC70471A
:10398000986E12838068C11300EB114000147047D9
:1039900070B582B08568C468037D55F8236054F81B
:1039A000234000250AB101231370822900F2D58338
:1039B000DFE811F083008900900097009E00AE00C0
:1039C000BC00CA00D100D500DC00E300EA00F3002F
:1039D000FA00010108012301D303D30359013E0179
:1039E000D303D303D30374017B018201D303D30335
:1039F000890199019D01D303A601B001B401BD0164
:103A0000C10199019D01CA01CE01D701DB01E40189
:103A1000E801D303D303F10108021F0233024C0271
:103A20006502D303D303D303D303D303D303D30355
:103A3000D3037E028D02EA009C02B302D303D303B8
:103A4000D303D303D303D303D303D303D303D303C6
:103A5000D303D303D303D303D303D303D303D303B6
:103A6000D303D303D303D303D303CA02D303D303B0
:103A7000D303D303D303D303D303D303D303D30396
:103A8000EC02F0020D03170321032B033503FE02A2
:103A9000B500C300C703D303CB03CF033F034903E0
:103AA000550360036B0374037F038A0395039F032D
:103AB000A703AF03B703D503BF0300F057FB0546C9
:103AC000284602B070BDA06A00F052FB05462846A9
:103AD00002B070BDA06AFEF7EAFA0546284602B0B9
:103AE00070BD304600F04AFB0546284602B070BD66
:103AF000304600F045FBC0EB00118800DFF864267B
:103B000080FB0232951005EBD575284602B070BDDA
:103B1000206800F038FB0546284602B070BD2068DA
:103B200000F034FB0546284602B070BD206800F066
:103B30002FFB0546284602B070BD2068FFF7DCFE6B
:103B40000546284602B070BD206800F024FB0546FB
:103B5000284602B070BD304600F020FB89E1606865
:103B600000F011FB0546284602B070BD606800F009
:103B70000FFB0546284602B070BD606800F00BFBE5
:103B80000546284602B070BD304600F007FB0090A5
:103B9000BDF90250284602B070BDA06800F0F3FAEB
:103BA0000546284602B070BDA06800F0F1FA05464F
:103BB000284602B070BDA06800F0EDFA0546284620
:103BC00002B070BD0169007D51F8201000200A0F7D
:103BD000092A08BFA069C1F30361092908BFE06988
:103BE000002800F047810DF10202694600F0DDFA7D
:103BF000BDF90050284602B070BD0169007D51F842
:103C0000201000200A0F092A08BFA069C1F3036130
:103C1000092908BFE069002800F02C816A460DF1EF
:103C2000020100F0C2FABDF90050284602B070BD92
:103C30000169007D51F8201000200A0F092A08BFF1
:103C4000A069C1F30361092908BFE069002800F0F9
:103C500011810DF10202694600F0ACFABDF9005085
:103C6000284602B070BD0169007D51F82010002087
:103C70000A0F092A08BFA069C1F30361092908BF17
:103C8000E069002800F0F6806A460DF1020100F0BC
:103C900091FABDF90050284602B070BD206B00F0CB
:103CA00098FA0546284602B070BDE06A00F097FA1F
:103CB0000546284602B070BDE06B00F0A3FA054649
:103CC000284602B070BD304600F09FFAC0EB0011EC
:103CD0008800DFF8902480FB0232951005EBD57543
:103CE000284602B070BD304600F099FAC1E0304677
:103CF00000F095FA0090BDF90250284602B070BD60
:103D00006069002800F02B8200F090FA05462846F2
:103D100002B070BD304600F08CFAAAE0304600F0E8
:103D200088FA0090BDF90250284602B070BD3046B6
:103D300000F086FA9DE0304600F082FA0090BDF96E
:103D40000250284602B070BD304600F027FA90E0DD
:103D5000304600F023FA0090BDF90250284602B028
:103D600070BD304600F073FA83E0304600F06FFA21
:103D70000090BDF90250284602B070BD304600F0F8
:103D80006EFA76E0304600F06AFA0090BDF9025013
:103D9000284602B070BD0169007D51F82010002056
:103DA0000A0F092A08BFA069C1F30361092908BFE6
:103DB000E069002800F0D381FEF77DF9054628462A
:103DC00002B070BD0169007D51F8201000200A0F7B
:103DD000092A08BFA069C1F30361092908BFE06986
:103DE000002800F0BC8100F042FA0546284602B0E7
:103DF00070BD0169007D51F8201000200A0F092ACA
:103E000008BFA069C1F30361092908BFE069002860
:103E100000F0A58100F035FA2BE00169007D51F832
:103E2000201000200A0F092A08BFA069C1F303610E
:103E3000092908BFE069002800F0918100F021FA0B
:103E40000090BDF90250284602B070BD0169007DA6
:103E500051F8201000200A0F092A08BFA069C1F3F9
:103E60000361092908BFE069002800F0788100F0AB
:103E700016FA0090BDF90050284602B070BD0169E5
:103E8000007D51F8201000200A0F092A08BFA06900
:103E9000C1F30361092908BFE069002800F05F81D0
:103EA00000F0FDF90090BDF90250284602B070BD47
:103EB000606A00F000FAC0EB00118800A94A80FB9C
:103EC0000232951005EBD575284602B070BD606AC8
:103ED00000F0F3F9C0EB00118800A24A80FB023227
:103EE000951005EBD575284602B070BD0269007DBE
:103EF00052F8201000200A0F092A08BFA069C1F358
:103F00000361092908BFE069002800F0288100F05A
:103F1000D7F90514284602B070BD0169007D51F83B
:103F2000201000200A0F092A08BFA069C1F303610D
:103F3000092908BFE069002800F0118100F0C3F9E9
:103F40000514284602B070BD304600F017F901286C
:103F500030460DD100F0BAF9C0EB00118800814A5B
:103F600080FB0232951005EBD575284602B070BD76
:103F700000F006F9C0EB001292007A4882FB0010B4
:103F8000851005EBD575284602B070BD0125284681
:103F900002B070BDA06C10B1FDF762FA0546E06C8E
:103FA00010B1FEF75FFF2D18EDB2284602B070BDCC
:103FB000A06C10B1FDF752FA0546E06C10B1FEF7A7
:103FC0004FFF2D18EDB26D1E284602B070BDA06CDB
:103FD000002800F0C480FDF77DFA0546284602B0AF
:103FE00070BDA06C002800F0BA80FDF777FA054696
:103FF000284602B070BDA06C002800F0B080FDF72C
:1040000071FA0546284602B070BDA06C002800F089
:10401000A680FDF76BFA0546284602B070BDE06C3D
:10402000002800F09C80FEF717FF0546284602B0E6
:1040300070BDA069002800F09280FDF7EEFE0546F5
:10404000284602B070BDA06C002800F08880FDF703
:1040500055FEFFF726F80546284602B070BDE06C15
:1040600000287CD0FEF7A6FFFFF71BF80546284680
:1040700002B070BDA06C002871D0FDF745FEFFF7BF
:1040800010F80546284602B070BDA06C002866D026
:10409000FDF764FE0546284602B070BDA06C0028FE
:1040A0005DD0FDF785FEFEF7FCFF0546284602B011
:1040B00070BDE06C002852D0FEF780FFFEF7F1FFE4
:1040C0000546284602B070BDE06C002847D0FEF7D8
:1040D0008DFFFEF7E6FF0546284602B070BDA06CD6
:1040E000E8B3FDF75FFEFEF7DCFF0546284602B0A9
:1040F00070BDA06C98B3FDF734FE0546284602B0AB
:1041000070BDA06C58B3FDF72FFE0546284602B0DF
:1041100070BDA06C18B3FDF74EFE0546284602B0F0
:1041200070BDA06CD8B1FDF74BFE0546284602B025
:1041300070BDE06C98B1FEF77DFF0546284602B0E1
:1041400070BD094D284602B070BD1A25284602B040
:1041500070BD0425284602B070BD02B11570284616
:1041600002B070BD676666663F7A1B3A007D704795
:1041700001468888498840EA01407047407E704780
:10418000406800F0ABB8B0F904007047008B70478E
:10419000B0F906007047B0F92200704781B080681E
:1041A00001690091084601B07047C38B0B80408CB9
:1041B0001080704770B504460D46164604F1300075
:1041C000FFF7E1FF288004F13000FFF7E1FF3080C6
:1041D00070BD0146C88849884843000C7047017883
:1041E00069B9038A026AB0F91E10808C9A1A4A4390
:1041F000D11302EB114200EB224000B27047808ADB
:1042000000B27047B0F90401704700B581B0406852
:10421000FDF74FFF01B05DF804EBFDF7C8BE81B0BC
:104220008068C1680091084601B0704790F8480066
:10423000704781B0806801680091084601B07047FE
:1042400081B0806841680091084601B0704781B034
:104250008068D0F816100091084601B0704781B010
:104260008068D0F81A100091084601B07047B0F984
:104270000410B0F90E00C1EBC13191FBF0F000B2B7
:10428000704781B0B0F81811C26D0A41ADF8002036
:10429000006E0841ADF80200009801B0704781B08F
:1042A000B0F96C10ADF80010B0F86E00ADF8020077
:1042B000009801B07047C08B7047B0F92400704778
:1042C000D0F8FC007047D0F8F80070470146002095
:1042D0000A7B012A08BFB1F90E0070474068C1137C
:1042E00000EB114000147047F0B58BB004460F4648
:1042F000154600207A091E468DF804000BD0521E88
:104300000021204600F072FA18B90B208DF8050044
:1043100052E207F01F070C2F00F24B82DFE817F084
:104320004C020D0087003D01490249024701870107
:104330009C01CF01F60107021902297805207E2988
:104340008DF8050000F26F80DFE801F0406D6D48E8
:104350006D53535353535353535353535D5D6D6DCB
:1043600053535353536D6D6D4F4F6D6D6D6D6D6D3B
:104370006D6D6D6D6D6D6D6D6D6D6D6D6D6D6D6D6D
:104380006D6D6D6D6D6D6D6D6D6D6D6D6D536D6D77
:104390006D6D5D5D5D6D6D6D6D6D6D536D6D6D53B1
:1043A0005353535353536D5D6D6D6D6D6D536D6D03
:1043B00053536D6D6D6D6D6D6D6D6D6D6D6D6D6D61
:1043C000485D5D5D5D5D6D6D6D5D5D006A780021D0
:1043D000204600F00BFA8DF80400EDE16A782046E3
:1043E00000F004FA8DF80400E6E101208DF80400E5
:1043F000E5E16A78A87802EB0022204600F0F6F9A1
:104400008DF80400D8E16878AA782B7900EB0222B5
:10441000E87802EB004202EB0362204600F0E6F986
:104420008DF80400C8E102208DF80500C4E1297868
:10443000032282298DF8052000F2BE81DFE811F009
:1044400083009F00830083009F00910091009100F2
:1044500091009100910091009100910091009100D4
:1044600091009100910091009100910091009100C4
:104470009100910091009100BC01BC019F0091004E
:10448000910091008300BC01BC01BC01BC01BC01D6
:10449000BC01BC01BC01BC01BC01BC01BC01BC0134
:1044A000BC01BC01BC01BC01BC01BC01BC01BC0124
:1044B000BC01BC01BC01BC01BC01BC01BC01BC0114
:1044C000BC019100BC01BC01BC01BC019F009F006C
:1044D0009F00910091009100910083009F00910046
:1044E0009100910091009100910091009100910044
:1044F0009100910083009F00BC0191009100910008
:1045000091009100BC01BC019100910083008300E7
:104510009F009F009F009F009F00830091009100DB
:104520009F00BC019100910083009F009F009F00AD
:104530009F009F009F009F009F009F009F009F0083
:104540008300BC01830001AA2046FFF721FA0090F6
:104550009DF80400012840F02F8101236A46F021D4
:1045600039E101AA2046FFF713FA00909DF80400F4
:10457000012840F0218102236A46F0212BE101AAA3
:104580002046FFF705FA00909DF80400012840F04E
:10459000138104236A46F0211DE1297807208DF854
:1045A0000500204600F0ECFA8DF8040004E102A8B2
:1045B00000210022002300252EC02EC0D4F8A82000
:1045C0001278092A02A821D0C2700121D4F8A820AB
:1045D000525C092A1AD00DF10B035A54491CD4F825
:1045E000A820525C092A11D05A54491CD4F8A8209A
:1045F000525C092A0AD05A54491CD4F8A820525CAB
:10460000092A03D05A54491C1C29DFDDD4F8A820FC
:10461000531D5B5C8DF80830D4F8A8200A44D27989
:104620004270D4F8A8201144497A8170B7E0297902
:104630006879AB7801EB00218AB22978687801EBC0
:104640000021E87801EB034101EB0061204600F016
:10465000EBFA8DF80400AFE00DF1060000900DF1CB
:104660000A03297802AA204600F0F4FABDF90A00EC
:104670005B4AC0EB0011890081FB0232901000EB15
:10468000D0708DF80C0003A902124A70082302149E
:104690000016C8708A7003AABDF806000871BDF93B
:1046A000060000124871BDF808008871BDF80800C6
:1046B000000AC871F021A069E569A8477CE0687923
:1046C000A979484B00EB012000B20090A9786878E6
:1046D000EA7800EB0120297900EB024000EB016051
:1046E00000EB80025000E97980FB03630344287AE1
:1046F00001EB00215B118AB203EBD37329781BB263
:10470000204600F0CEFA8DF8040055E0A878E9784C
:1047100000EB01222878697800EB012112B209B27E
:10472000204600F0DAFA01208DF8040047E00295F7
:104730000C208DF805008DF80C6002A82A4D294642
:1047400000F0D8FA00288DF8040040D02B792A68B0
:1047500037E000220DF10801D4F8A800805CB0B168
:104760008854521CD4F8A800805C80B18854521C34
:10477000D4F8A800805C002809D08854521CD4F8D2
:10478000A800805C18B18854521C202AE4DB202A3F
:1047900005DA02A8C2F12001104400F0B5FAA069C0
:1047A000E569202302AAF021A84701208DF8040022
:1047B00005E001218DF805109DF8040038B10023B3
:1047C0000022A069E469F021A0470BB0F0BD0123ED
:1047D0000DF10502FF21A069E469A0470BB0F0BD0F
:1047E0006766666689888888A40F002074B581B0E2
:1047F000C368027D53F82260836853F82250012475
:10480000792900F2B781DFE811F07A00B501B5012E
:104810008200B50198009C00A000A400AC00B0008C
:10482000B400B800C600CE00D600DE00F900B50125
:10483000B50119013401B501B501B501B501B501E5
:10484000B501B501B501B501B501B501B501B501B8
:10485000B501B501B501B501B501B501B501B501A8
:10486000B501B501B501B501B501B501B501B50198
:10487000B501B501B501B501B501B501B501B50188
:10488000B501B501B501B501B501B5015301B501DA
:10489000B501B501B501B501B501B501B501B50168
:1048A000B501B501B501B501B501B501B501B50158
:1048B000B501B501B501B501B501B501B501B50148
:1048C0005B01B501B501B501B501B501B501B50192
:1048D000B501B501B501B501B501B501B501B50128
:1048E000B501B501B501B501B501B501B501B50118
:1048F000B5016E01890192019B01A401AC010199EE
:10490000C9B200F004FA0446204602B070BD019816
:10491000C0B238B9284600F004FA01460022284601
:1049200000F003FA01A80178012940F0248128460B
:10493000FFF726FC00220146CFE00199306809B25A
:104940002CE00199306809B230E00199306809B271
:1049500034E02846FFF722FC00900198ADF80000F3
:1049600012E00199706809B218E00199706809B203
:104970001CE00199706809B220E02846FFF70EFCA0
:1049800000900198ADF802002846009900F0D6F991
:10499000204602B070BD0199B06809B2FDF76AFB0C
:1049A000204602B070BD0199B06809B2FDF777FBEF
:1049B000204602B070BD0199B06809B200F0CDF98F
:1049C000204602B070BD006950F822000025010F9A
:1049D000092908BFB569C0F30360092808BFF56954
:1049E000002D00F0C8806A460DF102012846FFF74D
:1049F000DCFB0199BDF9002009B219E0006950F80B
:104A000022000025010F092908BFB569C0F3036022
:104A1000092808BFF569002D00F0AD800DF10202F4
:104A200069462846FFF7C1FB019ABDF9001012B292
:104A3000284600F094F9204602B070BD006950F895
:104A400022000025010F092908BFB569C0F30360E2
:104A5000092808BFF569002D00F08D800DF10202D4
:104A600069462846FFF7A6FB019ABDF9001012B26D
:104A700018E0006950F822000025010F092908BF3D
:104A8000B569C0F30360092808BFF569002D72D02D
:104A90006A460DF102012846FFF78CFB0199BDF92A
:104AA000002009B22846FEF7D9FA204602B070BDB0
:104AB000019909B2284600F055F9204602B070BDB0
:104AC00001982E4B00EB8001490081FB03630B44EE
:104AD000591101EBD171002209B2284600F046F9C4
:104AE000204602B070BDB06918B10199C9B200F09A
:104AF00044F9306A18B10199C9B200F03EF9B06CBE
:104B000018B10199C9B2FDF7BBF8F06C98B30199DF
:104B1000C9B2FEF746FA204602B070BDB06C50B381
:104B20009DED010AFDF7B4F8204602B070BDF06CAF
:104B300008B39DED010AFEF73AFA204602B070BDB7
:104B4000B06CC0B19DED010AFDF7DBF8204602B064
:104B500070BDB06C78B10199FDF7DAF8204602B06B
:104B600070BDB06C38B19DED010AFDF71EF920460D
:104B700002B070BD0024204602B070BD89888888CC
:104B800070B58368027D0124491E53F822500D2917
:104B900047D8DFE801F041071047471A24292E467D
:104BA00046463307C06850F82200806C08B1FCF715
:104BB000DDFC28460FE0284600F0E1F8062831D158
:104BC000284600F0DFF8204670BD284600F0D7F8F0
:104BD0000028284621D000F0D8F8204670BD28468D
:104BE00000F0D7F8204670BD284600F0D5F82046E2
:104BF00070BD284600F0D4F8204670BDC06850F85B
:104C00002260B06C08B1FCF775FCF06C08B1FEF7DF
:104C10001FF9284600F0BDF8284600F0C9F82046E4
:104C200070BD0024204670BD10B501EB81035B0010
:104C3000074983FB014184681944037D54F823002C
:104C4000491101EBD17109B200F090F8012010BDBB
:104C5000898888882DE9F04381B08846C168007D45
:104C600051F820104C69164699460125A4B1089FB9
:104C70004146204600F0A6F830804146204600F02C
:104C8000A7F8A9F800004146204600F0A8F83880AF
:104C900001B02846BDE8F0830025284601B0BDE8F4
:104CA000F083F0B50C4681B0C168007D51F820104A
:104CB0004F69BDF918601D4621463846FDF7F1F9E8
:104CC0002A4621463846FEF730FD32462146384610
:104CD000FDF767F9012001B0F0BD82B0ADF800101A
:104CE000ADF802208268037D009952F8230002B0DB
:104CF00000F024B800B581B000F078F8012001B0D0
:104D000000BD000001000200002200F0EDB80246E4
:104D1000012092F804C0614501D30020704711754D
:104D200070478068B0F91E0070470182022301219C
:104D3000017603730021C2824176704702B40321D9
:104D40000173BDF800104182BDF80210818201217B
:104D500001760021417601B0704741847047C183DC
:104D600042847047806841828182704701230373C7
:104D7000C181C282037643767047417370470068F1
:104D8000FDF795B9406800F0DEB800680721FDF72F
:104D90008FB80068FEF757B900680121FDF788B8A1
:104DA00010B50446606800F0D6F8A168086110BD2F
:104DB00010B5044603212068FDF77AF8012808BFE2
:104DC000207610BD01EB410200EB82008089704724
:104DD00001EB410200EB8200B0F90E00704701EBDD
:104DE000410200EB8200B0F9100070472DE9F0435A
:104DF00006463C4D0020287083B0307900270028FB
:104E00000C4668D03268F8B26946105C00F0AEF823
:104E10009DF804000022002858D0009B10F00301E8
:104E200000F0148095F800C093F8008005F10409A3
:104E3000BCF11E0F09F80C80BCBF0CF1010C85F809
:104E400000C0521C491E03F10103EBD180083DD084
:104E5000009B29785FFA82FE1E2913F80E3005F1B7
:104E6000040E0EF80130BCBF491C2970521C009B77
:104E700029785FFA82FE1E2913F80E3005F1040E20
:104E80000EF80130BCBF491C2970521C009B2978C8
:104E90005FFA82FE1E2913F80E3005F1040E0EF89B
:104EA0000130BCBF491C2970521C009B29785FFA55
:104EB00082FE1E2913F80E3005F1040E0EF80130A3
:104EC000BCBF491C2970521C401EC1D17F1C3179C6
:104ED000F8B2884296D3281D20602878207103B04C
:104EE000BDE8F083540F0020401810F0030308D0F1
:104EF000C91A1FD3DB0748BF00F8012D28BF20F8CF
:104F0000022D130030B414461546103928BF20E98D
:104F10003C00FAD8490728BF20E90C0048BF40F8F8
:104F2000042D890028BF20F8022D48BF00F8012D6C
:104F300030BC7047C91818BF00F8012DCB0728BF37
:104F400000F8012D7047014600200A78012A04BFAD
:104F5000C8600120704781B0B0F92E10ADF8001084
:104F6000008EADF80200009801B070470E2828D8D6
:104F7000DFE800F008080C0811171C0808080827CB
:104F80002727210011480860007819E00F48821C8B
:104F90000A60807814E00D4800F108020A60007A87
:104FA0000EE00A48021D0A60007909E00748821DE8
:104FB0000A60807904E0054800F10C020A60007B79
:104FC00008710879401C0871704700BFB40C0020BC
:104FD00010B5040001D1012010BD94F83D0028B99E
:104FE000002184F83C10204600F079FA022084F871
:104FF0003D00211D206800F0BEF8012084F83D002E
:10500000002010BD10B5040001D1012010BD94F89E
:105010003D0028B9002184F83C10204600F016FB22
:10502000022084F83D00211D206800F0A4F8012032
:1050300084F83D00002010BD30B5044681B094F8DE
:105040003C0001280D4608BF022067D0012184F8EA
:105050003C1002200C2A84F83D0059D8DFE802F009
:10506000075858581B58585830585858440020680A
:10507000294600F0C6F82068816941F00801816185
:105080002068816921F00401816121688A692869A9
:1050900002438A613CE02068294600F0D8F8206885
:1050A000816941F4006181612068816921F4806136
:1050B0008161206881692A6941EA0221816127E0D2
:1050C0002068294600F0EDF82068C16941F0080128
:1050D000C1612068C16921F00401C1612168CA6908
:1050E00028690243CA6113E02068294600F002F9EA
:1050F0002068C16941F40061C1612068C16921F47F
:105100008061C1612068C1692A6941EA0221C161E7
:10511000012084F83D00002084F83C0001B030BD3F
:1051200010B5044694F83C00012801D1022010BDBE
:10513000012284F83C20022084F83D00204600F043
:10514000FAF838B1012084F83D00002084F83C00D2
:10515000012010BD2068C16821F04001C1602068B5
:10516000C16821F48041C160012084F83D00002025
:1051700084F83C0010BDA44B81B09842D0F800C028
:1051800018BFB0F1804F07D0A04A90421FBFA04A7D
:105190009042A04A90420FD14A6898422CF0700C7D
:1051A00018BFB0F1804F42EA0C0C11D0974A9042E0
:1051B0001CBF974A90420BD0964A90421CBF964A19
:1051C000904205D0954A90421CBF954A904204D126
:1051D000CA682CF4407C42EA0C0C4A692CF0800C22
:1051E00042EA0C0CC0F800C098428A68C2620A68A1
:1051F000826202D109698B4A11600122426101B0C9
:10520000704730B4026A520852000262056A43686D
:1052100084690A6824F0730414438A6825F002053F
:105220001543794A90420BD123F44073CA6825F0A4
:10523000080515434A6913438A6925F00405134399
:105240004360846149684163056230BC704770B453
:10525000026A6D4E22F010020262B042056A436893
:1052600084690A6824F4E64444EA02248A6825F042
:10527000200545EA02150DD1CA684E6925F0800562
:1052800045EA02158A6923F44063164325F0400578
:1052900043EA86034360846149688163056270BCA8
:1052A000704770B4026A584E22F480720262056A36
:1052B0004368C4690A6824F0730414438A6825F4B7
:1052C0000075B04245EA02250DD1CA684E6925F441
:1052D000006545EA02258A6923F44053164325F404
:1052E000806543EA06134360C4614968C16305628F
:1052F00070BC704770B4026A434E22F4805202625E
:10530000B042046A4268C3690D6823F4E64343EA85
:1053100005238D6824F4005444EA053404D14D6912
:1053200022F4804242EA85124260C3614968016406
:10533000046270BC704781B00368D3F808C04A6843
:1053400008682CF0700C42EA0C0C4FEADC0C40EAC6
:10535000CC0CC3F808C04868402813D0502824D08B
:1053600060283AD070284CD108698A68C968D3F897
:1053700008C02CF47F4C41EA0C010A4342EA0022A7
:105380009A603EE00868052808BF01203AD0186AF4
:105390001A6A520852001A629A69096922F0F002E8
:1053A00042EA01129A6118622BE0086989681A6A58
:1053B000D3F820C04FEA5C0C4FEA4C0CC3F820C075
:1053C00022F00A02D3F818C02CF0F00C4CEA001CB2
:1053D000C3F818C01143196213E0086989681A6A92
:1053E00022F010021A629A69D3F820C022F47042A7
:1053F00042EA00322CF0A00C9A614CEA011CC3F87E
:1054000020C0002001B070470000014000040040AF
:1054100000080040000C00400040014000440140F2
:10542000004801403000014082B00020009000227E
:105430007E48416841F480414160416801F4804107
:10544000009100990092036843F080530360006864
:1054500000F0805000900098042002B000F0F8B8EE
:1054600010B586B001A90022002300241CC10CC184
:1054700000686F4A904230D16E4800930022416923
:1054800041F480714161416901F48071009100999A
:105490000092036843F004030360016801F0040113
:1054A0000091009900920721036843F00103036013
:1054B0000322006800F00100009000985E4801910E
:1054C0000292039401A900F029F9032201920292A9
:1054D000039401A9594800F021F906B010BD10B598
:1054E00086B001A90022002300241CC10CC1006861
:1054F000534A904220D14F4800930222416941F023
:1055000001014161416901F001010091009900939D
:105510004021036843F001030360006800F00100CC
:10552000009000980191012003900590029204944C
:1055300001A9424800F0F2F806B010BD10B586B0DF
:1055400069460022002300241CC10CC100683C4AAB
:1055500090423AD13748394C0593026842F0010233
:1055600002600222016801F001010591059905938D
:105570008021036843F002030360006800F002002A
:1055800005900598009101200290049001920392E9
:105590006946204600F0C2F8032000900221012055
:1055A00001910290039104906946264800F0B6F8F4
:1055B0004FF4E060009002210120019102910391DB
:1055C00004906946204600F0A9F806B010BD10B559
:1055D00086B001A90022002300241CC10CC1006870
:1055E000194A904220D1134800930222016941F4E4
:1055F00000310161016901F40031009100990093CB
:105600000C21036843F001030360006800F001000F
:105610000090009801910720059002920394049451
:1056200001A9064800F07AF806B010BD40380240E3
:1056300000200140303802400008024000000240D3
:105640000000014000040240004400407047000098
:105650002A4A13684FF6FF0100020B4000F4E06095
:105660001843274908431060704730B4234B81B07A
:105670001C68C4F30223C3F10704052C28BF0424CB
:105680001D1D072D34BF0023DB1E012505FA04F480
:10569000641E2140994005FA03F35B1E1A40114332
:1056A0000901020004D41748815401B030BC70478E
:1056B000154802F00F02104400F8041C01B030BC81
:1056C0007047010007D4012200F01F010F4B8A40F0
:1056D000400943F820207047401EB0F1807F01D37D
:1056E000012070470A494860F02081F8130D00201E
:1056F0008860072008600020704700000CED00E083
:105700000000FA0500E400E018ED00E000E100E030
:1057100010E000E000F000B8704700002DE9F04F05
:1057200003460C464FF0000881B0C146C2466648A9
:1057300066490F22012505FA08FC25680CEA050ECA
:10574000E64540F0AD806568022D18BF122D10D1DE
:105750004FEAD80503EB85050AF01C062F6A02FA0A
:1057600006FB27EA0B07D4F810B00BFA06F63E4307
:105770002E6203251E68277905FA09F5ED4307F027
:1057800003072E4007FA09F73E431E606668012EA4
:1057900018BF022E03D0112E18BF122E10D19E68F2
:1057A000E7682E4007FA09F73E439E605E6826EAE6
:1057B0000C076668C6F3001606FA08F63E435E60FC
:1057C000DE683540A66806FA09F63543DD6065688F
:1057D000ED0065D5002500954FEA980C0D6845F45D
:1057E00080450D600AF00C060D6805F480450095B3
:1057F00002FA06F7009D364D55F82CB02BEA070744
:10580000DFF8D0B05B4508BF4FF0000B1CD0DFF8CD
:10581000C8B05B4508BF4FF0010B15D0DFF8BCB036
:105820005B4508BF4FF0020B0ED0DFF8B4B05B450C
:1058300008BF4FF0030B07D0DFF8A8B05B450CBFE3
:105840004FF0040B4FF0070B0BFA06F63E4345F8FA
:105850002C606FEA0E0C056866680CEA0505F70314
:1058600048BF4EEA05050560456866680CEA05050F
:10587000B70348BF4EEA05054560856866680CEACF
:105880000505F70248BF4EEA05058560C5686668EC
:105890000CEA0505B60248BF4EEA0505C0F80C50F3
:1058A00008F10108B8F10F0F0AF1040A09F1020921
:1058B0007FF640AF01B0BDE8F08F000081B002B9C3
:1058C0000904816101B07047003C01404438024046
:1058D0000838014000000240000402400008024075
:1058E000000C02400010024010B586B000F0D6F95E
:1058F00000F08BF801A80021002200230EC006C092
:105900000091D748D74C016841F00401016002685A
:1059100002F004020092002200990092036843F012
:1059200080030360016801F08001009100990092FA
:10593000036843F001030360016801F00101009175
:10594000009900922021036843F00203036000687D
:1059500000F00200009000982046FFF7AFFF4FF4E0
:10596000005001900020C0490291039001A9BF4856
:10597000FFF7D4FE20200190012100200291039026
:10598000049001A92046FFF7C9FE00F08DF800F051
:10599000ECF8B748B74901604FF4E13141600021AC
:1059A0008160C16001610C21416100218161C1619F
:1059B00000F090F900F0EAFA002202211220FFF72D
:1059C00054FE1220FFF77DFE002200211920FFF770
:1059D0004CFE1920FFF775FE012204211820FFF765
:1059E00044FE1820FFF76DFE012203212620FFF759
:1059F0003CFE2620FFF765FE002200212820FFF74D
:105A000034FE2820FFF75DFEFEE7F0B593B006A850
:105A100000210022002300241EC01EC01EC001ADB4
:105A2000002600278C46A5E8C010C0C5009192480A
:105A3000016841F0805101600121006800F0805050
:105A4000009000988D480092026822F4404242F48F
:105A5000004202604FF48032006800F44040009041
:105A60000098069102200C904FF480010D910420C3
:105A70000E9054210F910220109004210792119151
:105A800006A800F0A5FA022002900F214FF48050E2
:105A90000191049003940594022101A800F03EFCBA
:105AA00000F0CAFC13B0F0BDF0B58DB004A8002121
:105AB0000022002300241EC01EC0714C71482060CB
:105AC0006D464FF480306060002601202061002781
:105AD0006D48A0628C464FF40060E0608E46022064
