:020000040800F2
:1000000070150020F9B0000859B1000851A500088A
:100010005DB1000861B1000865B100080000000092
:1000200000000000000000000000000069B10008AE
:100030006DB100080000000071B10008B1A5000812
:1000400075B1000879B100087DB1000881B10008E0
:1000500085B1000889B100088DB1000891B1000890
:1000600095B1000899B100089DB10008A1B1000840
:10007000A5B10008A9B10008ADB10008B1B10008F0
:10008000B5B100080000000099A40008B9B100084B
:10009000BDB10008C1B10008C5B10008C9B1000870
:1000A000C1A40008B3A40008CDB10008D1B1000874
:1000B000D5B10008D9B10008DDB10008E1B10008F0
:1000C000E5B10008E9B10008EDB10008F1B10008A0
:1000D000F5B10008F9B10008F1A40008FDB100086D
:1000E000D5A5000801B2000805B2000809B2000851
:1000F0000DB2000811B2000815B20008000000009F
:100100000000000019B20008000000001DB2000845
:1001100021B200080000000025B2000829B2000842
:100120002DB2000831B2000835B2000839B200081B
:100130003DB20008000000000000000041B20008CD
:1001400045B2000849B200080000000000000000AD
:10015000000000000000000000000000000000009F
:100160000000000000000000000000004DB2000888
:1001700051B2000800000000000000000000000074
:100180000000000055B20008000000000000000060
:10019000000000000000000000000000000000005F
:1001A000000000000000000059B200085DB2000825
:1001B00061B2000865B2000869B2000800000000E2
:1001C000000000006DB20008000000000000000008
:1001D00071B2000875B2000830B5044681B0E0483D
:1001E00060634FF4FA7501F045FE002184F8301089
:1001F00084F83A10204600F09AF8D4F84015002010
:1002000084F82401F7EE000A91ED000A2069B8EEA7
:10021000400AC0EE800A84ED100AC4ED0F0A01F016
:1002200044FE00EE100AD4F84005B8EE400A84ED12
:10023000110AF6EE000A90ED130A90ED091A60EE2D
:10024000200A80EE811ABDEEC11A11EE101AA4F830
:100250004810F0EE000A90ED060A90ED071A60EEE5
:10026000200A20EE811A90ED130A80EE010A84ED37
:10027000130AF5EE000AC16A2165002190ED0B0A10
:1002800060EE200AC4ED160AC06A6065E165216669
:100290006166A16684F88C10C4F89010C4F89410BC
:1002A00084F89810C4F89C10C4F8A010C4F8A410E6
:1002B000C4F8A810C4F8AC10C4F8B010C4F8B41056
:1002C00084F83C15204601F0EBF90020C4F8CC007E
:1002D000C4F8D000C4F8D40084F8D800DFED9C0A3C
:1002E000D4F84005DFF8F82C816BC4F8DC10416CC1
:1002F00081FB023200EE101AC4F8E0109210B8EE42
:10030000C00A02EBD27260EE200AC4F8E820FDEECB
:10031000E00A0021C4F8E850C4ED390AA4F82C1111
:10032000C06BC4F8300184F8341101B030BD002135
:1003300080F83B1080F8EC10A0F8181180F81A1122
:10034000A0F81C11C0F82011C0F83811704710B582
:100350000446002194F83B00042808D1082184F8C1
:100360003010002084F8EC000121084610BD94F8FC
:100370003000C0B9206801F09AFD0020012184F806
:100380003A0084F830102046FFF7D1FF002084F8AF
:1003900024010021606D206584F88C1084F8981089
:1003A000012020870121084610BD10B504462068B1
:1003B00001F082FD94F83000062818BF072804D009
:1003C0000A281CBF002084F8300010BD30B5044658
:1003D00081B094F83010491E072900F2B780DFE899
:1003E00001F00404040423B5B540206801F069FD60
:1003F00098B1072084F830000721E06801F080FD03
:10040000206801F0EDFD94ED4A0ADFED520A20EE7E
:10041000200A204601F088FC93E0204600F0FAFF15
:1004200084ED4A0A01B030BD206801F04AFD002881
:1004300000F08C80072084F830000721E06801F08C
:100440005FFD206801F0CCFD94ED4A0ADFED410A22
:1004500020EE200A204601F067FC206DC4F8280138
:100460006FE094F83B00042870D0206801F029FD6B
:1004700000286BD094ED4A0ADFED360A20EE200A00
:10048000204601F051FCD4F8400594ED140A84EDA7
:100490004A0A9FED311AD0ED060AD0ED071A20EE78
:1004A000811A61EE211AD0ED130AC1EEA00A20EEE6
:1004B000800ABDEEC00A10EE100A451E206A2AB25C
:1004C000002101F08FFD206A2AB2012101F08AFD8E
:1004D000206A2AB2022101F085FD206A2AB2032196
:1004E00001F080FD206A2AB2042101F07BFD94F81E
:1004F000EC0001281BD1206901F07AFDC0EB00114E
:100500008800DFF8DC2A80FB0232921002EBD27204
:1005100000EE102AB8EEC00ADFED100A60EE200AE5
:10052000FDEEE00AC4ED390A204601F085FB062005
:1005300084F830000721E06801F0E2FC206801F057
:100540004FFDDFF80C0E0188491C018001B030BD61
:10055000CDCCCC3E6666663F00008047CDCC4C3F9C
:10056000F80600202DE9F04F81B004462DED048BF4
:1005700088B003A80025056094F83010D4F83490B2
:10058000092900F21D85DFE811F0F5040A00540086
:100590000A007D006201FA041B05EA02E70494EDFB
:1005A000140A204601F012F8012823D194F83000F3
:1005B00001280DD1022184F83010484601F05AFC80
:1005C000D4F84005428E4EF66021484601F026FDE3
:1005D00094F8300003284FD1042184F830104846A5
:1005E00001F048FCD4F84005828E218F484601F086
:1005F00015FD41E0208F4EF6602188423CD12587D1
:10060000204600F007FF6FF0130084F8D800F6EEE4
:10061000000A94F89800401C84F8980020EE200A04
:10062000C0B2032884ED140A26D3092084F83000D0
:1006300022E094ED140A204600F0C8FF484601F07D
:1006400021FC484601F02CFDB0B1032084F83000B5
:10065000F5EE000A94ED140A20EE200A6FF0130064
:10066000C4F8A850C4F8AC50C4F8B05084ED140AD3
:1006700084ED160A84F8D800218F206801F016FD59
:1006800000F0A2BC94ED140A204600F09FFF258FD5
:10069000484601F0F7FB204600F0BCFED4F8B0005D
:1006A000D4ED2A0A401CC4F8B00030EE800A60681D
:1006B00084ED2A0A01F004FD2A4600EE900A6068E3
:1006C00094ED2B2A418801EE101A01EE902AF8EEE3
:1006D000600AB8EE411AF8EE611A9FEDD70A60EE93
:1006E000810A60EE800A21EE800A00EE202AC4ED25
:1006F000170A84ED2B2A484601F0D2FC002800F0AE
:10070000298294ED2C0A94F88C00D4ED2A0A94EDF9
:100710002C1AB8EE400A80EE800A04EB800184EDCA
:10072000240AB8EE411AD4ED2B0A81ED1B0AC0EE63
:10073000810A94F88C0004EB8001C1ED1F0A94F843
:100740008C00401C84F88C00C0B2042816D2002112
:10075000C4F8A810C4F8AC10C4F8B01094ED140A92
:10076000D4ED160A70EE200A6FF013000321C4EDD9
:10077000140A84F8D80084F83010EBE1052084F8DE
:100780003000002184F83A10484601F073FB6422DF
:100790004EF66021484601F041FC9FEDA88A69466B
:1007A0002246032092ED200AD2ED1F0A92ED1B1A79
:1007B00070EE600A92ED1C0A30EE411A121D80EEB6
:1007C000810A81ED000A091D401E38EE008AE9D138
:1007D000B0EE080AD4F8401588EE000A84ED180A35
:1007E00091F8400020BB9FED961AD1ED0A0A30EE39
:1007F000600AB4EE410AF1EE10FA84ED180A03D54E
:10080000DFF8AC0D206605E0F6EE000A20EE200AC7
:1008100084ED180ADFED8B0A94ED240A60EE200ABD
:100820000020C4ED250AC4F8A400C4F8A00091E19A
:100830000A2084F830000721E06801F061FB20689D
:1008400001F0CEFB206801F037FB002582E1204655
:1008500000F0E0FD94F83A0010B1022808D018E04A
:10086000DFED790AB4EE600AF1EE10FA11D50DE071
:10087000D4ED250A258FB4EE600AF1EE10FA05D505
:10088000D4F89C00401CC4F89C0002E0484601F0EB
:1008900019FC484601F0F6FA484601F001FC002830
:1008A00000F0588194F83A0018B1022810D008D30B
:1008B00050E1012184F83A10484601F0DBFA0A229F
:1008C00043E10220002184F83A00C4F89C1038E18A
:1008D000002084F83A0094ED270AD4ED0F0AD4F8EA
:1008E000A00094ED291AB8EE400A60EE200A94EDBB
:1008F000180A00EE801A401C142884ED291AC4F846
:10090000A00040F01E81062084F830000721E06836
:1009100001F0F6FA206801F063FB206801F0CCFAE0
:1009200094ED280AD4ED290A6068B8EE400AC0EEBA
:10093000800AC4ED190A01F0C3FB00EE100A6068DA
:10094000D4ED4C1A4188D4F8400594ED182AD4ED22
:100950000F2A00EE901AB8EE400AF8EE600A20EE78
:10096000200A9FED351A20EE010A84ED170A0022B5
:10097000D0ED060A90ED071A20EE200A20EE011AAB
:1009800090ED130AD4ED370A81EE001A94ED190A9E
:1009900020EE210A62EE211A80EE010A61EEA22AFF
:1009A000002560EE200A82EE811A4FF0100C102014
:1009B000102190464FF00F0E47F6FF734FF0010ADB
:1009C0000AFA0EF601EE906AF8EEE11A61EE801A6C
:1009D000FDEEE11A11EE906A9E42B8BFF44687B26E
:1009E000102F0ED10AFA0EF201EE902AF8EEE11A5B
:1009F00061EEA01AFDEEE11A11EE902A9A42B8BFFC
:100A000070468FB2102F0FD10AFA0EF801EE908ABD
:100A1000F8EEE11A61EE811AFDEEE11A11EE908A0C
:100A20009845B8BF714600BFBEF1010E0ED41FFA43
:100A30008CF7102FD3D1C3E70000803700000000EF
:100A4000CDCC4C3E9ED2213F0AD7233C82461FFA92
:100A50008CF010280F46934609D0A0691FFA8CF13C
:100A600001F034FBA06931B201F036FB02E009204D
:100A700084F830001FFA8AF010280AD0E0691FFAC3
:100A80008AF101F023FBE0690FFA8BF101F024FBFE
:100A900002E0092084F83000B8B2102812D0A06912
:100AA000B9B201F01BFBE069B9B201F017FBA06914
:100AB0000FFA88F101F025FBE0690FFA88F101F0E7
:100AC00020FB02E0092084F83000DFEDA10AD4F811
:100AD000400590ED060A90ED071A60EE200A20EE20
:100AE000811A90ED130AD4ED140A81EE000A60EE2B
:100AF000200AFDEEE00A10EE900A461E206A32B28D
:100B0000002101F06FFA206A32B2012101F06AFA85
:100B1000206A32B2022101F065FA206A32B2032162
:100B200001F060FA206A32B2042101F05BFAD4F8D5
:100B30004005428E206A002101F0E5FA204601F0CE
:100B40007BF8484601F096F964224EF6602148464B
:100B500001F064FA2068294601F0A8FA34E2E0685E
:100B600001F0D7FA001F0F2800F22A82DFE810F008
:100B7000100010001000E7012802280228022802B5
:100B8000280228022802280228022802280210002F
:100B9000A06A01F0C0FA01F0C0FA0646A068006839
:100BA00001F0BEFA8246314601F0DEFA0190A068FB
:100BB000B0F91010BDF90400091AA06901F008FB92
:100BC000ADF80800A068B0F91210BDF90600091AC6
:100BD000E06901F0FDFAADF80A000299606901F0E0
:100BE00037FB0746314601F05EFB05462068294683
:100BF00001F078FB8046A068C0F804A0CDF814A0EE
:100C0000A1680198C860A068C0F81670A168D1F802
:100C10001A000490A168C1F81A50A06806846068A0
:100C200001F04EFAADF8180004A9606A01F036FC34
:100C3000ADF80000606A01F028FD2069694601F006
:100C40004FFD94F83B00052800F2BF81DFE810F06B
:100C500006008200BD014801BD016001204600F090
:100C60002BFD022884F8240122D1206901F0C0F96B
:100C7000C0EB00118800DA4A80FB0232921002EBCE
:100C8000D272C4F8E420206901F0B2F9014620468E
:100C900001F02CF8012084F83B00204600F000FD14
:100CA00008B01FFA88F0BDEC048B01B0BDE8F08FEE
:100CB000012800F08A81032821D194ED3A0ABBEE85
:100CC000EF0AFCEEC00AC4ED3A0A204600F0B4FF79
:100CD000062084F830000721E06801F011F920684F
:100CE00001F07EF9DFF868064188491C418008B0B0
:100CF0001FFA88F0BDEC048B01B0BDE8F08F04282A
:100D000040F0638194ED480AB8EE400ADFEDB30A83
:100D100060EE200AFDEEE00AC4ED390A204600F03C
:100D20008BFF062084F830000721E06801F0E8F826
:100D3000206801F055F9DFF818068188491C818088
:100D400008B01FFA88F0BDEC048B01B0BDE8F08F4D
:100D500000008047D4F84005A168D0ED060AB1F93B
:100D60000C20D0ED071A9FED9F1A20EE811A00EE9D
:100D7000102A61EE211AD0ED130A94ED2E1AB8EE66
:100D8000C00AC0EEA10A00EE201A606884ED2E1A97
:100D900001F096F900EE100A6068D4ED2F1A418830
:100DA000A06800EE901AB8EE400AF8EE600A20EE55
:100DB000200A9FED8D1A20EE010A84ED170ADFED5F
:100DC0008B0AB0F91610A06801EE101AB8EEC11A1D
:100DD00021EE000A40EE201AC4ED2F1AB0F91810C7
:100DE00094ED171AD4F8C80000EE101AB8EEC00A35
:100DF00020EE011A94ED300A42F2107101EE200A41
:100E0000401C884284ED300AC4F8C800C0F0DD8080
:100E100000EE100AB8EE400AD4ED2E0A94ED2F1A17
:100E200080EE808AD4ED300AC1EE008A80EE809A8E
:100E3000204600F035FC206901F0DAF800EE100AD7
:100E4000B8EEC00AF2EE040A80EE200A9FED681A9E
:100E500060EE019AD4ED181AD4ED110A41EEC88A59
:100E600020EE200A9FED631A20EE011AD4ED191A24
:100E700061EE211A01EE889A28EEA80A09EE090A05
:100E8000B5EE400AF1EE10FA02DBB1EEC08A01E0E5
:100E90009FED598A9FED590A28EE000ADFED580AA6
:100EA00060EE200A80EEA90AE06A84ED1A0A02F0D8
:100EB00006F9D4ED170A9FED531A89EE880A80EEE1
:100EC000811A20EE010A84ED330A022084F83B00E7
:100ED00008B01FFA88F0BDEC048B01B0BDE8F08FBC
:100EE000484600F0CFFF484601F0DAF800286CD001
:100EF000606A01F07DF800EE100ABAEE670ABDEEF6
:100F0000C00A10EE101A09B2204600F0EFFE0BE006
:100F1000206A02F0DAF810B1032084F83B00E068A0
:100F200001F0F7F8062850D1042084F83B0008B0FF
:100F30001FFA88F0BDEC048B01B0BDE8F08F20688B
:100F400001F04EF884F8305008B01FFA88F0BDEC7C
:100F5000048B01B0BDE8F08FE068072100F0D0FFFE
:100F600084F8305008B01FFA88F0BDEC048B01B053
:100F7000BDE8F08FE06801F0CCF8142820D1D4F857
:100F8000B400B0F5807F08BFC4F8B450204600F02C
:100F900069FA2168032081F83A00D4F8B40004EB20
:100FA000800181ED4F0AD4F8B400401CC4F8B400AD
:100FB00008B01FFA88F0BDEC048B01B0BDE8F08FDB
:100FC0000399206801F08EF9804608B01FFA88F076
:100FD000BDEC048B01B0BDE8F08F0000CDCC4C3FE0
:100FE00067666666000080470000803746CD93370D
:100FF00000007042DB0FC9400000000071C49C3F3C
:1010000000007A44D7B3DD3F70B52DED068B044662
:1010100086B0656BE06801F07CF894F83010062922
:1010200009D0C0F09181082969D0C0F07C8106B058
:10103000BDEC068B70BD0B2800F28681DFE810F056
:101040000C008401840184014F0084018401840127
:101050008401840184018101204600F0B5FC002850
:1010600040F0728194ED100AD4ED190A94ED181A2B
:10107000E06820EE802A81EE022AF7EE002AF5EEE3
:10108000001A72EEC22A22EEA12AF7EE002A72EEB0
:10109000C22AB5EE003A32EE033AF8EE003A73EEA9
:1010A000233ABDEE003A32EE833A02EE213A63EE85
:1010B000001A81EE201A03EE801A21EE800A20EE3B
:1010C000200A84ED341A84ED350A032100F018FF5C
:1010D000206800F085FF06B0BDEC068B70BD0820CF
:1010E00084F830002046FFF722F9012084F824011B
:1010F000204600F0D5FA06B0BDEC068B70BD94F822
:101100003B00022840F0208194ED330AD4ED1A0A06
:1011100060EE200A9FEDBE1A20EE811A9FEDD00AE4
:10112000B4F94820D4ED130AD4ED191A94ED183A05
:10113000D4ED343A81EE000A94ED101A21EEA02A83
:1011400002EE902A61EE811A22EE012AF8EEE22ADE
:10115000C3EE211AC2EE822A83EE813A9FEDCE9A27
:10116000DFEDCD9A9FEDCCAA002600210E2080EE67
:10117000022ADFEDCA3A9FEDCA4A012202FA00F3C1
:1011800004EE903AB8EEE48A61EE888AF4EE448A7E
:10119000F1EE10FABEBF23EE08AAB4EE44AAF1EEB7
:1011A00010FA12DAB4EE63AAF1EE10FA0DD422EEC0
:1011B000089AB4EE449AF1EE10FABEBF62EE889A35
:1011C000F4EE449AF1EE10FA04DB401E43B2002B19
:1011D000D4DC08E040B201EE900AF8EEE11AFDEE30
:1011E000E11A11EE906AD4ED351A61EEA00A80EE94
:1011F000800A0E2080EE010A02FA00F300EE903A17
:10120000F8EEE00A20EE201AB4EE441AF1EE10FADD
:1012100004DAB4EE631AF1EE10FA7AD5401E43B246
:10122000002BE9DCBDEEE80A10EE102AADF8002034
:10123000BDEECA0A10EE100AFDEEC91AADF80200A2
:1012400011EE902AADF80420BDEEC10A10EE100A8E
:10125000BDEEE91AADF8060011EE102AADF808202F
:10126000BDEEC80A10EE100AFDEEE00AADF80A0065
:1012700010EE902AADF80C20ADF80E60ADF810100D
:101280006946606A00F066F894ED331A94ED100A2E
:10129000D4ED110A606ADFEDC41A61EE211A9FEDE8
:1012A000C33A61EEA01A20EE002A21EE031AC1EE25
:1012B000821AF5EE002A61EE200A61EEA22A80EE83
:1012C000800AFDEEE22ABDEEC00A12EE902A10EE70
:1012D000101A12B209B201F0FEFE206900F01DFFE3
:1012E0000646206901F007FF0146606A324601F0B8
:1012F00005FF284600F0BEFDFA224EF66021284682
:1013000000F08CFE032084F83B0006B0BDEC068B99
:1013100070BD40B200EE100AB8EEC00ABDEEC00AC1
:1013200010EE101A7EE750B9E068032100F0E8FDE6
:10133000002084F8300006B0BDEC068B70BD0B2891
:1013400002D1E06801F0EAFE06B0BDEC068B70BD8C
:10135000641100200246088810844FF0000C4B886E
:10136000538488889084CB88D384088910854B89DE
:1013700093858889D085CB89A2F81C310123088AFE
:10138000A2F832C0A2F81E01B1F90CC0DFF89C0A25
:1013900090FBFCF000B258B3B2F832C000EBD07052
:1013A000C0030CF1010C00145B00A2F832C0F8B1CC
:1013B00000EBD070C0030CF1010C00145B00A2F82C
:1013C00032C0A8B100EBD070C00300145B000CF178
:1013D000010C0028A2F832C00AD000EBD070C00384
:1013E00000145B000CF1010C0028A2F832C0D3D12C
:1013F0001386B1F90C00B2F93010DFF8343A10FB63
:1014000001F181FB03C31B1203EBD37353857047B8
:101410008104B53FD0F84015806891ED060A91ED42
:10142000071ADFED9E0A60EE200A20EE811A91ED88
:10143000130AB0F90010B0F9020000EE901A80EE25
:10144000010AF8EEE00A01EE100A60EEC00AB8EEFA
:10145000C11A41EE400AB6EE000A20EE800A70473B
:101460000080D844D0F840158068D1ED060AB0F964
:101470000020D1ED071A9FED891A20EE811A00EEA7
:10148000102A61EE211AD1ED130AB8EEC00AC0EE9F
:10149000A10A20EE600A70470000000000FEFFC6AF
:1014A00001FEFF460520704730B5044681B0E06A72
:1014B00001F025FD0025012808BF84F83451E068BB
:1014C00000F027FE0A2806D184F8345184F8305001
:1014D000284601B030BD94F830100A291BD8DFE847
:1014E00001F006090D11111115151506190094F8D2
:1014F000340180B10125284601B030BD02252846BF
:1015000001B030BD0325284601B030BD0425284672
:1015100001B030BD0E25284601B030BD90ED180A4F
:1015200001F00CBE90ED190A01F008BE90ED1A0A08
:1015300001F004BE90ED170A01F000BE90F83B10D8
:1015400004291CBF90F830100A2922D1002280F80B
:101550003B2080F8EC20A0F8182180F81A21A0F890
:101560001C21C0F82021C0F8382180F824214FF434
:10157000FA7CD0F8E020DFF8BC1882FB013189103A
:1015800001EBD171C0F8E810C0F8E8C0002180F884
:101590003010012280F834210021DFF82804018076
:1015A0004180818070470000B0EDB74900000544DC
:1015B000CDCCCC3D10B50446206800F011FD0021D3
:1015C00084F8301084F8341110BD0000D0F84025A4
:1015D000D2ED060AD2ED071A00219FED301A20EE57
:1015E000811A61EE211AD2ED130A8268535EB2F9B4
:1015F000022001EE103AC0EEA10AB8EEC11A01EEC7
:10160000902A21EE601AF8EEE11A01EEE01AF6EEE9
:10161000000A61EE200AF4EE400A028FF1EE10FAA1
:101620001ADB0AB1521E028730EEC00ADFEDCC0A87
:10163000B4EE600AF1EE10FA1DD490F8D820521ED4
:1016400080F8D82052B212F1130F20DA6FF0130293
:1016500080F8D820084670474EF6602C30EE600ABD
:101660006245DFEDBF0ABCBF521C0287B4EE600AC0
:10167000F1EE10FAE1D590F8D820521C80F8D8206D
:1016800052B2142A03DB142180F8D81003E090F939
:10169000D800002800D40121084670470000804788
:1016A0000021C0F8B810C0F8BC10C0F8C010C0F8D5
:1016B000C410C0F8C81070479FEDBE1A70B504463C
:1016C00001252DED068BD4F84005A168D0ED060A62
:1016D000B1F90C20D0ED071A20EE811A00EE102A85
:1016E00061EE211AD0ED130A94ED2E1AB8EEC00A5D
:1016F000C0EEA10A00EE201A606884ED2E1A00F0F8
:10170000DFFC00EE100A6068D4ED2F1A4188A06853
:1017100000EE901AB8EE400AF8EE600A20EE200AB9
:101720009FEDA51A20EE010A84ED170ADFEDA30A4A
:10173000B0F91610A06801EE101AB8EEC11A21EE29
:10174000000A40EE201AC4ED2F1ADFED9D8AB0F991
:10175000181094ED171A206900EE101AB8EEC00A9E
:1017600020EE011A94ED300A01EE200A84ED300AD1
:1017700000F03EFC46F2676110FB01F1881400EBBB
:10178000D07000B200EE100AD4F8C800D4ED110AEF
:1017900094ED311AB8EEC00A42F2107100EE201A30
:1017A000401C884284ED311AC4F8C800C0F0D380D0
:1017B00000EE100AB8EE400AD4ED2E0A94ED2F1A6E
:1017C000C0EE809A81EE00AAD4ED300A94ED311A71
:1017D000C0EE80AA81EE009A2046FFF761FFB5EEC9
:1017E000409AF1EE10FA00F0B680206900F000FC9B
:1017F000C0EB00118800DFF83C2694ED181A80FB3E
:101800000232921002EBD27200EE102AB8EEC00A39
:10181000BDEEC00A10EE106ADFED980A29EE208AAC
:1018200094ED190A28EE000A01EE69AA40EE29AAF1
:101830002AEE0A0A0AEEAA0AB5EE400AF1EE10FAFA
:1018400001DBF1EEC08AB4F8181104F1F00000EBEE
:10185000810204F58270C2ED008AB4F8181100EB21
:10186000810282ED008AB4F81801401CA4F8180126
:1018700080B2052804D30020A4F8180184F81A5176
:1018800094F81A01002850D0D4F8E00001F060FC70
:10189000DFF8A425DFF8A43501F070FC01F042FD6B
:1018A000B04242DA052204F1F00104F5827000F042
:1018B000E9F89FED732AF0EE681AB0EE481A204658
:1018C00000F050F8002894F8EC000ED050B9D4F88D
:1018D000E400DFF86C15301880FB012101EBD171B9
:1018E000C4F8381184F8EC501FE0012815D19FEDA1
:1018F000D10A29EE000AD4ED110AC0EE200A002117
:10190000FCEEE00A84F8EC10C4ED480AA4F81C11BF
:101910000425BDEC068B284670BDB4F81C01401CA4
:10192000A4F81C0180B2042807DA206A01F017FD30
:10193000002894F8EC0002D048B9032508E050B123
:10194000D4F83801B04206D2206A01F012FD022517
:101950000020A4F81C012846BDEC068B70BD0000D9
:10196000CDCC4C3E01EE200AB7EE001A32EE011A41
:10197000F7EE002A21EE001A32EEC22A014622EECC
:10198000000A0020B4EE610AF1EE10FA44BFF4EE52
:10199000411AF1EE10FA0BD5DFEDD31A91ED110AD1
:1019A00081EE800AB4EE600AF1EE10FA48BF012021
:1019B00070470000000080470000803746CD933715
:1019C000000000006411002030B5054681B095F894
:1019D0003C05012490B9286802F002F84FF47A71AE
:1019E000A5F82C1141F28830A5F82E010021C5F888
:1019F000B41085F83C45204601B030BDB5F82E0145
:101A0000A0B3401EA5F82E014FF480719FEDC00ACF
:101A10002A460846D2ED4F0A121D401E30EE200A1B
:101A2000F8D1DFEDBC0A20EE200A9FEDB91A284656
:101A3000D0ED4F1A001D71EEC01A491E01EEA11A19
:101A4000F6D121EE200ADFEDD10AB4EE600AF1EE04
:101A500010FAA8BF4FF47A7003DAB5F82C0128B158
:101A6000401EA5F82C0101B0204630BD002185F8AC
:101A70003C150024204601B030BD0000DB0FC940FA
:101A8000CDCCCC3D0346F0B40FF2E03094B290ECF4
:101A9000021A002590B200EE104A002881B09FED96
:101AA0009C2ADFED9B2AB8EE400ADFED990A53D05D
:101AB00010F0030400F00F8003EB850601EB8507AF
:101AC0006D1C96ED003AD7ED003A641E32EE032A03
:101AD00072EEA32AF0D1800800F03E8053F8254032
:101AE00000949DED003A51F8254000946D1C32EEB3
:101AF000032A53F825409DED003A009472EE832AA4
:101B000051F825409DED003A00946D1C32EE032AF9
:101B100053F825409DED003A009472EE832A51F867
:101B200025409DED003A00946D1C32EE032A53F8D7
:101B300025409DED003A009472EE832A51F825402D
:101B40009DED003A009432EE032A6D1C9DED003AA3
:101B5000401E72EE832AC1D1002490B2002882EE8A
:101B6000003A5DD092B212F0030014D003EB84056A
:101B700001EB8406D5ED003A96ED004AF0EE614A9D
:101B8000641C73EEC33A43EE844A401E43EEA30A3C
:101B9000F0EE641AEAD1920800F0428001EB84056D
:101BA00003EB8400641CD5ED004AD0ED003A03EB52
:101BB000840001EB8405641C73EEC33A90ED004A87
:101BC00095ED005A03EB840001EB8405F0EE615AB9
:101BD000641C34EE434A43EEA45AD0ED004A34EE7E
:101BE000C36AD5ED004A03EB840001EB840544EEA3
:101BF000055A43EEA30A90ED005A44EE040A95ED0F
:101C0000004A46EE245A641C35EE435A46EE060A54
:101C100045EE045A521E45EE050AF0EE651ABDD196
:101C200001B0F0BCC1EEA00A42EE602A82EE800A4A
:101C3000704700000000704230B581B004462DEDC1
:101C4000028BD4F8E80094ED390A00EE900AB8EE61
:101C5000C00AF8EE600AC0EE200A9FED6D1A20EE71
:101C6000818ADFED6C1AB4EE618AF1EE10FA09DBBD
:101C700000EB801000EE100A84ED390AB8EEC00ABD
:101C80009FED658AF2EE040A20EE200A9FED631AAA
:101C900080EE010ABDEEC01A11EE105A29B220469C
:101CA00000F024F8206A2AB2012101F07DFF206AA9
:101CB0002AB2022101F078FF206A2AB2032101F042
:101CC00073FF206A2AB2042101F06EFFBDEEC80A3C
:101CD00010EE100A82B2206ABDEC028B012101B025
:101CE000BDE8304000F00FBA17B7D13A00EE101A35
:101CF000B8EEC00ADFED4A0A20EE200AB0EEC00AB4
:101D0000BDEEC00A10EE101A406A89B201F052BF4F
:101D1000000000000000803B00EE101AB8EE400A00
:101D200080ED110A7047000030B5F5EE000A044658
:101D300060EE200A81B0D4F84005C4ED160A84EDA7
:101D4000140A84ED150ADFED370A20EE200A90ED23
:101D5000061AD0ED130A20EE011A90ED070AA06AC8
:101D600021EE000AC0EE200AFDEEE00A10EE905AC5
:101D700010B1A9B201F021FFE06A28B1A9B201B007
:101D8000BDE8304001F05AB901B030BD0BD7233C5B
:101D900090ED150A704780ED370A704790ED370ACD
:101DA0007047000010B481B0002903BFD0F840157F
:101DB0004A6CC0F8E020C0F8E010D0F8E0101D4AEE
:101DC00081FB023200EE101A9210B8EEC00ADFED6D
:101DD000160A02EBD27260EE200AC0F8E8204FF437
:101DE000FA74FDEEE00AD0F8E010C0F8E840C0ED6B
:101DF000390AC06A01B010BC01F05EB9D0F8E00049
:101E00007047D0F8E4007047D0F8E8007047000051
:101E100000007A4401FF7F4700E87D4700007042E0
:101E2000CDCC8C3F00008047CDCCCC3E5EEA0F008D
:101E3000C58D4806676666669A9999999999B93FDA
:101E40005655555590ED150A704780ED4C0A704770
:101E500090ED4C0A7047D0F84005B0F84800704744
:101E6000D0F8400590F84A007047000000000000DC
:101E700000000000002181604160C160016101211A
:101E800041617047C3688268012B03D901698A18D0
:101E90005B1E04E004D1426841694A430023C360E9
:101EA0008260406992FBF0F0704740787047416A69
:101EB000002918BF08477047816A002918BF0847E2
:101EC0007047C169084730B4002513E050F8042B6F
:101ED000D30744BFA9F101039A18091F042942F846
:101EE000045BFAD213468C0744BF15809B1CC907BC
:101EF00048BF1D7050F8041B0029E7D130BC704763
:101F000010B502780024142A0ED8DFE802F0182158
:101F1000572D475557595B610D0D0B27292B373925
:101F2000414E3F000A0057D003291CBF0129072951
:101F300003D00022802101F044FE204610BD0A4655
:101F4000032A49D0012A45D101240170204610BD41
:101F5000072918BF0D293FD00E2934E00E2918E0BB
:101F60000F2916E0022914E0072918BF102933D0E1
:101F7000042918BF11292FD0012924E0112908E0D4
:101F8000122918BF072927D014291CE0122900E0C4
:101F9000042913D101240170204610BD0A46132ADA
:101FA00006D101240170204610BD0A46042A13D030
:101FB000072A11D0052A06E006290DD0072902E0DC
:101FC000082900E00929AFD101240170204610BD85
:101FD0000A0001D00C2AA7D101240170204610BDAF
:101FE0008168084701EB410300EB830002827047E0
:101FF000B0F90C00704790F81C1169B9002201215A
:1020000080F81D2180F81C11D0F82001016841F0F2
:102010002001016002207047012070472DE9F04740
:1020200005460F46A86869695FEA020890FBF1F46B
:102030000BD1384601F0DAFD686147430020E860C3
:102040002861AF600120BDE8F0873E1B304601F0FB
:10205000CDFD8146204601F0C9FD8246384601F09B
:10206000C5FDD14528BFD146814588BF8146C5F809
:10207000149009FB04F4AC606F602868074A08FB01
:1020800000F868694643A8FB0221490A491C96FBEF
:10209000F1F02861E9600120BDE8F087986E1283B5
:1020A00001460020C96801B90120704700B581B020
:1020B000C36A01220BB198470246104601B000BD29
:1020C000C08870470021C16001617047818301228F
:1020D00002FA01F1018370478180704730B50446F0
:1020E00081B00125E1838D406583C5EBC53101F0E9
:1020F00092FDA5EBC531204601B0BDE8304001F0AE
:102100008CBDC180704701EB410300EB83008281ED
:1021100070470078704740697047B0F90400704715
:1021200001B481B044F6E612BDF90400ADF8000038
:1021300001460B4811FB00F0BDF9061011FB02F23D
:10214000A0EB4200C01300F30F00ADF8020010F541
:10215000004F04BF0349ADF80210009802B0704769
:102160001AB6FFFF0180FFFF71B583B008B201F01E
:1021700057FD0190BDF90420BDF90C30BDF90600F2
:10218000BDF90E1013FB02F400FB1144E41304F339
:102190000F04ADF8004013FB00F0BDF900500A4CED
:1021A000A54204BF094EADF8006011FB0200C01348
:1021B00000F30F00ADF80200A04204BF0349ADF8E0
:1021C0000210009804B070BD0080FFFF0180FFFF87
:1021D000F0B4B0F90430B0F91450B0F91660B0F9A9
:1021E000062000244B430AB9846016E051438268FC
:1021F0008F1806D5002AC8BF002906DD6FF00047FA
:1022000003E0002A44BF0029104FC168B94203DB34
:102210000169B942B8BF39468160878B82683B410A
:10222000C78B42FA07F1CB189D4206DAEC1AA418C4
:102230002B46846018B2F0BC7047B342BCBFF41A9E
:102240003346A418846018B2F0BC704701000080C7
:1022500002B481B00091BDF90430BDF9062013FB32
:1022600003F112FB021C01884943614518D290F822
:10227000B2104FEA1C6CACEB010C5FFA8CFC00EB6B
:102280004C008088434342439913901303EB51431E
:1022900002EB5042DB13D213ADF80030ADF8022050
:1022A000009802B0704731B582B008B201F0B8FCB6
:1022B0000190BDF90430BDF90840BDF90610BDF923
:1022C0000A2014FB03F512FB03F012FB015501FB7E
:1022D0001401ED13C913ADF80050ADF802100098C9
:1022E00003B030BD70B481B002B481B0B0F85030EA
:1022F000BDF90650BDF90420018E5D436D424A438D
:102300006D005119AA1A01EBD17102EBD27249107A
:10231000521000294BD5002A18D5042480F83A40E1
:102320008C1A651404EB9534A41404EB9303141471
:102330000D1402EBD43201EBD53103EB6242A3EB77
:1023400061418187C387A0F8402079E02C14002DDB
:1023500005EBD43415DC0321AD1A80F83A106E1465
:1023600005EB9635AD14111405EB930302EBD13256
:1023700003EB6242A2EB64418187C287A0F8403040
:102380005EE002224D1B80F83A206E1405EB963574
:10239000AD140A1405EB930301EBD231A3EB6141B9
:1023A00001EB64428287C187A0F8403048E0002AF0
:1023B00016D4012480F83A408C1A651404EB953445
:1023C000A41404EB9303141402EBD4320D1403EBA6
:1023D000624201EBD531A3EB61418287C3872DE0D7
:1023E0002C14002D05EBD43415DC05224D1B80F890
:1023F0003A206E1405EB9635AD140A1405EB9303E1
:1024000001EBD231A3EB614101EB64428387C187C9
:10241000A0F8402014E00021AD1A80F83A106E14A4
:1024200005EB9635AD14111405EB930302EBD13295
:1024300003EB6242A2EB64418387C287A0F840109D
:10244000002BD8BF0023002AD8BF00220029D8BF04
:102450000021C18643868286B0F84E10012919D129
:10246000B0F94830B0F85410428E002BCCBF8A1817
:10247000521A4286B0F94A30828E002BCCBF8A189D
:10248000521A8286B0F94C30C28E002BCCBF89180C
:10249000511AC186816903B070BC08472DE9F04F1D
:1024A000054685B0B5F92E00AB6EC0EBC0329A423E
:1024B000B8BFAA6604DBA0EBC0309842A8BFA866EC
:1024C000AB6EB5F81E0143FA00F00FFA80FAEB6E1E
:1024D000B5F92E009A42B8BFEA6604DBA0EBC03023
:1024E0009842A8BFE866EA6EB5F81E012B6E42FA64
:1024F00000F00FFA80FBB5F92C00C0EBC0329A4215
:10250000B8BF2A6604DBA0EBC0309842A8BF28669B
:102510006B6EB5F92C009A42B8BF6A6604DBA0EB7B
:10252000C0309842A8BF6866B5F81C312C6E888808
:102530006A6E049244FA03F8A8EB000000B21A4154
:10254000ADF80220BDF80230CA889A1AB5F92430D5
:10255000039312B20B890293B5F92060B1F90030F0
:10256000B5F922E0B5F928C016FB08F8A4EB080974
:10257000029CDDF80C805C4310FB0E9924141CFBBC
:102580000499B5F92A3001930AFB18986C8E8DF8DE
:102590000040B5F92690AF6EB5F90E3010FB09700A
:1025A0009DF900704BFA07F4019F14FB03F407FB3D
:1025B0000404BDF90200049F16FB00F0029E3F1ABE
:1025C000B1F90200464312FB0E7E3614E86E1CFB86
:1025D00006E1039E12FB09029DF9000095F9249182
:1025E0000BFB16164AFA00F0019910FB03F317468D
:1025F000B9F1000F01FB1377A5F870A0A5F872B030
:1026000007D1B5F90E00002854BF4FF001094FF073
:10261000FF39B5F9040001F003FB00901BFB09F141
:10262000BDF90000494211FB00F1BDF902000AFBAF
:1026300009F2490012FB00F009144000A1EB20410F
:1026400005F13400FFF7C4FD95F8F41095F80E215C
:102650002882491CC9B2914208BF002105EB410202
:10266000B2F87430A5F80C31A2F8740085F8F410B3
:10267000C5F86080A9884018A880AC666E66EF66D1
:10268000B5F9040005B0BDE8F08F10B490F80E4124
:1026900090F80F1190F8F420D0F80831611A07D1A2
:1026A00000F1740131F91220B0F90C119A180DE003
:1026B0008918A142ACBF0C1B0C4600F1740131F922
:1026C00012209A1800F1740333F91410511AB0F85B
:1026D0002021C0F8081141FA02F3C38110BC7047F1
:1026E000F0B490F833200124012A08BFB1F900208A
:1026F0003CD04378C688B0F90E50028E95FBF3F3B8
:102700009E19C680AA1890F82C600286012E2DD141
:10271000B0F92E303BB9CA5E80F82D40037082803C
:1027200010B2F0BC70475B1EC385002DB1F900608C
:10273000B0F9367052BFB51A951B4FF0FF342DB269
:1027400015FB03F393FBF7F313FB04F3002D1BB20C
:1027500008D4012280F832200C88E21A828010B25C
:10276000F0BC704790F8321001B19A19828010B213
:10277000F0BC704710B50446DFF834092061FFF75C
:1027800079FB0021D4F89C00A4F85810A4F85A1042
:1027900021626162A162E16221650022C16BC4F81D
:1027A000801000238169216384F83420A363E263ED
:1027B000A4F84020A4F84C20A4F84E2090ED000A84
:1027C000D0ED070AB8EE400A60EE200AFDEEE00AFE
:1027D00010EE901AA4F85C1090ED090AD0ED070AEB
:1027E000C0EE200AFDEEE00A10EE901AA4F85E108A
:1027F00090ED000AD0ED0C0AB8EE400A60EE200A17
:10280000FDEEE00A10EE901AA4F8601090ED000AB8
:10281000D0ED0D0AD4F89C1084F86220B8EE400A7E
:1028200060EE200AFDEEE00A10EE900AA4F87400B3
:102830006266A26684F86C20226791F8200084F812
:102840007600D4F89C00418CA4F87810016CC4F890
:102850008410426CC4F88820806CC4F88C00C4F8E2
:102860009030C4F8943010BD90F8621079B900220D
:1028700080F834208163C263A0F84010A0F84C2097
:10288000A0F84E10C0F89020C0F8941070470A22AB
:1028900080F834207047002180F834107047000021
:1028A0002DE9F041054695F834002C69092800F21D
:1028B000F682DFE810F00A004800F402F402F402A5
:1028C000A000CE004801740117026868002180F85A
:1028D0002410E86801F0B4F90021A963A5F84010BC
:1028E000A5F84C100020E863A5F84800A5F84E00B4
:1028F000012185F86C00A5F84A102868FFF778FBDD
:10290000C0EB00118800DFF8AC3780FB036399103F
:10291000002201EBD1712046FFF780FBD5F8801033
:102920004FF47A722046FFF779FB0120696885F839
:102930003400B1F9100000EE100AB8EEC00A85EDBF
:10294000240ABDE8F0812046FFF79CFA00EE100A49
:10295000B8EEC00A85ED1C0A284600F0D8FA0646F3
:102960002046FFF79DFB002800F09982B5F84E0045
:10297000401C012EA5F84E0005D0B5F8741080B2A9
:10298000814280F08C822868FFF732FBC0EB001197
:102990008800DFF8202780FB0232921002EBD2720F
:1029A00000EE102AD5F89C00B8EEC00A85ED140A96
:1029B00041F28832D0ED0A0A60EE200AFDEEE00A0C
:1029C00010EE901AA5F8581090ED0B1A20EE010A9F
:1029D000BDEEC00A10EE101A0020A5F85A10E863E8
:1029E000A5F840006864A5F84E0009B22046FFF73C
:1029F00015FB052051E22046FFF744FA00EE100ACD
:102A0000B8EEC00A85ED1C0A284600F080FA06469A
:102A10002046FFF745FB002800F04182B5F84E0044
:102A2000401C012EA5F84E0005D0B5F8741080B2F8
:102A3000814280F0348200200621E863A5F840003E
:102A40006864A5F84800A5F84E0085F83410BDE884
:102A5000F08195ED1C0A284600F059FA2868FFF726
:102A6000C7FA00EB80025200DFF84806E96BB5F8C0
:102A70005C6082FB0030801000EBD0704118686809
:102A8000AA6BE963B0F90C30D018B5F840206B6C34
:102A9000521C97B25B1CBE42A863A5F840206B6431
:102AA00080F0FD8192B291FBF2F1B5F84820A5F8D3
:102AB0004810521AA5F84A2016B2002E44BF3246DA
:102AC00052420021E9630026B5F86010A5F8406085
:102AD000994203DB12B2042A00F3E18190FBF3F088
:102AE000A882DFED7F0AB5F9480095F8761000EE70
:102AF000100AB8EEC00A01EE101A60EE200AB8EE15
:102B0000411A20EE811A85ED061A2868FFF770FA3F
:102B1000C0EB00118800DFF89C25B5F95810A5F826
:102B20004E6080FB0232921002EBD27200EE102A4D
:102B3000B8EEC00A85ED1C0A41F288322046FFF744
:102B40006DFA0720A9E12046FFF79CF900EE100A74
:102B5000B8EEC00A85ED1C0A284600F0D8F90646F2
:102B60002046FFF79DFA002800F09981B5F84E0045
:102B7000401C012EA5F84E0005D0B5F8741080B2A7
:102B8000814280F08C810020A863E863A5F84000B2
:102B90006864A5F84800A5F84E0008207DE195ED91
:102BA0001C0A284600F0B3F92868FFF721FA00EB69
:102BB00080025200DFF8FC04E96BB5F85C4082FB50
:102BC0000030801000EBD07041186868AA6BE96390
:102BD000B0F90C30D018B5F840206B6C521C96B28E
:102BE0005B1CB442A863A5F840206B6480F0578159
:102BF00092B291FBF2F1B5F84820A5F84810521AAC
:102C0000A5F84A2014B2002C44BF224652420021AB
:102C1000E9630024B5F86010A5F84040994203DB51
:102C200012B2042A00F33B8190FBF3F0E882DFED5F
:102C30002C0AB5F9480095F8761000EE100AB5F99F
:102C40001400B8EEC00A01EE101AB5F9161060EEC5
:102C5000200AB8EE411A20EE810A00EE900A01EE39
:102C6000101AF8EEE00AB8EEC11A30EEC11A85ED7E
:102C7000070AD5ED060A30EEC00AC1EE000A9FED44
:102C8000890AF4EE400AC5ED080AF1EE10FA48BFD1
:102C900085ED080A95ED060AD5ED070A70EE600A83
:102CA0009FED811A20EE810A85ED090AD5ED070A0C
:102CB000B5F91410B5F91620E86830EE200A85ED54
:102CC000090A8A422246A8BFB5F9781000F0BCFF75
:102CD000A5F84E40092185F83410BDE8F08100BF09
:102CE0009CC4203FB5F84E00401CA5F84E00286853
:102CF000FFF77EF900EB80025000DFF8B83395F85B
:102D00007610D5ED091A80FB03439B1000EE101AD4
:102D100003EBD373F8EE400A01EE103A9FEDD70AA9
:102D2000B8EEC11A21EE001A21EE201AB4EE611A93
:102D3000B5F84E10F1EE10FA06DAB5F8740000EBB3
:102D40004000884280F2AB80B6EE002AD5F89C00A5
:102D5000AE68D0ED001AF3EE0E2A01EE101AB8EEAE
:102D6000411AF8EE611A81EE211A82EE012A62EE12
:102D7000221AC5ED0C1A85ED0A1A102195ED082AC4
:102D800021EE022A62EE211A21EE800A20EE200AAC
:102D900085ED0B2A85ED190AC0EE010A90ED001AA7
:102DA000B8EE411AC0EE810AC5ED1A0A10274FF09D
:102DB00000080F2047F6FF725FF0010303FA00F4EA
:102DC00001EE104AB8EEC11A21EE001ABDEEC11A8A
:102DD00011EE104A9442B8BF014600BF1FFA87FCAB
:102DE000BCF1100F0ED103FA00FC01EE10CAB8EED0
:102DF000C11A21EE201ABDEEC11A11EE108A9045BB
:102E0000B8BF0746401E05D41FFA81FCBCF1100F65
:102E1000E4D1D3E788B2102807D089B23046FFF753
:102E200055F921B23046FFF757F9B8B2102808D04B
:102E3000B9B23046FFF752F90FFA88F13046FFF782
:102E400060F9B5F97810304600F048FFB5F8781011
:102E5000494209B2304600F043FF304600F042FFDD
:102E60000446B5F8780044432146304600F0D3FECE
:102E700064422146304600F0D0FE012085F8620011
:102E80000121E86800F0DCFE2868FFF7B1F8014690
:102E9000E868002200F0D8FE0A2085F83400BDE87A
:102EA000F08100000AD7233CAE47213F10B504460D
:102EB00094F86200A8B96068002180F82410E068E6
:102EC00000F0BEFE6068B0F91010E068002200F06B
:102ED000BBFEE068BDE810404FF47A62002100F0CC
:102EE000B3BE10BD002180F86210704790ED140A47
:102EF00000F024B90B20704790F834007047014669
:102F0000002091F834100A2908BF0120704730B51D
:102F1000044681B000252DED048BD4F89C00D0ED43
:102F20000E8A2068B0EE408AFFF762F8C0EB00110D
:102F30008900604894ED221AD4ED210A81FB00201B
:102F4000801000EBD07000EE100AB8EEC09AB5EE1B
:102F5000401A38EE490AF1EE10FA60EE800A08BF16
:102F6000C4F890500BD0D4ED251A70EE611A94ED90
:102F7000240A01EE810A84ED240A70EE800AB4F876
:102F80007800D4ED231A014601EE101AB8EE411A6A
:102F9000B4EE601AB0EE600AF1EE10FA48BFB0EE7F
:102FA000410A404201EE100AB8EEC11AF4EE410A9D
:102FB000F1EE10FA48BFB0EE410A70EEC00ABDEE65
:102FC000C00A60EEA10A10EE101AE068C4ED250AEE
:102FD000002209B200F038FE28EE280AB4EE409A2A
:102FE000F1EE10FA20D4B4EE489AF1EE10FA0AD4B9
:102FF000B0EE000A30EE680A20EE080AB4EE409AFD
:10300000F1EE10FA10D594F86C00401C84F86C00B6
:1030100040B2142803DB142084F86C000125BDECB9
:10302000048B284601B030BD84F86C502846BDECB6
:10303000048B01B030BD80F876107047A0F878108E
:10304000704780ED0C0A704790ED0C0A7047000045
:10305000D0F89C1090ED0B0A90ED261ADFED130AC4
:1030600060EE200A20EE811A91ED130AD1ED140AC8
:1030700060EE200A81EE200A704700009CC4203FC9
:10308000D0F89C1090ED080A90ED261ADFED070AA3
:1030900060EE200A20EE811A91ED130AD1ED140A98
:1030A00060EE200A81EE200A70470000CB151E3525
:1030B000540C002067666666C0F88010704780ED8B
:1030C000260A704790F86200704701460020896820
:1030D00001B90120704730B5044681B0154604F1AE
:1030E0003400FEF7F9FF294604F1340001B0BDE8D1
:1030F0003040FFF706B8B0F90E00704770B50446CF
:103100000D46164604F1340000F0ECFD00FB05F11D
:1031100004F1340000F0E8FDA68070BD01460020F7
:103120000A780B2A04D10920087000228A80012025
:10313000704700EB4100B0F9320070472DED010AF5
:10314000009801B070470068012180F82211704793
:10315000C11768B14840401AB0FA80F29040D21CC2
:10316000C907C2F5846241EA025202EBD021400550
:1031700070470068012180F823117047B0B581EADB
:10318000030C0CF0004C40F2FF7515EA11541DBF02
:1031900015EA1357AC42AF4239E0E41923EA45532C
:1031A00043F48013C90241F0004141EA505EC70276
:1031B0001100A7FB020200284FF00000EEFB0120E7
:1031C0004FF00001E3FB072118BF42F00102401855
:1031D00000214941E3FB0E01A4F580640F0302D2F4
:1031E00052004041494154F101046CDD470872F13D
:1031F000004250F1000051EB0451A1F580115CBF79
:1032000041EA0C01B0BD4CEA05510020B0BD05EA11
:103210001357AC4214BFAF4241E050EA410E1CBF0D
:1032200052EA430E02E061460020B0BD24423C4415
:103230001BD15FEA070EF6D0090302BF014600204A
:10324000AEF1140EB1FA81F7AEEB070401FA07FEF6
:103250000C37C7F1200100FA07F7C8404EEA000E0C
:1032600023EA455343F48013A2E733F00043B3FA53
:1032700083F704BFB2FA82FE77440B3FE41BB7F139
:10328000200E2FBF02FA0EF3BB40C7F1200E22FA28
:103290000EFE38BF43EA0E03BA40641C82E750EAD0
:1032A000410E14BF52EA430E6FF000014FF40017B5
:1032B00017EB430F8ABF194617EB410FB5E74CEAEE
:1032C00005510020B0BDD4F10104B4F120070FDA9C
:1032D000C4F12007520828BF42F0010210FA07F596
:1032E00001FA07F7E1BF2A43E0403843E1400FE02D
:1032F000352C98DCC7F1200452EA400220FA07F28C
:1033000018BF42F0010231FA07F0A1400A43002140
:1033100072F1004250F1000051EB0C01B0BD000011
:1033200001000200C1F30A5340F2FE329B1A14DD81
:10333000D3F120034FEAE17208DDC90241EA50519E
:1033400041F00040D84080185040704703F2E1300F
:1033500010B1D24382F00040704700207047014610
:10336000002091F8582091F849108A4228BF012086
:10337000704710B5C46E0021816081802046FEF741
:1033800037FE01462046BDE81040002200F0AEBCEA
:10339000014681B08A68DFF8080602408A608A68C0
:1033A000D00028D48A68DFF8FC05DFF8FCC50240AD
:1033B00042F080528A600023DFF8F0251068E0FBBD
:1033C0000CC35B0C00930098A8B10098401E0090BD
:1033D000009880B10098401E0090009858B1009865
:1033E000401E00900098002805D00098401E0090D4
:1033F00000980028E9D18A68DFF8B405024042F05D
:1034000000428A608868C00FFCD10868DFF8942504
:10341000C3071FD48868104040F0010088600B6823
:10342000D80717D48B68134043F001038B600868FA
:10343000C3070FD48868104040F0010088600B6813
:10344000D80707D48B68134043F001038B600868EA
:10345000C307DFD58868104040F00800886088689E
:10346000104040F020008860CB68DFF8480503403A
:1034700043F40013CB608868024042F004028A6083
:1034800001B0704790F86D10B0F8682080F83A10DD
:10349000511E89B22BE0F0B4426F838FB0F86840C0
:1034A000B2F8B210E51AAFB2B94206D2042180F8E0
:1034B0003A10B0F86820511E17E0C68F2D049E1BED
:1034C000ED0BB6B2B54203D2B2F8B410591A0CE003
:1034D000C9188AB2A24208D3B0F868304FF480729B
:1034E000C1EB4301A0F86A20491EF0BC89B2426FCB
:1034F0009268438E5363B0F834C0C2F838C0C08EAF
:10350000D0631164DFF8B00451680140481E804167
:10351000C043C00F704770B4426F90F86D3002EB3B
:103520008304E56C2B68646E24689568DFF88C244E
:103530006E6816406E6090F86C50102D0AD2C26D05
:103540009B18C365036EE418046690F86C20521C47
:1035500080F86C2000200880488070BC704730B430
:10356000426F90F86D4002F1640353F824301B68F9
:103570009468DFF8482465681540656090F86C40F1
:10358000102C07D2426E9B18436690F86C305B1C7F
:1035900080F86C3000200880488030BC704730B420
:1035A000840C01F1080304F03C04E31881B01D68A9
:1035B0006FF30F152A431A6000F003024B681343A0
:1035C0004B60012400F010000B68DFF8E02304FAE0
:1035D00000F00340834221D11068DFF8E423A0FB10
:1035E0000221090D01EB410100910098002838D01B
:1035F0000098401E0090009898B30098401E0090DC
:10360000009870B30098401E00900098002828D0C1
:103610000098401E0090009818B3E9E70B68184323
:1036200008601068DFF89823A0FB0221090DC9008B
:1036300000910098A8B10098401E0090009880B1B9
:103640000098401E0090009858B10098401E0090CD
:103650000098002805D00098401E0090009800288F
:10366000E9D101B030BC704770B4416F8A6890F8FE
:103670004710002944D102F11803D24C19682140A7
:1036800041F060011960166A46F0010616620026D4
:10369000116A21F0040111625663416F91F8BA106A
:1036A00001290DD11E68C8490E4046F480561E609F
:1036B000156A25F010051562116A41F040010EE00F
:1036C00002290DD11E68C0490E4046F400561E6006
:1036D000156A45F010051562116A21F0400111626A
:1036E00053F8041F0C4044F070041C60136A23F468
:1036F00080731362116A21F480611162016EC165E9
:103700000FF26D120FF2A511426041610FF2E91242
:10371000AE49C2608160012280F8472070BC7047CA
:10372000416F8A6890F84710012900D0704770B443
:1037300002F11803A34C1968214041F0600119609F
:10374000166A46F001061662416F91F8BA10012917
:1037500003D1116A41F0040104E0022903D1116A86
:1037600021F004011162B0F86810490851631E6825
:1037700095490E4046F4C0461E60156A45F0100596
:103780001562416F91F8BA10012903D1116A41F015
:10379000400104E0022903D1116A21F040011162C5
:1037A000B0F868104908916353F8041F0C4044F0C6
:1037B00060041C60136A43F480731362416F91F8D4
:1037C000BA10012903D1116A41F4806104E0022991
:1037D00003D1116A21F480611162B0F868104908C0
:1037E000D1637B4A7B49426041617B4A7749C26031
:1037F0008160002280F8472070BC7047426FB0F8AB
:1038000068C09268012380F8783001FB0CF1090C44
:1038100002F11803418653F804CF6B4901EA0C0CFE
:103820004CF4E04CC3F800C0B0F86830B0F8561063
:103830005B1A1364B0F85830D363418E51635368F8
:103840005E490B4043F070035360032380F83A3025
:10385000526859490A40511E8941C943028FC90F14
:10386000012A02D100220121028708467047000088
:10387000426F9368D3F804C0504A02EA0C0CC3F8B4
:1038800004C0036E426F90F83A0002EB800CDCF843
:1038900064201068514A181A904203DD47F6FF72FF
:1038A000904200DB1046088048807047416F89686D
:1038B000012280F8782000234B636FF001020A6137
:1038C0000A69D307FCD54A6C42F400424A64416F4E
:1038D00091F8BA20022A0DD1B1F8AC20096A8A61A8
:1038E000416FB1F8AE20496A8A62406FB0F8B010FB
:1038F000806A81627047000070B4426F93681168FB
:103900005268012480F878406FF001041C611D6941
:10391000EE07FCD51C6101245C63B0F868506D1F94
:103920001D641C69E507FCD5DC6844F00104DC601B
:103930005C6C44F480645C645C6C44F400445C64DF
:10394000446F94F8BA50022D19D1B4F8AC50246ADF
:103950001B6A40F25556334206D0A561436FB3F857
:10396000AE405B6A9C6105E0A562436FB3F8AE4070
:103970005B6A9C62436FB3F8B0409B6A9C6203240D
:1039800080F83A408B680748034043F008038B6097
:103990009168084040F00800906070BC70470000DB
:1039A000C0FFFF5FC0FFFF7F47ACC5A7240D00200D
:1039B000C0FFFF3FFFFFDF7F700000028FFFFFFDB2
:1039C00006BD37868CFFFEFFFF8CFFFE5D3E0008C4
:1039D000A9AC00081DA00008753D00080180FFFF8C
:1039E000416F8968012280F878206FF001020A6136
:1039F0000B695FEAC37CFBD50A6100224A638A63D4
:103A0000CA63B0F868305B1F0B640A69D307FCD542
:103A10004A6C42F480624A644A6C42F400424A644E
:103A2000426F92F8BA30022B0DD1B2F8AC30126A64
:103A30009361426FB2F8AE30526A9361426FB2F84E
:103A4000B030926A9361032380F83A30086A40F4F8
:103A500080500862C86840F00100C86070470000EC
:103A6000F0B5044681B0606F8568066847684649CE
:103A70000020E0652066606684F86C002A6A43488E
:103A800002402A62616080214148A0610422A4F8BA
:103A90006A1084F86D2084F83A20204600F06AF914
:103AA0003C48696801407029FBD1B1683A4801403F
:103AB00041F00801B16004F16C03B968084040F0BE
:103AC0000800B86004F13801606F90F8BB20284608
:103AD00000F0A3F9204600F0C1F9002084F86C0042
:103AE00084F86D0084F83A0020462C49616000F0AB
:103AF00041F9606F90F8BB2004F16C0304F13801C8
:103B0000284600F08AF9204600F0A8F9E06D244923
:103B100061600009E065206E00092066606E0009A2
:103B200060662048A06105F11800016821F00801D5
:103B30000160011D026822F4006202600B6823F03C
:103B400008030B60B4F868206A63B4F86830AB63AC
:103B5000B4F86820EA63036843F00803036002686E
:103B600042F4006202600422086840F00800086025
:103B700040F25550296A01432962002084F83A2016
:103B800084F8700001B0F0BD17350008AAFAFFFFF5
:103B90008534000870000002C0FFFF7F5F35000819
:103BA000A9AC00089734000801EB410300EB830047
:103BB000C2817047A0F814117047C1844942018541
:103BC000704730B403465C889D8818780C4324EA1B
:103BD000020229430A285A80998002D122B90B2077
:103BE00001E00AB10A20187030BC7047010048BFDC
:103BF000494201225FF00100C2F11F0300FA03F302
:103C0000994205D2521C5FFA82FCBCF1200FF3D31B
:103C1000511E88407047C1607047016170470E00B7
:103C2000044A054B0549136000B2081850609068BB
:103C3000704700BF000C0240400060000000FF7FA2
:103C400001700021C16070472DE9F04106460C4625
:103C5000307817460125B0B9304600F02FF9F18CC5
:103C6000B6F92820A142B8BF002594421EDB2900E6
:103C70002FD0FFB93078270401280CBF7760B760D8
:103C80000020F06024E07068C11300EB1140F18B5C
:103C90000014A142A4BFB6F92420944206DB318C63
:103CA0008C42BCBFB6F92220A242E2DA00252846A7
:103CB000BDE8F0817480B18B074B07FB01F8A8FBCE
:103CC0000332510A271A491C3F04F16097FBF1F0B7
:103CD000B0612846BDE8F081986E128381827047FA
:103CE000C1827047408B704781607047134690F8DF
:103CF0002C20002A00D07047F0B41A0012D1448B57
:103D0000C269818104EB840502FB01F36D004278F6
:103D1000418593FBF5F313FB02F20023C281038577
:103D2000F0BC7047828E478B114DB0F90E60418513
:103D30005343A3FB0554C369457803FB01F207EB2A
:103D40008703640A4FEA430C641C92FBFCFC96FB5D
:103D5000F5F204850FFA8CF312B29A1A1204A4B287
:103D600092FBF4F35D43360405624662F0BC704793
:103D7000986E128370B4416F8968012280F87820B0
:103D80000023B0F8682080F8423052084A63B0F847
:103D9000682052088A63B0F868205208CA63B0F8F5
:103DA0006820521F0A646FF001020A610B69DC0788
:103DB000FCD50A614B6C43F480634B644B6C43F459
:103DC00000434B64436F93F8BA40022C1ED1B3F802
:103DD000AC401B6A0D6A40F2555635420BD09C61CF
:103DE000436FB3F8AE405B6A9C61406FB0F8B0308F
:103DF000806A83610AE09C62436FB3F8AE405B6AFD
:103E00009C62406FB0F8B030806A83620A61C86813
:103E100040F00100C86070BC7047F0B40468521CE8
:103E200004F06004602C1CBF1204520C6FF00204FA
:103E30005205046100251E78102E0DD20669B707C1
:103E4000F9D56D1CAEB2B6EB124F0461F3DB1F78EF
:103E5000102FF0D201200880F0BC7047416F8968B4
:103E6000CA6852085200CA60002380F842304A6C87
:103E700022F400424A6490F87020012A12D0426F66
:103E800092F8BA30022B0DD1B2F8AC30126A9362BC
:103E9000426FB2F8AE30526A9362426FB2F8B030FD
:103EA000926A93626FF001020A610B695FEAC37C58
:103EB000FBD50A61002180F8781070478068C11333
:103EC00000EB11400014704770B582B0056A446A77
:103ED00090F82C3055F8236054F8234000250AB19F
:103EE00001231370822900F2D383DFE811F08300ED
:103EF00089009000DC0097009B00A200A900CF0081
:103F0000FD0004010B01D3001B0122012901300136
:103F10004C01D103D1039C018001D103D103D10312
:103F2000B000B7005E0265026C02BE009A029E02FB
:103F3000D103A702B102B502BE02C2029A029E02DA
:103F4000CB02CF02D802DC02E502EE02D103D1039C
:103F50006801B801D001E501FF011402D103D103CA
:103F6000D103D103D103D10373027D0287028B02F7
:103F700012012E024602D103D103D103D103D10392
:103F8000D103D103D103D103D103D103D103D10391
:103F9000D103D103D103D103D103D103D103D10381
:103FA000D103D103E300D103D103D103D103D10362
:103FB000D103D103D103D103D103F702FB021803CC
:103FC00022032C03360340030903EF00F600C2006E
:103FD000D103C700CB004A0354035F036A03750390
:103FE0007E03890394039F03A903B103B903C103AB
:103FF000D303C90300F056FB0546284602B070BD46
:10400000A06A00F052FB0546284602B070BDA06AC7
:10401000FEF77FF80546284602B070BD304600F036
:104020004AFBF2E1206800F049FB0546284602B051
:1040300070BD206800F045FB0546284602B070BD03
:10404000206800F041FB0546284602B070BD206B99
:1040500000F03DFB0546284602B070BDE06A00F066
:104060003CFB0546284602B070BD304600F048FBD8
:10407000CBE1DFF82856284602B070BD1D25284642
:1040800002B070BD3525284602B070BD304600F044
:1040900041FB14E2304600F03DFB0090BDF90250B8
:1040A000284602B070BD304600F03BFB054628466E
:1040B00002B070BD304600F034FB0128304602D11A
:1040C00000F031FBA1E100F0F6FA9EE1206800F07B
:1040D00032FB0546284602B070BD2068FFF702FE9D
:1040E0000546284602B070BD606800F0E7FA054654
:1040F000284602B070BD606800F0E3FA0546284625
:1041000002B070BD606800F0DFFA0546284602B0D4
:1041100070BD304600F0FEFA0090BDF9025028460E
:1041200002B070BDA06800F0C9FA0546284602B08A
:1041300070BDA06800F0C5FA0546284602B070BD03
:10414000A06800F0C1FA0546284602B070BD816A39
:1041500090F82C0051F8201000200A0F092A08BFFF
:10416000A069C1F30361092908BFE069002800F0D4
:10417000A7810DF10202694600F0DFFABDF9005097
:10418000284602B070BD816A90F82C0051F82010CA
:1041900000200A0F092A08BFA069C1F30361092999
:1041A00008BFE069002800F08B816A460DF102012A
:1041B00000F0C3FABDF90050284602B070BD816A14
:1041C00090F82C0051F8201000200A0F092A08BF8F
:1041D000A069C1F30361092908BFE069002800F064
:1041E0005982FDF79AFF0546284602B070BD816AE4
:1041F00090F82C0051F8201000200A0F092A08BF5F
:10420000A069C1F30361092908BFE069002800F033
:1042100057810DF10202694600F094FABDF9005091
:10422000284602B070BD816A90F82C0051F8201029
:1042300000200A0F092A08BFA069C1F303610929F8
:1042400008BFE069002800F03B816A460DF10201D9
:1042500000F078FABDF90050284602B070BD816ABE
:1042600090F82C0051F8201000200A0F092A08BFEE
:10427000A069C1F30361092908BFE069002800F0C3
:10428000098200F06EFA0546284602B070BD816AC8
:1042900090F82C0051F8201000200A0F092A08BFBE
:1042A000A069C1F30361092908BFE069002800F093
:1042B000F18100F060FA02E1816A90F82C0051F877
:1042C000201000200A0F092A08BFA069C1F303616A
:1042D000092908BFE069002800F0DC8100F04BFAF2
:1042E0000090BDF90250284602B070BD816A90F876
:1042F0002C0051F8201000200A0F092A08BFA069DD
:10430000C1F30361092908BFE069002800F0C281F8
:1043100000F03FFAD3E0816A90F82C0051F82010A9
:1043200000200A0F092A08BFA069C1F30361092907
:1043300008BFE069002800F0AD8100F02AFA009083
:10434000BDF90250284602B070BD816A90F82C0079
:1043500051F8201000200A0F092A08BFA069C1F3F4
:104360000361092908BFE069002800F0938100F08B
:104370001CFA0514284602B070BD816A90F82C0022
:1043800051F8201000200A0F092A08BFA069C1F3C4
:104390000361092908BFE069002800F07B8100F073
:1043A00007FA0514284602B070BDE06B00F003FA6E
:1043B0000546284602B070BD002100F009FA054606
:1043C000284602B070BD012100F002FA05462846D9
:1043D00002B070BD0269002A00F05C8100219047A4
:1043E0000546284602B070BD0269002A00F05281DD
:1043F000012190470546284602B070BD606A00F072
:10440000F1F902E0606A00F0EFF9C0EB00118800FA
:10441000A34A80FB0232951005EBD575284602B001
:1044200070BD304600F0E3F949E0304600F0DFF9B6
:104430000090BDF90250284602B070BD60690028A6
:1044400000F0288100F0DAF90546284602B070BD78
:10445000304600F0D6F932E0304600F0D2F9009054
:10446000BDF90250284602B070BD304600F0D0F9C8
:1044700025E0304600F0CCF90090BDF90250284606
:1044800002B070BD304600F045F918E0304600F04B
:1044900041F90090BDF90250284602B070BD304687
:1044A00000F0BDF90BE0304600F0B9F90090BDF91D
:1044B0000250284602B070BD304600F0B8F90090B6
:1044C000BDF90050284602B070BD304600F0AFF98B
:1044D0000090BDF90250284602B070BD0125284663
:1044E00002B070BDE06C10B1FCF7DEFF0546206D38
:1044F00010B1FEF701FD2D18EDB2284602B070BDD7
:10450000E06C10B1FCF7CEFF0546206D10B1FEF750
:10451000F1FC2D18EDB26D1E284602B070BDE06CA6
:10452000002800F0B780FCF7F9FF0546284602B0E6
:1045300070BDE06C002800F0AD80FCF7F3FF05468D
:10454000284602B070BDE06C002800F0A380FCF7A4
:10455000EDFF0546284602B070BDE06C002800F073
:104560009980FCF7E7FF0546284602B070BD206D34
:10457000002800F08F80FEF7B9FC0546284602B0FF
:1045800070BDA069002800F08580FDF78EFC05460F
:10459000284602B070BDE06C00287BD0FDF7F8FB28
:1045A000FEF7CCFD0546284602B070BD206D002800
:1045B00070D0FEF749FDFEF7C1FD0546284602B062
:1045C00070BDE06C002865D0FDF7E8FBFEF7B6FD96
:1045D0000546284602B070BDE06C00285AD0FDF7B1
:1045E0000DFC0546284602B070BDE06C002851D095
:1045F000FDF72EFCFEF7A2FD0546284602B070BD71
:10460000206D002846D0FEF723FDFEF797FD0546F6
:10461000284602B070BD206D00283BD0FEF730FD6B
:10462000FEF78CFD0546284602B070BDE06C88B3ED
:10463000FDF708FCFEF782FD0546284602B070BD76
:10464000E06C38B3FDF7DDFB0546284602B070BDCF
:10465000E06CF8B1FDF7D8FB0546284602B070BD06
:10466000E06CB8B1FDF7F7FB0546284602B070BD17
:10467000E06C78B1FDF7F4FB0546284602B070BD4A
:10468000206D38B1FEF71EFD0546284602B070BD0C
:1046900002B11570284602B070BD00BF7E65253E90
:1046A0006766666690F82C007047014688884988DE
:1046B00040EA01407047406800F0C1B8B0F904001A
:1046C0007047B0F906007047B0F922007047014604
:1046D000C88849884843000C7047017869B9018A45
:1046E000026A8A1AB0F91E10808C4A43D31302EB77
:1046F000134200EB224000B27047808A00B270473C
:1047000000B581B04068FDF706FD01B05DF804EB2F
:10471000FDF76EBC81B0806801690091084601B068
:104720007047407E7047014600200A7B012A08BF7F
:10473000B1F90E007047008B7047438C0B80C08C22
:104740001080704770B504460D46164604F13400DB
:10475000FFF7B4FF288004F13400FFF7B2FF308088
:1047600070BDB0F90C10B0F91400C1EBC13191FB70
:10477000F0F000B2704781B0B0F81C11026E0A412F
:10478000ADF80020406E0841ADF80200009801B07D
:10479000704781B0B0F97010ADF80010B0F8720039
:1047A000ADF80200009801B07047D0F800017047E2
:1047B000D0F8FC007047B0F9040170478169002906
:1047C00018BF084770474368002B18BF1847704749
:1047D00000B581B0836889220BB198470246104624
:1047E00001B000BDC08B7047B0F92400704781B0A4
:1047F0008068C1680091084601B0704790F8480091
:10480000704781B0806801680091084601B0704728
:1048100081B0806841680091084601B0704781B05E
:104820008068D0F816100091084601B0704781B03A
:104830008068D0F81A100091084601B070474068AF
:10484000C11300EB11400014704700002DE9F04146
:10485000040082B000F014822078DFF88C66C10773
:104860001BD5B068F16800F00C000C280CD101F0E9
:10487000030103290AD06068B0F5803F31D1306868
:1048800040F4803030603EE00828F4D13068810385
:1048900003D56068002800F0F381217888076AD585
:1048A000B068F16800F00C000C284CD101F0030155
:1048B00002294AD0E068002800F08180316841F484
:1048C0008071316000F02AFB0546306841056ED4E6
:1048D00000F024FB401B0328F7D3032002B0BDE8FF
:1048E000F081B0F5A02F306806D140F48020306010
:1048F000316841F4803105E020F480303060316867
:1049000021F480213160606870B100F007FB05463A
:1049100030688103C1D400F001FB401B6528F7D348
:10492000032002B0BDE8F08100F0F8FA05463068D7
:104930008103B2D500F0F2FA401B6528F7D30320BB
:1049400002B0BDE8F0810428B4D13068410503D538
:10495000E068002800F094817068216920F0FE4032
:1049600040EA01607060DFF88C05006800F0DCFA56
:10497000002840F085812078010748D5606900282B
:10498000D6F894002ED040F00100C6F8940000F054
:10499000C5FA0546D6F89400810738D400F0BEFA6F
:1049A000401B0328F6D3032002B0BDE8F0817068F5
:1049B000216920F0FE4040EA01607060DBE730686A
:1049C00020F48070306000F0A9FA05463068410597
:1049D000D1D500F0A3FA401B0328F7D3032002B07F
:1049E000BDE8F08140084000C6F8940000F096FA57
:1049F0004FEA0005D6F89400810708D500F08EFA3A
:104A0000401B0328F6D3032002B0BDE8F0812078D4
:104A1000410772D5B06D0025C10009D4B06D40F0DA
:104A20008050B0650125B06D00F080500090009876
:104A3000DFF8C4743868C10513D4386840F4807056
:104A4000386000F06BFA80463868C10509D400F080
:104A500065FAA0EB08000328F6D3032002B0BDE8F6
:104A6000F081A068012804D1D6F8900040F0010040
:104A700014E00528D6F8900008D140F00400C6F8EC
:104A80009000D6F8900040F0010007E04008400098
:104A9000C6F89000D6F8900020F00400C6F8900008
:104AA00041F28937A06888B100F038FA4FEA00086F
:104AB000D6F8900081071BD400F030FAA0EB080074
:104AC000B842F5D3032002B0BDE8F08100F026FA29
:104AD0004FEA0008D6F89000810709D500F01EFAC9
:104AE000A0EB0800B842F5D3032002B0BDE8F08186
:104AF0001DB1B06D20F08050B065207881062CD5B6
:104B0000A0690028D6F8980013D040F00100C6F83C
:104B1000980000F003FA0546D6F8980081071CD4E7
:104B200000F0FCF9401B0328F6D3032002B0BDE8D7
:104B3000F08140084000C6F8980000F0EFF9054603
:104B4000D6F89800810708D500F0E8F9401B032843
:104B5000F6D3032002B0BDE8F081E069002800F040
:104B60009380B16801F00C010C295ED002283068F6
:104B700020F08070306040D100F0D0F905463068F8
:104B8000810108D500F0CAF9401B0328F7D30320A0
:104B900002B0BDE8F081F068DFF86013226A0840D7
:104BA000616A1043491E40EA0110226BA16A520853
:104BB00040EA0120616B521E490840EA4250491EFA
:104BC00040EA4160E16A40EAC160F060306840F06C
:104BD00080703060F16841F08071F16000F09EF902
:104BE0000446306881014FD400F098F9001B032877
:104BF000F7D3032002B0BDE8F081F168DFF80003CD
:104C000089088900F160F1680140F16000F086F9DF
:104C100004463068810137D500F080F9001B032875
:104C2000F7D3032002B0BDE8F081012828D0F06856
:104C3000226A00F00301914201BF00F0F001626AB4
:104C4000521EB1EB021F1BD1A26A00F4FE41B1EB70
:104C5000022F02BF00F07841E26AB1EBC26F0FD1C0
:104C6000226B520800F4C001521EB1EB425F07D123
:104C7000616B490800F0C060491EB0EB416F03D082
:104C8000012002B0BDE8F081002002B0BDE8F08153
:104C90002DE9F04704460027002C884671D0DFF844
:104CA0006462306800F00F00404509D2316809099C
:104CB00048EA01113160306800F00F00404560D1D2
:104CC0002078DFF82452C1075ED5606803282AD116
:104CD0002868810155D5E968E868C0F30310401CD5
:104CE00001F0030103290CBFDFF81C12DFF80012EA
:104CF000B1FBF0F1E868C0F306204143E868C0F377
:104D00004160401C4000B1FBF0F0DFF80012884227
:104D10001AD3A86810F0F00F0FD02078810713D5B0
:104D2000A06888B909E00228286828D1810328D51D
:104D300000F08AF87549884206D3A86820F0F00090
:104D400040F08000A8608027A9686068890840EA70
:104D50008101A96041F2893900F0E0F88246A86833
:104D6000616800F00C00B0EB810F0DD000F0D6F8B8
:104D7000A0EB0A004845F2D30320BDE8F0874105C7
:104D8000D6D40120BDE8F0872068810715D54007FB
:104D900003D5A96841F4E061A9602078010705D531
:104DA000A86820F4605040F4E060A860A968A0689A
:104DB00021F0F0010143A96005E0802F03D1A8682C
:104DC00020F0F000A860306800F00F00804516D297
:104DD0003168090948EA0111316041F2893900F06E
:104DE0009DF80746306800F00F00404507D000F0FE
:104DF00095F8C01B4845F5D30320BDE8F08720781F
:104E0000410705D5AA68E06822F4E0620243AA607F
:104E10002178080706D5A968206921F4605141EA84
:104E2000C001A96000F010F8AA683949C2F3031262
:104E3000895C2E4A01F01F01C8401060BDE8F047B0
:104E40002C48006800F070B83249086800F00C0087
:104E5000042801D126487047086800F00C00082893
:104E600001D129487047086800F00C000C2818D1BF
:104E70004A684868C0F30310401C02F00302032A8A
:104E80000CBF214A1A4AB2FBF0F24868C0F3062070
:104E900042434868C0F34160401C4000B2FBF0F060
:104EA0007047002070471148006870470F48194A42
:104EB000006813681849C3F30222895C01F01F01DE
:104EC000C84070470948134A006813681249C3F381
:104ED000C222895C01F01F01C84070470248016886
:104EE00041F400210160704700100240240D0020B1
:104EF0000024F4001C0D0020007000400C809F0175
:104F0000FFFFEEFE0020024000366E0101B4C40433
:104F1000DCAF00080810024020B10008014800681A
:104F2000704700BF180D002070B50F4E0446B068E2
:104F30000025A8B14FF47A710C4AB1FBF0F110686A
:104F4000B0FBF1F000F059F850B9102C08D2002253
:104F500021464FF0FF3000F018F87460284670BD0D
:104F60000125284670BD00BF180D0020240D00202B
:104F70002B4B19684FF6FF020002114000F4E0606D
:104F80000843284908431860704730B4244B1C6814
:104F9000C4F30223C3F10705052D28BF0F2405D252
:104FA0000125C3F1070405FA04F4641E1D1D072D35
:104FB00034BF0023DB1E21409940012404FA03F38F
:104FC0005B1E1A4011430901020003D416488154A4
:104FD00030BC7047154B02F00F021A4402F8041C53
:104FE00030BC7047010007D4012200F01F01104BB4
:104FF0008A40400943F820207047401EB0F1807F6E
:1050000001D3012070470B494860F02081F8130D4F
:1050100000228A60072008600020704700F00CB86A
:105020000CED00E00000FA0500E400E018ED00E0FF
:1050300000E100E010E000E07047000010B504005F
:1050400001D1012010BD94F83D0028B9002184F859
:105050003C10204600F00DFC022084F83D00211D8C
:10506000206800F001F9012084F8480084F83E002F
:1050700084F83F0084F8400084F8410084F842003E
:1050800084F8430084F8440084F8450084F846001E
:1050900084F8470084F83D00002010BD10B50400DE
:1050A00001D1012010BD94F83D0028B9002184F8F9
:1050B0003C10204600F07AFC022084F83D00211DBF
:1050C000206800F0D1F8012084F8480084F83E0000
:1050D00084F83F0084F8400084F8410084F84200DE
:1050E00084F8430084F8440084F8450084F84600BE
:1050F00084F8470084F83D00002010BD30B5044618
:1051000081B094F83C0001280D4608BF022000F051
:105110007E800120142A84F83C0000F27580DFE8CC
:1051200002F00B7373731C7373732E7373733F737B
:105130007373517373736200206800F0EEF8216896
:10514000886940F008008861886920F0040088615F
:105150008A69286902438A6156E0206800F027F9CD
:105160002068816941F400618161816921F4806175
:10517000816181692A6941EA0221816144E02068F4
:1051800000F051F92168C86940F00800C861C86999
:1051900020F00400C861CA6928690243CA6133E08B
:1051A000206800F07AF92068C16941F40061C161AA
:1051B000C16921F48061C161C1692A6941EA0221A2
:1051C000C16121E0206800F0A3F92168086D40F07A
:1051D00008000865086D20F0040008650A6D28695C
:1051E00002430A6510E0206800F0BDF92068016DF7
:1051F00041F400610165016D21F480610165016D7B
:105200002A6941EA02210165002084F83C0001B0CE
:1052100030BD10B5044694F83C00012801D10220AD
:1052200010BD012084F83C00022284F83D20204675
:1052300000F0C5F930B1012084F83D00002184F868
:105240003C1010BD2068C16821F04001C160206899
:10525000C16821F48041C160012084F83D00002133
:1052600084F83C10002010BD30B4DFF80C34046822
:10527000984218BFB0F1804F0AD0DFF80024904266
:105280001FBFDFF81054A842DFF8F423904210D17A
:105290004A6824F070041443984218BFB0F1804F5C
:1052A00017D0DFF8D82390421CBFDFF8E853A8429C
:1052B0000FD0DFF8CC2390421CBFDFF8C853A842C0
:1052C00007D0DFF8C42390421CBFDFF8C053A842C8
:1052D00003D1CA6824F4407414434A6924F080045A
:1052E0001443046098428C68C4621CBFDFF890339A
:1052F00098420A6882620AD0DFF8882390421FBF72
:10530000DFF884339842DFF88423904201D10969A1
:1053100001630122426130BC7047F0B4026A520856
:1053200052000262066A44688569DFF86C230B68E4
:1053300015408A681D4326F002061643DFF838330D
:1053400098421CBFDFF83873B8420AD0DFF8342324
:1053500090421FBFDFF83073B842DFF8302390422D
:1053600013D1CA6826F00806164398421CBFDFF81E
:105370001033984226F004060BD0DFF80823904241
:105380001CBFDFF80433984203D0DFF800239042BB
:1053900005D14B698A6924F440741C43144344606A
:1053A0008561496841630662F0BC7047000070B4D3
:1053B000026A22F010020262056A43688469DFF81B
:1053C000DC220E6825F0200514408A6845EA0215A3
:1053D000A94A44EA062490421CBFA94EB04208D113
:1053E000CE6825F0800545EA0615904225F0400577
:1053F0000BD0A34A90421CBFA24EB04205D0A24A95
:1054000090421CBFA14EB04206D14E698A6923F476
:105410004063164343EA86034360846149688163BD
:10542000056270BC704770B4026A9B4B22F48072B4
:105430000262066A4468C5690A681D4015438B68A4
:105440008D4A26F4007646EA032690421CBF8C4B18
:10545000984208D1CB6826F4006646EA03269042BB
:1054600026F480660BD0864A90421CBF854B98423A
:1054700005D0854A90421CBF844B984206D14B69A7
:105480008A6924F44054134344EA03144460C56118
:105490004968C163066270BC704770B4026A22F446
:1054A00080520262056A4368C4697C4A0E6825F42A
:1054B000005514408A6845EA02356F4A44EA0624DA
:1054C00090421CBF6E4EB04208D1CE6825F4004514
:1054D00045EA0635904225F480450BD0684A904253
:1054E0001CBF684EB04205D0674A90421CBF674E51
:1054F000B04206D14E698A6923F44043164343EA19
:1055000086134360C46149680164056270BC7047DA
:1055100070B4026A624B22F480320262046A456807
:10552000066D0A681E4016438B68534A24F4003403
:1055300044EA034490421CBF514B984207D0514A61
:1055400090421FBF504B9842504A904204D14A6942
:1055500025F4803545EA0225456006654968816481
:10556000046270BC704770B4026A22F48012026256
:10557000036A4468056D4B4A0E68154045EA0625E6
:105580008A683D4E23F4001343EA0253B0421CBF25
:105590003B4A904207D03B4EB0421FBF3A4A90422E
:1055A0003A4EB04204D14A6924F4802444EA822469
:1055B000446005654968C164036270BC704730B4DB
:1055C00004683348A5684B68374A05401D4308689E
:1055D00015400543A5604A68402A11D0502A24D0BE
:1055E000602A34D0702A44D108698A68C968A368DF
:1055F00023F47F4319430A4342EA0022A26038E0C1
:105600000868052814BFB0F1011F012032D0206ABC
:10561000226A520852002262A269096922F0F0024D
:1056200042EA0112A261206223E008698968226AC5
:10563000236A5B085B00236222F00A02A36923F05D
:10564000F00343EA0013A3611143216211E00869EA
:105650008968226A22F010022262A269236A22F477
:10566000704242EA003223F0A003A26143EA011330
:105670002362002030BC7047002C01400004004031
:105680000034014000400140004401400048014016
:105690008FFFCFFF000800408CFFFEFFFF8CFFFE56
:1056A0008FFFFEFFFF8FFFFEF8FFFEFF00B5DFF864
:1056B000D00281B0816841F001018160816801F010
:1056C000010100910099026842F080520260006876
:1056D00000F08050009000980420FFF749FC01B0D2
:1056E0005DF804EB00F0C5B930B587B0044614226C
:1056F0000021684600F0CCF92068B0F1A04F2DD110
:10570000DFF88012DFF880020A68521C012A08D1F3
:10571000036843F400530360046804F400540594E0
:10572000059B046844F001040460036803F001036E
:105730000593059B046844F002040460022300689A
:1057400000F0020005900324059800930A600023EE
:105750000194029369464FF090403FE08B498842A4
:1057600048D1884988480A68521C012A08D1036830
:1057700043F400530360046804F400540594059B4B
:10578000046844F001040460036803F00103059316
:10579000059B046844F004040460056805F00405F2
:1057A0000595059B046844F00204046080230068AA
:1057B00000F0020005900324059800930A6000237E
:1057C0000293019469464FF0904000F06BF930204D
:1057D000009000220194029269466D4800F062F93F
:1057E0004FF40060009000220292019469466948DB
:1057F00000F058F907B030BD81B0006866498842B2
:1058000009D16648026842F008020260006800F0B0
:1058100008000090009801B0704710B586B00446AB
:105820001422002101A800F033F921685C4881426C
:105830001DD15548016841F480310160026802F4CD
:10584000803200920099026842F001020260102149
:10585000006800F00100009003220098019102927C
:10586000002103914FF0904001A900F01BF906B010
:1058700010BD10B586B004461422002101A800F026
:1058800007F921684748814222D13F48416941F4E4
:1058900000614161416901F4006100910099026871
:1058A00042F0010202604FF40061006800F0010064
:1058B000009012220098019102920121039100228E
:1058C0000C210591049201A94FF0904000F0EAF8F4
:1058D00006B010BD10B586B004461422002101A800
:1058E00000F0D6F821682F48814217D12648016878
:1058F00041F0010101604FF4E061006800F0010037
:1059000000900222009801910292062105910392D3
:10591000049201A94FF0904000F0C4F806B010BD09
:1059200010B586B004461422002101A800F0B0F89A
:1059300021681D48814220D11348C16841F40031DB
:10594000C160C16801F4003100910099026842F021
:10595000010202600C21006800F0010000900222A8
:105960000098019102920021039104914FF0904020
:105970000721059101A900F095F806B010BD0000BF
:10598000581002406C1100204C10024000010050E1
:105990000008004800040048000C02404810024083
:1059A00000080050002C01400044004070470000F7
:1059B00030B4DFF8CC1038BB086800F4C060B0F534
:1059C000806FD1F8800020F48070C1F880004DD144
:1059D0000A68DFF8B030DFF8B05022F4C06242F459
:1059E00000720A6032201A684243A2FB0554E00CA0
:1059F000401C00E0401E4A69530501D50028F9D13A
:105A0000486941052AD431E0B0F5007F086828D103
:105A100000F4C060B0F5806FD1F8800040F4807071
:105A2000C1F8800022D10A68DFF85830DFF85850FA
:105A300022F4C06242F400720A6032201A684243C3
:105A4000A2FB0554E00C401C00E0401E4A695305CF
:105A500001D50028F9D14869410507D530BC03209C
:105A6000704720F4C06040F480600860002030BCC3
:105A700070470648016841F48041016070470000AA
:105A800000700040240D002006BD378608700040DD
:105A900010B5044610460A460146204600F0F0F8CC
:105AA000204610BD2DE9F04F81B00E464FF00009A1
:105AB00035686B496B4A6C4B002D4FF00F0800F0B6
:105AC000C68005460124306804FA09F4204000F03D
:105AD000B7804FEA490C032707FA0CF76FEA070E65
