:020000040800F2
:10000000701400205D9C0008C99C0008199200082B
:10001000CD9C0008D19C0008D59C00080000000081
:10002000000000000000000000000000D99C000853
:10003000DD9C000800000000E19C000879920008A7
:10004000E59C0008E99C0008ED9C0008F19C000874
:10005000F59C0008F99C0008FD9C0008019D000823
:10006000059D0008099D00080D9D0008119D0008D0
:10007000159D0008199D00081D9D0008219D000880
:10008000259D0008299D00085D9100082D9D000810
:10009000319D0008359D0008399D00083D9D0008F0
:1000A0008591000877910008419D0008459D000852
:1000B000499D000800000000000000004D9D000860
:1000C000519D0008559D0008599D00080000000042
:1000D0005D9D0008619D0008B9910008659D0008BC
:1000E0009D920008699D00086D9D000800000000B9
:1000F0000000000000000000000000000000000000
:10010000000000000000000000000000719D0008D9
:100110000000000000000000759D000800000000C5
:1001200000000000000000000000000000000000CF
:1001300000000000000000000000000000000000BF
:10014000799D00087D9D000800000000000000006F
:10015000000000000000000000000000000000009F
:10016000819D0008859D0008899D00088D9D0008DF
:10017000919D000800000000000000000000000049
:1001800000000000959D000810B50446DF4860633C
:1001900001F01AFE002084F8300084F83A0020466E
:1001A00000F09BF8002084F82401F7EE000AD4F850
:1001B000400590ED000A2069B8EE400A84ED100A6F
:1001C00080EE800A84ED0F0A01F021FE00EE100A95
:1001D000D4F84005B8EE400A84ED110AF6EE000AA4
:1001E00090ED130A90ED091A60EE200AC0EE810A24
:1001F000FDEEE00A10EE901AA4F84810F0EE000AA6
:1002000090ED060A90ED071A60EE200A60EE810A72
:1002100090ED130A80EE200A84ED130AF5EE000A31
:10022000C16A216590ED0B0A60EE200AC4ED160A42
:10023000C06A60650020E06520666066A06684F89C
:100240008C00C4F89000C4F8940084F89800C4F8B6
:100250009C00C4F8A000C4F8A400C4F8A800C4F826
:10026000AC00C4F8B000C4F8B40084F83C052046E3
:1002700001F0E4F90020C4F8CC00C4F8D000C4F8C0
:10028000D40084F8D800DFED9D0AD4F84005DFF8EB
:10029000FC2C816BC4F8DC10416CC4F8E01081FBCD
:1002A0000232921002EBD27200EE101AC4F8E8206B
:1002B000B8EEC00A20EE200A4FF4FA72BDEEC00A72
:1002C0000021C4F8E82084ED390AA4F82C11C06B91
:1002D000C4F8300184F8341110BD002180F83B10BF
:1002E00080F8EC10A0F8181180F81A11A0F81C1171
:1002F000C0F82011C0F83811704710B5044600212D
:1003000094F83B00042808D1082184F8301000201C
:1003100084F8EC000121084610BD94F83000C0B903
:10032000206801F076FD0020012184F83A0084F86D
:1003300030102046FFF7D1FF002084F8240101216E
:10034000606D2065002084F88C0084F898000120FE
:100350002087084610BD10B50446206801F05EFDF8
:1003600094F83000062818BF072804D00A281CBFBC
:10037000002084F8300010BD30B5044681B094F8F8
:100380003000401E072800F2B680DFE800F00404C9
:10039000040422B4B43F206801F045FD90B1072168
:1003A00084F83010E06801F07DFD206801F0F1FD77
:1003B00094ED4A0ADFED520A20EE200A204601F0B1
:1003C00061FC93E0204600F0F9FF84ED4A0A01B099
:1003D00030BD206801F027FD002800F08C80072048
:1003E00084F830000721E06801F05CFD206801F02E
:1003F000D0FD94ED4A0ADFED420A20EE200A2046A5
:1004000001F040FC206DC4F828016FE094F83B0037
:10041000042870D0206801F006FD00286BD094ED10
:100420004A0ADFED370A20EE200A204601F02AFCB6
:10043000D4F8400594ED140A84ED4A0A9FED311A70
:10044000D0ED060AD0ED071A20EE811A21EE211A0E
:10045000D0ED130AC1EE200A20EE800ABDEEC00ADC
:1004600010EE100A451E206A2AB2002101F093FD09
:10047000206A2AB2012101F08EFD206A2AB20221EF
:1004800001F089FD206A2AB2032101F084FD206A6F
:100490002AB2042101F07FFD94F8EC0001281BD161
:1004A000206901F07EFDC0EB00118800DFF8DC2A36
:1004B00080FB0232921002EBD27200EE102AB8EEEC
:1004C000C00ADFED110A60EE200AFDEEE00AC4ED7D
:1004D000390A204601F05CFB062084F83000072131
:1004E000E06801F0DFFC206801F053FDDFF8100E3A
:1004F0000188491C018001B030BD0000CDCCCC3E4C
:100500006666663F00008047CDCC4C3FEC0600207D
:100510002DE9F04F04460FF69C2081B000272DED09
:10052000048B066886B094F83000D4F8349009281B
:1005300000F21C85DFE810F0F4040A0054000A0001
:100540007D005E01F9041A05EA02E60494ED140A3E
:10055000204601F011F8012823D194F83000012839
:100560000DD1022184F83010484601F02DFCD4F85A
:100570004005428E4EF66021484601F015FD94F884
:10058000300003284FD1042184F83010484601F090
:100590001BFCD4F84005828E218F484601F004FDF3
:1005A00041E0208F4EF6602188423CD127872046CB
:1005B00000F004FF6FF0130084F8D800F6EE000A94
:1005C00094F89800401C84F8980020EE200AC0B2ED
:1005D000032884ED140A26D3092084F8300022E091
:1005E00094ED140A204600F0C7FF484601F0F4FBE2
:1005F000484601F01DFDB0B1032084F83000F5EE4F
:10060000000A94ED140A20EE200A6FF01300C4F8DB
:10061000A870C4F8AC70C4F8B07084ED140A84ED0E
:10062000160A84F8D800218F206801F007FD00F039
:10063000A1BC94ED140A204600F09EFF278F484687
:1006400001F0CAFB204600F0B9FED4F8B000D4EDAA
:100650002A0A401CC4F8B00030EE800A606884EDBD
:100660002A0A01F0F5FC00EE900A606841883846DD
:1006700001EE101AF8EE600AB8EE411A9FEDC20AB8
:1006800060EE810A01EE100AB8EE411A60EE800AAF
:1006900021EE000A94ED2B1AC4ED170A00EE201A81
:1006A00084ED2B1A484601F0C3FC002800F0298293
:1006B00094ED2C0A94F88C00D4ED2A0A94ED2B1AB0
:1006C000B8EE400A80EE800A04EB800184ED240A33
:1006D000D4ED2C0A81ED1B0AF8EE600A94F88C0028
:1006E00004EB8001C1EE200AC1ED1F0A94F88C00D2
:1006F000401C84F88C00C0B2042816D26FF013009E
:1007000084F8D8000020C4F8A800C4F8AC00C4F8ED
:10071000B00094ED140AD4ED160A30EE200A03203E
:1007200084ED140A84F83000EBE1052084F83000F1
:100730009FED968A002084F83A00484601F044FB79
:1007400064224EF66021484601F02EFC214603202B
:1007500091ED200AD1ED1F0A91ED1B1A30EE600ACF
:10076000D1ED1C0A70EEC10A091D80EE200A401E60
:1007700030EE088AECD1B0EE080AD4F8401588EEC5
:10078000000A84ED180A91F8400020BBD1ED0A0A56
:1007900030EE600ADFED7E0AB4EE600AF1EE10FA88
:1007A00084ED180A03D5DFF8AC0D206605E0F6EEFF
:1007B000000A20EE200A84ED180ADFED760A94ED97
:1007C000240A60EE200A0020C4ED250AC4F8A40023
:1007D000C4F8A00095E10A2084F830000721E06801
:1007E00001F060FB206801F0D4FB206801F016FBEB
:1007F000002786E1204600F0E1FD94F83A0010B1B0
:10080000022808D018E0DFED640AB4EE600AF1EEC9
:1008100010FA11D50DE0D4ED250A278FB4EE600A49
:10082000F1EE10FA05D5D4F89C00401CC4F89C00E9
:1008300002E0484601F00EFC484601F0CDFA484679
:1008400001F0F6FB002800F05C8194F83A0018B142
:10085000022810D008D354E1012084F83A00484619
:1008600001F0B2FA0A2247E1022084F83A0000209F
:10087000C4F89C003CE1002084F83A0094ED270A7B
:10088000D4ED0F0AD4F8A00094ED291AB8EE400A6E
:1008900020EE200AD4ED180A00EE201A401C14287D
:1008A00084ED291AC4F8A00040F02281062084F8C3
:1008B00030000721E06801F0F5FA206801F069FBDB
:1008C000206801F0ABFA94ED280AD4ED290A60689B
:1008D000B8EE400A80EE800A84ED190A01F0B8FBF8
:1008E00000EE100A606894ED182A4188D4F840059B
:1008F000D4ED4C1A00EE901AB8EE400AF8EE600AF9
:1009000020EE200A9FED201A20EE010A84ED170A3E
:100910000022D0ED060A20EE200AD0ED070A20EED4
:10092000200AD0ED130A80EE201A94ED190AD4EDB6
:10093000370A20EE210A62EE211A94ED0F2A80EE8A
:10094000010A61EE821A002760EE200A81EE811A08
:100950004FF0100C1020102190460F2547F6FF7322
:100960004FF0010B0BFA05F601EE906AF8EEE11A72
:1009700061EE801AFDEEE11A11EE906A9E4210DAE5
:100980004FFA85FC0DE000BF00008037000000003A
:10099000CDCC4C3E9ED2213F0AD7233CBEF1100F56
:1009A000E0D01FFA80FEBEF1100F0FD10BFA05F256
:1009B00001EE902AF8EEE11A61EEA01AFDEEE11ABE
:1009C00011EE902A9A42B8BF68B200BF1FFA81FEAA
:1009D000BEF1100F0ED10BFA05FE01EE90EAF8EE13
:1009E000E11A61EE811AFDEEE11A11EE908A984546
:1009F000B8BF69B26D1E1FFA8CFECFD5BEF1100FC5
:100A000083460D46924609D0A0691FFA8CF101F089
:100A100025FBA06931B201F027FB02E0092084F830
:100A200030001FFA8BF010280AD0E0691FFA8BF112
:100A300001F014FBE0690FFA8AF101F015FB02E006
:100A4000092084F83000A8B2102812D0A069A9B2F9
:100A500001F00CFBE069A9B201F008FBA0690FFAF4
:100A600088F101F016FBE0690FFA88F101F011FB43
:100A700002E0092084F83000DFEDA00AD4F8400538
:100A800090ED060A90ED071A60EE200A60EE810AEA
:100A900090ED130A80EE800AD4ED140A20EE200AAD
:100AA000BDEEC00A10EE100A461E206A32B20021C6
:100AB00001F071FA206A32B2012101F06CFA206A69
:100AC00032B2022101F067FA206A32B2032101F04A
:100AD00062FA206A32B2042101F05DFAD4F84005CE
:100AE000428E206A002101F0D6FA204601F050F82B
:100AF000484601F069F964224EF66021484601F04B
:100B000053FA2068394601F099FA33E2E06801F0BF
:100B1000C8FA001F0F2800F22982DFE810F0100049
:100B200010001000E60127022702270227022702F1
:100B30002702270227022702270227021000A06AA5
:100B400001F0B1FA01F0B1FA0646A068006801F0C0
:100B5000AFFA0746314601F0CFFA0190A068B0F92C
:100B60001010BDF90400091AA06901F0F9FAADF8F6
:100B70000800A068B0F91210BDF90600091AE06972
:100B800001F0EEFAADF80A000299606901F028FB65
:100B90008246314601F04FFB05462068294601F0A8
:100BA00069FB8046A06847600497A1680198C86007
:100BB000A068C0F816A0A168D1F81A000390A16837
:100BC000C1F81A50A0680684606801F041FAADF8D7
:100BD000140003A9606A01F01FFCADF80000606A10
:100BE00001F00AFD2069694601F031FD94F83B00EF
:100BF000052800F2C081DFE810F006008300BE0186
:100C00004901BE016101204600F024FD022884F85C
:100C1000240122D1206901F0C4F9C0EB0011880041
:100C2000DA4A80FB0232921002EBD272C4F8E4205E
:100C3000206901F0B6F90146204601F001F80120D3
:100C400084F83B00204600F0F9FC06B01FFA88F05B
:100C5000BDEC048B01B0BDE8F08F012800F08B8162
:100C6000032821D194ED3A0ABBEEEF0AFCEEC00A4C
:100C7000C4ED3A0A204600F08BFF062084F83000CD
:100C80000721E06801F00EF9206801F082F9DFF831
:100C900070064188491C418006B01FFA88F0BDECFF
:100CA000048B01B0BDE8F08F042840F0648194ED1E
:100CB000480AB8EE400ADFEDB40A60EE200AFDEE05
:100CC000E00AC4ED390A204600F062FF062084F8ED
:100CD00030000721E06801F0E5F8206801F059F9DB
:100CE000DFF81C068188491C818006B01FFA88F055
:100CF000BDEC048B01B0BDE8F08F00BF0000804761
:100D0000D4F84005A168D0ED060AB1F90C20D0ED69
:100D1000071A9FED9F1A20EE811A21EE211AD0EDBD
:100D2000130A00EE102AC0EE810AB8EEC00A94ED54
:100D30002E1A606800EE201A84ED2E1A01F088F950
:100D400000EE100A60684188A06800EE901AB8EEC4
:100D5000400AF8EE600A20EE200A9FED8E1A20EE7F
:100D6000010A84ED170ADFED8C0AB0F91610A068AD
:100D700001EE101AB8EEC11A21EE000A94ED2F1AF6
:100D800000EE201A84ED2F1AB0F9181094ED171AFE
:100D9000D4F8C80000EE101AB8EEC00A20EE010A1E
:100DA00094ED301A42F2107100EE201A401C884275
:100DB00084ED301AC4F8C800C0F0DD8000EE100ADF
:100DC000B8EE400AD4ED2E0A80EE808AD4ED2F0AC8
:100DD000C0EE808AD4ED300A80EE809A204600F082
:100DE0002DFC206901F0DDF800EE100AB8EEC00A13
:100DF000F2EE040A80EE200ADFED680A60EE209A27
:100E0000D4ED180AD4ED191A40EEC88AD4ED110AAF
:100E100020EE200A9FED621A20EE011A21EE211A1F
:100E200001EE089A28EEA80A09EE090AB5EE400A72
:100E3000F1EE10FA02DBB1EEC08A01E09FED598AB3
:100E40009FED590A28EE000ADFED580A60EE200AED
:100E500080EEA90AE06A84ED1A0A02F0E2F8D4ED05
:100E6000170A9FED531A89EE880A80EE811A20EE48
:100E7000010A84ED330A022084F83B0006B01FFA11
:100E800088F0BDEC048B01B0BDE8F08F484600F05F
:100E9000A3FF484601F0CCF800286CD0606A01F04E
:100EA00080F800EE100ABAEE670ABDEEC00A10EE36
:100EB000101A09B2204600F0C3FE0BE0206A02F0CF
:100EC000B6F810B1032084F83B00E06801F0E9F8BF
:100ED000062850D1042084F83B0006B01FFA88F0A1
:100EE000BDEC048B01B0BDE8F08F206801F051F833
:100EF00084F8307006B01FFA88F0BDEC048B01B0A6
:100F0000BDE8F08FE068072100F0CCFF84F8307076
:100F100006B01FFA88F0BDEC048B01B0BDE8F08F7D
:100F2000E06801F0BEF8142820D1D4F8B400B0F580
:100F3000807F08BFC4F8B470204600F069FA2168C9
:100F4000032081F83A00D4F8B40004EB800181ED6D
:100F50004F0AD4F8B400401CC4F8B40006B01FFA1D
:100F600088F0BDEC048B01B0BDE8F08F20683146FD
:100F700001F080F9804606B01FFA88F0BDEC048BC2
:100F800001B0BDE8F08F0000CDCC4C3F67666666CF
:100F9000000080470000803746CD93370000704244
:100FA000DB0FC9400000000071C49C3F00007A4480
:100FB000D7B3DD3F0000000070B52DED048B044673
:100FC00086B0656BE06801F06CF894F83010062983
:100FD00009D0C0F01181082969D0C0F0FC8006B0AA
:100FE000BDEC048B70BD0B2800F20681DFE810F029
:100FF0000C000401040104014F0004010401040178
:101000000401040104010101204600F0B1FC0028A4
:1010100040F0F28094ED100AD4ED190A94ED181AFC
:10102000E06820EE802A81EE022AF7EE002AF5EE33
:10103000001A32EEC22A22EE212AF5EE002A72EEC2
:10104000222AB8EE003A32EE833A81EE201A03EEFD
:10105000001A84ED341AB7EE001A31EE421AFDEE92
:10106000002A31EE221A02EE211A21EE001A21EE98
:10107000000A20EE200A84ED350A032100F012FF59
:10108000206800F086FF06B0BDEC048B70BD082020
:1010900084F830002046FFF720F9012084F824016D
:1010A000204600F0CBFA06B0BDEC048B70BD94F87E
:1010B0003B00022840F0A080D4ED331A94ED1A2AA8
:1010C00061EE821ADFEDD02A61EEA22A9FEDCF3ABF
:1010D000B4F94830D4ED138AD4ED191A94ED109A6E
:1010E00082EE838A21EEA82A02EE903A61EE891AF6
:1010F00094ED183A22EE092AF8EEE22AC3EE211AFC
:10110000C2EE822A94ED343A9FEDCE0ADFEDCD0A8D
:101110009FEDCC1A002100200E2288EE022A83EED9
:10112000093ADFEDC93A9FEDC94A012303FA02F6F5
:1011300004EE906AF8EEE44A21EEA45AB4EE445A62
:10114000F1EE10FABEBF23EE241AB4EE441AF1EE0B
:1011500010FA12DAB4EE631AF1EE10FA0DD422EEA0
:10116000240AB4EE440AF1EE10FABEBF62EEA40AFD
:10117000F4EE440AF1EE10FA23DB521E56B2012EB1
:10118000D4DAD4ED351A61EEA81AC1EE881A0E220F
:10119000C1EE891A03FA02F602EE106AB8EEC22A0C
:1011A00061EE822AF4EE442AF1EE10FA04DAF4EE4B
:1011B000632AF1EE10FA23D5521E56B2012EE9DA57
:1011C00027E052B201EE902AF8EEE11AFDEEE11AA4
:1011D00011EE901AD5E750B9E068032100F062FEE5
:1011E000002084F8300006B0BDEC048B70BD0B28E5
:1011F00002D1E06801F021FF06B0BDEC048B70BDA8
:1012000052B201EE902AF8EEE11AFDEEE11A11EE6B
:10121000900AFDEEC51A11EE902AADF80020BDEE41
:10122000C11A11EE102AADF80220BDEEC00A10EE70
:10123000102AADF80420BDEEE20A10EE102AADF837
:101240000620BDEEE00A10EE102AADF80820BDEE33
:10125000E40A10EE102AADF80A20BDEEC20A10EE24
:10126000102AADF81000ADF80C20ADF80E1069464C
:10127000606A00F047F894ED331A94ED100AD4ED4B
:10128000110A606ADFEDB41A61EE211A61EEA01A4C
:1012900020EE002AC1EE821AB5EE002A61EE821A13
:1012A000FDEEE11A11EE902ADFEDAC1A21EE211AC3
:1012B00061EE200A80EE800ABDEEC00A10EE101A20
:1012C00012B209B201F0C4FE206900F0EEFE06463B
:1012D000206901F0CDFE0146606A324601F0CBFE86
:1012E000284600F071FDFA224EF66021284600F0F3
:1012F0005BFE032084F83B0006B0BDEC048B70BDA0
:101300006410002002460888908301234888D08317
:1013100088881084C88850840889908448891085FA
:1013200088895085C889A2F81801088AA2F81A018C
:101330000020D085B1F90CC0DFF8440A90FBFCF026
:1013400000B258B3B2F82EC000EBD070C0030CF15D
:10135000010C00145B00A2F82EC0F8B100EBD070B5
:10136000C0030CF1010C00145B00A2F82EC0A8B160
:1013700000EBD070C00300145B000CF1010C0028DE
:10138000A2F82EC00AD000EBD070C00300145B009E
:101390000CF1010C0028A2F82EC0D3D19385B1F92D
:1013A0000C00B2F92C10DFF8DC3910FB01F080FBE7
:1013B00003C31B1203EBD373D3847047D0F84015DB
:1013C000806891ED060A91ED071ADFED9B0A60EE49
:1013D000200A60EE810A91ED130AB0F90010B0F90D
:1013E000020080EE200A00EE901AF8EEE00A01EE0C
:1013F000100A60EEC00AB8EEC11A41EE400AB6EE1D
:10140000000A20EE800A70478104B53F0080D8446E
:10141000D0F840158068D1ED060AB0F90020D1ED72
:10142000071A9FED851A20EE811A00EE102A21EE90
:10143000211AD1ED130AB8EEC00AC0EE810A20EEDF
:10144000600A70470000000000FEFFC601FEFF4674
:101450000520704730B5044681B0E06A01F0FFFC1A
:101460000025012808BF84F83451E06800F019FE17
:101470000A2806D184F8345184F83050284601B047
:1014800030BD94F830000A281BD8DFE800F00609C8
:101490000D11111115151506190094F8340180B1BC
:1014A0000125284601B030BD0225284601B030BDD7
:1014B0000325284601B030BD0425284601B030BDC3
:1014C0000E25284601B030BD90ED180A01F0E3BDAD
:1014D00090ED190A01F0DFBD90ED1A0A01F0DBBDB5
:1014E00090ED170A01F0D7BD90F83B1004291CBFFE
:1014F00090F830200A2A22D1002180F83B1080F891
:10150000EC10A0F8181180F81A11A0F81C11C0F8FE
:101510002011C0F8381180F82411DFF86C28D0F8B9
:10152000E01081FB0232921002EBD272C0F8E82088
:1015300000214FF4FA72C0F8E82080F83010012141
:1015400080F834110021DFF824040180418081807B
:1015500070470000CDCCCC3DB0EDB749000005444C
:1015600010B50446206800F014FD002184F8301006
:1015700084F8341110BD0000D0F840250021D2EDD0
:10158000060AD2ED071A9FED2C1A20EE811A21EEE1
:10159000211AD2ED130A8268535EB2F90220C0EE1E
:1015A000810A01EE103AB8EEC11A01EE902A21EE3E
:1015B000601AF8EEE11A01EEE01AF6EE000A61EEAA
:1015C000200AF4EE400A028FF1EE10FA1DDB0AB198
:1015D000521E028730EEC00ADFEDCC0AB4EE600A7C
:1015E000F1EE10FA20D490F9D820521E53B213F124
:1015F000130FB8BF6FF0130280F8D82090F9D8000D
:10160000002858BF0121084670474EF6602C30EE86
:10161000600A6245DFEDBD0ABCBF521C0287B4EE12
:10162000600AF1EE10FADED590F8D820521C53B2C1
:10163000142BE1DB1422DFE7000080470021C0F813
:10164000B810C0F8BC10C0F8C010C0F8C410C0F882
:10165000C810704770B504462DED068BD4F84005D0
:10166000A168D0ED060AB1F90C20D0ED071A9FED64
:10167000BC1A20EE811A21EE211AD0ED130A00EED9
:10168000102AC0EE810AB8EEC00A94ED2E1A6068E6
:1016900000EE201A84ED2E1A00F0DAFC616800EEEC
:1016A000100A488800EE900AB8EE400AF8EE600A88
:1016B00020EE200A9FEDAB1AA06820EE010A84ED0F
:1016C000170ADFEDA90AB0F91610A06801EE101A8A
:1016D000B8EEC11A21EE000A94ED2F1A00EE201A7E
:1016E00084ED2F1A0125B0F9181094ED171A20690E
:1016F00000EE101AB8EEC00A20EE010A94ED301A7E
:1017000000EE201A84ED301A00F04BFC46F26761BF
:1017100010FB01F1881400EBD07000B200EE100A4B
:10172000D4F8C800D4ED110A94ED311AB8EEC00A0D
:1017300042F2107100EE201A401C884284ED311AEA
:10174000C4F8C800C0F0DE8000EE100AB8EE400A0F
:10175000D4ED2E0AC0EE808AD4ED2F0AC0EE809A16
:10176000D4ED300A80EE80AAD4ED310A80EE809A62
:101770002046FFF763FFB5EE409AF1EE10FA00F055
:10178000C180206900F00DFCC0EB00118800DFF87B
:10179000F82580FB0232921002EBD27200EE102A82
:1017A000B8EEC00ABDEEC00A10EE106A9FEDAD0A99
:1017B00029EE008A94ED180A40EE689A94ED190A11
:1017C00028EE000A00EE28AA29EEA90A0AEE0A0A63
:1017D000B5EE400AF1EE10FA02DBF1EEC08A01E04C
:1017E000DFEDA18AB4F8181104F1F00000EB8100DC
:1017F000C0ED008A04F58270B4F8181100EB810086
:1018000080ED008AB4F81801401CA4F8180180B2D9
:10181000052804D30020A4F8180184F81A5194F87C
:101820001A21002A50D0D4F8E00001F039FCDFF88A
:101830005C25DFF85C3501F057FC01F02BFDB04270
:1018400042DA052204F1F00104F5827000F00EF98D
:101850009FEDCD2AF0EE681AB0EE481A204600F04F
:1018600057F8002894F8EC000ED050B9D4F8E410E2
:10187000DFF82005711881FB002000EBD070C4F860
:10188000380184F8EC501FE0012815D19FEDBF0A04
:1018900029EE000AD4ED110A80EE200A0021BCEEE8
:1018A000C00A84F8EC1084ED480AA4F81C11042541
:1018B000BDEC068B284670BDB4F81C01401CA4F892
:1018C0001C0180B204280FDA206A01F000FD002814
:1018D00094F8EC000AD038B10021A4F81C110225BC
:1018E000BDEC068B284670BD032508E050B1D4F846
:1018F0003811B14206D2206A01F0F3FC0225002023
:10190000A4F81C012846BDEC068B70BDCDCC4C3E26
:1019100001EE200AB7EE001A32EE011AF7EE002AA5
:1019200021EE001A32EEC22A014622EE000A002001
:10193000B4EE610AF1EE10FA44BFF4EE411AF1EE92
:1019400010FA0BD59FEDCA0A91ED111A80EE010A2B
:10195000B4EE600AF1EE10FA48BF012070470000B3
:10196000000080470000803746CD93376410002088
:1019700030B5054681B095F83C05012490B928683A
:1019800001F0E8FF41F28830A5F82E014FF47A719A
:101990000020C5F8B400A5F82C1185F83C45204678
:1019A00001B030BDB5F82E01002853D0401EA5F877
:1019B0002E019FEDCD0A05F59E714020D1ED000A64
:1019C00030EE200AD1ED010A30EE200AD1ED020AF4
:1019D00030EE200AD1ED030A1031401E30EE200A0D
:1019E000ECD1DFEDC20A20EE200A9FEDBF1A05F50B
:1019F0009E714020D1ED001A91ED012AD1ED022A0D
:101A000091ED033A71EEC01A32EE402A01EEA11AAE
:101A100072EEC02A02EE021A103133EE403A02EEA4
:101A2000A21A401E03EE031AE4D121EE200ADFEDD4
:101A3000C70AB4EE600AF1EE10FAA8BF4FF47A704C
:101A400003DAB5F82C0128B1401EA5F82C0101B02D
:101A5000204630BD002085F83C050024204601B01A
:101A600030BD0000DB0FC9400000000003460FF24C
:101A7000503070B490EC021A90B202EE100A81B0AD
:101A80009FED990ADFED980AB8EE422ADFED962A1B
:101A9000002458B3C5070AD593ED000A30EE200A9A
:101AA000D1ED000A9FED903A70EE830A01244008C0
:101AB00000F01C8003EB840501EB840695ED003AF1
:101AC00030EE030A641C96ED003A03EB840570EED9
:101AD000830A95ED003A01EB840630EE030A641C9C
:101AE00096ED003A401E70EE830AE3D180EE023A92
:101AF000002094B2D4B392B2D40710D5D3ED002A0B
:101B000091ED004A72EEC33AF0EE614ADFED762ABB
:101B100043EE844A43EEA32AF0EE641A01205208F1
:101B200000F0248003EB800401EB8005D4ED003A43
:101B3000D5ED004A401C73EEC33AB0EE614A03EBA8
:101B4000800401EB800503EEA44AD4ED004A401C5A
:101B500074EEC34A43EEA32AD5ED003A04EEA34A3D
:101B6000521E44EEA42AF0EE441ADBD101B070BC40
:101B7000C1EEA22A40EE620AF0EE621A80EE820AFC
:101B8000F0EE610A70470000CDCCCC3D0000704201
:101B900030B581B004462DED028BD4F8E80094ED09
:101BA000390A00EE900AB8EEC00AF8EE600AC0EEFC
:101BB000200A9FED6C1A20EE818ADFED6B0AB4EEED
:101BC000608AF1EE10FA09DB00EB801000EE100ADB
:101BD00084ED390AB8EEC00A9FED648AF2EE040A79
:101BE00020EE200A9FED621A80EE010ABDEEC00AC7
:101BF00010EE105A29B2204600F022F8206A2AB2CC
:101C0000012101F05FFF206A2AB2022101F05AFF90
:101C1000206A2AB2032101F055FF206A2AB204216A
:101C200001F050FFBDEEC80A10EE100A82B2206A21
:101C3000BDEC028B012101B0BDE8304000F02BBAB1
:101C400000EE101AB8EEC00ADFED4A0A20EE200AB4
:101C5000B5EE400AF1EE10FA48BFB1EE400ABDEE13
:101C6000C00A10EE101A406A89B201F031BF0000BC
:101C700017B7D13A00EE101AB8EE400A80ED110AFB
:101C80007047000030B5F5EE000A044660EE200A09
:101C900081B0C4ED160A84ED140A84ED150ADFED57
:101CA000360AD4F8400520EE200AD0ED060A20EED0
:101CB000200AD0ED070A20EE200AD0ED130AA06A10
:101CC00080EE200ABDEEC00A10EE105A10B1A9B283
:101CD00001F001FFE06A28B1A9B201B0BDE83040CF
:101CE00001F05CB901B030BD000000000000803B95
:101CF00090ED150A704780ED370A704790ED370A6E
:101D00007047000011B9D0F84015496C1E4AC0F860
:101D1000E01081FB0232921002EBD27200EE101A38
:101D2000C0F8E820B8EEC00ADFED140A20EE200A61
:101D30004FF4FA72BDEEC00AD0F8E010C0F8E82007
:101D400080ED390AC06A01F069B900000BD7233C65
:101D5000D0F8E0007047D0F8E4007047D0F8E80011
:101D60007047000000007A4401FF7F4700E87D478C
:101D700000007042CDCC8C3F00008047CDCCCC3EE3
:101D80005EEA0F00C58D4806676666669A9999995E
:101D90009999B93F5655555590ED150A704780ED04
:101DA0004C0A704790ED4C0A7047D0F84005B0F8E7
:101DB00048007047D0F8400590F84A00704700008E
:101DC0000000000000000000002181604160C1604F
:101DD000016101214161704781B0C3688268012BB4
:101DE00009D901698A185B1EC3608260406992FB51
:101DF000F0F001B0704704D1426841694A430021C4
:101E0000C1608260406992FBF0F001B07047407B96
:101E10007047416A002918BF08477047816A002946
:101E200018BF08477047C1690847F0B402461068F8
:101E300095681318506803EB5004C00721D54D4432
:101E40001FE0F0BC02F10C00704713F8017B05F8AD
:101E5000017B491EF9D1A0B1B60813F8011B06F0A9
:101E60000306032E08BF13F8016B01EB062149425C
:101E7000801C294405D011F8016B05F8016B401E48
:101E8000F9D1A342DDD013F8016B16F0030104BFB2
:101E900013F8011BC91C30090F28DAD113F8010B04
:101EA0000F30D6E710B582B002780024142A0ED87D
:101EB000DFE802F019235B2F4A595B5D5F660D0D69
:101EC0000B292B2D393B435241000A005CD00329DA
:101ED0001CBF0129072903D00022802101F0FFFD4A
:101EE000204602B010BD0A46032A4DD0012A49D12E
:101EF00001240170204602B010BD072918BF0D292A
:101F000042D00E2936E00E2918E00F2916E00229EA
:101F100014E0072918BF102936D0042918BF112949
:101F200032D0012926E0112908E0122918BF07291B
:101F30002AD014291EE0122900E0042915D1012419
:101F40000170204602B010BD0A46132A07D10124B1
:101F50000170204602B010BD0A46042A14D0072A98
:101F600012D0052A06E006290ED0072902E008292A
:101F700000E00929ABD101240170204602B010BD58
:101F80000A0001D00C2AA2D101240170204602B01F
:101F900010BD8168084701EB410300EB830002821A
:101FA0007047B0F9040070472DE9F04705460F4629
:101FB000A86869695FEA020890FBF1F40CD1384621
:101FC00001F0A4FD6861474300202861AF60002153
:101FD000E9600120BDE8F0873E1B304601F096FD28
:101FE0008146204601F092FD8246384601F08EFD82
:101FF000D14528BFD146814588BF8146C5F8149098
:1020000009FB04F4AC606F602868084A08FB00F81C
:10201000A8FB02216869490A491C464396FBF1F076
:102020002861E9600120BDE8F08700BF986E128347
:1020300001460020C96801B90120704700B581B090
:10204000C36A01220BB198470246104601B000BD99
:10205000C08870470021C1600161704781830122FF
:1020600002FA01F1018370478180704730B5044660
:1020700081B00125E1838D406583C5EBC53101F059
:1020800058FDA5EBC531204601B0BDE8304001F058
:1020900052BDC180704701EB410300EB8300828198
:1020A00070470078704740697047B0F9000070478A
:1020B00001B481B044F6E612BDF90400ADF80000A9
:1020C00001460B4811FB00F0BDF9061011FB02F2AE
:1020D000A0EB4200C01300F30F00ADF8020010F5B2
:1020E000004F04BF0349ADF80210009802B07047DA
:1020F0001AB6FFFF0180FFFF31B582B008B201F0D0
:1021000021FD0190BDF90420BDF90830BDF906009C
:10211000BDF90A1013FB02F400FB1144E41304F3AD
:102120000F04ADF8004013FB00F0BDF900500A4C5D
:10213000A54204BF094DADF8005011FB0200C013C9
:1021400000F30F00ADF80200A04204BF0348ADF851
:102150000200009803B030BD0080FFFF0180FFFF48
:10216000F0B4B0F90430B0F91450B0F91660B0F919
:10217000062000244B430AB9002115E05143826830
:102180008F1806D5002AC8BF002906DD6FF000476A
:1021900003E0002A44BF0029104FC168B94203DBA5
:1021A0000169B942B8BF394681600A46818BC78B45
:1021B0000B4142FA07F1CB189D4206DAEC1AA4183B
:1021C0002B46846018B2F0BC7047B342BCBFF41A0F
:1021D0003346A418846018B2F0BC70470100008038
:1021E00002B481B00091BDF90430BDF9062013FBA3
:1021F00003F112FB021C01884943614518D290F893
:10220000B2104FEA1C6CACEB010C5FFA8CFC00EBDB
:102210004C008088434342439913901303EB51438E
:1022200002EB5042DB13D213ADF80030ADF80220C0
:10223000009802B0704711B583B008B201F082FC7B
:102240000190BDF90420BDF90C30BDF90600BDF9BF
:102250000E1013FB02F411FB004411FB02F100FB12
:102260001310C013E413ADF80200ADF8004000985D
:1022700004B010BD70B481B002B481B0B0F8503079
:10228000BDF90650BDF90420018E5D436D424A43FD
:102290006D005119AA1A01EBD17102EBD2724910EB
:1022A0005210002948D5002A17D5042480F83A4056
:1022B0008C1A651404EB9534A41404EB93031414E2
:1022C0000D1402EBD43201EBD53103EB6242A3EBE8
:1022D00061410C461D46164675E02C14002D05EB99
:1022E000D43414DC032180F83A10AD1A691405EBDC
:1022F0009135AD1405EB9303151402EBD53203EBC6
:102300006242A2EB64410C4615461E465BE0022287
:1023100080F83A204D1B6A1405EB9235AD1405EB9D
:1023200093030D1401EBD531A3EB614101EB644242
:1023300014460D461E4646E0002A16D4012480F8B5
:102340003A408C1A651404EB9534A41404EB9303FF
:10235000141402EBD4320D1403EB624201EBD531BD
:10236000A3EB614114461D462CE02C14002D05EB17
:10237000D43414DC052280F83A204D1B6A1405EB96
:102380009235AD1405EB93030D1401EBD531A3EB9E
:10239000614101EB64421C460D46164613E00021E4
:1023A00080F83A10AD1A691405EB9135AD1405EBC0
:1023B0009303151402EBD53203EB6242A2EB6441A6
:1023C0001C4615460E46C186A0F84060C587848726
:1023D00043868286B0F84E10012919D1B0F94830F1
:1023E000418EB0F85420002BCCBF5118891A418679
:1023F000B0F94A30818E002BCCBF5118891A8186E2
:10240000B0F94C30C18E002BCCBF52188A1AC2864C
:10241000816903B070BC08472DE9F04F054685B0CF
:10242000B5F92A006B6EC0EBC0329A42B8BF6A663B
:1024300004DBA0EBC0309842A8BF68666E6EB5F8AA
:102440001A01AB6E0641B5F92A009A4236B2B8BFFE
:10245000AA6604DBA0EBC0309842A8BFA866AA6EAB
:10246000B5F81A01EB6D42FA00F00FFA80FBB5F9EE
:102470002800C0EBC0329A42B8BFEA6504DBA0EB8B
:10248000C0309842A8BFE8652B6EB5F928009A4283
:10249000B8BF2A6604DBA0EBC0309842A8BF28660C
:1024A000B5F81831EA6D88882F6E049742FA03F464
:1024B000201A00B247FA03F3ADF80230BDF80270FB
:1024C000CB88FB1AB5F9207003971BB20F890297CE
:1024D000B5F91CA0029FB5F91E90B5F924E0DDF80E
:1024E0000C801AFB04F4121BB1F900407C4310FB72
:1024F000092224141EFB042206FB1828B5F9262005
:102500000192EA8D8DF80020B5F922C06C6E9DF81D
:102510000070B5F9062010FB0C404BFA07F4019F40
:1025200014FB02F407FB0404BDF90200049F1AFB2C
:1025300000F03F1A13FB0979029FB1F902007843BA
:1025400000141EFB0091A86EDDF80C9013FB0C0329
:102550009DF800000BFB191946FA00F00199A5F847
:102560006C60A5F86EB010FB02F2B5F920019A4636
:102570000028B5F9000001FB12AA54BF01274FF053
:10258000FF3701F0DFFA00901BFB07F0BDF90010E8
:10259000404210FB01F1BDF902007E43490016FBE9
:1025A00000F009144000A1EB204105F13000FFF7D5
:1025B000D7FD95F8F01095F80A212881491CC9B279
:1025C000914208BF002105EB4102B2F87030A5F836
:1025D0000831A2F8700085F8F0102988401828808A
:1025E000C5F85C806C66C5F86090C5F868A0B5F960
:1025F000000005B0BDE8F08F10B490F80A4190F8E3
:102600000B1190F8F020D0F80431611A07D100F1D5
:10261000700131F912105A18B0F908110DE089183B
:10262000A142ACBF0C1B0C4600F1700131F9121035
:102630005A1800F1700131F91410511AB0F81C2128
:10264000C0F8041141FA02F3C38010BC7047F0B423
:1026500090F82F200124012A08BFB1F900203DD0B5
:10266000437BB0F90650828D468895FBF3F3AA1898
:102670009E1990F828308285012B46802ED1B0F922
:102680002A3043B9CA5E80F82940002101730280D4
:1026900010B2F0BC70475B1E4385002DB1F900609D
:1026A000B0F9327052BFB51A951B4FF0FF342DB2FE
:1026B00015FB03F393FBF7F313FB04F3002D1BB29D
:1026C00008D4012280F82E200988CA1A028010B28C
:1026D000F0BC704790F82E1001B19A19028010B228
:1026E000F0BC704710B50446DFF828092061FFF7F9
:1026F0006BFB0020A4F85800A4F85A002062606226
:10270000A062E0622065D4F89C00C16BC4F8801020
:1027100081692163002184F83410A163E163A4F886
:102720004010A4F84C10A4F84E1090ED000AD0ED23
:10273000070AB8EE400A20EE200ABDEEC00A10EEED
:10274000101AA4F85C1090ED090AD0ED070A80EE8B
:10275000200ABDEEC00A10EE101AA4F85E1090ED2B
:10276000000AD0ED0C0AB8EE400A20EE200ABDEEB9
:10277000C00A10EE101AA4F8601090ED000AD0ED17
:102780000D0AB8EE400A20EE200ABDEEC00A10EE97
:10279000100AA4F87400002084F862006066A06645
:1027A00084F86C002067D4F89C0090F82010D4F8CE
:1027B0009C0084F87610418CA4F87810016CC4F861
:1027C0008410416CC4F88810806CC4F88C00002020
:1027D000C4F89000C4F8940010BD90F8621079B964
:1027E000002280F834208163C163A0F84010A0F873
:1027F0004C10A0F84E10C0F89010C0F8941070471C
:102800000A2180F834107047002180F83410704796
:102810002DE9F041054695F834002C69092800F2AD
:10282000EF82DFE810F00A004800ED02ED02ED0251
:10283000A000CB004501710111026A68002082F8F6
:1028400024000021E86801F0C9F901200021A5F861
:102850004A00A963E963A5F84010A5F84810A5F857
:102860004C10A5F84E1085F86C102868FFF799FBFE
:10287000C0EB00118800DFF8A03780FB03639910DC
:10288000002201EBD1712046FFF78EFBD5F88010B6
:102890004FF47A722046FFF787FB012085F8340059
:1028A0006868B0F9101000EE101AB8EEC00A85ED95
:1028B000240ABDE8F0812046FFF78EFA00EE100AE8
:1028C000B8EEC00A85ED1C0A284600F0D1FA06468B
:1028D0002046FFF7ADFB002800F09282B5F84E00CD
:1028E000401C012EA5F84E0005D0B5F8741080B23A
:1028F000814280F085822868FFF753FBC0EB00110E
:102900008800DFF8142780FB0232921002EBD272AB
:1029100000EE102AD5F89C00B8EEC00A85ED140A26
:1029200041F28832D0ED0A0A60EE200AFDEEE00A9C
:1029300010EE901AA5F85810D0ED0B0A20EE200AE0
:10294000BDEEC00A10EE101A0020A5F85A10E86378
:10295000A5F840006864A5F84E0009B22046FFF7CC
:1029600023FB05204AE22046FFF736FA00EE100A64
:10297000B8EEC00A85ED1C0A284600F079FA064632
:102980002046FFF755FB002800F03A82B5F84E00CC
:10299000401C012EA5F84E0005D0B5F8741080B289
:1029A000814280F02D820020E863A5F84000686431
:1029B000A5F84800A5F84E0006201FE295ED1C0A78
:1029C000284600F055FA2868FFF7EBFA00EB800282
:1029D0005200DFF84406E96BB5F85C6082FB00301A
:1029E000801000EBD0706A684118E963A86BB2F9F7
:1029F0000C30B5F84020C0186B6C521C97B25B1CB1
:102A0000BE42A863A5F840206B6480F0F98192B2C1
:102A100091FBF2F1B5F84820A5F84810521AA5F834
:102A20004A2016B2002E44BF324652420021E963CA
:102A3000A5F84010B5F86010994203DB12B2042AE1
:102A400000F3DE8190FBF3F0A882DFED7E0AB5F99A
:102A5000480095F8761000EE100AB8EEC00A01EEB4
:102A6000101A60EE200AB8EE411A60EE810AC5ED38
:102A7000060A2868FFF795FAC0EB00118800DFF816
:102A80009825B5F9581080FB0232921002EBD272F1
:102A900000EE102A0022A5F84E20B8EEC00A85EDFF
:102AA0001C0A41F288322046FFF77EFA0720A5E192
:102AB0002046FFF791F900EE100AB8EEC00A85ED46
:102AC0001C0A284600F0D4F906462046FFF7B0FA63
:102AD000002800F09581B5F84E00401C012EA5F8A5
:102AE0004E0005D0B5F8741080B2814280F0888124
:102AF0000020A863E863A5F840006864A5F84800D2
:102B0000A5F84E00082079E195ED1C0A284600F052
:102B1000AFF92868FFF745FA00EB80025200DFF8B2
:102B2000F804E96BB5F85C4082FB0030801000EBE4
:102B3000D0706A684118E963A86BB2F90C30B5F837
:102B40004020C0186B6C521C96B25B1CB442A86348
:102B5000A5F840206B6480F0538192B291FBF2F1B2
:102B6000B5F84820A5F84810521AA5F84A2014B222
:102B7000002C44BF224652420021E963A5F84010D0
:102B8000B5F86010994203DB12B2042A00F33881D1
:102B900090FBF3F0E882DFED2B0AB5F9480095F8D9
:102BA0007610B5F9162000EE100AB5F91400B8EE4B
:102BB000C00A01EE101A60EE200AB8EE411A20EEAB
:102BC000810A00EE900AB5F91600B5F9141085EDEA
:102BD000070A01EE100AF8EEE00AB8EEC11A70EE2C
:102BE000C10A95ED061AE86831EE400A80EE800AC7
:102BF000DFED840AB4EE600AF1EE10FA48BFB0EEE1
:102C0000600A85ED080A95ED060AD5ED070A30EE53
:102C1000600A9FED7D1A20EE010A85ED090A8A42BD
:102C2000D5ED070A30EE200A85ED090AB2BF002271
:102C30000022B5F9781000F0D5FF0020A5F84E006D
:102C40000920DBE09CC4203FB5F84E00401CA5F8ED
:102C50004E002868FFF7A5F900EB80025000DFF86E
:102C6000B83395F87610D5ED091A80FB03439B1015
:102C700000EE101A03EBD373F8EE400A01EE103A9F
:102C80009FEDD60AB8EEC11A21EE001A21EE201AE5
:102C9000B4EE611AB5F84E10F1EE10FA06DAB5F896
:102CA000740000EB4000884280F2AA80D5F89C00B6
:102CB000AE68D0ED001AB3EE0E2A01EE101AB8EE8F
:102CC000411AF8EE611A81EE211AF6EE001AC1EEF1
:102CD000811A61EE821AC5ED0C1A85ED0A1A1021CF
:102CE00095ED082A21EE022A62EE211A21EE800AD1
:102CF00020EE200A85ED0B2A85ED190AC0EE010AA7
:102D000090ED001AB8EE411AC0EE810AC5ED1A0A1C
:102D100010274FF000080F2047F6FF725FF0010305
:102D200003FA00F401EE104AB8EEC11A21EE001ABF
:102D3000BDEEC11A11EE104A944204DA41B202E02B
:102D4000BCF1100FECD01FFA87FCBCF1100F0ED1B4
:102D500003FA00FC01EE10CAB8EEC11A21EE201AE7
:102D6000BDEEC11A11EE108A9045B8BF47B2401EA1
:102D70001FFA81FCE4D5BCF1100F07D089B23046B0
:102D8000FFF76CF921B23046FFF76EF9B8B21028A0
:102D900008D0B9B23046FFF769F90FFA88F130462A
:102DA000FFF777F9B5F97810304600F069FFB5F80C
:102DB0007810494209B2304600F064FF304600F016
:102DC00063FF0446B5F8780044432146304600F0DE
:102DD000B0FE64422146304600F0ADFE012085F889
:102DE00062000121E86800F0F9FE2868FFF7D9F8D1
:102DF0000146E868002200F0F5FE0A2085F834005C
:102E0000BDE8F0810AD7233CAE47213F10B5044608
:102E100094F86200A8B96068002180F82410E06886
:102E200000F0DCFE6068B0F91010E068002200F0ED
:102E3000D9FEE068BDE810404FF47A62002100F04E
:102E4000D1BE10BD002180F86210704790ED140AC9
:102E500000F021B90B20704790F83400704701460C
:102E6000002091F834100A2908BF012070470000A3
:102E700030B5044681B000252DED048BD4F89C00BC
:102E8000D0ED0E8A2068B0EE408AFFF78AF8C0EBDA
:102E900000118900604A94ED221AD4ED210A81FBC9
:102EA0000232921002EBD27200EE102AB8EEC09AF3
:102EB00038EE490AB5EE401A60EE800AF1EE10FADB
:102EC00008BF9FED520A09D0D4ED251A70EE611AA1
:102ED00094ED240A01EE810A70EE800AB4F87800BD
:102EE00084ED240A014601EE101AB8EE411AB4EE40
:102EF000601AB0EE600AF1EE10FA48BFB0EE410A77
:102F0000404201EE100AB8EEC11AF4EE410AF1EEA9
:102F100010FA48BFB0EE410A70EEC00A94ED231AD1
:102F2000E068BDEEC00A60EE810A10EE101AC4ED32
:102F3000250A002209B200F055FE28EE280AB4EE58
:102F4000409A94F96C00F1EE10FA1CD4B4EE489A51
:102F5000F1EE10FA0AD4B0EE000A30EE680A20EE64
:102F6000080AB4EE409AF1EE10FA0CD5401C41B2BA
:102F70001429A4BF1420012584F86C002846BDEC58
:102F8000048B01B030BD002084F86C002846BDECF5
:102F9000048B01B030BD80F876107047A0F878102F
:102FA000704780ED0C0A704790ED0C0A70470000E6
:102FB000D0F89C1090ED0B0A90ED261ADFED140A64
:102FC00060EE200A60EE810A91ED130A91ED141A69
:102FD00020EE010A80EE800A704700009CC4203F6A
:102FE000D0F89C1090ED080A90ED261ADFED080A43
:102FF00060EE200A60EE810A91ED130A91ED141A39
:1030000020EE010A80EE800A7047000000000000F8
:10301000CB151E35480C002067666666C0F8801028
:10302000704780ED260A704790F8620070470146AD
:103030000020896801B901207047014600200A7804
:103040000B2A04D1092008700020888001207047D5
:1030500030B5044681B0154604F13000FFF704F89E
:10306000294604F1300001B0BDE83040FFF711B847
:10307000B0F90600704770B504460D46164604F1D7
:10308000300000F001FE00FB05F104F1300000F01B
:10309000FDFD268070BD2DED010A009801B070473E
:1030A000C11768B14840401AB0FA80F29040D21C73
:1030B000C907C2F5846241EA025202EBD021400501
:1030C000704790F81C1169B90022012180F81D2178
:1030D00080F81C11D0F82001016841F02001016046
:1030E0000220704701207047B0B581EA030C0CF054
:1030F000004C40F2FF7515EA11541DBF15EA135735
:10310000AC42AF4239E0E41923EA455343F480135B
:10311000C90241F0004141EA505EC7021100A7FB1D
:10312000020200284FF00000EEFB01204FF00001EA
:10313000E3FB072118BF42F001024018002149417A
:10314000E3FB0E01A4F580640F0302D2520040415C
:10315000494154F101046CDD470872F1004250F11D
:10316000000051EB0451A1F580115CBF41EA0C0154
:10317000B0BD4CEA05510020B0BD05EA1357AC4282
:1031800014BFAF4241E050EA410E1CBF52EA430E69
:1031900002E061460020B0BD24423C441BD15FEAFE
:1031A000070EF6D0090302BF01460020AEF1140E4F
:1031B000B1FA81F7AEEB070401FA07FE0C37C7F14D
:1031C000200100FA07F7C8404EEA000E23EA4553F3
:1031D00043F48013A2E733F00043B3FA83F704BF4C
:1031E000B2FA82FE77440B3FE41BB7F1200E2FBFEB
:1031F00002FA0EF3BB40C7F1200E22FA0EFE38BFD2
:1032000043EA0E03BA40641C82E750EA410E14BF41
:1032100052EA430E6FF000014FF4001717EB430F13
:103220008ABF194617EB410FB5E74CEA055100205C
:10323000B0BDD4F10104B4F120070FDAC4F12007C6
:10324000520828BF42F0010210FA07F501FA07F709
:10325000E1BF2A43E0403843E1400FE0352C98DCE1
:10326000C7F1200452EA400220FA07F218BF42F0E8
:10327000010231FA07F0A1400A43002172F1004235
:1032800050F1000051EB0C01B0BD00EB4100B0F972
:1032900032007047C1F30A5340F2FE329B1A14DD2C
:1032A000D3F120034FEAE17208DDC90241EA50512F
:1032B00041F00040D84080185040704703F2E130A0
:1032C00010B1D24382F000407047002070470146A1
:1032D000002091F8582091F849108A4228BF012017
:1032E000704710B5C46E0021816081802046FEF7D2
:1032F00058FE01462046BDE81040002200F0C8BC40
:1033000030B481B002464FF47A7013685B085B00FA
:10331000136002F11803546824F0700454601C68B0
:1033200044F008041C601D6845F4006543F8045B24
:103330001C6844F008041C601D6845F400651D60AD
:10334000536943F0010353614C6F94F88130022BB1
:1033500014D194F88250012D04BF94F87B30032BD4
:1033600013D1012414630324536943F0010353610F
:103370001463B1F868305B1E536215E091F8463073
:1033800093B994F87B30012B04D1B1F868305B1EFF
:10339000536209E0032B07D101231363032453690C
:1033A00043F00103536114636FF0800313614B6FAB
:1033B00093F87C1061B9D06840F08000D06001B013
:1033C00030BC70470028F6D06FF480711161401E48
:1033D0001169CB05F6D4D06840F08000D06001B010
:1033E00030BC704770B50446606F456806680020C1
:1033F000E0652066606684F86E00296ADFF83005B3
:10340000014029620FF2991060600FF2E900A0619B
:103410004020A4F86C00042084F86F0084F83A007F
:10342000204600F077FC686800F070007028FAD140
:10343000B168DFF80005014041F00801B16000BF4C
:1034400094F86E001028FBD3204600F0B5FC002154
:1034500084F86E1084F86F1084F83A100FF2891017
:103460006060204600F056FC94F86E001028FBD3F4
:10347000204600F0A1FCE06DDFF8BC14616000099B
:10348000E065206E00092066606E000960660FF23C
:103490009900A06105F11800016821F008010160A0
:1034A000011D026822F4006202600B6823F0080329
:1034B0000B60B4F868206A63B4F86820AA63B4F8B3
:1034C0006820EA63026842F008020260036843F47D
:1034D00000630360086840F00800086040F255503F
:1034E000296A01432962042084F83A00002084F804
:1034F000720070BD426F438E90F86F1080F83A10E2
:103500005268B0F868105363491E838E936389B282
:10351000C08ED0631164506800F07000401E80417E
:10352000C043C00F70470000F0B4426F838FB0F803
:103530006840B2F87210E51AAFB2B94205D2042160
:1035400080F83A10B0F8681015E0C68F2D049E1B65
:10355000ED0BB6B2B54203D2B2F87410591A0BE0B3
:10356000C9188AB2A24207D38022A0F86C20B0F812
:103570006820C1EB4201491E426F5268438E53637B
:1035800089B2838E9363C08ED0631164506800F05B
:103590007000F0BC401E8041C043C00F7047000067
:1035A00030B4446F90F86F2004EB82035D6A2A68A0
:1035B000DB6B1B686468656825F07005656090F8D2
:1035C0006E40102C0AD2C56D5219C265026E9B184E
:1035D000036690F86E20521C80F86E200020088050
:1035E000488030BC7047000030B4436F90F86F20C3
:1035F00003EB8204E56B2A685B685C6824F0700466
:103600005C6090F86E30102B07D2446E121942663F
:1036100090F86E20521C80F86E20002008804880B0
:1036200030BC704770B481B0416F4A6890F8471061
:10363000002942D102F11803C04C1968214041F021
:10364000600119600026116A41F001011162116ADE
:1036500021F0040111625663416F91F87A1001293B
:103660000DD11E68B6490E4046F480561E60156A9C
:1036700025F010051562116A41F040010EE00229A3
:103680000DD11E68AE490E4046F400561E60156A04
:1036900045F010051562116A21F04001116253F8DE
:1036A000041F0C4044F070041C60116A21F4807106
:1036B0001162116A21F4806111620FF289110FF217
:1036C0004D12416142600FF2C511C1609D49816098
:1036D000012180F8471001B070BC7047416F4A6803
:1036E00090F84710012900D0704770B481B013687A
:1036F000D906FCD51168CB06FCD402F118038F4C17
:103700001968214041F060011960116A41F001011E
:103710001162416F91F87A10012903D1116A41F0C9
:10372000040104E0022903D1116A21F004011162AD
:10373000B0F86810490851631E6881490E4046F48C
:10374000C0461E60156A45F010051562416F91F87C
:103750007A10012903D1116A41F0400104E00229E5
:1037600003D1116A21F040011162B0F868104908D4
:10377000916353F8041F0C4044F060041C60116A0C
:1037800041F480711162416F91F87A10012903D1DF
:10379000116A41F4806104E0022903D1116A21F425
:1037A00080611162B0F868104908D163416F0968FF
:1037B000CA6822F48012CA605F494160624941616F
:1037C0006249C1605F498160002180F8471001B003
:1037D00070BC70470246506FB2F868304068594379
:1037E000090C5186032182F83A10518E41634068DA
:1037F000118F00F07000401E8041C043C00F0129AE
:1038000002D100230120138770470000426F5268E5
:10381000536823F070035360026E436F90F83A00D0
:1038200003EB8003D3F83CC0DCF80000101A484AD0
:10383000904203DD47F6FF72904200DB104608809D
:1038400048807047416F496800224A636FF0010267
:103850000A610B695FEAC37CFBD50A614A6C42F4DA
:1038600000424A64416F91F87A20022A0DD1B1F8E2
:103870006C3089698B61416FB1F86E20C9698A62C9
:10388000406FB0F87010006A8162704770B481B008
:10389000426F51681268002380F842300B68DC06E2
:1038A000FCD40C68E306FCD501234B63B0F8683008
:1038B0005B1F0B646FF001030B610C69E507FCD51E
:1038C0000B614B6C43F480634B644B6C43F40043DB
:1038D0004B64436F93F87A40022C19D1B3F86C40D3
:1038E0009B690D6A40F25556354206D09C61436F84
:1038F000B3F86E40DB699C6105E09C62436FB3F8EE
:103900006E40DB699C62436FB3F870401B6A9C6237
:10391000032480F83A4093680648034043F00803C4
:103920009360C86840F00100C86001B070BC704787
:10393000AAFAFFFFC0FFFF7FC93900088CFFFEFF16
:10394000FF8CFFFEB93D0008198A0008153D0008EC
:103950000180FFFF30B4416F4A686FF001011161CF
:103960001369DC07FCD51161002353639363D363B0
:10397000B0F868305B1F13641369DC07FCD5536C27
:1039800043F480635364536C43F400435364436FC4
:1039900093F87A40022C0DD1B3F86C509B699D616D
:1039A000436FB3F86E40DB699C61436FB3F87040BE
:1039B0001B6A9C61042480F83A401161D06840F091
:1039C0000100D06030BC704770B481B090F83A40CC
:1039D000456F05EB8403052C5A6A1268DB6B1B6884
:1039E0006D686E6826F070066E6058D8DFE804F0E7
:1039F0001B393903031BC46DA21A314CA242B8BF54
:103A00000C8005DBB2F5004FA8BF47F6FF720A80B5
:103A1000026ED31AA3423FDBB3F5004F3EDB47F6FD
:103A2000FF724A803BE0046EA21A254CA242B8BF46
:103A3000224604DBB2F5004FA8BF47F6FF724A806A
:103A4000426E9B1AB1F902209B1AB3F5004F03DBBB
:103A500047F6FF720A8022E0A342ACBF0B800C80C5
:103A60001DE0C46DA21A164CA242B8BF0C8005DB43
:103A7000B2F5004FA8BF47F6FF720A80426E9B1A4C
:103A8000B1F900209B1AB3F5004F03DB47F6FF7234
:103A90004A8004E0A34201DA4C8000E04B800A88AF
:103AA000A0F848204A88A0F84A20B1F900204988A7
:103AB0005242521AA0F84C2001B070BC704700BFAF
:103AC0000180FFFF01EB410300EB8300C2817047DF
:103AD000A0F810117047C184494201857047034620
:103AE000B3F802C0187841EA0C0C2CEA0202B3F8D1
:103AF00004C041EA0C010A285A80998002D122B9F7
:103B00000B2001E00AB10A2018707047010048BF7D
:103B1000494201225FF00100C2F11F0300FA03F3E2
:103B200099423EBF521CD3B2202BF5D3511E884080
:103B30007047C1607047016170470068012180F8DB
:103B40001E117047A0F500400004800D10F4407174
:103B500081B021D0B1F5807F2CD0B1F5007F05D0A8
:103B6000B1F5407F0BD0009801B070471A49C2B23E
:103B700031F81220ADF80220C0F1FF0023E0164911
:103B8000C0F1FF02D2B231F81220ADF80220C0B26B
:103B900031F91000404219E00F49C2B231F9122048
:103BA0005242C0F1FF00ADF80220C0B231F910005E
:103BB00040420BE00849C0F1FF02D2B231F91220B5
:103BC0005242ADF80220C0B231F91000ADF8000049
:103BD000009801B0704700BF5C8F000801700021A1
:103BE000C16070472DE9F041064682B030780C463E
:103BF00017460125B0B9304600F00FF9F18CB6F93F
:103C00002820A142B8BF002594421EDB290030D0F5
:103C100007BB3078270401280CBF7760B76000200D
:103C2000F06025E07068C11300EB1140F18B0014C7
:103C3000A142A4BFB6F92420944206DB318C8C4209
:103C4000BCBFB6F92210A142E2DA0025284602B034
:103C5000BDE8F0817480B18B084B07FB01F8A8FB2D
:103C60000332510A271A491C3F04F16097FBF1F017
:103C7000B061284602B0BDE8F08100BF986E1283A3
:103C800081827047C1827047408B70478160704766
:103C9000134690F82820002A00D07047F0B41A008C
:103CA00012D18269818002FB01F3C28AC18402EBD6
:103CB0008204640093FBF4F3447B13FB04F30022BF
:103CC000C3808284F0BC7047028E114DC18453437F
:103CD000826902FB01F6C28AA3FB0554B0F90650C3
:103CE00002EB8207630A447B7F005B1C96FBF7F6BE
:103CF00095FBF4F2838436B212B2B61A36049BB244
:103D000096FBF3F254432D04C4610562F0BC704786
:103D1000986E128370B481B0416F4968002280F8B8
:103D20004220B0F8682052084A63B0F86820520870
:103D30008A63B0F868205208CA63B0F86820521F3E
:103D40000A646FF001020A610B69DC07FCD50A61A5
:103D50004B6C43F480634B644B6C43F400434B6403
:103D6000436F93F87A40022C1ED1B3F86C409B69E4
:103D70000D6A40F2555635420BD09C61436FB3F843
:103D80006E40DB699C61406FB0F87030006A8361FF
:103D90000AE09C62436FB3F86E40DB699C62406F3F
:103DA000B0F87030006A83620A61C86840F00100B0
:103DB000C86001B070BC7047416F4968CA6852085A
:103DC0005200CA60002390F8722080F84230012A25
:103DD0001BD04B6C23F480634B644A6C22F400428A
:103DE0004A64426F92F87A30022B0ED1B2F86CC05E
:103DF0009269C2F828C0426FB2F86E30D2699362FD
:103E0000406FB0F87020006A82626FF001000861B4
:103E10000A69D307FCD5086170478068C11300EBBD
:103E20001140001470470068012180F81F1170478D
:103E300070B582B000250446009514B9012002B087
:103E400070BD606CC10666D4606C002847D1A56463
:103E50002065E06484F84000204600F077FC20688C
:103E60008168C8003BD4204600F01CFC0546606C0D
:103E7000C10634D4280032D1606CDFF8843120F4DC
:103E8000885040F0020060642068816821F0405151
:103E900081602068816841F080518160DFF86401B1
:103EA0000168A1FB0332D20C02EB82067600009679
:103EB0000098A0B10099491E0091009878B100992E
:103EC000491E0091009850B10099491E0091009838
:103ED00028B10099491E009100980028EAD1206875
:103EE0008168CA0002D58068810014D5606C20F01A
:103EF000020040F010006064A06C40F00100A0647B
:103F0000606C606C20F0020040F0100060640125DD
:103F1000284602B070BD606CC106F2D42800F0D112
:103F2000206881684A07ECD4616C21F4807141F00B
:103F300002016164816801F00301012902D1006876
:103F4000C10707D4DFF8C0100A68606822F4403265
:103F500002430A60A06BE1680128E06914BF4FF4D6
:103F60008052002242EA40320A43A1680A43616A51
:103F7000012911D130B9A06A401E400440F48030BC
:103F8000024309E0606C20F0020040F02000606411
:103F9000A06C40F00100A064E16A012902D0206B0E
:103FA00001430A432168886810F00C0F0AD1CB68DE
:103FB000DFF858000340CB60616BA069490041EA1B
:103FC00080310A432168DFF84800CB6803401A4378
:103FD000CA60206901282068016B05D1226A09099D
:103FE000521E42EA011101E00909090101630020A2
:103FF000A064606C20F0020040F00100606487E77C
:1040000006BD3786180D002008030050FDBFFFFFD6
:1040100007C0F0FFF0B4024681B0084600210091CD
:1040200092F84040012C08BF022000F07381012368
:1040300082F8403013689C68650700F16281466829
:1040400004681F25042E0AD806EB46077E001F6B66
:10405000B54027EA0505B4402C431C6326E00A2E30
:104060000BD2761F06EB46077E005F6BB54027EA52
:104070000505B4402C435C6318E00F2E0BD20A3EBA
:1040800006EB46077E009F6BB54027EA0505B44066
:104090002C439C630AE00F3E06EB46077E00DF6B75
:1040A000B54027EA0505B4402C43DC6313689C68DF
:1040B00014F00C0F40F089800568846807260A2DEB
:1040C0000AD30A3D05EB45059F69AE4027EA06067F
:1040D000AC4034439C6108E005EB45055F69AE40A8
:1040E00027EA0606AC4034435C6114684369E5681E
:1040F000ED086D0005F0060503FA05F503695B1E82
:10410000032B33D8DFE803F0020E1A26266EDFF801
:10411000F8351E40036846EA8366354345F000459E
:10412000256652E0666EDFF8E0351E40036846EA19
:104130008366354345F00045656646E0A66EDFF8C8
:10414000C8351E40036846EA8366354345F000459E
:10415000A5663AE0E66EDFF8B0351E40036846EA31
:104160008366354345F00045E5662EE0236E05681D
:1041700003F0F843B3EB856F03D1236E23F00043C4
:10418000236613685C6E056804F0F844B4EB856F31
:1041900003D15C6E24F000445C6613689C6E056875
:1041A00004F0F844B4EB856F03D19C6E24F0004416
:1041B0009C661368DC6E056804F0F844B4EB856F08
:1041C00003D1DC6E24F00044DC6613689C6804F0C4
:1041D0000304012C03D11D68EC0700F19780C5682A
:1041E00004680126012D06FA04F406D0D3F8B06065
:1041F00026EA0404C3F8B0401FE0D3F8B0502C43C3
:10420000C3F8B04007230668846815680A2E0AD3ED
:10421000093E06EB4606AF69B34027EA0303B44004
:104220002343AB6109E0761C06EB46066F69B34099
:1042300027EA0303B44023436B610068102804D1CC
:10424000DFF8C8341C68250205E0112805D1DFF825
:10425000BC341C68E50159D406E0122856D1DFF8B9
:10426000AC341C68650251D413689C6804F00304E4
:10427000012C02D11D68EC0743D410282CD1B3F1D6
:10428000A04F43D1DFF88404DFF88454036843F47B
:1042900000030360DFF87C040468A4FB0553DB0C17
:1042A00003EB830676000096009800282ED0009B32
:1042B0005B1E0093009848B3009B5B1E0093009820
:1042C00020B3009B5B1E00930098F8B1009B5B1E1F
:1042D00000930098D0B1EAE7112809D1B3F1A04FBB
:1042E00014D1DFF82804036843F0807303600DE005
:1042F00012280BD1DFF81404036843F48003036031
:1043000004E0506C40F0200050640121002082F84D
:104310004000084601B0F0BC70470000F0B402460F
:1043200081B008460021009192F84040012C08BF5E
:10433000022000F0B481012382F840301369002B81
:104340001CBF8469012C19D14368012B10D104686A
:10435000836A2402012B02D01C43C36A1C431568E4
:10436000DFF8B433EE6C1E402643EE64D4642CE0D8
:10437000516C41F020015164012126E0136D53B9C5
:104380001465D1648469836A641E012B02D01C43C6
:10439000C36A1C43D4644368D56C066803EB4304CA
:1043A00063009B1C1F249C4025EA040406FA03F3C7
:1043B0001C43136DD4645B1E136506D11568DFF8CA
:1043C0005833EE6C1E403443EC641468A3681D0738
:1043D0001AD4456A036A4BB9E668C36926F44016E5
:1043E00046EA455545EA0355E5600DE0E36823F4E8
:1043F000401343EA4555E560C369012B04D1516C74
:1044000041F020015164012113689C6814F00C0FE5
:1044100040F0A180846A012C07D1DD68046A25F090
:10442000007545EA4465DD600BE0DC6824F000744B
:10443000DC60036A012B04D1516C41F0200151640E
:10444000012105688368146807260A2D0AD30A3DEE
:1044500005EB4505A769AE4027EA0606AB403343A6
:10446000A36108E005EB45056769AE4027EA06064B
:10447000AB403343636114684369E568ED086D0040
:1044800005F0060503FA05F503695B1E032B33D817
:10449000DFE803F0020E1A26266EDFF86C321E40AB
:1044A000036846EA8366354345F00045256652E0D9
:1044B000666EDFF854321E40036846EA8366354371
:1044C00045F00045656646E0A66EDFF83C321E40CA
:1044D000036846EA8366354345F00045A5663AE041
:1044E000E66EDFF824321E40036846EA83663543F1
:1044F00045F00045E5662EE0236E056803F0F843BD
:10450000B3EB856F03D1236E23F00043236613685A
:104510005C6E056804F0F844B4EB856F03D15C6E03
:1045200024F000445C6613689C6E056804F0F8444F
:10453000B4EB856F03D19C6E24F000449C66136835
:10454000DC6E056804F0F844B4EB856F03D1DC6ED3
:1045500024F00044DC6613689C6804F00304012C1A
:1045600003D11D68EC0700F19680C5680468012638
:10457000012D06FA04F406D0D3F8B06026EA04044C
:10458000C3F8B0401FE0D3F8B0502C43C3F8B0409C
:1045900007230668846815680A2E0AD3093E06EBCD
:1045A0004606AF69B34027EA0303B4402343AB6137
:1045B00009E0761C06EB46066F69B34027EA030361
:1045C000B44023436B610068102804D1DFF83C310C
:1045D0001C68250205E0112805D1DFF830311C6880
:1045E000E50158D406E0122855D1DFF820311C68C7
:1045F000650250D413689C6804F00304012C02D1B6
:104600001D68EC0742D410282BD1B3F1A04F42D142
:10461000DFF8F800DFF8F850036843F400030360A4
:10462000DFF8F0000468A4FB0553DB0C03EB830602
:1046300076000096009870B3009B5B1E0093009874
:1046400048B3009B5B1E0093009820B3009B5B1E49
:1046500000930098F8B1009B5B1E00930098D0B1C6
:10466000EAE7112809D1B3F1A04F14D1DFF89C007B
:10467000036843F0807303600DE012280BD1DFF86C
:104680008C00036843F48003036004E0506C40F046
:10469000200050640121002082F84000084601B04B
:1046A000F0BC704730B5044681B02068816801F0E5
:1046B0000301012925D10268D10722D5816801F0C3
:1046C0000D01012912D1816841F0020181600320AE
:1046D0002168086000F05AF9054620688168C8071B
:1046E0000FD500F053F9401B0328F6D3606C40F05F
:1046F00010006064A06C40F00100A06401B00120D3
:1047000030BD002001B030BD00F0FF830803005031
:1047100006BD3786180D002000200882944882B01C
:10472000016841F001010160026802F0010200929B
:104730000099416841F080514160406800F080502C
:1047400000900098042002B000F026B910B586B0A1
:1047500001A90022002300241CC10CC10068B0F193
:10476000A04F2DD18348016841F08051016002685B
:1047700002F0805200920099016841F4002101602A
:10478000026802F40022009203220099016841F4B9
:10479000003101600721006800F4003000900098AB
:1047A000754801910292039301A900F05BF903227D
:1047B00001920292039401A94FF0904000F052F947
:1047C00006B010BD10B586B001A900220023002458
:1047D0001CC10CC10068694A90421CD165488168BF
:1047E00041F0005181600322816801F00051009185
:1047F0000099016841F4003101601021006800F463
:1048000000300090009801910292039301A94FF0AB
:10481000904000F027F906B010BD10B586B001A990
:104820000022002300241CC10CC10068544A90429D
:1048300021D15048416841F4006141600222416841
:1048400001F4006100910099016841F400310160B8
:104850004FF40061006800F400300090009801916E
:104860000120039002920C200590049301A94FF0BF
:10487000904000F0F7F806B010BD10B586B069465C
:104880000022002300241CC10CC100683C4A904255
:104890003DD13848016841F400310160026802F4FA
:1048A0000032059202220599016841F480210160DD
:1048B0008021006800F48020059005980091012077
:1048C00002900321062003910490019269464FF063
:1048D000904000F0C7F80121029102200621032236
:1048E00001900491009203926946264800F0BAF8BC
:1048F0004FF4E06002210090019102910620032113
:104900000391049069464FF0904000F0ABF806B078
:1049100010BD10B586B001A90022002300241CC1DF
:104920000CC10068184A90421FD11248816841F4B6
:10493000003181600222816801F400310091009908
:10494000016841F4003101600C21006800F400307E
:104950000090009801910720059002920393049320
:1049600001A94FF0904000F07DF806B010BD0000A6
:104970001810024014100240000800480074004063
:10498000002C0140000400480044004001484068F9
:10499000704700BF0C0D0020294A13684FF6FF0135
:1049A00000020B4000F4E060184326490843106001
:1049B000704730B4224B81B01C68C4F30223C3F1AA
:1049C0000704052C28BF04241D1D072D34BF002318
:1049D000DB1E012505FA04F4641E2140994005FA06
:1049E00003F35B1E1A4011430901020008D5164A61
:1049F00000F00F00104400F8041C01B030BC7047F8
:104A0000124B195401B030BC7047012200F01F0155
:104A10000F4B8A40400943F820207047401EB0F1F8
:104A2000807F01D3012070470A494860F02081F857
:104A3000130D0020886007200860002070470000E8
:104A40000CED00E00000FA0518ED00E000E400E0E5
:104A500000E100E010E000E000F000B87047000066
:104A6000010002002DE9F04F81B00F464FF0000E1B
:104A70003C686749674A684B002C4FF00F084FF0BD
:104A8000010900F0BA808246386809FA0EFC1CEA77
:104A9000000000F0AB807C68022C18BF122C13D1F0
:104AA0004FEADE040AEB84044FEA8E05266A05F01D
:104AB0001C0508FA05FB26EA0B06D7F810B00BFA1E
:104AC00005F53543C4F820504FEA4E040325DAF8C3
:104AD000006097F804B0A540ED430BF0030B2E40A7
:104AE0000BFA04FB4BEA0606CAF800607E68012E4A
:104AF00018BF022E04D0112E18BF122E40F01880BD
:104B0000DAF80860D7F80CB02E400BFA04FB4BEA39
:104B10000606CAF80860DAF8046026EA0C0C7E681B
:104B2000C6F3001606FA0EF646EA0C06CAF804604A
:104B3000DAF80C603540BE6806FA04F42C43CAF873
:104B40000C407C68E40051D51C6844F001041C60F2
:104B50004FEA9E0C1D6805F001050095BAF1904FD3
:104B6000009C52F82C604FEA8E0404F00C0408FA02
:104B700004F526EA050508BF00260FD0274EB245EA
:104B800008BF01260AD0264EB24508BF022605D02E
:104B9000244EB2450CBF0326052600BF06FA04F4D6
:104BA0002C4342F82C406FEA000C0C687D680CEA3C
:104BB0000404EE0348BF04430C604C687D680CEAB3
:104BC0000404AE0348BF04434C608C687D680CEA63
:104BD0000404EE0248BF04438C60CC687D680CEA94
:104BE0000404AD0248BF0443C1F80C400EF1010EAD
:104BF000386830FA0EF07FF447AF01B0BDE8F08FAF
:104C000081B0002A14BF8161816201B07047000049
:104C10000004014008000140181002400004004850
:104C200000080048000C004870B582B0056A446A6C
:104C300090F82C3055F8236054F8234000250AB131
:104C400001231370822900F2FF83DFE811F0830053
:104C50008900900097009E00AE00BC00CA00D10001
:104C6000D500DC00E300EA00F300FA0001010801CE
:104C70002401FD03FD035C014001FD03FD03FD0371
:104C800078017F0186018D0194019B01AB01AF0189
:104C9000FD03B801C201C601CF01D301AB01AF01D1
:104CA000DC01E001E901ED01F601FA01FD03FD037C
:104CB00003021B023302480262027C02FD03FD0371
:104CC000FD03FD03FD03FD039602A002AA02B90243
:104CD000EA00C802E002FD03FD03FD03FD03FD033E
:104CE000FD03FD03FD03FD03FD03FD03FD03FD03C4
:104CF000FD03FD03FD03FD03FD03FD03FD03FD03B4
:104D0000FD03FD03F802FD03FD03FD03FD03FD03A9
:104D1000FD03FD03FD03FD03FD03F5031A03370344
:104D200041034B0355035F032803B500C300F103A0
:104D3000FD03F503F903690373037F038A039503F6
:104D40009E03A903B403BF03C903D103D903E1033D
:104D5000FF03E90300F082FB0546284602B070BD60
:104D6000A06A00F07EFB0546284602B070BDA06A2E
:104D7000FDF797F90546284602B070BD304600F0B1
:104D800076FB0546284602B070BD304600F071FB48
:104D9000C0EB00118800DFF8BC2680FB02329510C2
:104DA00005EBD575284602B070BD206800F064FBA5
:104DB0000546284602B070BD206800F060FB05463D
:104DC000284602B070BD206800F05BFB054628460F
:104DD00002B070BD2068FEF757FF0546284602B0B6
:104DE00070BD206800F050FB0546284602B070BD3B
:104DF000304600F04CFBA0E1606800F03DFB05464A
:104E0000284602B070BD606800F03BFB05462846AE
:104E100002B070BD606800F037FB0546284602B05E
:104E200070BD304600F033FB0090BDF902502846BB
:104E300002B070BDA06800F01FFB0546284602B016
:104E400070BDA06800F01DFB0546284602B070BD8D
:104E5000A06800F019FB0546284602B070BD816AC3
:104E600090F82C0051F8201000200A0F092A08BFE2
:104E7000A069C1F30361092908BFE069002800F0B7
:104E80005D810DF10202694600F008FBBDF900509A
:104E9000284602B070BD816A90F82C0051F82010AD
:104EA00000200A0F092A08BFA069C1F3036109297C
:104EB00008BFE069002800F041816A460DF1020157
:104EC00000F0ECFABDF90050284602B070BD816ACE
:104ED00090F82C0051F8201000200A0F092A08BF72
:104EE000A069C1F30361092908BFE069002800F047
:104EF00025810DF10202694600F0D5FABDF9005096
:104F0000284602B070BD816A90F82C0051F820103C
:104F100000200A0F092A08BFA069C1F3036109290B
:104F200008BFE069002800F009816A460DF102011E
:104F300000F0B9FABDF90050284602B070BD206BF0
:104F400000F0C0FA0546284602B070BDE06A00F0E5
:104F5000BFFA0546284602B070BDE06B00F0CBFA00
:104F60000546284602B070BD002100F0D1FA054682
:104F7000284602B070BD012100F0CAFA0546284655
:104F800002B070BD304600F0CDFAC0EB00118800D1
:104F9000DFF8C02480FB0232951005EBD57528465A
:104FA00002B070BD304600F0C7FAC6E0304600F0EF
:104FB000C3FA0090BDF90250284602B070BD606986
:104FC000002800F0438200F0BEFA0546284602B0F1
:104FD00070BD304600F0BAFAAFE0304600F0B6FAE5
:104FE0000090BDF90250284602B070BD304600F076
:104FF000B4FAA2E0304600F0B0FA0090BDF90250D9
:10500000284602B070BD304600F041FA95E03046C7
:1050100000F03DFA0090BDF90250284602B070BD84
:10502000304600F0A1FA88E0304600F09DFA00908A
:10503000BDF90250284602B070BD304600F09CFA1F
:105040007BE0304600F098FA0090BDF90250284607
:1050500002B070BD816A90F82C0051F82010002039
:105060000A0F092A08BFA069C1F30361092908BF13
:10507000E069002800F0EA81FDF717F805462846A8
:1050800002B070BD816A90F82C0051F82010002009
:105090000A0F092A08BFA069C1F30361092908BFE3
:1050A000E069002800F0D28100F06EFA054628463B
:1050B00002B070BD816A90F82C0051F820100020D9
:1050C0000A0F092A08BFA069C1F30361092908BFB3
:1050D000E069002800F0BA8100F060FA2DE0816AF2
:1050E00090F82C0051F8201000200A0F092A08BF60
:1050F000A069C1F30361092908BFE069002800F035
:10510000A58100F04BFA0090BDF90250284602B08C
:1051100070BD816A90F82C0051F8201000200A0F11
:10512000092A08BFA069C1F30361092908BFE06922
:10513000002800F08B8100F03FFA0090BDF900508C
:10514000284602B070BD816A90F82C0051F82010FA
:1051500000200A0F092A08BFA069C1F303610929C9
:1051600008BFE069002800F0718100F025FA009086
:10517000BDF90250284602B070BD0269002A00F055
:105180006581002190470546284602B070BD02693E
:10519000002A00F05B81012190470546284602B0B5
:1051A00070BD606A00F014FAC0EB00118800A94AD3
:1051B00080FB0232951005EBD575284602B070BD14
:1051C000606A00F007FAC0EB00118800A14A80FB7A
:1051D0000232951005EBD575284602B070BD826A83
:1051E00090F82C0052F8201000200A0F092A08BF5E
:1051F000A069C1F30361092908BFE069002800F034
:10520000258100F0EAF90514284602B070BD816AD4
:1052100090F82C0051F8201000200A0F092A08BF2E
:10522000A069C1F30361092908BFE069002800F003
:105230000D8100F0D5F90514284602B070BD304646
:1052400000F015F9012830460DD100F0CCF9C0EB83
:10525000001188007F4A80FB0232951005EBD5755E
:10526000284602B070BD00F004F9C0EB00129200B5
:10527000784882FB0010851005EBD575284602B0F2
:1052800070BDA06C10B1FCF7E5F80546E06C10B1FC
:10529000FDF7E2FD2D18EDB2284602B070BDA06CFE
:1052A00010B1FCF7D5F80546E06C10B1FDF7D2FD62
:1052B0002D18EDB26D1E284602B070BDA06C0028FE
:1052C00000F0C480FCF700F90546284602B070BD26
:1052D000A06C002800F0BA80FCF7FAF805462846D2
:1052E00002B070BDA06C002800F0B080FCF7F4F8AC
:1052F0000546284602B070BDA06C002800F0A680CC
:10530000FCF7EEF80546284602B070BDE06C0028B8
:1053100000F09C80FDF79AFD0546284602B070BD5E
:10532000A069002800F09280FCF771FD0546284630
:1053300002B070BDA06C002800F08880FCF7D8FC9B
:10534000FDF7A9FE0546284602B070BDE06C0028B6
:105350007CD0FDF729FEFDF79EFE0546284602B0EB
:1053600070BDA06C002871D0FCF7C8FCFDF793FE5F
:105370000546284602B070BDA06C002866D0FCF738
:10538000E7FC0546284602B070BDA06C00285DD041
:10539000FCF708FDFDF77FFE0546284602B070BD0C
:1053A000E06C002852D0FDF703FEFDF774FE0546C1
:1053B000284602B070BDE06C002847D0FDF710FE13
:1053C000FDF769FE0546284602B070BDA06CE8B343
:1053D000FCF7E2FCFDF75FFE0546284602B070BD13
:1053E000A06C98B3FCF7B7FC0546284602B070BD28
:1053F000A06C58B3FCF7B2FC0546284602B070BD5D
:10540000A06C18B3FCF7D1FC0546284602B070BD6D
:10541000A06CD8B1FCF7CEFC0546284602B070BDA2
:10542000E06C98B1FDF700FE0546284602B070BD5D
:10543000094D284602B070BD0125284602B070BD56
:105440000425284602B070BD02B11570284602B08E
:1054500070BD00BF676666664E731B3A90F82C00FD
:10546000704701468888498840EA01407047407E7D
:105470007047406800F0BFB8B0F904007047008B77
:105480007047B0F906007047B0F92200704781B04C
:10549000806801690091084601B07047C38B0B809A
:1054A000408C1080704770B504460D46164604F1D6
:1054B0003000FFF7E1FF288004F13000FFF7E1FF43
:1054C000308070BD0146C88849884843000C704749
:1054D000017869B9038A026AB0F91E10808C9A1AA1
:1054E0004A43D11302EB114200EB224000B2704755
:1054F000808A00B27047B0F90401704781690029C1
:1055000018BF084770474368002B18BF18477047FB
:1055100000B581B0836883220BB1984702461046DC
:1055200001B000BD00B581B04068FCF7BCFD01B022
:105530005DF804EBFCF735BD81B08068C16800916F
:10554000084601B0704790F84800704781B0806805
:1055500001680091084601B0704781B080684168D9
:105560000091084601B0704781B08068D0F81610ED
:105570000091084601B0704781B08068D0F81A10D9
:105580000091084601B07047B0F90410B0F90E0060
:10559000C1EBC13191FBF0F000B2704781B0B0F8BF
:1055A0001811C26D0A41ADF80020006E0841ADF837
:1055B0000200009801B0704781B0B0F96C10ADF8EE
:1055C0000010B0F86E00ADF80200009801B070470E
:1055D000C08B7047B0F924007047D0F8FC007047CA
:1055E000D0F8F8007047014600200A7B012A08BF66
:1055F000B1F90E0070474068C11300EB1140001470
:10560000704700002DE9F0418AB00446884600202A
:105610005FEA581516461F468DF8040013D06D1E1C
:105620002A460021204600F0AFFA18B90B208DF869
:1056300005008DE2D4F8C40008F01F0818B12A460E
:10564000002100F0A1FAB8F10C0F00F27E82DFE831
:1056500018F07F020D009E006F017C027C02790130
:10566000BA01CF01020229023A024C023178052028
:105670007E298DF8050000F28680DFE801F0408485
:10568000844F846A6A6A6A6A6A6A6A6A6A6A74744D
:1056900084846A6A6A6A6A8484845660848484849E
:1056A00084848484848484848484848484848484BA
:1056B0008484848484848484848484848484846AC4
:1056C000848484847474748484848484846A8484E4
:1056D000846A6A6A6A6A6A6A847484848484846A6A
:1056E00084846A6A848484848484848484848484AE
:1056F00084844F74747474748484847474007578AE
:10570000D4F8C4002A46002100F03EFA2A460021BF
:10571000204600F039FA8DF8040019E2727820462C
:1057200000F032FA8DF8040012E27278D4F8C40066
:105730000021FFF7E8FE01208DF804000BE27278EB
:10574000D4F8C4000121FFF7DEFE01208DF804002B
:1057500001E27278B07802EB0022204600F014FAE1
:105760008DF80400F4E17078B278337900EB02220E
:10577000F07802EB004202EB0362204600F004FAEC
:105780008DF80400E4E102208DF80500E0E13178B5
:10579000032282298DF8052000F2DA81DFE811F07A
:1057A0008300BA0083008300BA00AC00AC00AC00F8
:1057B000AC00AC00AC00AC00AC00AC00AC00AC0089
:1057C000AC00AC00AC00AC00AC00AC00AC00AC0079
:1057D000AC00AC00AC00AC0091009F00BA00AC0083
:1057E000AC00AC008300D801D801D801D801D801A1
:1057F000D801D801D801D801D801D801D801D801E1
:10580000D801D801D801D801D801D801D801D801D0
:10581000D801D801D801D801D801D801D801D801C0
:10582000D801AC00D801D801D801D801BA00BA001B
:10583000BA00AC00AC00AC00AC008300BA00AC0015
:10584000AC00AC00AC00AC00AC00AC00AC00AC00F8
:10585000AC00AC008300BA00D801AC00AC00AC00D6
:10586000AC00AC00D801D801AC00AC0083008300D0
:10587000BA00BA00BA00BA00BA008300AC00AC00AB
:10588000BA00D801AC00AC008300BA00BA00BA007C
:10589000BA00BA00BA00BA00BA00BA00BA00BA0038
:1058A0008300D801830001AA2046FFF7BDF90090CC
:1058B0009DF80400012840F04B8101236A46F02145
:1058C00056E1D4F8C400002800F042810021FFF71F
:1058D0001FFE8DF8000001236A46F02148E1D4F84C
:1058E000C400002800F034810121FFF711FE8DF87B
:1058F000000001236A4620E101AA2046FFF794F93F
:1059000000909DF80400012840F0228102236A469D
:10591000F0212DE101AA2046FFF786F900909DF8BD
:105920000400012840F0148104236A46F0211FE19D
:10593000317807208DF80500204600F0F1FA8DF847
:10594000040005E102A800210022002300252EC04A
:105950002EC0D4F8C0201278092A02A822D0C27022
:105960005FF00101D4F8C020525C092A1AD00DF171
:105970000B035A54491CD4F8C020525C092A11D098
:105980005A54491CD4F8C020525C092A0AD05A54EF
:10599000491CD4F8C020525C092A03D05A54491C2F
:1059A0001D29DFDBD4F8C020531D5B5C8DF8083067
:1059B000D4F8C0200A44D2794270D4F8C0201144EF
:1059C000497A8170B7E031797079B37801EB0021C1
:1059D0008AB23178707801EB0021F07801EB034155
:1059E00001EB0061204600F0F1FA8DF80400AFE011
:1059F0000DF1060000900DF10A03317802AA20464D
:105A000000F0FCFABDF90A005C4AC0EB0011890005
:105A100081FB0232901000EBD0708DF80C0003A9CE
:105A200002124A70082302140016C8708A7003AA72
:105A3000BDF806000871BDF9060000124871BDF8F6
:105A400008008871BDF80800000AC871F021206BB9
:105A5000656BA8477CE07079B179494B00EB012078
:105A600000B20090B1787078F27800EB01203179C3
:105A700000EB024000EB016000EB80025000F17986
:105A800080FB03530344307A01EB00215B118AB29F
:105A900003EBD37331781BB2204600F0D7FA8DF8B0
:105AA000040055E0B078F17800EB0122307871788D
:105AB00000EB012112B209B2204600F0E4FA012005
:105AC0008DF8040047E00C208DF8050002968DF853
:105AD0000C7002A82B4D294600F0E3FA00288DF83F
