:020000040800F2
:10000000C8140020A9A4000815A50008B19800088C
:1000100019A500081DA5000821A500080000000082
:1000200000000000000000000000000025A50008FE
:1000300029A50008000000002DA50008119900085E
:1000400031A5000835A5000839A500083DA5000820
:1000500041A5000845A5000849A500084DA50008D0
:1000600051A5000855A5000859A500085DA5000880
:1000700061A5000865A5000869A500086DA5000830
:1000800071A5000875A50008F597000879A5000876
:100090007DA5000881A5000885A5000889A50008A0
:1000A0001D9800080F9800088DA5000891A500086C
:1000B00095A5000899A500089DA50008A1A5000820
:1000C000A5A50008A9A50008ADA50008B1A50008D0
:1000D000B5A50008B9A5000851980008BDA50008FD
:1000E00035990008C1A50008C5A50008C9A50008E4
:1000F000CDA50008D1A50008D5A50008D9A5000800
:10010000DDA500080000000000000000E1A50008D7
:10011000E5A50008E9A50008EDA50008F1A500087F
:10012000F5A50008F9A50008FDA5000801A600082E
:1001300005A6000809A60008000000000000000055
:100140000DA6000811A6000815A600080000000072
:10015000000000000000000000000000000000009F
:1001600019A600081DA6000821A6000825A600085B
:1001700029A600082DA6000831A6000835A600080B
:1001800039A600083DA6000800000000000000009D
:1001900041A6000810B50446DF48606301F01AFE6E
:1001A000002084F8300084F83A00204600F09BF8E4
:1001B000002084F82401F7EE000AD4F8400590ED01
:1001C000000A2069B8EE400A84ED100A80EE800A29
:1001D00084ED0F0A01F021FE00EE100AD4F840056C
:1001E000B8EE400A84ED110AF6EE000A90ED130A0B
:1001F00090ED091A60EE200AC0EE810AFDEEE00AD9
:1002000010EE901AA4F84810F0EE000A90ED060ADD
:1002100090ED071A60EE200A60EE810A90ED130A55
:1002200080EE200A84ED130AF5EE000AC16A21650A
:1002300090ED0B0A60EE200AC4ED160AC06A6065F4
:100240000020E06520666066A06684F88C00C4F833
:100250009000C4F8940084F89800C4F89C00C4F896
:10026000A000C4F8A400C4F8A800C4F8AC00C4F806
:10027000B000C4F8B40084F83C05204601F0E4F96D
:100280000020C4F8CC00C4F8D000C4F8D40084F82E
:10029000D800DFED9D0AD4F84005DFF8FC2C816B17
:1002A000C4F8DC10416CC4F8E01081FB02329210FB
:1002B00002EBD27200EE101AC4F8E820B8EEC00AC1
:1002C00020EE200A4FF4FA72BDEEC00A0021C4F8F5
:1002D000E82084ED390AA4F82C11C06BC4F8300171
:1002E00084F8341110BD002180F83B1080F8EC1028
:1002F000A0F8181180F81A11A0F81C11C0F82011EC
:10030000C0F83811704710B50446002194F83B003E
:10031000042808D1082184F83010002084F8EC006B
:100320000121084610BD94F83000C0B9206801F0E2
:1003300076FD0020012184F83A0084F83010204630
:10034000FFF7D1FF002084F824010121606D2065B2
:10035000002084F88C0084F898000120208708464B
:1003600010BD10B50446206801F05EFD94F8300021
:10037000062818BF072804D00A281CBF002084F8CC
:10038000300010BD30B5044681B094F83000401EF6
:10039000072800F2B680DFE800F00404040422B469
:1003A000B43F206801F045FD90B1072184F830107A
:1003B000E06801F07DFD206801F0F1FD94ED4A0A4E
:1003C000DFED520A20EE200A204601F061FC93E0A6
:1003D000204600F0F9FF84ED4A0A01B030BD2068E4
:1003E00001F027FD002800F08C80072084F8300001
:1003F0000721E06801F05CFD206801F0D0FD94ED7C
:100400004A0ADFED420A20EE200A204601F040FCB5
:10041000206DC4F828016FE094F83B00042870D0E8
:10042000206801F006FD00286BD094ED4A0ADFED4C
:10043000370A20EE200A204601F02AFCD4F84005B5
:1004400094ED140A84ED4A0A9FED311AD0ED060AA4
:10045000D0ED071A20EE811A21EE211AD0ED130AF1
:10046000C1EE200A20EE800ABDEEC00A10EE100A8E
:10047000451E206A2AB2002101F093FD206A2AB2AB
:10048000012101F08EFD206A2AB2022101F089FDCE
:10049000206A2AB2032101F084FD206A2AB20421D5
:1004A00001F07FFD94F8EC0001281BD1206901F0D8
:1004B0007EFDC0EB00118800DFF8DC2A80FB0232F1
:1004C000921002EBD27200EE102AB8EEC00ADFEDF5
:1004D000110A60EE200AFDEEE00AC4ED390A20465A
:1004E00001F05CFB062084F830000721E06801F091
:1004F000DFFC206801F053FDDFF8100E0188491C75
:10050000018001B030BD0000CDCCCC3E6666663FB8
:1005100000008047CDCC4C3FEC0600202DE9F04F89
:1005200004460FF69C2081B000272DED048B066851
:1005300086B094F83000D4F83490092800F21C8575
:10054000DFE810F0F4040A0054000A007D005E01A8
:10055000F9041A05EA02E60494ED140A204601F0B3
:1005600011F8012823D194F8300001280DD102217F
:1005700084F83010484601F02DFCD4F84005428E36
:100580004EF66021484601F015FD94F8300003282E
:100590004FD1042184F83010484601F01BFCD4F8F8
:1005A0004005828E218F484601F004FD41E0208FF6
:1005B0004EF6602188423CD12787204600F004FF98
:1005C0006FF0130084F8D800F6EE000A94F8980053
:1005D000401C84F8980020EE200AC0B2032884ED65
:1005E000140A26D3092084F8300022E094ED140A7E
:1005F000204600F0C7FF484601F0F4FB484601F0F2
:100600001DFDB0B1032084F83000F5EE000A94ED32
:10061000140A20EE200A6FF01300C4F8A870C4F882
:10062000AC70C4F8B07084ED140A84ED160A84F836
:10063000D800218F206801F007FD00F0A1BC94EDE7
:10064000140A204600F09EFF278F484601F0CAFB9F
:10065000204600F0B9FED4F8B000D4ED2A0A401CC0
:10066000C4F8B00030EE800A606884ED2A0A01F018
:10067000F5FC00EE900A60684188384601EE101AD9
:10068000F8EE600AB8EE411A9FEDC20A60EE810AE8
:1006900001EE100AB8EE411A60EE800A21EE000A5F
:1006A00094ED2B1AC4ED170A00EE201A84ED2B1AD4
:1006B000484601F0C3FC002800F0298294ED2C0A82
:1006C00094F88C00D4ED2A0A94ED2B1AB8EE400A67
:1006D00080EE800A04EB800184ED240AD4ED2C0A1C
:1006E00081ED1B0AF8EE600A94F88C0004EB80019F
:1006F000C1EE200AC1ED1F0A94F88C00401C84F85A
:100700008C00C0B2042816D26FF0130084F8D80011
:100710000020C4F8A800C4F8AC00C4F8B00094ED00
:10072000140AD4ED160A30EE200A032084ED140AD0
:1007300084F83000EBE1052084F830009FED968AC4
:10074000002084F83A00484601F044FB64224EF64B
:100750006021484601F02EFC2146032091ED200A3D
:10076000D1ED1F0A91ED1B1A30EE600AD1ED1C0A83
:1007700070EEC10A091D80EE200A401E30EE088A84
:10078000ECD1B0EE080AD4F8401588EE000A84EDEA
:10079000180A91F8400020BBD1ED0A0A30EE600A39
:1007A000DFED7E0AB4EE600AF1EE10FA84ED180A6D
:1007B00003D5DFF8AC0D206605E0F6EE000A20EE6A
:1007C000200A84ED180ADFED760A94ED240A60EE23
:1007D000200A0020C4ED250AC4F8A400C4F8A00033
:1007E00095E10A2084F830000721E06801F060FB01
:1007F000206801F0D4FB206801F016FB002786E199
:10080000204600F0E1FD94F83A0010B1022808D02B
:1008100018E0DFED640AB4EE600AF1EE10FA11D5CB
:100820000DE0D4ED250A278FB4EE600AF1EE10FA40
:1008300005D5D4F89C00401CC4F89C0002E0484652
:1008400001F00EFC484601F0CDFA484601F0F6FBF7
:10085000002800F05C8194F83A0018B1022810D00A
:1008600008D354E1012084F83A00484601F0B2FA76
:100870000A2247E1022084F83A000020C4F89C00D4
:100880003CE1002084F83A0094ED270AD4ED0F0AE9
:10089000D4F8A00094ED291AB8EE400A20EE200A00
:1008A000D4ED180A00EE201A401C142884ED291AF1
:1008B000C4F8A00040F02281062084F8300007210F
:1008C000E06801F0F5FA206801F069FB206801F0AA
:1008D000ABFA94ED280AD4ED290A6068B8EE400A14
:1008E00080EE800A84ED190A01F0B8FB00EE100AD0
:1008F000606894ED182A4188D4F84005D4ED4C1A6C
:1009000000EE901AB8EE400AF8EE600A20EE200AD7
:100910009FED201A20EE010A84ED170A0022D0ED87
:10092000060A20EE200AD0ED070A20EE200AD0EDBC
:10093000130A80EE201A94ED190AD4ED370A20EE3E
:10094000210A62EE211A94ED0F2A80EE010A61EE6F
:10095000821A002760EE200A81EE811A4FF0100CF7
:100960001020102190460F2547F6FF734FF0010B22
:100970000BFA05F601EE906AF8EEE11A61EE801AC4
:10098000FDEEE11A11EE906A9E4210DA4FFA85FCF4
:100990000DE000BF0000803700000000CDCC4C3ED1
:1009A0009ED2213F0AD7233CBEF1100FE0D01FFAA0
:1009B00080FEBEF1100F0FD10BFA05F201EE902A66
:1009C000F8EEE11A61EEA01AFDEEE11A11EE902A9E
:1009D0009A42B8BF68B200BF1FFA81FEBEF1100F85
:1009E0000ED10BFA05FE01EE90EAF8EEE11A61EE87
:1009F000811AFDEEE11A11EE908A9845B8BF69B2EE
:100A00006D1E1FFA8CFECFD5BEF1100F83460D462A
:100A1000924609D0A0691FFA8CF101F025FBA0696C
:100A200031B201F027FB02E0092084F830001FFA00
:100A30008BF010280AD0E0691FFA8BF101F014FB4B
:100A4000E0690FFA8AF101F015FB02E0092084F851
:100A50003000A8B2102812D0A069A9B201F00CFB96
:100A6000E069A9B201F008FBA0690FFA88F101F072
:100A700016FBE0690FFA88F101F011FB02E0092092
:100A800084F83000DFEDA00AD4F8400590ED060AA6
:100A900090ED071A60EE200A60EE810A90ED130ACD
:100AA00080EE800AD4ED140A20EE200ABDEEC00AC2
:100AB00010EE100A461E206A32B2002101F071FACF
:100AC000206A32B2012101F06CFA206A32B20221AE
:100AD00001F067FA206A32B2032101F062FA206A5B
:100AE00032B2042101F05DFAD4F84005428E206A4A
:100AF000002101F0D6FA204601F050F8484601F0F6
:100B000069F964224EF66021484601F053FA2068E4
:100B1000394601F099FA33E2E06801F0C8FA001FA3
:100B20000F2800F22982DFE810F0100010001000FA
:100B3000E6012702270227022702270227022702AF
:100B400027022702270227021000A06A01F0B1FA4B
:100B500001F0B1FA0646A068006801F0AFFA074656
:100B6000314601F0CFFA0190A068B0F91010BDF93C
:100B70000400091AA06901F0F9FAADF80800A068AC
:100B8000B0F91210BDF90600091AE06901F0EEFA99
:100B9000ADF80A000299606901F028FB82463146EF
:100BA00001F04FFB05462068294601F069FB8046AD
:100BB000A06847600497A1680198C860A068C0F861
:100BC00016A0A168D1F81A000390A168C1F81A50C4
:100BD000A0680684606801F041FAADF8140003A92A
:100BE000606A01F01FFCADF80000606A01F00AFDC8
:100BF0002069694601F031FD94F83B00052800F2B8
:100C0000C081DFE810F006008300BE014901BE018B
:100C10006101204600F024FD022884F8240122D13D
:100C2000206901F0C4F9C0EB00118800DA4A80FBAA
:100C30000232921002EBD272C4F8E420206901F073
:100C4000B6F90146204601F001F8012084F83B0086
:100C5000204600F0F9FC06B01FFA88F0BDEC048BCA
:100C600001B0BDE8F08F012800F08B81032821D16D
:100C700094ED3A0ABBEEEF0AFCEEC00AC4ED3A0A64
:100C8000204600F08BFF062084F830000721E06842
:100C900001F00EF9206801F082F9DFF87006418852
:100CA000491C418006B01FFA88F0BDEC048B01B0EE
:100CB000BDE8F08F042840F0648194ED480AB8EE56
:100CC000400ADFEDB40A60EE200AFDEEE00AC4ED52
:100CD000390A204600F062FF062084F83000072120
:100CE000E06801F0E5F8206801F059F9DFF81C062A
:100CF0008188491C818006B01FFA88F0BDEC048B06
:100D000001B0BDE8F08F00BF00008047D4F8400577
:100D1000A168D0ED060AB1F90C20D0ED071A9FEDBD
:100D20009F1A20EE811A21EE211AD0ED130A00EE4F
:100D3000102AC0EE810AB8EEC00A94ED2E1A60683F
:100D400000EE201A84ED2E1A01F088F900EE100A48
:100D500060684188A06800EE901AB8EE400AF8EE8C
:100D6000600A20EE200A9FED8E1A20EE010A84ED23
:100D7000170ADFED8C0AB0F91610A06801EE101A00
:100D8000B8EEC11A21EE000A94ED2F1A00EE201AD7
:100D900084ED2F1AB0F9181094ED171AD4F8C80082
:100DA00000EE101AB8EEC00A20EE010A94ED301AD7
:100DB00042F2107100EE201A401C884284ED301A75
:100DC000C4F8C800C0F0DD8000EE100AB8EE400A9A
:100DD000D4ED2E0A80EE808AD4ED2F0AC0EE808AF0
:100DE000D4ED300A80EE809A204600F02DFC206978
:100DF00001F0DDF800EE100AB8EEC00AF2EE040AC7
:100E000080EE200ADFED680A60EE209AD4ED180A21
:100E1000D4ED191A40EEC88AD4ED110A20EE200A4A
:100E20009FED621A20EE011A21EE211A01EE089AB6
:100E300028EEA80A09EE090AB5EE400AF1EE10FA0A
:100E400002DBB1EEC08A01E09FED598A9FED590A9D
:100E500028EE000ADFED580A60EE200A80EEA90AAB
:100E6000E06A84ED1A0A02F0E2F8D4ED170A9FED69
:100E7000531A89EE880A80EE811A20EE010A84ED69
:100E8000330A022084F83B0006B01FFA88F0BDEC5C
:100E9000048B01B0BDE8F08F484600F0A3FF484640
:100EA00001F0CCF800286CD0606A01F080F800EE08
:100EB000100ABAEE670ABDEEC00A10EE101A09B2A7
:100EC000204600F0C3FE0BE0206A02F0B6F810B135
:100ED000032084F83B00E06801F0E9F8062850D1CF
:100EE000042084F83B0006B01FFA88F0BDEC048BA8
:100EF00001B0BDE8F08F206801F051F884F830703F
:100F000006B01FFA88F0BDEC048B01B0BDE8F08F8D
:100F1000E068072100F0CCFF84F8307006B01FFABB
:100F200088F0BDEC048B01B0BDE8F08FE06801F003
:100F3000BEF8142820D1D4F8B400B0F5807F08BFE3
:100F4000C4F8B470204600F069FA2168032081F8E3
:100F50003A00D4F8B40004EB800181ED4F0AD4F8D4
:100F6000B400401CC4F8B40006B01FFA88F0BDEC11
:100F7000048B01B0BDE8F08F2068314601F080F9A4
:100F8000804606B01FFA88F0BDEC048B01B0BDE8C6
:100F9000F08F0000CDCC4C3F67666666000080474E
:100FA0000000803746CD933700007042DB0FC94008
:100FB0000000000071C49C3F00007A44D7B3DD3FBD
:100FC0000000000070B52DED048B044686B0656B03
:100FD000E06801F06CF894F83010062909D0C0F0F0
:100FE0001181082969D0C0F0FC8006B0BDEC048BEB
:100FF00070BD0B2800F20681DFE810F00C00040140
:10100000040104014F00040104010401040104016E
:1010100004010101204600F0B1FC002840F0F280FC
:1010200094ED100AD4ED190A94ED181AE06820EE38
:10103000802A81EE022AF7EE002AF5EE001A32EE3F
:10104000C22A22EE212AF5EE002A72EE222AB8EEFA
:10105000003A32EE833A81EE201A03EE001A84ED54
:10106000341AB7EE001A31EE421AFDEE002A31EEC4
:10107000221A02EE211A21EE001A21EE000A20EEB9
:10108000200A84ED350A032100F012FF206800F0E9
:1010900086FF06B0BDEC048B70BD082084F83000DC
:1010A0002046FFF720F9012084F82401204600F0B3
:1010B000CBFA06B0BDEC048B70BD94F83B0002285F
:1010C00040F0A080D4ED331A94ED1A2A61EE821A12
:1010D000DFEDD02A61EEA22A9FEDCF3AB4F9483075
:1010E000D4ED138AD4ED191A94ED109A82EE838A06
:1010F00021EEA82A02EE903A61EE891A94ED183A90
:1011000022EE092AF8EEE22AC3EE211AC2EE822A62
:1011100094ED343A9FEDCE0ADFEDCD0A9FEDCC1A67
:10112000002100200E2288EE022A83EE093ADFED2C
:10113000C93A9FEDC94A012303FA02F604EE906A08
:10114000F8EEE44A21EEA45AB4EE445AF1EE10FA55
:10115000BEBF23EE241AB4EE441AF1EE10FA12DAEE
:10116000B4EE631AF1EE10FA0DD422EE240AB4EEB6
:10117000440AF1EE10FABEBF62EEA40AF4EE440A8D
:10118000F1EE10FA23DB521E56B2012ED4DAD4ED62
:10119000351A61EEA81AC1EE881A0E22C1EE891A1C
:1011A00003FA02F602EE106AB8EEC22A61EE822A53
:1011B000F4EE442AF1EE10FA04DAF4EE632AF1EECA
:1011C00010FA23D5521E56B2012EE9DA27E052B2A8
:1011D00001EE902AF8EEE11AFDEEE11A11EE901AF6
:1011E000D5E750B9E068032100F062FE002084F8E2
:1011F000300006B0BDEC048B70BD0B2802D1E06856
:1012000001F021FF06B0BDEC048B70BD52B201EEBF
:10121000902AF8EEE11AFDEEE11A11EE900AFDEEC9
:10122000C51A11EE902AADF80020BDEEC11A11EEDC
:10123000102AADF80220BDEEC00A10EE102AADF85B
:101240000420BDEEE20A10EE102AADF80620BDEE35
:10125000E00A10EE102AADF80820BDEEE40A10EE08
:10126000102AADF80A20BDEEC20A10EE102AADF821
:101270001000ADF80C20ADF80E106946606A00F061
:1012800047F894ED331A94ED100AD4ED110A606A10
:10129000DFEDB41A61EE211A61EEA01A20EE002AE9
:1012A000C1EE821AB5EE002A61EE821AFDEEE11A55
:1012B00011EE902ADFEDAC1A21EE211A61EE200A20
:1012C00080EE800ABDEEC00A10EE101A12B209B20A
:1012D00001F0C4FE206900F0EEFE0646206901F030
:1012E000CDFE0146606A324601F0CBFE284600F092
:1012F00071FDFA224EF66021284600F05BFE0320C5
:1013000084F83B0006B0BDEC048B70BDB810002023
:1013100002460888908301234888D08388881084F7
:10132000C8885084088990844889108588895085A8
:10133000C889A2F81801088AA2F81A010020D085ED
:10134000B1F90CC0DFF8440A90FBFCF000B258B3CE
:10135000B2F82EC000EBD070C0030CF1010C0014E9
:101360005B00A2F82EC0F8B100EBD070C0030CF106
:10137000010C00145B00A2F82EC0A8B100EBD070E5
:10138000C00300145B000CF1010C0028A2F82EC071
:101390000AD000EBD070C00300145B000CF1010C0C
:1013A0000028A2F82EC0D3D19385B1F90C00B2F970
:1013B0002C10DFF8DC3910FB01F080FB03C31B129B
:1013C00003EBD373D3847047D0F84015806891ED58
:1013D000060A91ED071ADFED9B0A60EE200A60EE27
:1013E000810A91ED130AB0F90010B0F9020080EE05
:1013F000200A00EE901AF8EEE00A01EE100A60EE04
:10140000C00AB8EEC11A41EE400AB6EE000A20EE5C
:10141000800A70478104B53F0080D844D0F8401559
:101420008068D1ED060AB0F90020D1ED071A9FEDD2
:10143000851A20EE811A00EE102A21EE211AD1ED34
:10144000130AB8EEC00AC0EE810A20EE600A7047A7
:101450000000000000FEFFC601FEFF4605207047A9
:1014600030B5044681B0E06A01F0FFFC0025012898
:1014700008BF84F83451E06800F019FE0A2806D14C
:1014800084F8345184F83050284601B030BD94F8C7
:1014900030000A281BD8DFE800F006090D111111F1
:1014A00015151506190094F8340180B10125284658
:1014B00001B030BD0225284601B030BD03252846C5
:1014C00001B030BD0425284601B030BD0E252846A8
:1014D00001B030BD90ED180A01F0E3BD90ED190A9E
:1014E00001F0DFBD90ED1A0A01F0DBBD90ED170AA7
:1014F00001F0D7BD90F83B1004291CBF90F83020B4
:101500000A2A22D1002180F83B1080F8EC10A0F8C4
:10151000181180F81A11A0F81C11C0F82011C0F899
:10152000381180F82411DFF86C28D0F8E01081FB26
:101530000232921002EBD272C0F8E82000214FF480
:10154000FA72C0F8E82080F83010012180F83411D8
:101550000021DFF824040180418081807047000071
:10156000CDCCCC3DB0EDB7490000054410B50446E4
:10157000206800F014FD002184F8301084F8341144
:1015800010BD0000D0F840250021D2ED060AD2EDB2
:10159000071A9FED2C1A20EE811A21EE211AD2EDA6
:1015A000130A8268535EB2F90220C0EE810A01EE8E
:1015B000103AB8EEC11A01EE902A21EE601AF8EE48
:1015C000E11A01EEE01AF6EE000A61EE200AF4EEEE
:1015D000400A028FF1EE10FA1DDB0AB1521E02879B
:1015E00030EEC00ADFEDCC0AB4EE600AF1EE10FA7C
:1015F00020D490F9D820521E53B213F1130FB8BF64
:101600006FF0130280F8D82090F9D800002858BF56
:101610000121084670474EF6602C30EE600A6245A4
:10162000DFEDBD0ABCBF521C0287B4EE600AF1EECA
:1016300010FADED590F8D820521C53B2142BE1DBFF
:101640001422DFE7000080470021C0F8B810C0F87E
:10165000BC10C0F8C010C0F8C410C0F8C810704763
:1016600070B504462DED068BD4F84005A168D0ED89
:10167000060AB1F90C20D0ED071A9FEDBC1A20EE36
:10168000811A21EE211AD0ED130A00EE102AC0EEC5
:10169000810AB8EEC00A94ED2E1A606800EE201A96
:1016A00084ED2E1A00F0DAFC616800EE100A48881A
:1016B00000EE900AB8EE400AF8EE600A20EE200A2A
:1016C0009FEDAB1AA06820EE010A84ED170ADFED4A
:1016D000A90AB0F91610A06801EE101AB8EEC11AE6
:1016E00021EE000A94ED2F1A00EE201A84ED2F1A35
:1016F0000125B0F9181094ED171A206900EE101AA0
:10170000B8EEC00A20EE010A94ED301A00EE201A5D
:1017100084ED301A00F04BFC46F2676110FB01F1DA
:10172000881400EBD07000B200EE100AD4F8C800A4
:10173000D4ED110A94ED311AB8EEC00A42F21071DC
:1017400000EE201A401C884284ED311AC4F8C8000B
:10175000C0F0DE8000EE100AB8EE400AD4ED2E0A8A
:10176000C0EE808AD4ED2F0AC0EE809AD4ED300A04
:1017700080EE80AAD4ED310A80EE809A2046FFF7F1
:1017800063FFB5EE409AF1EE10FA00F0C1802069D7
:1017900000F00DFCC0EB00118800DFF8F82580FB9D
:1017A0000232921002EBD27200EE102AB8EEC00A9A
:1017B000BDEEC00A10EE106A9FEDAD0A29EE008A58
:1017C00094ED180A40EE689A94ED190A28EE000A82
:1017D00000EE28AA29EEA90A0AEE0A0AB5EE400A86
:1017E000F1EE10FA02DBF1EEC08A01E0DFEDA18A32
:1017F000B4F8181104F1F00000EB8100C0ED008A8C
:1018000004F58270B4F8181100EB810080ED008AB5
:10181000B4F81801401CA4F8180180B2052804D3BC
:101820000020A4F8180184F81A5194F81A21002A0B
:1018300050D0D4F8E00001F039FCDFF85C25DFF887
:101840005C3501F057FC01F02BFDB04242DA052275
:1018500004F1F00104F5827000F00EF99FEDCD2A3D
:10186000F0EE681AB0EE481A204600F057F800284B
:1018700094F8EC000ED050B9D4F8E410DFF820054D
:10188000711881FB002000EBD070C4F8380184F897
:10189000EC501FE0012815D19FEDBF0A29EE000A88
:1018A000D4ED110A80EE200A0021BCEEC00A84F8B3
:1018B000EC1084ED480AA4F81C110425BDEC068B3D
:1018C000284670BDB4F81C01401CA4F81C0180B26D
:1018D00004280FDA206A01F000FD002894F8EC00DB
:1018E0000AD038B10021A4F81C110225BDEC068BEA
:1018F000284670BD032508E050B1D4F83811B14234
:1019000006D2206A01F0F3FC02250020A4F81C0195
:101910002846BDEC068B70BDCDCC4C3E01EE200AB6
:10192000B7EE001A32EE011AF7EE002A21EE001A85
:1019300032EEC22A014622EE000A0020B4EE610A0D
:10194000F1EE10FA44BFF4EE411AF1EE10FA0BD5A5
:101950009FEDCA0A91ED111A80EE010AB4EE600AF9
:10196000F1EE10FA48BF01207047000000008047E8
:101970000000803746CD9337B810002030B50546BB
:1019800081B095F83C05012490B9286801F0BAFFB0
:1019900041F28830A5F82E014FF47A710020C5F885
:1019A000B400A5F82C1185F83C45204601B030BDA7
:1019B000B5F82E01002853D0401EA5F82E019FED4A
:1019C000CD0A05F59E714020D1ED000A30EE200AC7
:1019D000D1ED010A30EE200AD1ED020A30EE200AE4
:1019E000D1ED030A1031401E30EE200AECD1DFEDBC
:1019F000C20A20EE200A9FEDBF1A05F59E71402015
:101A0000D1ED001A91ED012AD1ED022A91ED033AB0
:101A100071EEC01A32EE402A01EEA11A72EEC02A0F
:101A200002EE021A103133EE403A02EEA21A401EC4
:101A300003EE031AE4D121EE200ADFEDC70AB4EE6B
:101A4000600AF1EE10FAA8BF4FF47A7003DAB5F825
:101A50002C0128B1401EA5F82C0101B0204630BD54
:101A6000002085F83C050024204601B030BD000070
:101A7000DB0FC9400000000003460FF2503070B485
:101A800090EC021A90B202EE100A81B09FED990A12
:101A9000DFED980AB8EE422ADFED962A002458B30B
:101AA000C5070AD593ED000A30EE200AD1ED000AF1
:101AB0009FED903A70EE830A0124400800F01C80EC
:101AC00003EB840501EB840695ED003A30EE030A42
:101AD000641C96ED003A03EB840570EE830A95EDE5
:101AE000003A01EB840630EE030A641C96ED003ADE
:101AF000401E70EE830AE3D180EE023A002094B2D9
:101B0000D4B392B2D40710D5D3ED002A91ED004A98
:101B100072EEC33AF0EE614ADFED762A43EE844A74
:101B200043EEA32AF0EE641A0120520800F024804C
:101B300003EB800401EB8005D4ED003AD5ED004ABB
:101B4000401C73EEC33AB0EE614A03EB800401EB34
:101B5000800503EEA44AD4ED004A401C74EEC34A4B
:101B600043EEA32AD5ED003A04EEA34A521E44EEFA
:101B7000A42AF0EE441ADBD101B070BCC1EEA22A57
:101B800040EE620AF0EE621A80EE820AF0EE610A1E
:101B900070470000CDCCCC3D0000704230B581B024
:101BA00004462DED028BD4F8E80094ED390A00EEDE
:101BB000900AB8EEC00AF8EE600AC0EE200A9FED67
:101BC0006C1A20EE818ADFED6B0AB4EE608AF1EECA
:101BD00010FA09DB00EB801000EE100A84ED390AE0
:101BE000B8EEC00A9FED648AF2EE040A20EE200AE5
:101BF0009FED621A80EE010ABDEEC00A10EE105A87
:101C000029B2204600F022F8206A2AB2012101F010
:101C10004FFF206A2AB2022101F04AFF206A2AB24D
:101C2000032101F045FF206A2AB2042101F040FFA0
:101C3000BDEEC80A10EE100A82B2206ABDEC028B1B
:101C4000012101B0BDE8304000F02BBA00EE101ABF
:101C5000B8EEC00ADFED4A0A20EE200AB5EE400ACF
:101C6000F1EE10FA48BFB1EE400ABDEEC00A10EE28
:101C7000101A406A89B201F021BF000017B7D13AAB
:101C800000EE101AB8EE400A80ED110A704700000D
:101C900030B5F5EE000A044660EE200A81B0C4EDCE
:101CA000160A84ED140A84ED150ADFED360AD4F81D
:101CB000400520EE200AD0ED060A20EE200AD0EDE5
:101CC000070A20EE200AD0ED130AA06A80EE200A4F
:101CD000BDEEC00A10EE105A10B1A9B201F0F1FE2B
:101CE000E06A28B1A9B201B0BDE8304001F05CB9AA
:101CF00001B030BD000000000000803B90ED150AEF
:101D0000704780ED370A704790ED370A7047000042
:101D100011B9D0F84015496C1E4AC0F8E01081FB9B
:101D20000232921002EBD27200EE101AC0F8E820D4
:101D3000B8EEC00ADFED140A20EE200A4FF4FA7262
:101D4000BDEEC00AD0F8E010C0F8E82080ED390AF6
:101D5000C06A01F069B900000BD7233CD0F8E0005D
:101D60007047D0F8E4007047D0F8E80070470000F2
:101D700000007A4401FF7F4700E87D470000704281
:101D8000CDCC8C3F00008047CDCCCC3E5EEA0F002E
:101D9000C58D4806676666669A9999999999B93F7B
:101DA0005655555590ED150A704780ED4C0A704711
:101DB00090ED4C0A7047D0F84005B0F848007047E5
:101DC000D0F8400590F84A0070470000000000007D
:101DD00000000000002181604160C16001610121BB
:101DE0004161704781B0C3688268012B09D90169DC
:101DF0008A185B1EC3608260406992FBF0F001B0FC
:101E0000704704D1426841694A430021C160826041
:101E1000406992FBF0F001B07047407B7047416A27
:101E2000002918BF08477047816A002918BF084772
:101E30007047C1690847F0B40246106895681318E6
:101E4000506803EB5004C00721D54D441FE0F0BC9F
:101E500002F10C00704713F8017B05F8017B491E65
:101E6000F9D1A0B1B60813F8011B06F00306032E42
:101E700008BF13F8016B01EB06214942801C29447D
:101E800005D011F8016B05F8016B401EF9D1A34292
:101E9000DDD013F8016B16F0030104BF13F8011B2A
:101EA000C91C30090F28DAD113F8010B0F30D6E71F
:101EB00010B582B002780024142A0ED8DFE802F0B0
:101EC00019235B2F4A595B5D5F660D0D0B292B2D86
:101ED000393B435241000A005CD003291CBF012951
:101EE000072903D00022802101F0EFFD204602B037
:101EF00010BD0A46032A4DD0012A49D101240170A0
:101F0000204602B010BD072918BF0D2942D00E2966
:101F100036E00E2918E00F2916E0022914E00729FF
:101F200018BF102936D0042918BF112932D0012931
:101F300026E0112908E0122918BF07292AD0142900
:101F40001EE0122900E0042915D101240170204669
:101F500002B010BD0A46132A07D1012401702046A1
:101F600002B010BD0A46042A14D0072A12D0052A4E
:101F700006E006290ED0072902E0082900E0092919
:101F8000ABD101240170204602B010BD0A0001D07F
:101F90000C2AA2D101240170204602B010BD816834
:101FA000084701EB410300EB830002827047B0F960
:101FB000040070472DE9F04705460F46A868696997
:101FC0005FEA020890FBF1F40CD1384601F094FD71
:101FD0006861474300202861AF600021E96001206B
:101FE000BDE8F0873E1B304601F086FD8146204665
:101FF00001F082FD8246384601F07EFDD14528BFC2
:10200000D146814588BF8146C5F8149009FB04F488
:10201000AC606F602868084A08FB00F8A8FB022142
:102020006869490A491C464396FBF1F02861E9605A
:102030000120BDE8F08700BF986E128301460020A2
:10204000C96801B90120704700B581B0C36A012297
:102050000BB198470246104601B000BDC0887047DA
:102060000021C160016170478183012202FA01F100
:10207000018370478180704730B5044681B00125E7
:10208000E1838D406583C5EBC53101F048FDA5EBCB
:10209000C531204601B0BDE8304001F042BDC180ED
:1020A000704701EB410300EB8300828170470078A9
:1020B000704740697047B0F90000704701B481B0C3
:1020C00044F6E612BDF90400ADF8000001460B48E5
:1020D00011FB00F0BDF9061011FB02F2A0EB42006B
:1020E000C01300F30F00ADF8020010F5004F04BF5D
:1020F0000349ADF80210009802B070471AB6FFFF0E
:102100000180FFFF31B582B008B201F011FD0190EE
:10211000BDF90420BDF90830BDF90600BDF90A106B
:1021200013FB02F400FB1144E41304F30F04ADF8B5
:10213000004013FB00F0BDF900500A4CA54204BF5B
:10214000094DADF8005011FB0200C01300F30F0061
:10215000ADF80200A04204BF0348ADF802000098A9
:1021600003B030BD0080FFFF0180FFFFF0B4B0F985
:102170000430B0F91450B0F91660B0F9062000240C
:102180004B430AB9002115E0514382688F1806D5E8
:10219000002AC8BF002906DD6FF0004703E0002ACF
:1021A00044BF0029104FC168B94203DB0169B9423D
:1021B000B8BF394681600A46818BC78B0B4142FA12
:1021C00007F1CB189D4206DAEC1AA4182B4684605E
:1021D00018B2F0BC7047B342BCBFF41A3346A4181F
:1021E000846018B2F0BC70470100008002B481B076
:1021F0000091BDF90430BDF9062013FB03F112FB79
:10220000021C01884943614518D290F8B2104FEA88
:102210001C6CACEB010C5FFA8CFC00EB4C00808872
:10222000434342439913901303EB514302EB504253
:10223000DB13D213ADF80030ADF80220009802B0E5
:10224000704711B583B008B201F072FC0190BDF97E
:102250000420BDF90C30BDF90600BDF90E1013FBCA
:1022600002F411FB004411FB02F100FB1310C01338
:10227000E413ADF80200ADF80040009804B010BDC2
:1022800070B481B002B481B0B0F85030BDF90650DE
:10229000BDF90420018E5D436D424A436D00511922
:1022A000AA1A01EBD17102EBD27249105210002927
:1022B00048D5002A17D5042480F83A408C1A6514B2
:1022C00004EB9534A41404EB930314140D1402EBE3
:1022D000D43201EBD53103EB6242A3EB61410C46F2
:1022E0001D46164675E02C14002D05EBD43414DC85
:1022F000032180F83A10AD1A691405EB9135AD143D
:1023000005EB9303151402EBD53203EB6242A2EB0B
:1023100064410C4615461E465BE0022280F83A20D6
:102320004D1B6A1405EB9235AD1405EB93030D14A8
:1023300001EBD531A3EB614101EB644214460D463C
:102340001E4646E0002A16D4012480F83A408C1A32
:10235000651404EB9534A41404EB9303141402EBFA
:10236000D4320D1403EB624201EBD531A3EB614192
:1023700014461D462CE02C14002D05EBD43414DC3F
:10238000052280F83A204D1B6A1405EB9235AD14F6
:1023900005EB93030D1401EBD531A3EB614101EB88
:1023A00064421C460D46164613E0002180F83A10A0
:1023B000AD1A691405EB9135AD1405EB93031514B3
:1023C00002EBD53203EB6242A2EB64411C46154698
:1023D0000E46C186A0F84060C58784874386828602
:1023E000B0F84E10012919D1B0F94830418EB0F83B
:1023F0005420002BCCBF5118891A4186B0F94A30BD
:10240000818E002BCCBF5118891A8186B0F94C30CF
:10241000C18E002BCCBF52188A1AC286816903B0C4
:1024200070BC08472DE9F04F054685B0B5F92A0084
:102430006B6EC0EBC0329A42B8BF6A6604DBA0EB99
:10244000C0309842A8BF68666E6EB5F81A01AB6ED0
:102450000641B5F92A009A4236B2B8BFAA6604DB33
:10246000A0EBC0309842A8BFA866AA6EB5F81A01C2
:10247000EB6D42FA00F00FFA80FBB5F92800C0EBD3
:10248000C0329A42B8BFEA6504DBA0EBC030984284
:10249000A8BFE8652B6EB5F928009A42B8BF2A6636
:1024A00004DBA0EBC0309842A8BF2866B5F818310D
:1024B000EA6D88882F6E049742FA03F4201A00B25E
:1024C00047FA03F3ADF80230BDF80270CB88FB1A6F
:1024D000B5F9207003971BB20F890297B5F91CA0BC
:1024E000029FB5F91E90B5F924E0DDF80C801AFBC7
:1024F00004F4121BB1F900407C4310FB09222414A0
:102500001EFB042206FB1828B5F926200192EA8D4D
:102510008DF80020B5F922C06C6E9DF80070B5F9F9
:10252000062010FB0C404BFA07F4019F14FB02F449
:1025300007FB0404BDF90200049F1AFB00F03F1AD8
:1025400013FB0979029FB1F90200784300141EFBC6
:102550000091A86EDDF80C9013FB0C039DF80000B1
:102560000BFB191946FA00F00199A5F86C60A5F863
:102570006EB010FB02F2B5F920019A460028B5F9B9
:10258000000001FB12AA54BF01274FF0FF3701F0F2
:10259000CFFA00901BFB07F0BDF90010404210FB82
:1025A00001F1BDF902007E43490016FB00F0091459
:1025B0004000A1EB204105F13000FFF7D7FD95F871
:1025C000F01095F80A212881491CC9B2914208BF30
:1025D000002105EB4102B2F87030A5F80831A2F8ED
:1025E000700085F8F010298840182880C5F85C80B4
:1025F0006C66C5F86090C5F868A0B5F9000005B034
:10260000BDE8F08F10B490F80A4190F80B1190F8E3
:10261000F020D0F80431611A07D100F1700131F9CE
:1026200012105A18B0F908110DE08918A142ACBF78
:102630000C1B0C4600F1700131F912105A1800F110
:10264000700131F91410511AB0F81C21C0F80411AE
:1026500041FA02F3C38010BC7047F0B490F82F2009
:102660000124012A08BFB1F900203DD0437BB0F915
:102670000650828D468895FBF3F3AA189E1990F8B0
:1026800028308285012B46802ED1B0F92A3043B9FB
:10269000CA5E80F8294000210173028010B2F0BCAC
:1026A00070475B1E4385002DB1F90060B0F93270B0
:1026B00052BFB51A951B4FF0FF342DB215FB03F333
:1026C00093FBF7F313FB04F3002D1BB208D4012294
:1026D00080F82E200988CA1A028010B2F0BC704718
:1026E00090F82E1001B19A19028010B2F0BC704718
:1026F00010B50446DFF828092061FFF76BFB0020C6
:10270000A4F85800A4F85A0020626062A062E06257
:102710002065D4F89C00C16BC4F8801081692163E6
:10272000002184F83410A163E163A4F84010A4F8F8
:102730004C10A4F84E1090ED000AD0ED070AB8EE48
:10274000400A20EE200ABDEEC00A10EE101AA4F8CE
:102750005C1090ED090AD0ED070A80EE200ABDEE6C
:10276000C00A10EE101AA4F85E1090ED000AD0ED29
:102770000C0AB8EE400A20EE200ABDEEC00A10EEA8
:10278000101AA4F8601090ED000AD0ED0D0AB8EE12
:10279000400A20EE200ABDEEC00A10EE100AA4F88E
:1027A0007400002084F862006066A06684F86C0003
:1027B0002067D4F89C0090F82010D4F89C0084F88E
:1027C0007610418CA4F87810016CC4F88410416C28
:1027D000C4F88810806CC4F88C000020C4F8900005
:1027E000C4F8940010BD90F8621079B9002280F806
:1027F00034208163C163A0F84010A0F84C10A0F809
:102800004E10C0F89010C0F8941070470A2180F85C
:1028100034107047002180F8341070472DE9F041E2
:10282000054695F834002C69092800F2EF82DFE8AC
:1028300010F00A004800ED02ED02ED02A000CB000E
:102840004501710111026A68002082F8240000210C
:10285000E86801F0B9F901200021A5F84A00A96350
:10286000E963A5F84010A5F84810A5F84C10A5F8A4
:102870004E1085F86C102868FFF799FBC0EB00112B
:102880008800DFF8A03780FB03639910002201EB7A
:10289000D1712046FFF78EFBD5F880104FF47A7285
:1028A0002046FFF787FB012085F834006868B0F9FF
:1028B000101000EE101AB8EEC00A85ED240ABDE82B
:1028C000F0812046FFF78EFA00EE100AB8EEC00A3B
:1028D00085ED1C0A284600F0D1FA06462046FFF78F
:1028E000ADFB002800F09282B5F84E00401C012E8E
:1028F000A5F84E0005D0B5F8741080B2814280F082
:1029000085822868FFF753FBC0EB00118800DFF8D1
:10291000142780FB0232921002EBD27200EE102AD2
:10292000D5F89C00B8EEC00A85ED140A41F2883251
:10293000D0ED0A0A60EE200AFDEEE00A10EE901AD1
:10294000A5F85810D0ED0B0A20EE200ABDEEC00A03
:1029500010EE101A0020A5F85A10E863A5F8400000
:102960006864A5F84E0009B22046FFF723FB052056
:102970004AE22046FFF736FA00EE100AB8EEC00A27
:1029800085ED1C0A284600F079FA06462046FFF736
:1029900055FB002800F03A82B5F84E00401C012E8D
:1029A000A5F84E0005D0B5F8741080B2814280F0D1
:1029B0002D820020E863A5F840006864A5F848006F
:1029C000A5F84E0006201FE295ED1C0A284600F0EF
:1029D00055FA2868FFF7EBFA00EB80025200DFF8A7
:1029E0004406E96BB5F85C6082FB0030801000EBB8
:1029F000D0706A684118E963A86BB2F90C30B5F879
:102A00004020C0186B6C521C97B25B1CBE42A8637E
:102A1000A5F840206B6480F0F98192B291FBF2F14D
:102A2000B5F84820A5F84810521AA5F84A2016B261
:102A3000002E44BF324652420021E963A5F84010FF
:102A4000B5F86010994203DB12B2042A00F3DE816C
:102A500090FBF3F0A882DFED7E0AB5F9480095F807
:102A6000761000EE100AB8EEC00A01EE101A60EE01
:102A7000200AB8EE411A60EE810AC5ED060A286800
:102A8000FFF795FAC0EB00118800DFF89825B5F93B
:102A9000581080FB0232921002EBD27200EE102A24
:102AA0000022A5F84E20B8EEC00A85ED1C0A41F2BE
:102AB00088322046FFF77EFA0720A5E12046FFF77F
:102AC00091F900EE100AB8EEC00A85ED1C0A2846FE
:102AD00000F0D4F906462046FFF7B0FA002800F0CF
:102AE0009581B5F84E00401C012EA5F84E0005D08A
:102AF000B5F8741080B2814280F088810020A8630C
:102B0000E863A5F840006864A5F84800A5F84E0001
:102B1000082079E195ED1C0A284600F0AFF92868F5
:102B2000FFF745FA00EB80025200DFF8F804E96B8A
:102B3000B5F85C4082FB0030801000EBD0706A6812
:102B40004118E963A86BB2F90C30B5F84020C01801
:102B50006B6C521C96B25B1CB442A863A5F8402073
:102B60006B6480F0538192B291FBF2F1B5F848208A
:102B7000A5F84810521AA5F84A2014B2002C44BFF8
:102B8000224652420021E963A5F84010B5F86010D2
:102B9000994203DB12B2042A00F3388190FBF3F070
:102BA000E882DFED2B0AB5F9480095F87610B5F903
:102BB000162000EE100AB5F91400B8EEC00A01EEB6
:102BC000101A60EE200AB8EE411A20EE810A00EEDB
:102BD000900AB5F91600B5F9141085ED070A01EE53
:102BE000100AF8EEE00AB8EEC11A70EEC10A95EDCF
:102BF000061AE86831EE400A80EE800ADFED840AAA
:102C0000B4EE600AF1EE10FA48BFB0EE600A85ED4E
:102C1000080A95ED060AD5ED070A30EE600A9FED29
:102C20007D1A20EE010A85ED090A8A42D5ED070AD0
:102C300030EE200A85ED090AB2BF00220022B5F964
:102C4000781000F0C5FF0020A5F84E000920DBE059
:102C50009CC4203FB5F84E00401CA5F84E002868E3
:102C6000FFF7A5F900EB80025000DFF8B83395F8C4
:102C70007610D5ED091A80FB03439B1000EE101A65
:102C800003EBD373F8EE400A01EE103A9FEDD60A3B
:102C9000B8EEC11A21EE001A21EE201AB4EE611A24
:102CA000B5F84E10F1EE10FA06DAB5F8740000EB44
:102CB0004000884280F2AA80D5F89C00AE68D0ED32
:102CC000001AB3EE0E2A01EE101AB8EE411AF8EE11
:102CD000611A81EE211AF6EE001AC1EE811A61EE38
:102CE000821AC5ED0C1A85ED0A1A102195ED082AF5
:102CF00021EE022A62EE211A21EE800A20EE200A3D
:102D000085ED0B2A85ED190AC0EE010A90ED001A37
:102D1000B8EE411AC0EE810AC5ED1A0A10274FF02D
:102D200000080F2047F6FF725FF0010303FA00F47A
:102D300001EE104AB8EEC11A21EE001ABDEEC11A1A
:102D400011EE104A944204DA41B202E0BCF1100FD5
:102D5000ECD01FFA87FCBCF1100F0ED103FA00FC77
:102D600001EE10CAB8EEC11A21EE201ABDEEC11A4A
:102D700011EE108A9045B8BF47B2401E1FFA81FC81
:102D8000E4D5BCF1100F07D089B23046FFF76CF9DB
:102D900021B23046FFF76EF9B8B2102808D0B9B2A8
:102DA0003046FFF769F90FFA88F13046FFF777F9F7
:102DB000B5F97810304600F059FFB5F8781049425F
:102DC00009B2304600F054FF304600F053FF04468D
:102DD000B5F8780044432146304600F0A0FE644236
:102DE0002146304600F09DFE012085F86200012159
:102DF000E86800F0E9FE2868FFF7D9F80146E868BE
:102E0000002200F0E5FE0A2085F83400BDE8F081DC
:102E10000AD7233CAE47213F10B5044694F8620020
:102E2000A8B96068002180F82410E06800F0CCFEAA
:102E30006068B0F91010E068002200F0C9FEE06898
:102E4000BDE810404FF47A62002100F0C1BE10BD11
:102E5000002180F86210704790ED140A00F021B94B
:102E60000B20704790F8340070470146002091F81D
:102E700034100A2908BF01207047000030B504460D
:102E800081B000252DED048BD4F89C00D0ED0E8A86
:102E90002068B0EE408AFFF78AF8C0EB0011890085
:102EA000604A94ED221AD4ED210A81FB023292107D
:102EB00002EBD27200EE102AB8EEC09A38EE490A40
:102EC000B5EE401A60EE800AF1EE10FA08BF9FEDF1
:102ED000520A09D0D4ED251A70EE611A94ED240A35
:102EE00001EE810A70EE800AB4F8780084ED240ABD
:102EF000014601EE101AB8EE411AB4EE601AB0EEB7
:102F0000600AF1EE10FA48BFB0EE410A404201EE0D
:102F1000100AB8EEC11AF4EE410AF1EE10FA48BFF9
:102F2000B0EE410A70EEC00A94ED231AE068BDEEDF
:102F3000C00A60EE810A10EE101AC4ED250A0022C4
:102F400009B200F045FE28EE280AB4EE409A94F942
:102F50006C00F1EE10FA1CD4B4EE489AF1EE10FABF
:102F60000AD4B0EE000A30EE680A20EE080AB4EE89
:102F7000409AF1EE10FA0CD5401C41B21429A4BFBE
:102F80001420012584F86C002846BDEC048B01B0A8
:102F900030BD002084F86C002846BDEC048B01B0E5
:102FA00030BD80F876107047A0F87810704780ED3B
:102FB0000C0A704790ED0C0A70470000D0F89C1086
:102FC00090ED0B0A90ED261ADFED140A60EE200A50
:102FD00060EE810A91ED130A91ED141A20EE010AB8
:102FE00080EE800A704700009CC4203FD0F89C10FF
:102FF00090ED080A90ED261ADFED080A60EE200A2F
:1030000060EE810A91ED130A91ED141A20EE010A87
:1030100080EE800A7047000000000000CB151E35CE
:10302000480C002067666666C0F88010704780ED27
:10303000260A704790F862007047014600208968B0
:1030400001B901207047014600200A780B2A04D1FB
:1030500009200870002088800120704730B50446A0
:1030600081B0154604F13000FFF704F8294604F159
:10307000300001B0BDE83040FFF711B8B0F90600EC
:10308000704770B504460D46164604F1300000F056
:10309000F1FD00FB05F104F1300000F0EDFD2680AC
:1030A00070BD2DED010A009801B07047C11768B1DD
:1030B0004840401AB0FA80F29040D21CC907C2F5CD
:1030C000846241EA025202EBD0214005704790F839
:1030D0001C1169B90022012180F81D2180F81C1102
:1030E000D0F82001016841F0200101600220704702
:1030F00001207047B0B581EA030C0CF0004C40F29F
:10310000FF7515EA11541DBF15EA1357AC42AF42C3
:1031100039E0E41923EA455343F48013C90241F02E
:10312000004141EA505EC7021100A7FB02020028DD
:103130004FF00000EEFB01204FF00001E3FB072100
:1031400018BF42F00102401800214941E3FB0E0183
:10315000A4F580640F0302D252004041494154F16A
:1031600001046CDD470872F1004250F1000051EBA0
:103170000451A1F580115CBF41EA0C01B0BD4CEADD
:1031800005510020B0BD05EA1357AC4214BFAF4251
:1031900041E050EA410E1CBF52EA430E02E0614694
:1031A0000020B0BD24423C441BD15FEA070EF6D09C
:1031B000090302BF01460020AEF1140EB1FA81F7F7
:1031C000AEEB070401FA07FE0C37C7F1200100FA45
:1031D00007F7C8404EEA000E23EA455343F4801334
:1031E000A2E733F00043B3FA83F704BFB2FA82FEDA
:1031F00077440B3FE41BB7F1200E2FBF02FA0EF30A
:10320000BB40C7F1200E22FA0EFE38BF43EA0E0380
:10321000BA40641C82E750EA410E14BF52EA430EE2
:103220006FF000014FF4001717EB430F8ABF1946E8
:1032300017EB410FB5E74CEA05510020B0BDD4F1C2
:103240000104B4F120070FDAC4F12007520828BFA7
:1032500042F0010210FA07F501FA07F7E1BF2A432D
:10326000E0403843E1400FE0352C98DCC7F1200402
:1032700052EA400220FA07F218BF42F0010231FA86
:1032800007F0A1400A43002172F1004250F1000012
:1032900051EB0C01B0BD00EB4100B0F932007047BA
:1032A000C1F30A5340F2FE329B1A14DDD3F120031E
:1032B0004FEAE17208DDC90241EA505141F0004095
:1032C000D84080185040704703F2E13010B1D2432B
:1032D00082F000407047002070470146002091F8BE
:1032E000582091F849108A4228BF0120704710B534
:1032F000C46E0021816081802046FEF758FE0146A1
:103300002046BDE81040002200F0B8BC014681B064
:10331000886800F04050B0F1805F2CD08868DFF8FA
:10332000B8C520F04050886000238A68DFF8AC05FB
:10333000024042F080528A60DFF8A4251068E0FB6A
:103340000CC35B0C00930098A8B1009A521E009227
:10335000009880B1009A521E0092009858B1009ACD
:10336000521E00920098002805D0009A521E00922A
:1033700000980028E9D18A68DFF86805024042F029
:1033800000428A608868C00FFCD10A68DFF84C05EB
:10339000D3071FD48A68024042F001028A600A689B
:1033A000D30717D48A68024042F001028A600A6893
:1033B000D3070FD48A68024042F001028A600A688B
:1033C000D30707D48A68024042F001028A600A6883
:1033D000D307DFD58A68024042F008028A608A6813
:1033E000104040F020008860C86840F40010C860B9
:1033F00001B0704730B402464FF47A7013685B082E
:103400005B00136002F11803546824F070045460E8
:103410001C6844F008041C601D6845F4006543F80E
:10342000045B1C6844F008041C601D6845F40065DA
:103430001D60536943F0010353614C6F94F8A13050
:10344000022B10D194F8A250012D04BF94F89B30A8
:10345000032B16D1012414630324536943F00103A1
:10346000536114630DE091F8463073B994F89B40B2
:10347000032C06D101231363536943F00103536105
:103480001463B1F868305B1E53626FF080041461FE
:103490004B6F93F89C1059B9D06840F08000D06011
:1034A00030BC70470028F7D06FF480711161401E66
:1034B0001169CB05F6D4D06840F08000D06030BCF4
:1034C0007047426F438E90F86F1080F83A10926800
:1034D000B0F868105363491E838E936389B2C08E1F
:1034E000D0631164506800F07000401E8041C043FA
:1034F000C00F7047F0B4426F838FB0F86840B2F8E5
:103500009210E51AAFB2B94205D2042180F83A1000
:10351000B0F8681015E0C68F2D049E1BED0BB6B2F7
:10352000B54203D2B2F89410591A0BE0C9188AB206
:10353000A24207D38022A0F86C20B0F86820C1EB2B
:103540004201491E426F9268438E536389B2838E53
:103550009363C08ED0631164506800F07000F0BCBB
:10356000401E8041C043C00F704730B4446F90F894
:103570006F2004EB8203DD6A2A685B6C1B68A46819
:10358000656825F07005656090F86E40102C0AD2D1
:10359000C56D5219C265026E9B18036690F86E20C5
:1035A000521C80F86E2000200880488030BC704794
:1035B00030B4436F90F86F2003EB8204656C2A6887
:1035C0009B685C6824F070045C6090F86E30102B8F
:1035D00007D2446E1219426690F86E20521C80F891
:1035E0006E2000200880488030BC704770B481B0E5
:1035F000416F8A6890F84710002942D102F1180300
:10360000B94C1968214041F0600119600026116A27
:1036100041F001011162116A21F004011162566347
:10362000416F91F89A1001290DD11E68AF490E40E3
:1036300046F480561E60156A25F010051562116A61
:1036400041F040010EE002290DD11E68A7490E404D
:1036500046F400561E60156A45F010051562116AA1
:1036600021F04001116253F8041F0C4044F0700433
:103670001C60116A21F480711162116A21F4806169
:1036800011620FF26D110FF23112416142600FF2BF
:10369000A511C16096498160012180F8471001B0F1
:1036A00070BC7047416F8A6890F84710012900D0BC
:1036B000704770B402F1180381B019688A4C214038
:1036C00041F060011960116A41F001011162416F1E
:1036D00091F89A10012903D1116A41F0040104E024
:1036E000022903D1116A21F004011162B0F86810B7
:1036F000490851631E687D490E4046F4C0461E606D
:10370000156A45F010051562416F91F89A1001296C
:1037100003D1116A41F0400104E0022903D1116A8A
:1037200021F040011162B0F868104908916353F824
:10373000041F0C4044F060041C60116A41F4807165
:103740001162416F91F89A10012903D1116A41F475
:10375000806104E0022903D1116A21F480611162C1
:10376000B0F868104908D163624A63494161426018
:103770006249C1605E498160002180F8471001B054
:1037800070BC70470246506FB2F868308068594389
:10379000090C51864163032182F83A104068118F69
:1037A00000F07000401E8041C043C00F012902D1CB
:1037B0000023012013877047426F9268536823F0FB
:1037C00070035360026E436F90F83A0003EB80037E
:1037D000D3F844C0DCF80000101A494A904203DDD7
:1037E00047F6FF72904200DB104608804880704721
:1037F000416F896800224A636FF001020A610A6919
:10380000D307FCD54A6C42F400424A64416F91F8F8
:103810009A20022A0DD1B1F88C30096A8B61416F70
:10382000B1F88E20496A8A62406FB0F89010806AC1
:103830008162704770B481B0426F936811685268BA
:103840006FF001041C611D69EE07FCD51C610124A9
:103850005C63B0F86840641F1C641C69E507FCD514
:10386000DC6844F00104DC605C6C44F480645C64FB
:103870005C6C44F400445C64446F94F89A50022DEC
:1038800019D1B4F88C50246A1B6A40F25556334261
:1038900006D0A561436FB3F88E405B6A9C6105E07A
:1038A000A562436FB3F88E405B6A9C62436FB3F8C6
:1038B00090409B6A9C62032480F83A408B680748DA
:1038C000034043F008038B609168084040F0080013
:1038D000906001B070BC704747ACC5A7C0FFFF7FC8
:1038E000180D0020C0FFFF3F8CFFFEFFFF8CFFFE86
:1038F000A53D000861A10008B1900008013D000845
:103900000180FFFF416F89686FF001020A610B6956
:103910005FEAC37CFBD50A6100224A638A63CA63FB
:10392000B0F86820521F0A640A69D307FCD54A6CB4
:1039300042F480624A644A6C42F400424A64426F34
:1039400092F89A30022B0ED1B2F88CC0126AC2F8EB
:1039500018C0426FB2F88E30526A9361426FB2F86B
:103960009030926A9361032380F83A30086A40F4F9
:1039700080500862C86840F00100C86070470000CD
:10398000F0B5044681B0606F85680668476800201E
:10399000E0652066606684F86E00296A3D48014053
:1039A00029623D4860603D48A0614020A4F86C0059
:1039B000042084F86F0084F83A00204600F0A0F953
:1039C000686800F070007028FAD1B168344801408E
:1039D00041F00801B160B968084040F00800B860E3
:1039E00094F86E001028FBD3204600F0DBF900218C
:1039F00084F86E1084F86F1084F83A1029486060DB
:103A0000204600F07DF900BF94F86E001028FBD32B
:103A1000204600F0C7F9E06D234961600009E065C8
:103A2000206E00092066606E000960661F48A06174
:103A300005F11800016821F008010160011D02680C
:103A400022F4006202600B6823F008030B60B4F8F4
:103A500068206A63B4F86820AA63B4F86820EA634F
:103A6000026842F008020260036843F400630360E6
:103A7000086840F00800086040F25550296A014388
:103A80002962042084F83A00002084F8720001B012
:103A9000F0BD00BFAAFAFFFF6B350008C334000871
:103AA000C0FFFF7FB135000861A10008F5340008B0
:103AB00001EB410300EB8300C2817047A0F81011B5
:103AC0007047C1844942018570470346B3F802C07C
:103AD000187841EA0C0C2CEA0202B3F804C041EA5F
:103AE0000C010A285A80998002D122B90B2001E0EA
:103AF0000AB10A2018707047010048BF49420122EC
:103B00005FF00100C2F11F0300FA03F399423EBFC8
:103B1000521CD3B2202BF5D3511E88407047C16090
:103B20007047016170470068012180F81E117047DD
:103B3000A0F500400004800D10F4407181B021D048
:103B4000B1F5807F2CD0B1F5007F05D0B1F5407F75
:103B50000BD0009801B070471A49C2B231F8122058
:103B6000ADF80220C0F1FF0023E01649C0F1FF02CA
:103B7000D2B231F81220ADF80220C0B231F91000F3
:103B8000404219E00F49C2B231F912205242C0F14D
:103B9000FF00ADF80220C0B231F9100040420BE046
:103BA0000849C0F1FF02D2B231F912205242ADF8F9
:103BB0000220C0B231F91000ADF80000009801B049
:103BC000704700BFF495000801700021C160704784
:103BD0002DE9F041064682B030780C4617460125A3
:103BE000B0B9304600F00FF9F18CB6F92820A142A7
:103BF000B8BF002594421EDB290030D007BB3078C7
:103C0000270401280CBF7760B7600020F06025E032
:103C10007068C11300EB1140F18B0014A142A4BFE6
:103C2000B6F92420944206DB318C8C42BCBFB6F935
:103C30002210A142E2DA0025284602B0BDE8F08158
:103C40007480B18B084B07FB01F8A8FB0332510AC3
:103C5000271A491C3F04F16097FBF1F0B061284638
:103C600002B0BDE8F08100BF986E12838182704778
:103C7000C1827047408B704781607047134690F84F
:103C80002820002A00D07047F0B41A0012D18269AF
:103C9000818002FB01F3C28AC18402EB82046400CA
:103CA00093FBF4F3447B13FB04F30022C380828470
:103CB000F0BC7047028E114DC1845343826902FBF0
:103CC00001F6C28AA3FB0554B0F9065002EB820745
:103CD000630A447B7F005B1C96FBF7F695FBF4F2CE
:103CE000838436B212B2B61A36049BB296FBF3F254
:103CF00054432D04C4610562F0BC7047986E128372
:103D000070B481B0416F8968002280F84220B0F819
:103D1000682052084A63B0F8682052088A63B0F8F5
:103D200068205208CA63B0F86820521F0A646FF016
:103D300001020A610B69DC07FCD50A614B6C43F494
:103D400080634B644B6C43F400434B64436F93F8C4
:103D50009A40022C1ED1B3F88C401B6A0D6A40F2C7
:103D6000555635420BD09C61436FB3F88E405B6A69
:103D70009C61406FB0F89030806A83610AE09C6279
:103D8000436FB3F88E405B6A9C62406FB0F890302E
:103D9000806A83620A61C86840F00100C86001B0AF
:103DA00070BC7047416F8968CA6852085200CA6087
:103DB000002390F8722080F84230012A1BD04B6C0F
:103DC00023F480634B644A6C22F400424A64426FDD
:103DD00092F89A30022B0ED1B2F88CC0126AC2F857
:103DE00028C0426FB2F88E30526A9362406FB0F8CA
:103DF0009020806A82626FF0010008610A69D3072F
:103E0000FCD5086170478068C11300EB11400014B5
:103E100070470068012180F81F11704770B582B0AB
:103E200000250446009514B9012002B070BD606CF5
:103E3000C10666D4606C002847D1A5642065E064A3
:103E400084F84000204600F00CFE20688168C8001D
:103E50003BD4204600F0AAFD0546606CC10634D470
:103E6000280032D1606CDFF8303220F4885040F006
:103E7000020060642068816821F040518160206800
:103E8000816841F080518160DFF810020168A1FB78
:103E90000332D20C02EB8206760000960098A0B1A5
:103EA0000099491E0091009878B10099491E00912F
:103EB000009850B10099491E0091009828B10099CE
:103EC000491E009100980028EAD120688168CA0044
:103ED00002D58068810014D5606C20F0020040F0AB
:103EE00010006064A06C40F00100A064606C606C25
:103EF00020F0020040F0100060640125284602B066
:103F000070BD606CC106F2D42800F0D122689068C0
:103F10004107ECD4606C20F4807040F002006064D3
:103F2000B2F1A04F4FF0A04004D100F5427100F56E
:103F3000807016E0DFF868118A4208BF00F5427110
:103F40000FD0DFF8603100F5E1619A4208BF00F55B
:103F5000A06006D0DFF850319A420CBF00F58060B7
:103F60000020936803F00303012B02D11268D307EA
:103F70000ED438B1826802F00302012A02D100682F
:103F8000C20705D40A68606822F4403202430A601E
:103F9000A06BE1680128E06914BF4FF48052002251
:103FA00042EA40320A43A1680A43616A012911D1F9
:103FB00030B9A06A401E400440F48030024309E05A
:103FC000606C20F0020040F020006064A06C40F0C3
:103FD0000100A064E16A2368012930D0DFF8C40041
:103FE00083421CBFDFF8C000834223D1B1F5307F8C
:103FF00008BF4FF4E0711FD0B1F5807F08BF4FF4C8
:10400000307119D0B1F5E07F08BF4FF4807113D043
:10401000B1F58A5F08BF4FF470710DD0B1F5845FC0
:1040200008BF4FF4A07107D0B1F5865F04D14FF4FB
:10403000C07101E021F48051206B01430A4398686C
:1040400010F00C0F0AD1D968DFF860000140D96088
:10405000616BA069490041EA80310A432168DFF8B9
:104060005000CB6803401A43CA60206901282068C9
:10407000016B05D1226A0909521E42EA011101E0D1
:104080000909090101630020A064606C20F00200AE
:1040900040F00100606431E706BD3786180D00204E
:1040A000000100500004005000050050FDBFFFFF5C
:1040B00007C0F0FFF0B4024681B00846002100912D
:1040C00092F84040012C08BF022000F099810123A2
:1040D00082F8403013689C68650700F18881466863
:1040E00004681F25042E0AD806EB46077E001F6BC6
:1040F000B54027EA0505B4402C431C6326E00A2E90
:104100000BD2761F06EB46077E005F6BB54027EAB1
:104110000505B4402C435C6318E00F2E0BD20A3E19
:1041200006EB46077E009F6BB54027EA0505B440C5
:104130002C439C630AE00F3E06EB46077E00DF6BD4
:10414000B54027EA0505B4402C43DC6313689C683E
:1041500014F00C0F40F089800568846807260A2D4A
:104160000AD30A3D05EB45059F69AE4027EA0606DE
:10417000AC4034439C6108E005EB45055F69AE4007
:1041800027EA0606AC4034435C6114684369E5687D
:10419000ED086D0005F0060503FA05F503695B1EE1
:1041A000032B33D8DFE803F0020E1A26266EDFF861
:1041B00060381E40036846EA8366354345F0004593
:1041C000256652E0666EDFF848381E40036846EA0E
:1041D0008366354345F00045656646E0A66EDFF828
:1041E00030381E40036846EA8366354345F0004593
:1041F000A5663AE0E66EDFF818381E40036846EA26
:104200008366354345F00045E5662EE0236E05687C
:1042100003F0F843B3EB856F03D1236E23F0004323
:10422000236613685C6E056804F0F844B4EB856F90
:1042300003D15C6E24F000445C6613689C6E0568D4
:1042400004F0F844B4EB856F03D19C6E24F0004475
:104250009C661368DC6E056804F0F844B4EB856F67
:1042600003D1DC6E24F00044DC6613689C6804F023
:104270000304012C03D11D68EC0700F1BD80C56863
:1042800004680126012D06FA04F406D0D3F8B060C4
:1042900026EA0404C3F8B0401FE0D3F8B0502C4322
:1042A000C3F8B04007230668846815680A2E0AD34D
:1042B000093E06EB4606AF69B34027EA0303B44064
:1042C0002343AB6109E0761C06EB46066F69B340F9
:1042D00027EA0303B44023436B611368B3F1A04F93
:1042E0001CBF494CA34207BF4FF0A04404F54274E1
:1042F0004FF0A04505F5E1640568102D02D1206856
:10430000060203E0112D03D12068C60174D404E035
:10431000122D71D1206846026ED4B3F1A04F04D1A2
:104320004FF0A04000F5807013E0374EB34208BF55
:104330004FF0A0400DD0DFF87006834204D14FF05B
:10434000A04000F5A06004E0DFF8C866B34218BFE3
:1043500000209E6806F00306012E02D11F68FE07AA
:1043600045D438B1866806F00306012E02D10068F4
:10437000C6073CD4102D29D1B3F1A04F3CD1206801
:10438000DFF89436DFF8945640F4000020601C6893
:10439000A4FB0550C00C00EB800676000096009848
:1043A00050B3009B5B1E0093009828B3009B5B1EDC
:1043B0000093009800B3009B5B1E00930098D8B157
:1043C000009B5B1E00930098B0B1EAE7112D07D166
:1043D000B3F1A04F10D1206840F0807020600BE056
:1043E000122D09D1236843F48003236004E0506C4C
:1043F00040F0200050640121002082F8400008466F
:1044000001B0F0BC7047000000010050F0B402465B
:1044100081B008460021009192F84040012C08BF6D
:10442000022000F03382012382F840301369002B10
:104430001CBF8469012C44D14368012B3BD1846AA1
:104440001568012C2DD0DFF860359D421CBFDFF8C8
:10445000C4359D421DD1082C08BF34241BD0142C18
:1044600008BF1C2417D01C2C08BF102413D0DFF861
:10447000B0359C4208BF1C460DD041F20C039C4253
:1044800008BF142407D041F218039C4203D12C2406
:1044900001E024F480540668C36A44EA06241C43FD
:1044A00001E004682402EE6CDFF878351E402643F4
:1044B000EE64D46457E0516C41F020015164012155
:1044C00051E0136DABBB1465D164836A012B2DD011
:1044D0001468DFF8D454AC421CBFDFF83855AC4246
:1044E0001BD1082B08BF342419D0142B08BF1C245F
:1044F00015D01C2B0EBF1024DFF82445A3420ED08C
:1045000041F20C04A34208BF142408D041F218045D
:10451000A34214BF1C462C2401E023F48054856977
:10452000C36A6D1E2C431C43D46402E083695B1E86
:10453000D3644368D56C066803EB430463009B1C9B
:104540001F249C4025EA040406FA03F31C43136D60
:10455000D4645B1E136506D11568DFF8C834EE6CB1
:104560001E403443EC641468A3681D071AD4456ADE
:10457000036A4BB9E668C36926F4401646EA455516
:1045800045EA0355E5600DE0E36823F4401343EA90
:104590004555E560C369012B04D1516C41F0200100
:1045A0005164012113689C6814F00C0F40F0A18045
:1045B000846A012C07D1DD68046A25F0007545EA9C
:1045C0004465DD600BE0DC6824F00074DC60036AA5
:1045D000012B04D1516C41F0200151640121056887
:1045E0008368146807260A2D0AD30A3D05EB4505A2
:1045F000A769AE4027EA0606AB403343A36108E053
:1046000005EB45056769AE4027EA0606AB40334334
:10461000636114684369E568ED086D0005F00605FF
:1046200003FA05F503695B1E032B33D8DFE803F0BB
:10463000020E1A26266EDFF8D8331E40036846EABB
:104640008366354345F00045256652E0666EDFF827
:10465000C0331E40036846EA8366354345F0004593
:10466000656646E0A66EDFF8A8331E40036846EA9A
:104670008366354345F00045A5663AE0E66EDFF80F
:1046800090331E40036846EA8366354345F0004593
:10469000E5662EE0236E056803F0F843B3EB856F03
:1046A00003D1236E23F00043236613685C6E056814
:1046B00004F0F844B4EB856F03D15C6E24F0004441
:1046C0005C6613689C6E056804F0F844B4EB856F73
:1046D00003D19C6E24F000449C661368DC6E056870
:1046E00004F0F844B4EB856F03D1DC6E24F0004491
:1046F000DC6613689C6804F00304012C03D11D6878
:10470000EC0700F1BF80C56804680126012D06FA98
:1047100004F406D0D3F8B06026EA0404C3F8B0402D
:104720001FE0D3F8B0502C43C3F8B040072306680D
:10473000846815680A2E0AD3093E06EB4606AF695F
:10474000B34027EA0303B4402343AB6109E0761C7E
:1047500006EB46066F69B34027EA0303B4402343E0
:104760006B611368B3F1A04F1CBFDFF8BC42A342DA
:1047700007BF4FF0A04404F542744FF0A04505F583
:10478000E1640568102D02D12068060203E0112DB6
:1047900003D12068C60175D404E0122D72D12068BF
:1047A00046026FD4B3F1A04F04D14FF0A04000F502
:1047B000807014E0DFF87062B34208BF4FF0A04091
:1047C0000DD0DFF8E401834204D14FF0A04000F5A2
:1047D000A06004E0DFF83C62B34218BF00209E688E
:1047E00006F00306012E02D11F68FE0745D438B13A
:1047F000866806F00306012E02D10068C6073CD485
:10480000102D29D1B3F1A04F3CD12068DFF8083238
:10481000DFF8085240F4000020601C68A4FB05503B
:10482000C00C00EB800676000096009850B3009B09
:104830005B1E0093009828B3009B5B1E00930098BA
:1048400000B3009B5B1E00930098D8B1009B5B1ED9
:1048500000930098B0B1EAE7112D07D1B3F1A04F52
:1048600010D1206840F0807020600BE0122D09D13B
:10487000236843F48003236004E0506C40F0200080
:1048800050640121002082F84000084601B0F0BCCD
:10489000704770B481B003680022B3F1A04F0BD110
:1048A0004FF0A04404F5807490F84050012D18D1C9
:1048B00001B070BC022070475B4CA34208BF4FF0B0
:1048C000A044F1D0384CA34204D14FF0A04404F5E9
:1048D000A064E9E74F4DAB42E6D001B070BC0120C7
:1048E0007047012580F840509D686E074FD4A56839
:1048F0006E074CD4B3F1A04F1CBF4B4DAB4207BF6A
:104900004FF0A04303F542754FF0A04505F5E16572
:104910000B6813B32E684B6826F460461E43436B46
:1049200046EA43362E6003689E6806F00306012EB1
:1049300002D11B68DE072FD4A36803F00303012B09
:1049400002D12468E30727D42E68384B1E400B6839
:1049500089681E430E432E601EE0296821F46041E1
:10496000296001688B6803F00303012B02D10968F9
:10497000CB0711D4A16801F00301012902D12368FA
:10498000D90709D42C6829490C402C6004E0416CFB
:1049900041F0200141640122002180F8401001B063
:1049A00070BC1046704700000004005030B504464B
:1049B00081B02068816801F00301012925D10268D6
:1049C000D10722D5816801F00D01012912D181683A
:1049D00041F00201816003202168086000F08EF937
:1049E000054620688168C8070FD500F087F9401B8D
:1049F0000328F6D3606C40F010006064A06C40F0B7
:104A00000100A06401B0012030BD002001B030BD24
:104A100000F0FF8300050050180D002006BD37860A
:104A2000080001000020088200010050E0F0FFFFB4
:104A3000DFF8A40282B0016841F001010160026860
:104A400002F0010200920099416841F080514160FA
:104A5000406800F0805000900098042002B000F000
:104A600053B910B586B069460022002300241CC14A
:104A70000CC10068B0F1A04F32D198480168491CC0
:104A800001600129964808D1016841F08051016018
:104A9000026802F0805205920599016841F40021F4
:104AA0000160026802F40022059203220599016860
:104AB00041F4003101600621006800F400300590E7
:104AC00005988848009101920293694600F082F9A6
:104AD000032200920192029469464FF0904021E037
:104AE0008149884220D17D480168491C0160012923
:104AF0007B4808D1016841F080510160026802F0F2
:104B0000805205920599016841F40021016003215A
:104B1000006800F40020059005980091019102932F
:104B20006946704800F056F906B010BD10B586B061
:104B300001A90022002300241CC10CC100686B4A9B
:104B400090421CD16648816841F000518160032287
:104B5000816801F0005100910099016841F4003131
:104B600001601021006800F400300090009801916D
:104B70000292039301A94FF0904000F02BF906B088
:104B800010BD10B586B001A90022002300241CC16D
:104B90000CC10068564A904221D15148416841F405
:104BA000006141600222416801F4006100910099B6
:104BB000016841F4003101604FF40061006800F4C5
:104BC00000300090009801910120039002920C2087
:104BD0000590049301A94FF0904000F0FBF806B057
:104BE00010BD10B586B069460022002300241CC108
:104BF0000CC100683E4A90423DD13948016841F4F9
:104C000000310160026802F4003205920222059927
:104C1000016841F4802101608021006800F4802057
:104C20000590059800910120029003210620039130
:104C30000490019269464FF0904000F0CBF80121BA
:104C40000291022006210322019004910092039216
:104C50006946284800F0BEF84FF4E0600221009059
:104C600001910291062003210391049069464FF0BF
:104C7000904000F0AFF806B010BD10B586B001A9A5
:104C80000022002300241CC10CC100681A4A904273
:104C90001FD11348816841F400318160022281688C
:104CA00001F4003100910099016841F40031016084
:104CB0000C21006800F4003000900098019107205A
:104CC000059002920393049301A94FF0904000F0E5
:104CD00081F806B010BD000018100240C01000207E
:104CE0001410024000080048000100500074004009
:104CF000002C014000040048004400400148406886
:104D0000704700BF0C0D0020294A13684FF6FF01C1
:104D100000020B4000F4E06018432649084310608D
:104D2000704730B4224B81B01C68C4F30223C3F136
:104D30000704052C28BF04241D1D072D34BF0023A4
:104D4000DB1E012505FA04F4641E2140994005FA92
:104D500003F35B1E1A4011430901020008D5164AED
:104D600000F00F00104400F8041C01B030BC704784
:104D7000124B195401B030BC7047012200F01F01E2
:104D80000F4B8A40400943F820207047401EB0F185
:104D9000807F01D3012070470A494860F02081F8E4
:104DA000130D002088600720086000207047000075
:104DB0000CED00E00000FA0518ED00E000E400E072
:104DC00000E100E010E000E000F000B870470000F3
:104DD000010002002DE9F04F81B00F464FF0000EA8
:104DE0003C686E496E4A6F4B002C4FF00F084FF035
:104DF000010900F0C8808246386809FA0EFC1CEAF6
:104E0000000000F0B9807C68022C18BF122C13D16E
:104E10004FEADE040AEB84044FEA8E05266A05F0A9
:104E20001C0508FA05FB26EA0B06D7F810B00BFAAA
:104E300005F53543C4F820504FEA4E040325DAF84F
:104E4000006097F804B0A540ED430BF0030B2E4033
:104E50000BFA04FB4BEA0606CAF800607E68012ED6
:104E600018BF022E04D0112E18BF122E40F0188049
:104E7000DAF80860D7F80CB02E400BFA04FB4BEAC6
:104E80000606CAF80860DAF8046026EA0C0C7E68A8
:104E9000C6F3001606FA0EF646EA0C06CAF80460D7
:104EA000DAF80C603540BE6806FA04F42C43CAF800
:104EB0000C407C68E4005FD51C6844F001041C6071
:104EC0004FEA9E0C1D6805F001050095BAF1904F60
:104ED000009C52F82C604FEA8E0404F00C0408FA8F
:104EE00004F526EA050508BF00261DD02E4EB24562
:104EF00008BF012618D02D4EB24508BF022613D098
:104F00002B4EB24508BF03260ED02A4EB24508BF2D
:104F1000042609D0284EB24508BF052604D0274EE6
:104F2000B2450CBF0626072606FA04F42C4342F8C5
:104F30002C406FEA000C0C687D680CEA0404EE0358
:104F400048BF04430C604C687D680CEA0404AE035F
:104F500048BF04434C608C687D680CEA0404EE0290
:104F600048BF04438C60CC687D680CEA0404AD0241
:104F700048BF0443C1F80C400EF1010E386830FA06
:104F80000EF07FF439AF01B0BDE8F08F81B0002A98
:104F900014BF8161816201B07047000000040140CC
:104FA00008000140181002400004004800080048B2
:104FB000000C004800100048001400480018004889
:104FC00070B582B0056A446A90F82C3055F82360B9
:104FD00054F8234000250AB101231370822900F2FE
:104FE0000384DFE811F083008900900097009E00A1
:104FF000AE00BC00CA00D100D500DC00E300EA002E
:10500000F300FA00010108012401010401045C011C
:10501000400101040104010478017F0186018D0132
:1050200094019B01AB01AF010104B801C201C601AB
:10503000CF01D301AB01AF01DC01E001E901ED01DA
:10504000F601FA010104010403021B0233024802C3
:1050500062027C0201040104010401040104010450
:105060009602A002AA02B902EA00C802E002010404
:105070000104010401040104010401040104010408
:1050800001040104010401040104010401040104F8
:10509000010401040104010401040104F8020104F3
:1050A00001040104010401040104010401040104D8
:1050B00001041A031E033B0345034F035903630313
:1050C0002C03B500C300F5030104F903FD036D03D0
:1050D000770383038E039903A203AD03B803C303CD
:1050E000CD03D503DD03E5030304ED0300F086FBE8
:1050F0000546284602B070BDA06A00F082FB054656
:10510000284602B070BDA06AFCF7D1FF05462846CC
:1051100002B070BD304600F07AFB0546284602B06A
:1051200070BD304600F075FBC0EB00118800DFF861
:10513000C42680FB0232951005EBD575284602B0D7
:1051400070BD206800F068FB0546284602B070BDBF
:10515000206800F064FB0546284602B070BD206858
:1051600000F05FFB0546284602B070BD2068FEF7E0
:1051700081FD0546284602B070BD206800F054FB52
:105180000546284602B070BD304600F050FBA0E155
:10519000606800F041FB0546284602B070BD6068BB
:1051A00000F03FFB0546284602B070BD606800F085
:1051B0003BFB0546284602B070BD304600F037FB89
:1051C0000090BDF90250284602B070BDA06800F002
:1051D00023FB0546284602B070BDA06800F021FB05
:1051E0000546284602B070BDA06800F01DFB0546CC
:1051F000284602B070BD816A90F82C0051F820104A
:1052000000200A0F092A08BFA069C1F30361092918
:1052100008BFE069002800F05D810DF102026946D7
:1052200000F00CFBBDF90050284602B070BD816A49
:1052300090F82C0051F8201000200A0F092A08BF0E
:10524000A069C1F30361092908BFE069002800F0E3
:1052500041816A460DF1020100F0F0FABDF90050FB
:10526000284602B070BD816A90F82C0051F82010D9
:1052700000200A0F092A08BFA069C1F303610929A8
:1052800008BFE069002800F025810DF1020269469F
:1052900000F0D9FABDF90050284602B070BD816A0D
:1052A00090F82C0051F8201000200A0F092A08BF9E
:1052B000A069C1F30361092908BFE069002800F073
:1052C00009816A460DF1020100F0BDFABDF90050F6
:1052D000284602B070BD206B00F0C4FA054628468F
:1052E00002B070BDE06A00F0C3FA0546284602B07D
:1052F00070BDE06B00F0CFFA0546284602B070BDE5
:10530000002100F0D5FA0546284602B070BD012103
:1053100000F0CEFA0546284602B070BD304600F0D7
:10532000D1FAC0EB00118800DFF8C82480FB0232FC
:10533000951005EBD575284602B070BD304600F0DB
:10534000CBFAC6E0304600F0C7FA0090BDF9025033
:10535000284602B070BD6069002800F0478200F066
:10536000C2FA0546284602B070BD304600F0BEFACB
:10537000AFE0304600F0BAFA0090BDF9025028467E
:1053800002B070BD304600F0B8FAA2E0304600F03E
:10539000B4FA0090BDF90250284602B070BD304604
:1053A00000F045FA95E0304600F041FA0090BDF972
:1053B0000250284602B070BD304600F0A5FA88E0E1
:1053C000304600F0A1FA0090BDF90250284602B024
:1053D00070BD304600F0A0FA7BE0304600F09CFA49
:1053E0000090BDF90250284602B070BD816A90F865
:1053F0002C0051F8201000200A0F092A08BFA069CC
:10540000C1F30361092908BFE069002800F0EE81BB
:10541000FCF751FE0546284602B070BD816A90F83F
:105420002C0051F8201000200A0F092A08BFA0699B
:10543000C1F30361092908BFE069002800F0D681A3
:1054400000F072FA0546284602B070BD816A90F8F5
:105450002C0051F8201000200A0F092A08BFA0696B
:10546000C1F30361092908BFE069002800F0BE818B
:1054700000F064FA2DE0816A90F82C0051F82010B9
:1054800000200A0F092A08BFA069C1F30361092996
:1054900008BFE069002800F0A98100F04FFA0090F1
:1054A000BDF90250284602B070BD816A90F82C0008
:1054B00051F8201000200A0F092A08BFA069C1F383
:1054C0000361092908BFE069002800F08F8100F01E
:1054D00043FA0090BDF90050284602B070BD816AC1
:1054E00090F82C0051F8201000200A0F092A08BF5C
:1054F000A069C1F30361092908BFE069002800F031
:10550000758100F029FA0090BDF90250284602B0DA
:1055100070BD0269002A00F06981002190470546AC
:10552000284602B070BD0269002A00F05F810121A7
:1055300090470546284602B070BD606A00F018FA30
:10554000C0EB00118800AB4A80FB0232951005EBDE
:10555000D575284602B070BD606A00F00BFAC0EB4A
:1055600000118800A34A80FB0232951005EBD57527
:10557000284602B070BD826A90F82C0052F82010C4
:1055800000200A0F092A08BFA069C1F30361092995
:1055900008BFE069002800F0298100F0EEF9051449
:1055A000284602B070BD816A90F82C0051F8201096
:1055B00000200A0F092A08BFA069C1F30361092965
:1055C00008BFE069002800F0118100F0D9F9051446
:1055D000284602B070BD304600F019F90128304667
:1055E0000DD100F0D0F9C0EB00118800814A80FB9A
:1055F0000232951005EBD575284602B070BD00F05B
:1056000008F9C0EB001292007A4882FB0010851066
:1056100005EBD575284602B070BD0125284602B0BD
:1056200070BDA06C10B1FBF71BFF0546E06C10B11C
:10563000FDF718FC2D18EDB2284602B070BDA06C25
:1056400010B1FBF70BFF0546E06C10B1FDF708FC4D
:105650002D18EDB26D1E284602B070BDA06C00285A
:1056600000F0C480FBF736FF0546284602B070BD47
:10567000A06C002800F0BA80FBF730FF05462846F2
:1056800002B070BDA06C002800F0B080FBF72AFFCC
:105690000546284602B070BDA06C002800F0A68028
:1056A000FBF724FF0546284602B070BDE06C0028D9
:1056B00000F09C80FDF7D0FB0546284602B070BD87
:1056C000A069002800F09280FCF7A7FB0546284659
:1056D00002B070BDA06C002800F08880FCF70EFBC3
:1056E000FDF7DFFC0546284602B070BDE06C0028DF
:1056F0007CD0FDF75FFCFDF7D4FC0546284602B0E0
:1057000070BDA06C002871D0FCF7FEFAFDF7C9FC53
:105710000546284602B070BDA06C002866D0FCF794
:105720001DFB0546284602B070BDA06C00285DD068
:10573000FCF73EFBFDF7B5FC0546284602B070BD00
:10574000E06C002852D0FDF739FCFDF7AAFC0546B5
:10575000284602B070BDE06C002847D0FDF746FC3B
:10576000FDF79FFC0546284602B070BDA06CE8B36B
:10577000FCF718FBFDF795FC0546284602B070BD06
:10578000A06C98B3FCF7EDFA0546284602B070BD50
:10579000A06C58B3FCF7E8FA0546284602B070BD85
:1057A000A06C18B3FCF707FB0546284602B070BD95
:1057B000A06CD8B1FCF704FB0546284602B070BDCA
:1057C000E06C98B1FDF736FC0546284602B070BD86
:1057D000094D284602B070BD0225284602B070BDB2
:1057E0000425284602B070BD02B11570284602B0EB
:1057F00070BD00BF6766666687751B3A90F82C001F
:10580000704701468888498840EA01407047407ED9
:105810007047406800F0BFB8B0F904007047008BD3
:105820007047B0F906007047B0F92200704781B0A8
:10583000806801690091084601B07047C38B0B80F6
:10584000408C1080704770B504460D46164604F132
:105850003000FFF7E1FF288004F13000FFF7E1FF9F
:10586000308070BD0146C88849884843000C7047A5
:10587000017869B9038A026AB0F91E10808C9A1AFD
:105880004A43D11302EB114200EB224000B27047B1
:10589000808A00B27047B0F904017047816900291D
:1058A00018BF084770474368002B18BF1847704758
:1058B00000B581B0836883220BB198470246104639
:1058C00001B000BD00B581B04068FCF7F2FB01B04B
:1058D0005DF804EBFCF76BBB81B08068C168009198
:1058E000084601B0704790F84800704781B0806862
:1058F00001680091084601B0704781B08068416836
:105900000091084601B0704781B08068D0F8161049
:105910000091084601B0704781B08068D0F81A1035
:105920000091084601B07047B0F90410B0F90E00BC
:10593000C1EBC13191FBF0F000B2704781B0B0F81B
:105940001811C26D0A41ADF80020006E0841ADF893
:105950000200009801B0704781B0B0F96C10ADF84A
:105960000010B0F86E00ADF80200009801B070476A
:10597000C08B7047B0F924007047D0F8FC00704726
:10598000D0F8F8007047014600200A7B012A08BFC2
:10599000B1F90E0070474068C11300EB11400014CC
:1059A000704700002DE9F0418AB004468846002087
:1059B0005FEA581516461F468DF8040013D06D1E79
:1059C0002A460021204600F0AFFA18B90B208DF8C6
:1059D00005008DE2D4F8C40008F01F0818B12A466B
:1059E000002100F0A1FAB8F10C0F00F27E82DFE88E
:1059F00018F07F020D009E006F017C027C0279018D
:105A0000BA01CF01020229023A024C023178052084
:105A10007E298DF8050000F28680DFE801F04084E1
:105A2000844F846A6A6A6A6A6A6A6A6A6A6A7474A9
:105A300084846A6A6A6A6A848484566084848484FA
:105A40008484848484848484848484848484848416
:105A50008484848484848484848484848484846A20
:105A6000848484847474748484848484846A848440
:105A7000846A6A6A6A6A6A6A847484848484846AC6
:105A800084846A6A8484848484848484848484840A
:105A900084844F747474747484848474740075780A
:105AA000D4F8C4002A46002100F03EFA2A4600211C
:105AB000204600F039FA8DF8040019E27278204689
:105AC00000F032FA8DF8040012E27278D4F8C400C3
:105AD0000021FFF7E8FE01208DF804000BE2727848
