:020000040800F2
:10000000E814002011AB00087DAB00087D9D0008BE
:1000100081AB000885AB000889AB00080000000038
:100020000000000000000000000000008DAB000890
:1000300091AB00080000000095AB0008E99D0008A6
:1000400099AB00089DAB0008A1AB0008A5AB000868
:10005000A9AB0008ADAB0008B1AB0008B5AB000818
:10006000B9AB0008BDAB0008C1AB0008C5AB0008C8
:10007000C9AB0008CDAB0008D1AB0008D5AB000878
:10008000D9AB0008DDAB0008B59C0008E1AB000867
:10009000E5AB0008E9AB0008EDAB0008F1AB0008E8
:1000A000F5AB0008F9AB0008FDAB000801AC000897
:1000B00005AC000809AC00080DAC000811AC000844
:1000C00015AC000819AC00081DAC000821AC0008F4
:1000D00025AC00081F9D000829AC00082DAC0008C5
:1000E00031AC000835AC000839AC0008E39C0008CE
:1000F000D39C00083DAC000841AC000845AC0008AA
:1001000049AC00084DAC000851AC000855AC0008E3
:1001100059AC00085DAC000861AC000865AC000893
:1001200069AC00086DAC000871AC000875AC000843
:1001300079AC00087DAC000881AC000885AC0008F3
:1001400089AC00088DAC000891AC000895AC0008A3
:1001500099AC00089DAC0008A1AC0008A5AC000853
:10016000A9AC0008ADAC0008B1AC0008B5AC000803
:10017000B9AC0008BDAC0008C1AC0008000000002C
:10018000C5AC0008C9AC000810B50446DF48606380
:1001900001F01AFE002084F8300084F83A0020466E
:1001A00000F09BF8002084F82401F7EE000AD4F850
:1001B000400590ED000A2069B8EE400A84ED100A6F
:1001C00080EE800A84ED0F0A01F021FE00EE100A95
:1001D000D4F84005B8EE400A84ED110AF6EE000AA4
:1001E00090ED130A90ED091A60EE200AC0EE810A24
:1001F000FDEEE00A10EE901AA4F84810F0EE000AA6
:1002000090ED060A90ED071A60EE200A60EE810A72
:1002100090ED130A80EE200A84ED130AF5EE000A31
:10022000C16A216590ED0B0A60EE200AC4ED160A42
:10023000C06A60650020E06520666066A06684F89C
:100240008C00C4F89000C4F8940084F89800C4F8B6
:100250009C00C4F8A000C4F8A400C4F8A800C4F826
:10026000AC00C4F8B000C4F8B40084F83C052046E3
:1002700001F0E4F90020C4F8CC00C4F8D000C4F8C0
:10028000D40084F8D800DFED9D0AD4F84005DFF8EB
:10029000FC2C816BC4F8DC10416CC4F8E01081FBCD
:1002A0000232921002EBD27200EE101AC4F8E8206B
:1002B000B8EEC00A20EE200A4FF4FA72BDEEC00A72
:1002C0000021C4F8E82084ED390AA4F82C11C06B91
:1002D000C4F8300184F8341110BD002180F83B10BF
:1002E00080F8EC10A0F8181180F81A11A0F81C1171
:1002F000C0F82011C0F83811704710B5044600212D
:1003000094F83B00042808D1082184F8301000201C
:1003100084F8EC000121084610BD94F83000C0B903
:10032000206801F076FD0020012184F83A0084F86D
:1003300030102046FFF7D1FF002084F8240101216E
:10034000606D2065002084F88C0084F898000120FE
:100350002087084610BD10B50446206801F05EFDF8
:1003600094F83000062818BF072804D00A281CBFBC
:10037000002084F8300010BD30B5044681B094F8F8
:100380003000401E072800F2B680DFE800F00404C9
:10039000040422B4B43F206801F045FD90B1072168
:1003A00084F83010E06801F07DFD206801F0F1FD77
:1003B00094ED4A0ADFED520A20EE200A204601F0B1
:1003C00061FC93E0204600F0F9FF84ED4A0A01B099
:1003D00030BD206801F027FD002800F08C80072048
:1003E00084F830000721E06801F05CFD206801F02E
:1003F000D0FD94ED4A0ADFED420A20EE200A2046A5
:1004000001F040FC206DC4F828016FE094F83B0037
:10041000042870D0206801F006FD00286BD094ED10
:100420004A0ADFED370A20EE200A204601F02AFCB6
:10043000D4F8400594ED140A84ED4A0A9FED311A70
:10044000D0ED060AD0ED071A20EE811A21EE211A0E
:10045000D0ED130AC1EE200A20EE800ABDEEC00ADC
:1004600010EE100A451E206A2AB2002101F093FD09
:10047000206A2AB2012101F08EFD206A2AB20221EF
:1004800001F089FD206A2AB2032101F084FD206A6F
:100490002AB2042101F07FFD94F8EC0001281BD161
:1004A000206901F07EFDC0EB00118800DFF8DC2A36
:1004B00080FB0232921002EBD27200EE102AB8EEEC
:1004C000C00ADFED110A60EE200AFDEEE00AC4ED7D
:1004D000390A204601F05CFB062084F83000072131
:1004E000E06801F0DFFC206801F053FDDFF8100E3A
:1004F0000188491C018001B030BD0000CDCCCC3E4C
:100500006666663F00008047CDCC4C3FF006002079
:100510002DE9F04F04460FF69C2081B000272DED09
:10052000048B066886B094F83000D4F8349009281B
:1005300000F21C85DFE810F0F4040A0054000A0001
:100540007D005E01F9041A05EA02E60494ED140A3E
:10055000204601F011F8012823D194F83000012839
:100560000DD1022184F83010484601F02DFCD4F85A
:100570004005428E4EF66021484601F015FD94F884
:10058000300003284FD1042184F83010484601F090
:100590001BFCD4F84005828E218F484601F004FDF3
:1005A00041E0208F4EF6602188423CD127872046CB
:1005B00000F004FF6FF0130084F8D800F6EE000A94
:1005C00094F89800401C84F8980020EE200AC0B2ED
:1005D000032884ED140A26D3092084F8300022E091
:1005E00094ED140A204600F0C7FF484601F0F4FBE2
:1005F000484601F01DFDB0B1032084F83000F5EE4F
:10060000000A94ED140A20EE200A6FF01300C4F8DB
:10061000A870C4F8AC70C4F8B07084ED140A84ED0E
:10062000160A84F8D800218F206801F007FD00F039
:10063000A1BC94ED140A204600F09EFF278F484687
:1006400001F0CAFB204600F0B9FED4F8B000D4EDAA
:100650002A0A401CC4F8B00030EE800A606884EDBD
:100660002A0A01F0F5FC00EE900A606841883846DD
:1006700001EE101AF8EE600AB8EE411A9FEDC20AB8
:1006800060EE810A01EE100AB8EE411A60EE800AAF
:1006900021EE000A94ED2B1AC4ED170A00EE201A81
:1006A00084ED2B1A484601F0C3FC002800F0298293
:1006B00094ED2C0A94F88C00D4ED2A0A94ED2B1AB0
:1006C000B8EE400A80EE800A04EB800184ED240A33
:1006D000D4ED2C0A81ED1B0AF8EE600A94F88C0028
:1006E00004EB8001C1EE200AC1ED1F0A94F88C00D2
:1006F000401C84F88C00C0B2042816D26FF013009E
:1007000084F8D8000020C4F8A800C4F8AC00C4F8ED
:10071000B00094ED140AD4ED160A30EE200A03203E
:1007200084ED140A84F83000EBE1052084F83000F1
:100730009FED968A002084F83A00484601F044FB79
:1007400064224EF66021484601F02EFC214603202B
:1007500091ED200AD1ED1F0A91ED1B1A30EE600ACF
:10076000D1ED1C0A70EEC10A091D80EE200A401E60
:1007700030EE088AECD1B0EE080AD4F8401588EEC5
:10078000000A84ED180A91F8400020BBD1ED0A0A56
:1007900030EE600ADFED7E0AB4EE600AF1EE10FA88
:1007A00084ED180A03D5DFF8AC0D206605E0F6EEFF
:1007B000000A20EE200A84ED180ADFED760A94ED97
:1007C000240A60EE200A0020C4ED250AC4F8A40023
:1007D000C4F8A00095E10A2084F830000721E06801
:1007E00001F060FB206801F0D4FB206801F016FBEB
:1007F000002786E1204600F0E1FD94F83A0010B1B0
:10080000022808D018E0DFED640AB4EE600AF1EEC9
:1008100010FA11D50DE0D4ED250A278FB4EE600A49
:10082000F1EE10FA05D5D4F89C00401CC4F89C00E9
:1008300002E0484601F00EFC484601F0CDFA484679
:1008400001F0F6FB002800F05C8194F83A0018B142
:10085000022810D008D354E1012084F83A00484619
:1008600001F0B2FA0A2247E1022084F83A0000209F
:10087000C4F89C003CE1002084F83A0094ED270A7B
:10088000D4ED0F0AD4F8A00094ED291AB8EE400A6E
:1008900020EE200AD4ED180A00EE201A401C14287D
:1008A00084ED291AC4F8A00040F02281062084F8C3
:1008B00030000721E06801F0F5FA206801F069FBDB
:1008C000206801F0ABFA94ED280AD4ED290A60689B
:1008D000B8EE400A80EE800A84ED190A01F0B8FBF8
:1008E00000EE100A606894ED182A4188D4F840059B
:1008F000D4ED4C1A00EE901AB8EE400AF8EE600AF9
:1009000020EE200A9FED201A20EE010A84ED170A3E
:100910000022D0ED060A20EE200AD0ED070A20EED4
:10092000200AD0ED130A80EE201A94ED190AD4EDB6
:10093000370A20EE210A62EE211A94ED0F2A80EE8A
:10094000010A61EE821A002760EE200A81EE811A08
:100950004FF0100C1020102190460F2547F6FF7322
:100960004FF0010B0BFA05F601EE906AF8EEE11A72
:1009700061EE801AFDEEE11A11EE906A9E4210DAE5
:100980004FFA85FC0DE000BF00008037000000003A
:10099000CDCC4C3E9ED2213F0AD7233CBEF1100F56
:1009A000E0D01FFA80FEBEF1100F0FD10BFA05F256
:1009B00001EE902AF8EEE11A61EEA01AFDEEE11ABE
:1009C00011EE902A9A42B8BF68B200BF1FFA81FEAA
:1009D000BEF1100F0ED10BFA05FE01EE90EAF8EE13
:1009E000E11A61EE811AFDEEE11A11EE908A984546
:1009F000B8BF69B26D1E1FFA8CFECFD5BEF1100FC5
:100A000083460D46924609D0A0691FFA8CF101F089
:100A100025FBA06931B201F027FB02E0092084F830
:100A200030001FFA8BF010280AD0E0691FFA8BF112
:100A300001F014FBE0690FFA8AF101F015FB02E006
:100A4000092084F83000A8B2102812D0A069A9B2F9
:100A500001F00CFBE069A9B201F008FBA0690FFAF4
:100A600088F101F016FBE0690FFA88F101F011FB43
:100A700002E0092084F83000DFEDA00AD4F8400538
:100A800090ED060A90ED071A60EE200A60EE810AEA
:100A900090ED130A80EE800AD4ED140A20EE200AAD
:100AA000BDEEC00A10EE100A461E206A32B20021C6
:100AB00001F071FA206A32B2012101F06CFA206A69
:100AC00032B2022101F067FA206A32B2032101F04A
:100AD00062FA206A32B2042101F05DFAD4F84005CE
:100AE000428E206A002101F0D6FA204601F050F82B
:100AF000484601F069F964224EF66021484601F04B
:100B000053FA2068394601F099FA33E2E06801F0BF
:100B1000C8FA001F0F2800F22982DFE810F0100049
:100B200010001000E60127022702270227022702F1
:100B30002702270227022702270227021000A06AA5
:100B400001F0B1FA01F0B1FA0646A068006801F0C0
:100B5000AFFA0746314601F0CFFA0190A068B0F92C
:100B60001010BDF90400091AA06901F0F9FAADF8F6
:100B70000800A068B0F91210BDF90600091AE06972
:100B800001F0EEFAADF80A000299606901F028FB65
:100B90008246314601F04FFB05462068294601F0A8
:100BA00069FB8046A06847600497A1680198C86007
:100BB000A068C0F816A0A168D1F81A000390A16837
:100BC000C1F81A50A0680684606801F041FAADF8D7
:100BD000140003A9606A01F01FFCADF80000606A10
:100BE00001F00AFD2069694601F031FD94F83B00EF
:100BF000052800F2C081DFE810F006008300BE0186
:100C00004901BE016101204600F024FD022884F85C
:100C1000240122D1206901F0C4F9C0EB0011880041
:100C2000DA4A80FB0232921002EBD272C4F8E4205E
:100C3000206901F0B6F90146204601F001F80120D3
:100C400084F83B00204600F0F9FC06B01FFA88F05B
:100C5000BDEC048B01B0BDE8F08F012800F08B8162
:100C6000032821D194ED3A0ABBEEEF0AFCEEC00A4C
:100C7000C4ED3A0A204600F08BFF062084F83000CD
:100C80000721E06801F00EF9206801F082F9DFF831
:100C900070064188491C418006B01FFA88F0BDECFF
:100CA000048B01B0BDE8F08F042840F0648194ED1E
:100CB000480AB8EE400ADFEDB40A60EE200AFDEE05
:100CC000E00AC4ED390A204600F062FF062084F8ED
:100CD00030000721E06801F0E5F8206801F059F9DB
:100CE000DFF81C068188491C818006B01FFA88F055
:100CF000BDEC048B01B0BDE8F08F00BF0000804761
:100D0000D4F84005A168D0ED060AB1F90C20D0ED69
:100D1000071A9FED9F1A20EE811A21EE211AD0EDBD
:100D2000130A00EE102AC0EE810AB8EEC00A94ED54
:100D30002E1A606800EE201A84ED2E1A01F088F950
:100D400000EE100A60684188A06800EE901AB8EEC4
:100D5000400AF8EE600A20EE200A9FED8E1A20EE7F
:100D6000010A84ED170ADFED8C0AB0F91610A068AD
:100D700001EE101AB8EEC11A21EE000A94ED2F1AF6
:100D800000EE201A84ED2F1AB0F9181094ED171AFE
:100D9000D4F8C80000EE101AB8EEC00A20EE010A1E
:100DA00094ED301A42F2107100EE201A401C884275
:100DB00084ED301AC4F8C800C0F0DD8000EE100ADF
:100DC000B8EE400AD4ED2E0A80EE808AD4ED2F0AC8
:100DD000C0EE808AD4ED300A80EE809A204600F082
:100DE0002DFC206901F0DDF800EE100AB8EEC00A13
:100DF000F2EE040A80EE200ADFED680A60EE209A27
:100E0000D4ED180AD4ED191A40EEC88AD4ED110AAF
:100E100020EE200A9FED621A20EE011A21EE211A1F
:100E200001EE089A28EEA80A09EE090AB5EE400A72
:100E3000F1EE10FA02DBB1EEC08A01E09FED598AB3
:100E40009FED590A28EE000ADFED580A60EE200AED
:100E500080EEA90AE06A84ED1A0A02F0E2F8D4ED05
:100E6000170A9FED531A89EE880A80EE811A20EE48
:100E7000010A84ED330A022084F83B0006B01FFA11
:100E800088F0BDEC048B01B0BDE8F08F484600F05F
:100E9000A3FF484601F0CCF800286CD0606A01F04E
:100EA00080F800EE100ABAEE670ABDEEC00A10EE36
:100EB000101A09B2204600F0C3FE0BE0206A02F0CF
:100EC000B6F810B1032084F83B00E06801F0E9F8BF
:100ED000062850D1042084F83B0006B01FFA88F0A1
:100EE000BDEC048B01B0BDE8F08F206801F051F833
:100EF00084F8307006B01FFA88F0BDEC048B01B0A6
:100F0000BDE8F08FE068072100F0CCFF84F8307076
:100F100006B01FFA88F0BDEC048B01B0BDE8F08F7D
:100F2000E06801F0BEF8142820D1D4F8B400B0F580
:100F3000807F08BFC4F8B470204600F069FA2168C9
:100F4000032081F83A00D4F8B40004EB800181ED6D
:100F50004F0AD4F8B400401CC4F8B40006B01FFA1D
:100F600088F0BDEC048B01B0BDE8F08F20683146FD
:100F700001F080F9804606B01FFA88F0BDEC048BC2
:100F800001B0BDE8F08F0000CDCC4C3F67666666CF
:100F9000000080470000803746CD93370000704244
:100FA000DB0FC9400000000071C49C3F00007A4480
:100FB000D7B3DD3F0000000070B52DED048B044673
:100FC00086B0656BE06801F06CF894F83010062983
:100FD00009D0C0F01181082969D0C0F0FC8006B0AA
:100FE000BDEC048B70BD0B2800F20681DFE810F029
:100FF0000C000401040104014F0004010401040178
:101000000401040104010101204600F0B1FC0028A4
:1010100040F0F28094ED100AD4ED190A94ED181AFC
:10102000E06820EE802A81EE022AF7EE002AF5EE33
:10103000001A32EEC22A22EE212AF5EE002A72EEC2
:10104000222AB8EE003A32EE833A81EE201A03EEFD
:10105000001A84ED341AB7EE001A31EE421AFDEE92
:10106000002A31EE221A02EE211A21EE001A21EE98
:10107000000A20EE200A84ED350A032100F012FF59
:10108000206800F086FF06B0BDEC048B70BD082020
:1010900084F830002046FFF720F9012084F824016D
:1010A000204600F0CBFA06B0BDEC048B70BD94F87E
:1010B0003B00022840F0A080D4ED331A94ED1A2AA8
:1010C00061EE821ADFEDD02A61EEA22A9FEDCF3ABF
:1010D000B4F94830D4ED138AD4ED191A94ED109A6E
:1010E00082EE838A21EEA82A02EE903A61EE891AF6
:1010F00094ED183A22EE092AF8EEE22AC3EE211AFC
:10110000C2EE822A94ED343A9FEDCE0ADFEDCD0A8D
:101110009FEDCC1A002100200E2288EE022A83EED9
:10112000093ADFEDC93A9FEDC94A012303FA02F6F5
:1011300004EE906AF8EEE44A21EEA45AB4EE445A62
:10114000F1EE10FABEBF23EE241AB4EE441AF1EE0B
:1011500010FA12DAB4EE631AF1EE10FA0DD422EEA0
:10116000240AB4EE440AF1EE10FABEBF62EEA40AFD
:10117000F4EE440AF1EE10FA23DB521E56B2012EB1
:10118000D4DAD4ED351A61EEA81AC1EE881A0E220F
:10119000C1EE891A03FA02F602EE106AB8EEC22A0C
:1011A00061EE822AF4EE442AF1EE10FA04DAF4EE4B
:1011B000632AF1EE10FA23D5521E56B2012EE9DA57
:1011C00027E052B201EE902AF8EEE11AFDEEE11AA4
:1011D00011EE901AD5E750B9E068032100F062FEE5
:1011E000002084F8300006B0BDEC048B70BD0B28E5
:1011F00002D1E06801F021FF06B0BDEC048B70BDA8
:1012000052B201EE902AF8EEE11AFDEEE11A11EE6B
:10121000900AFDEEC51A11EE902AADF80020BDEE41
:10122000C11A11EE102AADF80220BDEEC00A10EE70
:10123000102AADF80420BDEEE20A10EE102AADF837
:101240000620BDEEE00A10EE102AADF80820BDEE33
:10125000E40A10EE102AADF80A20BDEEC20A10EE24
:10126000102AADF81000ADF80C20ADF80E1069464C
:10127000606A00F047F894ED331A94ED100AD4ED4B
:10128000110A606ADFEDB41A61EE211A61EEA01A4C
:1012900020EE002AC1EE821AB5EE002A61EE821A13
:1012A000FDEEE11A11EE902ADFEDAC1A21EE211AC3
:1012B00061EE200A80EE800ABDEEC00A10EE101A20
:1012C00012B209B201F0C4FE206900F0EEFE06463B
:1012D000206901F0CDFE0146606A324601F0CBFE86
:1012E000284600F071FDFA224EF66021284600F0F3
:1012F0005BFE032084F83B0006B0BDEC048B70BDA0
:10130000D810002002460888908301234888D083A3
:1013100088881084C88850840889908448891085FA
:1013200088895085C889A2F81801088AA2F81A018C
:101330000020D085B1F90CC0DFF8440A90FBFCF026
:1013400000B258B3B2F82EC000EBD070C0030CF15D
:10135000010C00145B00A2F82EC0F8B100EBD070B5
:10136000C0030CF1010C00145B00A2F82EC0A8B160
:1013700000EBD070C00300145B000CF1010C0028DE
:10138000A2F82EC00AD000EBD070C00300145B009E
:101390000CF1010C0028A2F82EC0D3D19385B1F92D
:1013A0000C00B2F92C10DFF8DC3910FB01F080FBE7
:1013B00003C31B1203EBD373D3847047D0F84015DB
:1013C000806891ED060A91ED071ADFED9B0A60EE49
:1013D000200A60EE810A91ED130AB0F90010B0F90D
:1013E000020080EE200A00EE901AF8EEE00A01EE0C
:1013F000100A60EEC00AB8EEC11A41EE400AB6EE1D
:10140000000A20EE800A70478104B53F0080D8446E
:10141000D0F840158068D1ED060AB0F90020D1ED72
:10142000071A9FED851A20EE811A00EE102A21EE90
:10143000211AD1ED130AB8EEC00AC0EE810A20EEDF
:10144000600A70470000000000FEFFC601FEFF4674
:101450000520704730B5044681B0E06A01F0FFFC1A
:101460000025012808BF84F83451E06800F019FE17
:101470000A2806D184F8345184F83050284601B047
:1014800030BD94F830000A281BD8DFE800F00609C8
:101490000D11111115151506190094F8340180B1BC
:1014A0000125284601B030BD0225284601B030BDD7
:1014B0000325284601B030BD0425284601B030BDC3
:1014C0000E25284601B030BD90ED180A01F0E3BDAD
:1014D00090ED190A01F0DFBD90ED1A0A01F0DBBDB5
:1014E00090ED170A01F0D7BD90F83B1004291CBFFE
:1014F00090F830200A2A22D1002180F83B1080F891
:10150000EC10A0F8181180F81A11A0F81C11C0F8FE
:101510002011C0F8381180F82411DFF86C28D0F8B9
:10152000E01081FB0232921002EBD272C0F8E82088
:1015300000214FF4FA72C0F8E82080F83010012141
:1015400080F834110021DFF824040180418081807B
:1015500070470000CDCCCC3DB0EDB749000005444C
:1015600010B50446206800F014FD002184F8301006
:1015700084F8341110BD0000D0F840250021D2EDD0
:10158000060AD2ED071A9FED2C1A20EE811A21EEE1
:10159000211AD2ED130A8268535EB2F90220C0EE1E
:1015A000810A01EE103AB8EEC11A01EE902A21EE3E
:1015B000601AF8EEE11A01EEE01AF6EE000A61EEAA
:1015C000200AF4EE400A028FF1EE10FA1DDB0AB198
:1015D000521E028730EEC00ADFEDCC0AB4EE600A7C
:1015E000F1EE10FA20D490F9D820521E53B213F124
:1015F000130FB8BF6FF0130280F8D82090F9D8000D
:10160000002858BF0121084670474EF6602C30EE86
:10161000600A6245DFEDBD0ABCBF521C0287B4EE12
:10162000600AF1EE10FADED590F8D820521C53B2C1
:10163000142BE1DB1422DFE7000080470021C0F813
:10164000B810C0F8BC10C0F8C010C0F8C410C0F882
:10165000C810704770B504462DED068BD4F84005D0
:10166000A168D0ED060AB1F90C20D0ED071A9FED64
:10167000BC1A20EE811A21EE211AD0ED130A00EED9
:10168000102AC0EE810AB8EEC00A94ED2E1A6068E6
:1016900000EE201A84ED2E1A00F0DAFC616800EEEC
:1016A000100A488800EE900AB8EE400AF8EE600A88
:1016B00020EE200A9FEDAB1AA06820EE010A84ED0F
:1016C000170ADFEDA90AB0F91610A06801EE101A8A
:1016D000B8EEC11A21EE000A94ED2F1A00EE201A7E
:1016E00084ED2F1A0125B0F9181094ED171A20690E
:1016F00000EE101AB8EEC00A20EE010A94ED301A7E
:1017000000EE201A84ED301A00F04BFC46F26761BF
:1017100010FB01F1881400EBD07000B200EE100A4B
:10172000D4F8C800D4ED110A94ED311AB8EEC00A0D
:1017300042F2107100EE201A401C884284ED311AEA
:10174000C4F8C800C0F0DE8000EE100AB8EE400A0F
:10175000D4ED2E0AC0EE808AD4ED2F0AC0EE809A16
:10176000D4ED300A80EE80AAD4ED310A80EE809A62
:101770002046FFF763FFB5EE409AF1EE10FA00F055
:10178000C180206900F00DFCC0EB00118800DFF87B
:10179000F82580FB0232921002EBD27200EE102A82
:1017A000B8EEC00ABDEEC00A10EE106A9FEDAD0A99
:1017B00029EE008A94ED180A40EE689A94ED190A11
:1017C00028EE000A00EE28AA29EEA90A0AEE0A0A63
:1017D000B5EE400AF1EE10FA02DBF1EEC08A01E04C
:1017E000DFEDA18AB4F8181104F1F00000EB8100DC
:1017F000C0ED008A04F58270B4F8181100EB810086
:1018000080ED008AB4F81801401CA4F8180180B2D9
:10181000052804D30020A4F8180184F81A5194F87C
:101820001A21002A50D0D4F8E00001F039FCDFF88A
:101830005C25DFF85C3501F063FC01F045FDB0424A
:1018400042DA052204F1F00104F5827000F00EF98D
:101850009FEDCD2AF0EE681AB0EE481A204600F04F
:1018600057F8002894F8EC000ED050B9D4F8E410E2
:10187000DFF82005711881FB002000EBD070C4F860
:10188000380184F8EC501FE0012815D19FEDBF0A04
:1018900029EE000AD4ED110A80EE200A0021BCEEE8
:1018A000C00A84F8EC1084ED480AA4F81C11042541
:1018B000BDEC068B284670BDB4F81C01401CA4F892
:1018C0001C0180B204280FDA206A01F01AFD0028FA
:1018D00094F8EC000AD038B10021A4F81C110225BC
:1018E000BDEC068B284670BD032508E050B1D4F846
:1018F0003811B14206D2206A01F00DFD0225002008
:10190000A4F81C012846BDEC068B70BDCDCC4C3E26
:1019100001EE200AB7EE001A32EE011AF7EE002AA5
:1019200021EE001A32EEC22A014622EE000A002001
:10193000B4EE610AF1EE10FA44BFF4EE411AF1EE92
:1019400010FA0BD59FEDCA0A91ED111A80EE010A2B
:10195000B4EE600AF1EE10FA48BF012070470000B3
:10196000000080470000803746CD9337D810002014
:1019700030B5054681B095F83C05012490B928683A
:1019800001F042FE41F28830A5F82E014FF47A7141
:101990000020C5F8B400A5F82C1185F83C45204678
:1019A00001B030BDB5F82E01002853D0401EA5F877
:1019B0002E019FEDCD0A05F59E714020D1ED000A64
:1019C00030EE200AD1ED010A30EE200AD1ED020AF4
:1019D00030EE200AD1ED030A1031401E30EE200A0D
:1019E000ECD1DFEDC20A20EE200A9FEDBF1A05F50B
:1019F0009E714020D1ED001A91ED012AD1ED022A0D
:101A000091ED033A71EEC01A32EE402A01EEA11AAE
:101A100072EEC02A02EE021A103133EE403A02EEA4
:101A2000A21A401E03EE031AE4D121EE200ADFEDD4
:101A3000C70AB4EE600AF1EE10FAA8BF4FF47A704C
:101A400003DAB5F82C0128B1401EA5F82C0101B02D
:101A5000204630BD002085F83C050024204601B01A
:101A600030BD0000DB0FC9400000000003460FF24C
:101A7000503070B490EC021A90B202EE100A81B0AD
:101A80009FED990ADFED980AB8EE422ADFED962A1B
:101A9000002458B3C5070AD593ED000A30EE200A9A
:101AA000D1ED000A9FED903A70EE830A01244008C0
:101AB00000F01C8003EB840501EB840695ED003AF1
:101AC00030EE030A641C96ED003A03EB840570EED9
:101AD000830A95ED003A01EB840630EE030A641C9C
:101AE00096ED003A401E70EE830AE3D180EE023A92
:101AF000002094B2D4B392B2D40710D5D3ED002A0B
:101B000091ED004A72EEC33AF0EE614ADFED762ABB
:101B100043EE844A43EEA32AF0EE641A01205208F1
:101B200000F0248003EB800401EB8005D4ED003A43
:101B3000D5ED004A401C73EEC33AB0EE614A03EBA8
:101B4000800401EB800503EEA44AD4ED004A401C5A
:101B500074EEC34A43EEA32AD5ED003A04EEA34A3D
:101B6000521E44EEA42AF0EE441ADBD101B070BC40
:101B7000C1EEA22A40EE620AF0EE621A80EE820AFC
:101B8000F0EE610A70470000CDCCCC3D0000704201
:101B900030B581B004462DED028BD4F8E80094ED09
:101BA000390A00EE900AB8EEC00AF8EE600AC0EEFC
:101BB000200A9FED6C1A20EE818ADFED6B0AB4EEED
:101BC000608AF1EE10FA09DB00EB801000EE100ADB
:101BD00084ED390AB8EEC00A9FED648AF2EE040A79
:101BE00020EE200A9FED621A80EE010ABDEEC00AC7
:101BF00010EE105A29B2204600F022F8206A2AB2CC
:101C0000012101F067FD206A2AB2022101F062FD84
:101C1000206A2AB2032101F05DFD206A2AB2042164
:101C200001F058FDBDEEC80A10EE100A82B2206A1B
:101C3000BDEC028B012101B0BDE8304000F02BBAB1
:101C400000EE101AB8EEC00ADFED4A0A20EE200AB4
:101C5000B5EE400AF1EE10FA48BFB1EE400ABDEE13
:101C6000C00A10EE101A406A89B201F039BD0000B6
:101C700017B7D13A00EE101AB8EE400A80ED110AFB
:101C80007047000030B5F5EE000A044660EE200A09
:101C900081B0C4ED160A84ED140A84ED150ADFED57
:101CA000360AD4F8400520EE200AD0ED060A20EED0
:101CB000200AD0ED070A20EE200AD0ED130AA06A10
:101CC00080EE200ABDEEC00A10EE105A10B1A9B283
:101CD00001F009FDE06A28B1A9B201B0BDE83040C9
:101CE00001F05CB901B030BD000000000000803B95
:101CF00090ED150A704780ED370A704790ED370A6E
:101D00007047000011B9D0F84015496C1E4AC0F860
:101D1000E01081FB0232921002EBD27200EE101A38
:101D2000C0F8E820B8EEC00ADFED140A20EE200A61
:101D30004FF4FA72BDEEC00AD0F8E010C0F8E82007
:101D400080ED390AC06A01F069B900000BD7233C65
:101D5000D0F8E0007047D0F8E4007047D0F8E80011
:101D60007047000000007A4401FF7F4700E87D478C
:101D700000007042CDCC8C3F00008047CDCCCC3EE3
:101D80005EEA0F00C58D4806676666669A9999995E
:101D90009999B93F5655555590ED150A704780ED04
:101DA0004C0A704790ED4C0A7047D0F84005B0F8E7
:101DB00048007047D0F8400590F84A00704700008E
:101DC0000000000000000000002181604160C1604F
:101DD000016101214161704781B0C3688268012BB4
:101DE00009D901698A185B1EC3608260406992FB51
:101DF000F0F001B0704704D1426841694A430021C4
:101E0000C1608260406992FBF0F001B07047407B96
:101E10007047416A002918BF08477047816A002946
:101E200018BF08477047C1690847F0B402461068F8
:101E300095681318506803EB5004C00721D54D4432
:101E40001FE0F0BC02F10C00704713F8017B05F8AD
:101E5000017B491EF9D1A0B1B60813F8011B06F0A9
:101E60000306032E08BF13F8016B01EB062149425C
:101E7000801C294405D011F8016B05F8016B401E48
:101E8000F9D1A342DDD013F8016B16F0030104BFB2
:101E900013F8011BC91C30090F28DAD113F8010B04
:101EA0000F30D6E710B582B002780024142A0ED87D
:101EB000DFE802F019235B2F4A595B5D5F660D0D69
:101EC0000B292B2D393B435241000A005CD00329DA
:101ED0001CBF0129072903D00022802101F007FC43
:101EE000204602B010BD0A46032A4DD0012A49D12E
:101EF00001240170204602B010BD072918BF0D292A
:101F000042D00E2936E00E2918E00F2916E00229EA
:101F100014E0072918BF102936D0042918BF112949
:101F200032D0012926E0112908E0122918BF07291B
:101F30002AD014291EE0122900E0042915D1012419
:101F40000170204602B010BD0A46132A07D10124B1
:101F50000170204602B010BD0A46042A14D0072A98
:101F600012D0052A06E006290ED0072902E008292A
:101F700000E00929ABD101240170204602B010BD58
:101F80000A0001D00C2AA2D101240170204602B01F
:101F900010BD8168084701EB410300EB830002821A
:101FA0007047B0F9040070472DE9F04705460F4629
:101FB000A86869695FEA020890FBF1F40CD1384621
:101FC00001F0ACFB6861474300202861AF6000214D
:101FD000E9600120BDE8F0873E1B304601F09EFB22
:101FE0008146204601F09AFB8246384601F096FB76
:101FF000D14528BFD146814588BF8146C5F8149098
:1020000009FB04F4AC606F602868084A08FB00F81C
:10201000A8FB02216869490A491C464396FBF1F076
:102020002861E9600120BDE8F08700BF986E128347
:1020300001460020C96801B90120704700B581B090
:10204000C36A01220BB198470246104601B000BD99
:10205000C08870470021C1600161704781830122FF
:1020600002FA01F1018370478180704730B5044660
:1020700081B00125E1838D406583C5EBC53101F059
:1020800060FBA5EBC531204601B0BDE8304001F052
:102090005ABBC180704701EB410300EB8300828192
:1020A00070470078704740697047B0F9000070478A
:1020B00001B481B044F6E612BDF90400ADF80000A9
:1020C00001460B4811FB00F0BDF9061011FB02F2AE
:1020D000A0EB4200C01300F30F00ADF8020010F5B2
:1020E000004F04BF0349ADF80210009802B07047DA
:1020F0001AB6FFFF0180FFFF31B582B008B201F0D0
:1021000029FB0190BDF90420BDF90830BDF9060096
:10211000BDF90A1013FB02F400FB1144E41304F3AD
:102120000F04ADF8004013FB00F0BDF900500A4C5D
:10213000A54204BF094DADF8005011FB0200C013C9
:1021400000F30F00ADF80200A04204BF0348ADF851
:102150000200009803B030BD0080FFFF0180FFFF48
:10216000F0B4B0F90430B0F91450B0F91660B0F919
:10217000062000244B430AB9002115E05143826830
:102180008F1806D5002AC8BF002906DD6FF000476A
:1021900003E0002A44BF0029104FC168B94203DBA5
:1021A0000169B942B8BF394681600A46818BC78B45
:1021B0000B4142FA07F1CB189D4206DAEC1AA4183B
:1021C0002B46846018B2F0BC7047B342BCBFF41A0F
:1021D0003346A418846018B2F0BC70470100008038
:1021E00002B481B00091BDF90430BDF9062013FBA3
:1021F00003F112FB021C01884943614518D290F893
:10220000B2104FEA1C6CACEB010C5FFA8CFC00EBDB
:102210004C008088434342439913901303EB51438E
:1022200002EB5042DB13D213ADF80030ADF80220C0
:10223000009802B0704711B583B008B201F08AFA75
:102240000190BDF90420BDF90C30BDF90600BDF9BF
:102250000E1013FB02F411FB004411FB02F100FB12
:102260001310C013E413ADF80200ADF8004000985D
:1022700004B010BD70B481B002B481B0B0F8503079
:10228000BDF90650BDF90420018E5D436D424A43FD
:102290006D005119AA1A01EBD17102EBD2724910EB
:1022A0005210002948D5002A17D5042480F83A4056
:1022B0008C1A651404EB9534A41404EB93031414E2
:1022C0000D1402EBD43201EBD53103EB6242A3EBE8
:1022D00061410C461D46164675E02C14002D05EB99
:1022E000D43414DC032180F83A10AD1A691405EBDC
:1022F0009135AD1405EB9303151402EBD53203EBC6
:102300006242A2EB64410C4615461E465BE0022287
:1023100080F83A204D1B6A1405EB9235AD1405EB9D
:1023200093030D1401EBD531A3EB614101EB644242
:1023300014460D461E4646E0002A16D4012480F8B5
:102340003A408C1A651404EB9534A41404EB9303FF
:10235000141402EBD4320D1403EB624201EBD531BD
:10236000A3EB614114461D462CE02C14002D05EB17
:10237000D43414DC052280F83A204D1B6A1405EB96
:102380009235AD1405EB93030D1401EBD531A3EB9E
:10239000614101EB64421C460D46164613E00021E4
:1023A00080F83A10AD1A691405EB9135AD1405EBC0
:1023B0009303151402EBD53203EB6242A2EB6441A6
:1023C0001C4615460E46C186A0F84060C587848726
:1023D00043868286B0F84E10012919D1B0F94830F1
:1023E000418EB0F85420002BCCBF5118891A418679
:1023F000B0F94A30818E002BCCBF5118891A8186E2
:10240000B0F94C30C18E002BCCBF52188A1AC2864C
:10241000816903B070BC08472DE9F04F054685B0CF
:10242000B5F92A006B6EC0EBC0329A42B8BF6A663B
:1024300004DBA0EBC0309842A8BF68666E6EB5F8AA
:102440001A01AB6E0641B5F92A009A4236B2B8BFFE
:10245000AA6604DBA0EBC0309842A8BFA866AA6EAB
:10246000B5F81A01EB6D42FA00F00FFA80FBB5F9EE
:102470002800C0EBC0329A42B8BFEA6504DBA0EB8B
:10248000C0309842A8BFE8652B6EB5F928009A4283
:10249000B8BF2A6604DBA0EBC0309842A8BF28660C
:1024A000B5F81831EA6D88882F6E049742FA03F464
:1024B000201A00B247FA03F3ADF80230BDF80270FB
:1024C000CB88FB1AB5F9207003971BB20F890297CE
:1024D000B5F91CA0029FB5F91E90B5F924E0DDF80E
:1024E0000C801AFB04F4121BB1F900407C4310FB72
:1024F000092224141EFB042206FB1828B5F9262005
:102500000192EA8D8DF80020B5F922C06C6E9DF81D
:102510000070B5F9062010FB0C404BFA07F4019F40
:1025200014FB02F407FB0404BDF90200049F1AFB2C
:1025300000F03F1A13FB0979029FB1F902007843BA
:1025400000141EFB0091A86EDDF80C9013FB0C0329
:102550009DF800000BFB191946FA00F00199A5F847
:102560006C60A5F86EB010FB02F2B5F920019A4636
:102570000028B5F9000001FB12AA54BF01274FF053
:10258000FF3701F0E7F800901BFB07F0BDF90010E2
:10259000404210FB01F1BDF902007E43490016FBE9
:1025A00000F009144000A1EB204105F13000FFF7D5
:1025B000D7FD95F8F01095F80A212881491CC9B279
:1025C000914208BF002105EB4102B2F87030A5F836
:1025D0000831A2F8700085F8F0102988401828808A
:1025E000C5F85C806C66C5F86090C5F868A0B5F960
:1025F000000005B0BDE8F08F10B490F80A4190F8E3
:102600000B1190F8F020D0F80431611A07D100F1D5
:10261000700131F912105A18B0F908110DE089183B
:10262000A142ACBF0C1B0C4600F1700131F9121035
:102630005A1800F1700131F91410511AB0F81C2128
:10264000C0F8041141FA02F3C38010BC7047F0B423
:1026500090F82F200124012A08BFB1F900203DD0B5
:10266000437BB0F90650828D468895FBF3F3AA1898
:102670009E1990F828308285012B46802ED1B0F922
:102680002A3043B9CA5E80F82940002101730280D4
:1026900010B2F0BC70475B1E4385002DB1F900609D
:1026A000B0F9327052BFB51A951B4FF0FF342DB2FE
:1026B00015FB03F393FBF7F313FB04F3002D1BB29D
:1026C00008D4012280F82E200988CA1A028010B28C
:1026D000F0BC704790F82E1001B19A19028010B228
:1026E000F0BC704710B50446DFF828092061FFF7F9
:1026F0006BFB0020A4F85800A4F85A002062606226
:10270000A062E0622065D4F89C00C16BC4F8801020
:1027100081692163002184F83410A163E163A4F886
:102720004010A4F84C10A4F84E1090ED000AD0ED23
:10273000070AB8EE400A20EE200ABDEEC00A10EEED
:10274000101AA4F85C1090ED090AD0ED070A80EE8B
:10275000200ABDEEC00A10EE101AA4F85E1090ED2B
:10276000000AD0ED0C0AB8EE400A20EE200ABDEEB9
:10277000C00A10EE101AA4F8601090ED000AD0ED17
:102780000D0AB8EE400A20EE200ABDEEC00A10EE97
:10279000100AA4F87400002084F862006066A06645
:1027A00084F86C002067D4F89C0090F82010D4F8CE
:1027B0009C0084F87610418CA4F87810016CC4F861
:1027C0008410416CC4F88810806CC4F88C00002020
:1027D000C4F89000C4F8940010BD90F8621079B964
:1027E000002280F834208163C163A0F84010A0F873
:1027F0004C10A0F84E10C0F89010C0F8941070471C
:102800000A2180F834107047002180F83410704796
:102810002DE9F041054695F834002C69092800F2AD
:10282000EF82DFE810F00A004800ED02ED02ED0251
:10283000A000CB004501710111026A68002082F8F6
:1028400024000021E86800F0D1FF01200021A5F854
:102850004A00A963E963A5F84010A5F84810A5F857
:102860004C10A5F84E1085F86C102868FFF799FBFE
:10287000C0EB00118800DFF8A03780FB03639910DC
:10288000002201EBD1712046FFF78EFBD5F88010B6
:102890004FF47A722046FFF787FB012085F8340059
:1028A0006868B0F9101000EE101AB8EEC00A85ED95
:1028B000240ABDE8F0812046FFF78EFA00EE100AE8
:1028C000B8EEC00A85ED1C0A284600F0D1FA06468B
:1028D0002046FFF7ADFB002800F09282B5F84E00CD
:1028E000401C012EA5F84E0005D0B5F8741080B23A
:1028F000814280F085822868FFF753FBC0EB00110E
:102900008800DFF8142780FB0232921002EBD272AB
:1029100000EE102AD5F89C00B8EEC00A85ED140A26
:1029200041F28832D0ED0A0A60EE200AFDEEE00A9C
:1029300010EE901AA5F85810D0ED0B0A20EE200AE0
:10294000BDEEC00A10EE101A0020A5F85A10E86378
:10295000A5F840006864A5F84E0009B22046FFF7CC
:1029600023FB05204AE22046FFF736FA00EE100A64
:10297000B8EEC00A85ED1C0A284600F079FA064632
:102980002046FFF755FB002800F03A82B5F84E00CC
:10299000401C012EA5F84E0005D0B5F8741080B289
:1029A000814280F02D820020E863A5F84000686431
:1029B000A5F84800A5F84E0006201FE295ED1C0A78
:1029C000284600F055FA2868FFF7EBFA00EB800282
:1029D0005200DFF84406E96BB5F85C6082FB00301A
:1029E000801000EBD0706A684118E963A86BB2F9F7
:1029F0000C30B5F84020C0186B6C521C97B25B1CB1
:102A0000BE42A863A5F840206B6480F0F98192B2C1
:102A100091FBF2F1B5F84820A5F84810521AA5F834
:102A20004A2016B2002E44BF324652420021E963CA
:102A3000A5F84010B5F86010994203DB12B2042AE1
:102A400000F3DE8190FBF3F0A882DFED7E0AB5F99A
:102A5000480095F8761000EE100AB8EEC00A01EEB4
:102A6000101A60EE200AB8EE411A60EE810AC5ED38
:102A7000060A2868FFF795FAC0EB00118800DFF816
:102A80009825B5F9581080FB0232921002EBD272F1
:102A900000EE102A0022A5F84E20B8EEC00A85EDFF
:102AA0001C0A41F288322046FFF77EFA0720A5E192
:102AB0002046FFF791F900EE100AB8EEC00A85ED46
:102AC0001C0A284600F0D4F906462046FFF7B0FA63
:102AD000002800F09581B5F84E00401C012EA5F8A5
:102AE0004E0005D0B5F8741080B2814280F0888124
:102AF0000020A863E863A5F840006864A5F84800D2
:102B0000A5F84E00082079E195ED1C0A284600F052
:102B1000AFF92868FFF745FA00EB80025200DFF8B2
:102B2000F804E96BB5F85C4082FB0030801000EBE4
:102B3000D0706A684118E963A86BB2F90C30B5F837
:102B40004020C0186B6C521C96B25B1CB442A86348
:102B5000A5F840206B6480F0538192B291FBF2F1B2
:102B6000B5F84820A5F84810521AA5F84A2014B222
:102B7000002C44BF224652420021E963A5F84010D0
:102B8000B5F86010994203DB12B2042A00F33881D1
:102B900090FBF3F0E882DFED2B0AB5F9480095F8D9
:102BA0007610B5F9162000EE100AB5F91400B8EE4B
:102BB000C00A01EE101A60EE200AB8EE411A20EEAB
:102BC000810A00EE900AB5F91600B5F9141085EDEA
:102BD000070A01EE100AF8EEE00AB8EEC11A70EE2C
:102BE000C10A95ED061AE86831EE400A80EE800AC7
:102BF000DFED840AB4EE600AF1EE10FA48BFB0EEE1
:102C0000600A85ED080A95ED060AD5ED070A30EE53
:102C1000600A9FED7D1A20EE010A85ED090A8A42BD
:102C2000D5ED070A30EE200A85ED090AB2BF002271
:102C30000022B5F9781000F0DDFD0020A5F84E0067
:102C40000920DBE09CC4203FB5F84E00401CA5F8ED
:102C50004E002868FFF7A5F900EB80025000DFF86E
:102C6000B83395F87610D5ED091A80FB03439B1015
:102C700000EE101A03EBD373F8EE400A01EE103A9F
:102C80009FEDD60AB8EEC11A21EE001A21EE201AE5
:102C9000B4EE611AB5F84E10F1EE10FA06DAB5F896
:102CA000740000EB4000884280F2AA80D5F89C00B6
:102CB000AE68D0ED001AB3EE0E2A01EE101AB8EE8F
:102CC000411AF8EE611A81EE211AF6EE001AC1EEF1
:102CD000811A61EE821AC5ED0C1A85ED0A1A1021CF
:102CE00095ED082A21EE022A62EE211A21EE800AD1
:102CF00020EE200A85ED0B2A85ED190AC0EE010AA7
:102D000090ED001AB8EE411AC0EE810AC5ED1A0A1C
:102D100010274FF000080F2047F6FF725FF0010305
:102D200003FA00F401EE104AB8EEC11A21EE001ABF
:102D3000BDEEC11A11EE104A944204DA41B202E02B
:102D4000BCF1100FECD01FFA87FCBCF1100F0ED1B4
:102D500003FA00FC01EE10CAB8EEC11A21EE201AE7
:102D6000BDEEC11A11EE108A9045B8BF47B2401EA1
:102D70001FFA81FCE4D5BCF1100F07D089B23046B0
:102D8000FFF76CF921B23046FFF76EF9B8B21028A0
:102D900008D0B9B23046FFF769F90FFA88F130462A
:102DA000FFF777F9B5F97810304600F071FDB5F806
:102DB0007810494209B2304600F06CFD304600F010
:102DC0006BFD0446B5F8780044432146304600F0D8
:102DD000B8FC64422146304600F0B5FC012085F87D
:102DE00062000121E86800F001FD2868FFF7D9F8CA
:102DF0000146E868002200F0FDFC0A2085F8340056
:102E0000BDE8F0810AD7233CAE47213F10B5044608
:102E100094F86200A8B96068002180F82410E06886
:102E200000F0E4FC6068B0F91010E068002200F0E7
:102E3000E1FCE068BDE810404FF47A62002100F048
:102E4000D9BC10BD002180F86210704790ED140AC3
:102E500000F021B90B20704790F83400704701460C
:102E6000002091F834100A2908BF012070470000A3
:102E700030B5044681B000252DED048BD4F89C00BC
:102E8000D0ED0E8A2068B0EE408AFFF78AF8C0EBDA
:102E900000118900604A94ED221AD4ED210A81FBC9
:102EA0000232921002EBD27200EE102AB8EEC09AF3
:102EB00038EE490AB5EE401A60EE800AF1EE10FADB
:102EC00008BF9FED520A09D0D4ED251A70EE611AA1
:102ED00094ED240A01EE810A70EE800AB4F87800BD
:102EE00084ED240A014601EE101AB8EE411AB4EE40
:102EF000601AB0EE600AF1EE10FA48BFB0EE410A77
:102F0000404201EE100AB8EEC11AF4EE410AF1EEA9
:102F100010FA48BFB0EE410A70EEC00A94ED231AD1
:102F2000E068BDEEC00A60EE810A10EE101AC4ED32
:102F3000250A002209B200F05DFC28EE280AB4EE52
:102F4000409A94F96C00F1EE10FA1CD4B4EE489A51
:102F5000F1EE10FA0AD4B0EE000A30EE680A20EE64
:102F6000080AB4EE409AF1EE10FA0CD5401C41B2BA
:102F70001429A4BF1420012584F86C002846BDEC58
:102F8000048B01B030BD002084F86C002846BDECF5
:102F9000048B01B030BD80F876107047A0F878102F
:102FA000704780ED0C0A704790ED0C0A70470000E6
:102FB000D0F89C1090ED0B0A90ED261ADFED140A64
:102FC00060EE200A60EE810A91ED130A91ED141A69
:102FD00020EE010A80EE800A704700009CC4203F6A
:102FE000D0F89C1090ED080A90ED261ADFED080A43
:102FF00060EE200A60EE810A91ED130A91ED141A39
:1030000020EE010A80EE800A7047000000000000F8
:10301000CB151E354C0C002067666666C0F8801024
:10302000704780ED260A704790F8620070470146AD
:103030000020896801B901207047014600200A7804
:103040000B2A04D1092008700020888001207047D5
:1030500030B5044681B0154604F13000FFF704F89E
:10306000294604F1300001B0BDE83040FFF711B847
:10307000B0F90600704770B504460D46164604F1D7
:10308000300000F009FC00FB05F104F1300000F015
:1030900005FC268070BD2DED010A009801B0704737
:1030A000C11768B14840401AB0FA80F29040D21C73
:1030B000C907C2F5846241EA025202EBD021400501
:1030C000704770B4826F9268536823F07003536046
:1030D00090F87320102A0ED2826F90F87240436EDF
:1030E00002EB84052E6E3268D318436690F8732085
:1030F000521C80F8732000200880488070BC704704
:10310000B0B581EA030C0CF0004C40F2FF7515EAF3
:1031100011541DBF15EA1357AC42AF4239E0E41910
:1031200023EA455343F48013C90241F0004141EAC8
:10313000505EC7021100A7FB020200284FF00000FA
:10314000EEFB01204FF00001E3FB072118BF42F026
:103150000102401800214941E3FB0E01A4F58064FF
:103160000F0302D252004041494154F101046CDD89
:10317000470872F1004250F1000051EB0451A1F5F3
:1031800080115CBF41EA0C01B0BD4CEA0551002042
:10319000B0BD05EA1357AC4214BFAF4241E050EA5C
:1031A000410E1CBF52EA430E02E061460020B0BD52
:1031B00024423C441BD15FEA070EF6D0090302BF4C
:1031C00001460020AEF1140EB1FA81F7AEEB070410
:1031D00001FA07FE0C37C7F1200100FA07F7C840D3
:1031E0004EEA000E23EA455343F48013A2E733F07E
:1031F0000043B3FA83F704BFB2FA82FE77440B3F71
:10320000E41BB7F1200E2FBF02FA0EF3BB40C7F14B
:10321000200E22FA0EFE38BF43EA0E03BA40641CA9
:1032200082E750EA410E14BF52EA430E6FF00001EC
:103230004FF4001717EB430F8ABF194617EB410FE6
:10324000B5E74CEA05510020B0BDD4F10104B4F15A
:1032500020070FDAC4F12007520828BF42F001020C
:1032600010FA07F501FA07F7E1BF2A43E0403843B7
:10327000E1400FE0352C98DCC7F1200452EA40020F
:1032800020FA07F218BF42F0010231FA07F0A1401C
:103290000A43002172F1004250F1000051EB0C0191
:1032A000B0BD90F81C1169B90022012180F81D21E0
:1032B00080F81C11D0F82001016841F02001016064
:1032C0000220704701207047C1F30A5340F2FE32DA
:1032D0009B1A14DDD3F120034FEAE17208DDC90225
:1032E00041EA505141F00040D840801850407047AA
:1032F00003F2E13010B1D24382F000407047002069
:1033000070470146002091F8582091F849108A42F0
:1033100028BF0120704710B5C46E002181608180F4
:103320002046FEF73EFE01462046BDE81040002242
:1033300000F0B6BA70B481B0816F8A6890F8471017
:10334000002942D102F11803DA4C1968214041F0FA
:10335000600119600026116A41F001011162116AD1
:1033600021F0040111625663816F91F88A100129DE
:103370000DD11E68D0490E4046F480561E60156A75
:1033800025F010051562116A41F040010EE0022996
:103390000DD11E68C8490E4046F400561E60156ADD
:1033A00045F010051562116A21F04001116253F8D1
:1033B000041F0C4044F070041C60116A21F48071F9
:1033C0001162116A21F4806111620FF26D110FF226
:1033D0003112416142600FF2A911C160B7498160A9
:1033E000012180F8471001B070BC7047816F8A6876
:1033F00090F84710012900D0704770B402F118030B
:1034000081B01968AB4C214041F060011960116A2C
:1034100041F001011162816F91F88A10012903D1F5
:10342000116A41F0040104E0022903D1116A21F07C
:1034300004011162B0F87010490851631E689E497A
:103440000E4046F4C0461E60156A45F01005156230
:10345000816F91F88A10012903D1116A41F040016E
:1034600004E0022903D1116A21F040011162B0F891
:1034700070104908916353F8041F0C4044F0600435
:103480001C60116A41F480711162816F91F88A1099
:10349000012903D1116A41F4806104E0022903D1BA
:1034A000116A21F480611162B0F870104908D1638B
:1034B000834A8449416142608349C1607F49816098
:1034C000002180F8471001B070BC70470246906F31
:1034D000B2F8703080685943090C5186416303216A
:1034E00082F83A104068118F00F07000401E804151
:1034F000C043C00F012902D1002301201387704768
:10350000826F9268536823F070035360026E836F7A
:1035100090F83A0003EB8003D3F860C0DCF80000B9
:10352000101A6A4A904203DD47F6FF72904200DBB0
:103530001046088048807047816F896800224A637E
:103540006FF001020A610B695FEAC37CFBD50A6177
:103550004A6C42F400424A64816F91F88A20022A40
:103560000DD1B1F87C30C9688B61816FB1F87E20D4
:1035700009698A62806FB0F8801040698162704783
:1035800070B481B0816F8A686FF0010111611369B5
:10359000DC07FCD5116101235363B0F870305B1F69
:1035A00013641369DC07FCD51161536C43F4806329
:1035B0005364536C43F400435364836F93F88A401D
:1035C000022C19D1B3F87C40DB68156A40F25556DD
:1035D000354206D09C61836FB3F87E401B699C61C5
:1035E00005E09C62836FB3F87E401B699C62806F2C
:1035F000B0F88030406983621161D06840F001000A
:10360000D06001B070BC704770B4816F8B680A687D
:103610004C686FF0010119611D69EE07FCD5196155
:10362000002159639963D963B0F87010491F196478
:103630001969CD07FCD5596C41F480615964596C06
:1036400041F400415964816F91F88A50022D0DD1E7
:10365000B1F87C60C9688E61816FB1F87E500969EC
:103660008D61816FB1F8805049698D61032580F8C3
:103670003A50D56C816E25F0FC050D43D564E16CA4
:10368000806E21F0FC010143E16411489168014022
:1036900041F008019160A168084040F00800A06076
:1036A000186A40F480501862D86840F00100D86071
:1036B00070BC70478CFFFEFFFF8CFFFE4F99000827
:1036C000C1A600081595000819A600080180FFFF93
:1036D000C0FFFF7F01EB410300EB8300C281704715
:1036E000A0F810117047C184494201857047034614
:1036F000B3F802C0187841EA0C0C2CEA0202B3F8C5
:1037000004C041EA0C010A285A80998002D122B9EA
:103710000B2001E00AB10A2018707047010048BF71
:10372000494201225FF00100C2F11F0300FA03F3D6
:1037300099423EBF521CD3B2202BF5D3511E884074
:103740007047C16070470161704700EB4100B0F9FC
:1037500032007047A0F500400004800D10F4407165
:1037600081B021D0B1F5807F2CD0B1F5007F05D09C
:10377000B1F5407F0BD0009801B070471A49C2B232
:1037800031F81220ADF80220C0F1FF0023E0164905
:10379000C0F1FF02D2B231F81220ADF80220C0B25F
:1037A00031F91000404219E00F49C2B231F912203C
:1037B0005242C0F1FF00ADF80220C0B231F9100052
:1037C00040420BE00849C0F1FF02D2B231F91220A9
:1037D0005242ADF80220C0B231F91000ADF800003D
:1037E000009801B0704700BFB49A00080170002132
:1037F000C16070472DE9F041064682B030780C4632
:1038000017460125B0B9304600F08CF8F18CB6F9B6
:103810002820A142B8BF002594421EDB290030D0E9
:1038200007BB3078270401280CBF7760B760002001
:10383000F06025E07068C11300EB1140F18B0014BB
:10384000A142A4BFB6F92420944206DB318C8C42FD
:10385000BCBFB6F92210A142E2DA0025284602B028
:10386000BDE8F0817480B18B084B07FB01F8A8FB21
:103870000332510A271A491C3F04F16097FBF1F00B
:10388000B061284602B0BDE8F08100BF986E128397
:1038900081827047C1827047408B7047816070475A
:1038A000134690F82820002A00D07047F0B41A0080
:1038B00012D18269818002FB01F3C28AC18402EBCA
:1038C0008204640093FBF4F3447B13FB04F30022B3
:1038D000C3808284F0BC7047028E114DC184534373
:1038E000826902FB01F6C28AA3FB0554B0F90650B7
:1038F00002EB8207630A447B7F005B1C96FBF7F6B2
:1039000095FBF4F2838436B212B2B61A36049BB237
:1039100096FBF3F254432D04C4610562F0BC70477A
:10392000986E12838068C11300EB11400014704739
:1039300070B582B0056A446A90F82C3055F823605F
:1039400054F8234000250AB101231370822900F2A4
:103950000384DFE811F083008900900097009E0047
:10396000AE00BC00CA00D100D500DC00E300EA00D4
:10397000F300FA00010108012401010401045C01C3
:10398000400101040104010478017F0186018D01D9
:1039900094019B01AB01AF010104B801C201C60152
:1039A000CF01D301AB01AF01DC01E001E901ED0181
:1039B000F601FA010104010403021B02330248026A
:1039C00062027C02010401040104010401040104F7
:1039D0009602A002AA02B902EA00C802E0020104AB
:1039E00001040104010401040104010401040104AF
:1039F000010401040104010401040104010401049F
:103A0000010401040104010401040104F802010499
:103A1000010401040104010401040104010401047E
:103A200001041A031E033B0345034F0359036303B9
:103A30002C03B500C300F5030104F903FD036D0376
:103A4000770383038E039903A203AD03B803C30373
:103A5000CD03D503DD03E5030304ED0300F086FB8E
:103A60000546284602B070BDA06A00F082FB0546FC
:103A7000284602B070BDA06AFEF713FB0546284633
:103A800002B070BD304600F07AFB0546284602B011
:103A900070BD304600F075FBC0EB00118800DFF808
:103AA000C42680FB0232951005EBD575284602B07E
:103AB00070BD206800F068FB0546284602B070BD66
:103AC000206800F064FB0546284602B070BD2068FF
:103AD00000F05FFB0546284602B070BD2068FFF786
:103AE000DBFE0546284602B070BD206800F054FB9E
:103AF0000546284602B070BD304600F050FBA0E1FC
:103B0000606800F041FB0546284602B070BD606861
:103B100000F03FFB0546284602B070BD606800F02B
:103B20003BFB0546284602B070BD304600F037FB2F
:103B30000090BDF90250284602B070BDA06800F0A8
:103B400023FB0546284602B070BDA06800F021FBAB
:103B50000546284602B070BDA06800F01DFB054672
:103B6000284602B070BD816A90F82C0051F82010F0
:103B700000200A0F092A08BFA069C1F303610929BF
:103B800008BFE069002800F05D810DF1020269467E
:103B900000F00CFBBDF90050284602B070BD816AF0
:103BA00090F82C0051F8201000200A0F092A08BFB5
:103BB000A069C1F30361092908BFE069002800F08A
:103BC00041816A460DF1020100F0F0FABDF90050A2
:103BD000284602B070BD816A90F82C0051F8201080
:103BE00000200A0F092A08BFA069C1F3036109294F
:103BF00008BFE069002800F025810DF10202694646
:103C000000F0D9FABDF90050284602B070BD816AB3
:103C100090F82C0051F8201000200A0F092A08BF44
:103C2000A069C1F30361092908BFE069002800F019
:103C300009816A460DF1020100F0BDFABDF900509C
:103C4000284602B070BD206B00F0C4FA0546284635
:103C500002B070BDE06A00F0C3FA0546284602B023
:103C600070BDE06B00F0CFFA0546284602B070BD8B
:103C7000002100F0D5FA0546284602B070BD0121AA
:103C800000F0CEFA0546284602B070BD304600F07E
:103C9000D1FAC0EB00118800DFF8C82480FB0232A3
:103CA000951005EBD575284602B070BD304600F082
:103CB000CBFAC6E0304600F0C7FA0090BDF90250DA
:103CC000284602B070BD6069002800F0478200F00D
:103CD000C2FA0546284602B070BD304600F0BEFA72
:103CE000AFE0304600F0BAFA0090BDF90250284625
:103CF00002B070BD304600F0B8FAA2E0304600F0E5
:103D0000B4FA0090BDF90250284602B070BD3046AA
:103D100000F045FA95E0304600F041FA0090BDF918
:103D20000250284602B070BD304600F0A5FA88E087
:103D3000304600F0A1FA0090BDF90250284602B0CA
:103D400070BD304600F0A0FA7BE0304600F09CFAEF
:103D50000090BDF90250284602B070BD816A90F80B
:103D60002C0051F8201000200A0F092A08BFA06972
:103D7000C1F30361092908BFE069002800F0EE8162
:103D8000FEF793F90546284602B070BD816A90F8A7
:103D90002C0051F8201000200A0F092A08BFA06942
:103DA000C1F30361092908BFE069002800F0D6814A
:103DB00000F072FA0546284602B070BD816A90F89C
:103DC0002C0051F8201000200A0F092A08BFA06912
:103DD000C1F30361092908BFE069002800F0BE8132
:103DE00000F064FA2DE0816A90F82C0051F8201060
:103DF00000200A0F092A08BFA069C1F3036109293D
:103E000008BFE069002800F0A98100F04FFA009097
:103E1000BDF90250284602B070BD816A90F82C00AE
:103E200051F8201000200A0F092A08BFA069C1F329
:103E30000361092908BFE069002800F08F8100F0C4
:103E400043FA0090BDF90050284602B070BD816A67
:103E500090F82C0051F8201000200A0F092A08BF02
:103E6000A069C1F30361092908BFE069002800F0D7
:103E7000758100F029FA0090BDF90250284602B081
:103E800070BD0269002A00F0698100219047054653
:103E9000284602B070BD0269002A00F05F8101214E
:103EA00090470546284602B070BD606A00F018FAD7
:103EB000C0EB00118800AB4A80FB0232951005EB85
:103EC000D575284602B070BD606A00F00BFAC0EBF1
:103ED00000118800A34A80FB0232951005EBD575CE
:103EE000284602B070BD826A90F82C0052F820106B
:103EF00000200A0F092A08BFA069C1F3036109293C
:103F000008BFE069002800F0298100F0EEF90514EF
:103F1000284602B070BD816A90F82C0051F820103C
:103F200000200A0F092A08BFA069C1F3036109290B
:103F300008BFE069002800F0118100F0D9F90514EC
:103F4000284602B070BD304600F019F9012830460D
:103F50000DD100F0D0F9C0EB00118800814A80FB40
:103F60000232951005EBD575284602B070BD00F001
:103F700008F9C0EB001292007A4882FB001085100D
:103F800005EBD575284602B070BD0125284602B064
:103F900070BDA06C10B1FDF75DFA0546E06C10B184
:103FA000FEF75AFF2D18EDB2284602B070BDA06C86
:103FB00010B1FDF74DFA0546E06C10B1FEF74AFF6F
:103FC0002D18EDB26D1E284602B070BDA06C002801
:103FD00000F0C480FDF778FA0546284602B070BDAF
:103FE000A06C002800F0BA80FDF772FA054628465A
:103FF00002B070BDA06C002800F0B080FDF76CFA34
:104000000546284602B070BDA06C002800F0A680CE
:10401000FDF766FA0546284602B070BDE06C002840
:1040200000F09C80FEF712FF0546284602B070BDE6
:10403000A069002800F09280FDF7E9FE05462846B9
:1040400002B070BDA06C002800F08880FDF750FE23
:10405000FFF721F80546284602B070BDE06C002845
:104060007CD0FEF7A1FFFFF716F80546284602B000
:1040700070BDA06C002871D0FDF740FEFFF70BF873
:104080000546284602B070BDA06C002866D0FDF73A
:104090005FFE0546284602B070BDA06C00285DD0CA
:1040A000FDF780FEFEF7F7FF0546284602B070BD1B
:1040B000E06C002852D0FEF77BFFFEF7ECFF0546D0
:1040C000284602B070BDE06C002847D0FEF788FF9C
:1040D000FEF7E1FF0546284602B070BDA06CE8B3CC
:1040E000FDF75AFEFEF7D7FF0546284602B070BD21
:1040F000A06C98B3FDF72FFE0546284602B070BDB0
:10410000A06C58B3FDF72AFE0546284602B070BDE4
:10411000A06C18B3FDF749FE0546284602B070BDF5
:10412000A06CD8B1FDF746FE0546284602B070BD2A
:10413000E06C98B1FEF778FF0546284602B070BDE6
:10414000094D284602B070BD1525284602B070BD45
:104150000A25284602B070BD02B11570284602B08B
:1041600070BD00BF6766666621891B3A90F82C0017
:10417000704701468888498840EA01407047407E80
:104180007047406800F0BFB8B0F904007047008B7A
:104190007047B0F906007047B0F92200704781B04F
:1041A000806801690091084601B07047C38B0B809D
:1041B000408C1080704770B504460D46164604F1D9
:1041C0003000FFF7E1FF288004F13000FFF7E1FF46
:1041D000308070BD0146C88849884843000C70474C
:1041E000017869B9038A026AB0F91E10808C9A1AA4
:1041F0004A43D11302EB114200EB224000B2704758
:10420000808A00B27047B0F90401704781690029C3
:1042100018BF084770474368002B18BF18477047FE
:1042200000B581B0836883220BB1984702461046DF
:1042300001B000BD00B581B04068FDF734FF01B0AA
:104240005DF804EBFDF7ADBE81B08068C1680091F8
:10425000084601B0704790F84800704781B0806808
:1042600001680091084601B0704781B080684168DC
:104270000091084601B0704781B08068D0F81610F0
:104280000091084601B0704781B08068D0F81A10DC
:104290000091084601B07047B0F90410B0F90E0063
:1042A000C1EBC13191FBF0F000B2704781B0B0F8C2
:1042B0001811C26D0A41ADF80020006E0841ADF83A
:1042C0000200009801B0704781B0B0F96C10ADF8F1
:1042D0000010B0F86E00ADF80200009801B0704711
:1042E000C08B7047B0F924007047D0F8FC007047CD
:1042F000D0F8F8007047014600200A7B012A08BF69
:10430000B1F90E0070474068C11300EB1140001472
:1043100070470068012180F81E1170472DE9F043B5
:10432000040081B000F0AF81DFF83877B868FE682C
:1043300000F00C082078C10606F0030640F19281D7
:10434000B8F1000F04D0B8F10C0F08BF012E57D1FF
:104350003868810703D5A069002800F09481396886
:1043600008074EBF3968D7F894100909206A01F090
:10437000F001814216D200F035FB002840F0838125
:10438000386840F0080038603968206A21F0F00190
:10439000014339607868E16920F47F4040EA0120F8
:1043A000786016E0386840F0080038603968206AA4
:1043B00021F0F001014339607868E16920F47F4021
:1043C00040EA01207860206A00F00CFB002840F0F1
:1043D0005A8100F095FABA68DFF89016C2F303121A
:1043E000895CDFF8842601F01F01C84010600420BA
:1043F00000F050FB010000F0358101B0BDE8F08312
:10440000A06998B1396841F00101396000F060FBA2
:1044100005463868810700F1148100F059FB401B04
:104420000328F6D3032001B0BDE8F08338684008C4
:104430004000386000F04CFB05463968880740F1C1
:10444000118100F045FB401B0328F6D3032001B087
:10445000BDE8F0836068B0F5803F06D0B0F5A02FCE
:10446000396807D141F480213960386840F48030E0
:10447000386006E021F4803139603A6822F4802205
:104480003A60606878B100F023FB0546396888031C
:1044900000F1FD8000F01CFB401B6528F6D30320D3
:1044A00001B0BDE8F08300F013FB054638688103D6
:1044B00040F1ED8000F00CFB401B6528F6D3032093
:1044C00001B0BDE8F08300BF00F002FB801B0328B1
:1044D000C0F00681032001B0BDE8F083E06898B128
:1044E000396841F48071396000F0F2FA06463868A4
:1044F000410500F1248100F0EBFA801B0328F6D37C
:10450000032001B0BDE8F083386820F48070386083
:1045100000F0DEFA06463968480540F1D18000F027
:10452000D7FA801B0328F6D3032001B0BDE8F0833F
:10453000D7F8940040084000C7F8940000F0C8FA8B
:104540004FEA0006D7F89400810740F1CE8000F0D2
:10455000BFFA801B0328F5D3032001B0BDE8F08328
:104560000528D7F8900008D140F00400C7F8900063
:10457000D7F8900040F0010007E040084000C7F87D
:104580009000D7F8900020F00400C7F89000A068D1
:1045900090B100F09DFA054641F28939D7F89000B4
:1045A000810700F1DD8000F093FA401B4845F5D308
:1045B000032001B0BDE8F08300F08AFA4FEA00055D
:1045C00041F28939D7F89000810740F1C98000F0A5
:1045D0007FFA401B4845F5D3032001B0BDE8F083C6
:1045E00000F076FA401B0328C0F0CE80032001B013
:1045F000BDE8F08300F06CFA001B0328C0F0EA80ED
:10460000032001B0BDE8F083396811F0205F03D1C9
:10461000F86880088000F860F968DFF85404014009
:10462000F96000F055FA04463868810140F1D680FF
:1046300000F04EFA001B0328F6D3032001B0BDE8BA
:10464000F083386840F0080038603968206A21F04B
:10465000F001014339607868E16920F47F4040EA65
:10466000012078602078C10711D5B8F1080F05D076
:10467000B8F10C0F08BF032E7FF4ECAE386881034D
:1046800005D5606818B9012001B0BDE8F083217834
:10469000880715D5B8F1040F05D0B8F10C0F08BF85
:1046A000022E7FF41BAF3868410502D5E068002870
:1046B000E9D07968206921F0F85141EA0061796018
:1046C0002178080711D5606900283FF431AFD7F889
:1046D000941041F00101C7F8941000F0F9F9064672
:1046E000D7F8940081077FF5EFAE217848073CD5D5
:1046F000B86D0026C10009D4B86D40F08050B8658F
:104700000126B86D00F0805000900098DFF86453E7
:104710002968C8051BD4286840F48070286000F020
:10472000D7F981462968C80511D400F0D1F9A0EB6A
:1047300009000328F6D3032001B0BDE8F0837868B0
:10474000216920F0F85040EA01607860B8E7A0687D
:1047500001287FF405AFD7F8900040F0010014E77E
:104760001EB1B86D20F08050B865A06AB0B3B8F142
:104770000C0F88D00228386820F0807038607FF4F1
:1047800043AF00F0A5F90546396888013FF528AF29
:10479000206B616B401E090241EA0011A06B000909
:1047A00041EA4041E06A0143E06B4008401E41EAB3
:1047B0004051206C4008401E41EA4061F960386871
:1047C00040F080703860F96841F08071F96000F065
:1047D0007FF90446386881017FF50CAF002001B0F5
:1047E000BDE8F0832DE9F043040081B0884600F075
:1047F0008380DFF88462306800F00700404509D20A
:104800003168C90848EAC1013160306800F007002A
:10481000404571D12178DFF84C52C80754D5606803
:10482000032802D129688A0107E0022802D12968F9
:104830008A0302E030B929688A0706D4012001B052
:10484000BDE8F0832A68510556D5A968890840EA71
:104850008100A86041F2893900F03AF90746A8685A
:10486000616800F00C00B0EB810F2DD000F030F942
:10487000C01B4845F3D3032001B0BDE8F083207886
:10488000410705D5A968E06821F4E0610143A9600A
:104890002078010706D5A868216920F4605040EA15
:1048A000C100A86000F02CF8AA687049C2F3031296
:1048B000895C6D4A01B001F01F01C84010600420FE
:1048C000BDE8F04300F0E6B82078810705D5A96877
:1048D000A06821F0F0010143A960306800F00700F2
:1048E0008045CCD23168C90848EAC10131603068DE
:1048F00000F007004045C2D0012001B0BDE8F083C0
:10490000584A9068D2F80CC00023002110F00C0027
:104910000CF0030C04D00C2815D1BCF1010F1DD1F3
:1049200013685FEA037CDFF858C159BFD2F89430AE
:10493000C3F303231368C3F303135CF8233058B99C
:10494000194608467047042808BF4E4927D0082852
:1049500025D14D49084670470C2820D1D168D06830
:10496000C0F30210401C01F00301022902D0032908
:1049700004D007E04349B1FBF0F105E04249B1FB47
:10498000F0F101E0B3FBF0F1D068C0F30620414341
:10499000D068C0F34160401C4000B1FBF0F1084614
:1049A00070473148006870472F48344A00681368E0
:1049B0003649C3F30222895C01F01F01C8407047E9
:1049C00029482E4A006813683049C3F3C222895C23
:1049D00001F01F01C84070472248016841F40021DE
:1049E0000160704770B52A4E82B0044630680025D9
:1049F000C10002D500F072F80EE0306840F080503F
:104A00003060316801F080510091009800F066F844
:104A1000316821F080513160B0F5007F05D1802CE4
:104A20000DD9A12C0AD3022509E0802C88BF0325CB
:104A300005D801D1022502E0702C00D10125D6F85D
:104A4000A80FC00845EAC000C6F8A80FD6F8A80FFE
:104A500000F00700A84214BF0120002002B070BD82
:104A60000000000000100240100D002010A80008F7
:104A7000FFFFEEFE007000400020024008100240E0
:104A800020A800080024F40000127A0044AB0008BB
:104A9000581002400C490D4B30B50A680446A2FB81
:104AA000033081B0400A00F09FF8002518B10125BD
:104AB000284601B030BD002221464FF0FF3000F003
:104AC0005EF8284601B030BD100D0020986E1283AC
:104AD00001480068704700BFE0100020DFF8780050
:104AE000006800F4C060704730B4DFF86C10B0F5B7
:104AF000007F086800F4C0601BD1B0F5007F21D0B2
:104B00000A68DFF85830DFF8585022F4C06242F4E7
:104B100000720A6032201A684243A2FB0554E00C7E
:104B2000401C4A69530510D5002818BF401EF8D113
:104B30000BE0B0F5806F05D00A6822F4C06242F441
:104B400080620A60002030BC704748694105F9D591
:104B500030BC03207047000000700040100D0020A2
:104B600006BD3786294A13684FF6FF0100020B4045
:104B700000F4E0601843264908431060704730B4E1
:104B8000224B81B01C68C4F30223C3F10704052C37
:104B900028BF04241D1D072D34BF0023DB1E012563
:104BA00005FA04F4641E2140994005FA03F35B1EE4
:104BB0001A4011430901020008D5164A00F00F00FF
:104BC000104400F8041C01B030BC7047124B19545B
:104BD00001B030BC7047012200F01F010F4B8A402A
:104BE000400943F820207047401EB0F1807F01D378
:104BF000012070470A494860F02081F8130D002019
:104C00008860072008600020704700000CED00E07D
:104C10000000FA0518ED00E000E400E000E100E02B
:104C200010E000E010B5040001D1012010BD94F89F
:104C30003D0028B9002184F83C10204600F0C6FB56
:104C4000022084F83D00211D206800F0E4F80120D6
:104C500084F83D00002010BD10B5040001D10120F2
:104C600010BD94F83D0028B9002184F83C1020467E
:104C700000F06AFC022084F83D00211D206800F04D
:104C8000CAF8012084F83D00002010BD30B504466C
:104C900081B094F83C0001280D4608BF022000F0C6
:104CA0009680012184F83C100220142A84F83D00EB
:104CB00000F28780DFE802F00B8585851F858585FA
:104CC00034858585488585855D8585857100206865
:104CD000294600F006F92068816941F008018161E8
:104CE0002068816921F00401816121688A6928694D
:104CF00002438A6165E02068294600F03DF920689A
:104D0000816941F4006181612068816921F48061D9
:104D10008161206881692A6941EA0221816150E04C
:104D20002068294600F066F92068C16941F0080151
:104D3000C1612068C16921F00401C1612168CA69AB
:104D400028690243CA613CE02068294600F08EF9D8
:104D50002068C16941F40061C1612068C16921F422
:104D60008061C1612068C1692A6941EA0221C1618B
:104D700027E02068294600F0A5F92068416D41F040
:104D8000080141652068416D21F0040141652168F9
:104D90004A6D286902434A6513E02068294600F0FD
:104DA000BCF92068416D41F4006141652068416DA6
:104DB00021F4806141652068416D2A6941EA022140
:104DC0004165012084F83D00002084F83C0001B0DA
:104DD00030BD10B5044694F83C00012801D10220F2
:104DE00010BD012284F83C20022084F83D002046BA
:104DF00000F0BFF92068C16821F04001C16020685F
:104E0000C16821F48041C160012084F83D00002088
:104E100084F83C0010BDDFF82C3481B09842D0F803
:104E200000C018BFB0F1804F0FD0DFF81C249042B3
:104E30001CBFDFF81824904207D0DFF814249042FA
:104E40001CBFDFF81024904214D14A6898422CF01D
:104E5000700C18BFB0F1804F42EA0C0C1AD0DFF88A
:104E6000E82390421FBFDFF8E4239042DFF8E023FD
:104E700090420FD0DFF8DC2390421CBFDFF8D8232C
:104E8000904207D0DFF8D42390421CBFDFF8D02334
:104E9000904204D1CA682CF4407C42EA0C0C4A6966
:104EA0002CF0800C42EA0C0CC0F800C098428A68D2
:104EB000C2620A6882621CBFDFF8982390420AD05F
:104EC000DFF8942390421FBFDFF890239042DFF871
:104ED0009023904201D1096901630121416101B030
:104EE000704770B481B0026ADFF85863520852000C
:104EF0000262056A43688469DFF8682314400A681F
:104F000014438A6825F002051543B0421CBFDFF840
:104F1000442390420AD0DFF8402390421FBFDFF8BD
:104F20003C239042DFF83823904213D1CA6825F021
:104F300008051543B0421CBFDFF81863B04225F0E6
:104F400004050BD0DFF81063B0421CBFDFF80C2360
:104F5000904203D0DFF80823904205D14A6923F438
:104F6000407313438A691343436084614968416312
:104F7000056201B070BC704770B481B0026A22F063
:104F800010020262056A43688469DFF8DC2214407B
:104F90000A6844EA02248A6825F0200545EA0215D9
:104FA000A84A90421CBFAB4EB04208D1CE6825F053
:104FB000800545EA0615904225F040050BD0A54A2C
:104FC00090421CBFA44A904205D0A44A90421CBF04
:104FD000A34A904206D14E698A6923F4406316437E
:104FE00043EA86034360846149688163056201B0D6
:104FF00070BC704770B481B0026A22F480720262A1
:10500000056A4368C469974A14400A6814438A6869
:1050100025F4007545EA02258A4A90421CBF8D4E50
:10502000B04208D1CE6825F4006545EA06259042D5
:1050300025F480650BD0874A90421CBF864A904277
:1050400005D0864A90421CBF854A904206D14E69DF
:105050008A6923F44053164343EA06134360C4614C
:105060004968C163056201B070BC704770B4026AE0
:10507000744E22F480520262036A4468C5697A4A17
:1050800015400A6845EA02258A68B04223F40053B5
:105090001CBF704EB04243EA023307D06E4A9042C2
:1050A0001FBF6E4A90426E4A904204D14A6924F46E
:1050B000804444EA82144460C56149680164036223
:1050C00070BC704770B4026A5E4E22F48032026295
:1050D000036A4468456D654A15400A6815438A6845
:1050E000B04223F400331CBF5A4EB04243EA02439D
:1050F00007D0594A90421FBF584A9042584A90429E
:1051000004D14A6924F4803444EA022444604565A9
:1051100049688165036270BC704770B4026A494E89
:1051200022F480120262036A4468456D504A1540B9
:105130000A6845EA02258A68B04223F400131CBFBE
:10514000444EB04243EA025307D0434A90421FBF45
:10515000424A9042424A904204D14A6924F480244F
:1051600044EA8224446045654968C165036270BCB5
:10517000704781B003683248D3F808C04A682CF001
:10518000700C42EA0C0C00EA0C0C086840EA0C0CAB
:10519000C3F808C04868402814D0502821D060289F
:1051A00038D070284AD108698A68C968D3F808C01D
:1051B0002CF47F4C41EA0C010A4342EA00229A6037
:1051C00001B07047186A1A6A520852001A629A6946
:1051D000096922F0F00242EA01129A61186201B0F4
:1051E0007047086989681A6AD3F820C04FEA5C0CD6
:1051F0004FEA4C0CC3F820C022F00A02D3F818C0C2
:105200002CF0F00C4CEA001CC3F818C011431962D2
:1052100001B07047086989681A6A22F010021A62A0
:105220009A69D3F820C022F4704242EA00322CF08E
:10523000A00C9A614CEA011CC3F820C001B0704771
:10524000F8FFFEFF002C0140000400400008004071
:10525000000C004000340140004001400044014087
:10526000004801408CFFFEFFFF8CFFFE8FFFFEFF1A
:10527000FF8FFFFEDFF8A80282B0816841F00101D4
:105280008160816801F0010100910099016841F09D
:1052900080510160006800F0805000900098042068
:1052A00002B0FFF75FBC10B586B06946002200234C
:1052B00000241CC10CC10068DFF86822904233D181
:1052C00099480168491C01600129984808D1016882
:1052D00041F400510160026802F400520592059900
:1052E000016841F004010160026802F004020592C5
:1052F0000B220599016841F001010160232100683A
:1053000000F00100059005988948009101920293F0
:10531000694600F01FF90B200190082200920294C8
:1053200069464FF0904022E08249884221D17E4870
:105330000168491C016001297C4808D1016841F4D9
:1053400000510160026802F400520592059901685B
:1053500041F0040101600621006800F0040005909E
:105360000B2205987248009101920293694600F061
:10537000F1F806B010BD10B586B001A900220023D7
:1053800000241CC10CC100686B4A90421CD16748C4
:10539000C16841F00051C1600322C16801F00051B1
:1053A00000910099016841F001010160302100681D
:1053B00000F001000090009801910292039301A96E
:1053C0004FF0904000F0C6F806B010BD10B586B0A2
:1053D00001A90022002300241CC10CC10068574A07
:1053E00090421FD15148416941F40051416102226C
:1053F000416901F4005100910099016841F00401F4
:1054000001604FF40071006800F004000090009803
:1054100001910120039005900292049301A9444850
:1054200000F098F806B010BD10B586B069460022AD
:10543000002300241CC10CC10068404A904240D1A6
:105440003A48016841F001010160026802F001027E
:1054500005920599016841F002010160026802F0BD
:105460000202059202220599016841F004010160DF
:105470008021006800F00400059005980091032049
:10548000049001920292039269464FF0904000F01E
:1054900061F802200322019002900390009204928E
:1054A0006946274800F056F84FF4E070009002215A
:1054B0000320019102910391049069461C4800F079
:1054C00049F806B010BD10B586B001A9002200232E
:1054D00000241CC10CC100681A4A90421ED1134816
:1054E000416941F4804141610222416901F48041F6
:1054F00000910099016841F002010160C02100683B
:1055000000F002000090009801910720059002929F
:105510000393049301A90A4800F01CF806B010BDDB
:105520005810024000000450E41000204C100240CB
:10553000000800480001045000740040003401409D
:10554000000400480038014070470068012180F8DD
:105550001F1170472DE9F04F81B08A464FF0000EC1
:10556000DAF800607649774A774BDFF8E081002E61
:105570004FF00F0900F0E0800646012000FA0EFC13
:10558000DAF800001CEA000000F0CE80DAF80440EF
:10559000022C18BF122C13D14FEADE0406EB840450
:1055A0004FEA8E05276A05F01C0509FA05FB27EA74
:1055B0000B07DAF810B00BFA05F53D43C4F820509C
:1055C0004FEA4E04032537689AF804B0A540ED432E
:1055D0000BF0030B2F400BFA04FB4BEA0707376075
:1055E000DAF80470012F18BF022F03D0112F18BF53
:1055F000122F15D1B768DAF80CB02F400BFA04FB64
:105600004BEA0707B7607768DAF804B0CBF3001B02
:1056100027EA0C070BFA0EFB4BEA0707C6F80470E3
:10562000DAF8047007F0030BBBF1030F0AD1D6F8C8
:105630002CB0C7F3C0072BEA0C0C07FA0EF747EAA9
:105640000C07F762F7683D40DAF8087007FA04F4CF
:105650002C43F460DAF80440E40065D5D8F8004043
:1056600044F00104C8F800404FEA9E0CD8F80050FE
:1056700005F001050095B6F1904F009C53F82C7091
:105680004FEA8E0404F00C0409FA04F527EA050534
:1056900008BF00271CD0964208BF012718D02C4F06
:1056A000BE4208BF022713D02A4FBE4208BF0327BD
:1056B0000ED0294FBE4208BF042709D0274FBE4253
:1056C00008BF052704D0264FBE420CBF0627072778
:1056D00007FA04F42C4343F82C406FEA000C0C68E2
:1056E000DAF804500CEA0404EF0348BF04430C60EA
:1056F0004C68DAF804500CEA0404AF0348BF0443D2
:105700004C608C68DAF804500CEA0404EF0248BFDD
:1057100004438C60CC68DAF804500CEA0404AD024F
:1057200048BF0443C1F80C400EF1010EDAF8000046
:1057300030FA0EF07FF421AF01B0BDE8F08F000029
:1057400000040140000400480800014060100240CD
:1057500000080048000C00480010004800140048F1
:10576000001800482DE9F047054682B02868DFF8A8
:105770005C6300270105B84625D5686E70B1B0F5A9
:10578000800F18D0B0F5000F03D0B0F5400F0AD04D
:1057900017E0326842F48032326005E00021281DB3
:1057A00000F096F907466FB9F16F686E21F4400179
:1057B0000143F16707E0002105F1200000F020FA25
:1057C000F0E70127B8462868C10426D5A86EA8B11D
:1057D000B0F1807F18D0B0F1007F03D0B0F1407FEE
:1057E00004D018E0306840F480303060A7B9F16F21
:1057F000A86E21F040710143F1670EE00021281DE1
:1058000000F066F90746F1E7002105F1200000F0FD
:10581000F7F90746EAE70127B846286881032BD540
:10582000F06C0024C10009D4F06C40F08050F064AA
:105830000124F06C00F0805000900098DFF8BC93D9
:10584000D9F8001041F48071C9F80010FFF740F951
:105850004FEA000AD9F80000C10500F10281FFF704
:1058600037F9A0EB0A000328F4D30327B8461CB18C
:10587000F06C20F08050F0642978C80705D5F16FEE
:10588000A86B890840EA8101F1672878810705D56E
:10589000F16FE86B21F00C010143F16728784107B3
:1058A00005D5F16F286C21F030010143F1672878AC
:1058B000010705D5F16F686C21F0C0010143F16764
:1058C0002878C10605D5F16FA86C21F44071014319
:1058D000F1672878810605D5F16FE86C21F4406105
:1058E0000143F1672868810505D5F16FE86D21F462
:1058F00040210143F1672868410505D5F16F286E05
:1059000021F440110143F1672878410605D5F16F74
:10591000286D21F440510143F1672878010605D52F
:10592000F16F686D21F440410143F1672868C105BA
:1059300005D5F16FA86D21F440310143F167286866
:10594000810422D5F16FE86E21F040610143F167D7
:10595000E86EB0F1006F0ED1306840F48010306016
:1059600013E000BFFFF7B4F8C01B4845C0F09E80AD
:105970004FF003087BE7B0F1806F06D10121281DAD
:1059800000F0A6F8010018BF80462868010318D56A
:10599000F16F286F21F040610143F167286FB0F18A
:1059A000006F04D1306840F48010306009E0B0F13D
:1059B000806F06D10121281D00F08AF8010018BF70
:1059C00080462868410318D5F16F686F21F0406167
:1059D0000143F167686FB0F1006F04D1306840F4A3
:1059E0008010306009E0B0F1806F06D10121281DE0
:1059F00000F06EF8010018BF80462868410419D5F0
:105A0000F16FA86F21F040510143F167A86FB0F129
:105A1000805F04D10221281D00F05AF807E0B0F1A0
:105A2000005F07D1022105F1200000F0E9F8010034
:105A300018BF80462868010405D5F16FE86F21F092
:105A400080410143F1672868C10306D5F16FD5F89D
:105A5000800021F000410143F167404602B0BDE8FB
:105A6000F087002F7FF402AFD6F8840010F4407066
:105A70001CBFD5F88410884211D0D6F88400D6F81F
:105A8000841041F48031C6F8841020F44070D6F8B8
:105A9000841021F48031C6F88410C6F88400C00751
:105AA00009D5FFF715F8074641F28939D6F8840081
:105AB00081077FF557AFD6F88410D5F8840021F41C
:105AC00040710143C6F88410D1E600000C1002407A
:105AD0002DE9F04107468F4E38680C46F1680025E5
