:020000040800F2
:10000000C8140020619F0008CD9F0008A593000838
:10001000D19F0008D59F0008D99F0008000000006C
:10002000000000000000000000000000DD9F00084C
:10003000E19F000800000000E59F0008059400080B
:10004000E99F0008ED9F0008F19F0008F59F000858
:10005000F99F0008FD9F000801A0000805A0000806
:1000600009A000080DA0000811A0000815A00008B4
:1000700019A000081DA0000821A0000825A0000864
:1000800029A000082DA00008F192000831A0000866
:1000900035A0000839A000083DA0000841A00008D4
:1000A00045A0000849A000084DA0000851A0000884
:1000B00055A0000859A000085DA0000861A0000834
:1000C00065A0000869A000086DA0000871A00008E4
:1000D00075A000084593000879A000087DA00008DD
:1000E0000994000881A0000885A000082193000859
:1000F0001193000889A000088DA0000891A00008B5
:1001000095A0000899A000089DA00008A1A00008E3
:10011000A5A00008A9A00008ADA00008B1A0000893
:10012000B5A00008B9A00008BDA00008C1A0000843
:10013000C5A00008C9A00008CDA00008D1A00008F3
:10014000D5A00008D9A00008DDA00008E1A00008A3
:10015000E5A00008E9A00008EDA00008F1A0000853
:10016000F5A00008F9A00008FDA0000801A1000802
:1001700005A1000809A100080DA100080000000069
:1001800011A1000815A1000819A100081DA100086F
:1001900021A1000825A1000829A100082DA100081F
:1001A00031A1000835A1000839A100083DA10008CF
:1001B00041A1000845A1000849A100084DA100087F
:1001C00051A1000855A1000859A100085DA100082F
:1001D00061A1000865A1000869A100086DA10008DF
:1001E00071A1000875A1000879A100087DA100088F
:1001F00081A1000885A1000810B50446DF486063AE
:1002000001F01CFE002084F8300084F83A002046FB
:1002100000F09BF80020F7EE000A84F82401D4F8DF
:10022000400590ED000A2069B8EE400A84ED100AFE
:1002300080EE800A84ED0F0A01F023FE00EE100A22
:10024000D4F84005B8EE400A84ED110AF6EE000A33
:1002500090ED130A60EE200A90ED091AC0EE810AB3
:10026000FDEEE00A10EE901AA4F8481090ED060A90
:10027000F0EE000A60EE200A90ED071A60EE810AA7
:1002800090ED131AC1EE200AC4ED130AC16A21656C
:1002900090ED0B0AF5EE000A60EE200AC4ED160A96
:1002A000C06A60650020E06520666066A06684F82C
:1002B0008C00C4F89000C4F8940084F89800C4F846
:1002C0009C00C4F8A000C4F8A400C4F8A800C4F8B6
:1002D000AC00C4F8B000C4F8B40084F83C05204673
:1002E00001F0E6F90020DFF8182DC4F8CC00DFEDAE
:1002F0009F0AC4F8D000C4F8D40084F8D800D4F819
:100300004005816BC4F8DC10416CC4F8E01081FB3F
:10031000023200EE101A0021B8EEC00AA4F82C1127
:10032000921020EE200A02EBD272BDEEC00AC4F891
:10033000E8204FF4FA72C4F8E82084ED390AC06B63
:1003400084F83411C4F8300110BD002180F83B104E
:1003500080F8EC10A0F8181180F81A11A0F81C1100
:10036000C0F82011C0F83811704710B504460021BC
:1003700094F83B00042808D1082184F830100021AB
:1003800084F8EC100121084610BD94F83000C0B983
:10039000206801F078FD0121204684F8301000210A
:1003A00084F83A10FFF7D1FF0020012184F82401DE
:1003B000606D2065002084F88C0084F8980001208E
:1003C0002087084610BD10B50446206801F060FD86
:1003D00094F83000062818BF072804D00A281CBF4C
:1003E000002084F8300010BD30B581B0044694F888
:1003F0003000401E072800F2B680DFE800F0040459
:10040000040422B4B43F206801F047FD90B1E068D5
:10041000072184F8301001F07FFD206801F0F3FD22
:1004200094ED4A0A2046DFED520A20EE200A01F040
:1004300067FC93E0204600F0FBFF84ED4A0A01B020
:1004400030BD206801F029FD002800F08C800720D5
:10045000072184F83000E06801F05EFD206801F0BB
:10046000D2FD94ED4A0A2046DFED410A20EE200A33
:1004700001F046FC206DC4F828016FE094F83B00C1
:10048000042870D0206801F008FD00286BD094ED9E
:100490004A0A2046DFED360A20EE200A01F030FC41
:1004A000D4F8400594ED140A84ED4A0A00219FED2A
:1004B000311AD0ED060A20EE811AD0ED071A21EE8E
:1004C000211AD0ED131A81EE211A21EE000ABDEE99
:1004D000C00A10EE100A451E206A2AB201F095FDEE
:1004E000206A2AB2012101F090FD206A2AB202217D
:1004F00001F08BFD206A2AB2032101F086FD206AFB
:100500002AB2042101F081FD94F8EC0001281BD1EE
:10051000206901F080FDC0EB0011DFF8E40ADFED97
:10052000160A890081FB0020801000EBD07000EEDD
:10053000100A2046B8EEC00A60EE200AFDEEE00A7E
:10054000C4ED390A01F062FBE068062384F830301C
:10055000072101F0E1FC206801F055FDDFF8140EE1
:100560000188491C018001B030BD0000CDCCCC3EDB
:100570006666663F00008047CDCC4C3FF006002009
:100580002DE9F04F81B0044600270FF69C202DED99
:10059000048B86B094F830100668D4F8349009299A
:1005A00000F21E85DFE811F0F6040A0054000A008C
:1005B0007D005E01FB041C05EA02E80494ED140AC8
:1005C000204601F013F8012823D194F830000128C7
:1005D0000DD10221484684F8301001F02FFCD4F8E8
:1005E00040054EF66021428E484601F017FD94F812
:1005F000300003284FD10421484684F8301001F020
:100600001DFCD4F84005218F828E484601F006FD7E
:1006100041E0208F4EF6602188423CD1278720465A
:1006200000F006FF6FF01300F6EE000A84F8D80021
:1006300020EE200A94F8980084ED140A401C84F8F7
:100640009800C0B2032826D3092084F8300022E0A5
:1006500094ED140A204600F0C9FF484601F0F6FB6D
:10066000484601F01FFDB0B1032094ED140A84F850
:100670003000F5EE000A20EE200A6FF01300C4F8F7
:10068000A87084ED140AC4F8AC7084ED160AC4F89E
:10069000B07084F8D800218F206801F009FD00F0C7
:1006A000A3BC94ED140A204600F0A0FF278F484613
:1006B00001F0CCFB204600F0BBFED4F8B000D4ED36
:1006C0002A0A30EE800A84ED2A0A401CC4F8B000E1
:1006D000606801F0F7FC00EE900A6068F8EE600ACE
:1006E0009FEDC50A4188384601EE101AB8EE411A4E
:1006F00060EE810A01EE100A4846B8EE411A60EE3B
:10070000800A21EE000A94ED2B1A00EE201AC4EDA7
:10071000170A84ED2B1A01F0C5FC002800F029828D
:1007200094F88C0094ED2C0A04EB8001B8EE400A9A
:10073000D4ED2A0A80EE800A84ED240AD4ED2C0A36
:10074000F8EE600A94ED2B1A81ED1B0A94F88C20C8
:1007500004EB8203C1EE200AC3ED1F0A94F88C005B
:10076000401C84F88C00C0B2042816D26FF013002D
:1007700094ED140A84F8D8000020D4ED160AC4F8C9
:10078000A800C4F8AC0030EE200AC4F8B000032082
:1007900084ED140A84F83000EBE105209FED978A80
:1007A00084F83000002084F83A00484601F046FB07
:1007B00064224EF66021484601F030FC21460320B9
:1007C00091ED200AD1ED1F0A30EE600AD1ED1C0A2E
:1007D00091ED1B1A091D70EEC10A401E80EE200A21
:1007E00030EE088AECD1B0EE080AD4F8401588EE55
:1007F000000A84ED180A91F8400020BBD1ED0A0AE6
:1008000030EE600ADFED7E0AB4EE600AF1EE10FA17
:1008100084ED180A03D5DFF8B00D206605E0F6EE8A
:10082000000A20EE200A84ED180A94ED240A002024
:10083000DFED740AC4F8A40060EE200AC4F8A0003A
:10084000C4ED250A95E10A20072184F83000E0680C
:10085000002701F061FB206801F0D5FB206801F062
:1008600017FB86E1204600F0E3FD94F83A0010B152
:10087000022808D018E0DFED640AB4EE600AF1EE59
:1008800010FA11D50DE0D4ED250A278FB4EE600AD9
:10089000F1EE10FA05D5D4F89C00401CC4F89C0079
:1008A00002E0484601F010FC484601F0CFFA484605
:1008B00001F0F8FB002800F05C8194F83A0018B1D0
:1008C000022810D008D354E1012084F83A004846A9
:1008D00001F0B4FA0A2247E1022084F83A0000202D
:1008E000C4F89C003CE1002094ED270A84F83A000B
:1008F000B8EE400AD4ED0F0AD4F8A00020EE200A8A
:10090000D4ED180A94ED291A401C142800EE201A80
:1009100084ED291AC4F8A00040F0228106200721A6
:1009200084F83000E06800270F254FF0010B01F03C
:10093000F3FA206801F067FB206801F0A9FA94ED52
:10094000280A6068B8EE400AD4ED290A80EE800AD1
:1009500084ED190A01F0B6FB00EE100A6068B8EEEB
:10096000400A00229FED241A4FF0100C4188D4F861
:10097000400594ED182A9046D4ED4C1A47F6FF73C3
:1009800000EE901A1021F8EE600A20EE200A20EE08
:10099000010A84ED170AD0ED060A20EE200AD0EDF8
:1009A000070A20EE200AD0ED130A102080EE201A4C
:1009B00094ED190A20EE210A62EE211A94ED0F2A15
:1009C00080EE010AD4ED370A61EE821A60EE200A49
:1009D00081EE811A0BFA05F601EE906AF8EEE11A43
:1009E00061EE801AFDEEE11A11EE906A9E4210DA75
:1009F0004FFA85FC0DE000BF0000803700000000CA
:100A0000CDCC4C3E9ED2213F0AD7233CBEF1100FE5
:100A1000E0D01FFA80FEBEF1100F0FD10BFA05F2E5
:100A200001EE902AF8EEE11A61EEA01AFDEEE11A4D
:100A300011EE902A9A42B8BF68B200BF1FFA81FE39
:100A4000BEF1100F0ED10BFA05FE01EE90EAF8EEA2
:100A5000E11A61EE811AFDEEE11A11EE908A9845D5
:100A6000B8BF69B26D1E1FFA8CFECFD5BEF1100F54
:100A700083460D46924609D0A0691FFA8CF101F019
:100A800027FBA06931B201F029FB02E0092084F8BC
:100A900030001FFA8BF010280AD0E0691FFA8BF1A2
:100AA00001F016FBE0690FFA8AF101F017FB02E092
:100AB000092084F83000A8B2102812D0A069A9B289
:100AC00001F00EFBE069A9B201F00AFBA0690FFA80
:100AD00088F101F018FBE0690FFA88F101F013FBCF
:100AE00002E0092084F83000D4F84005DFEDA00AC8
:100AF000002190ED060A60EE200A90ED071A60EEE4
:100B0000810A90ED131AC0EE810A94ED140A20EECA
:100B1000800ABDEEC00A10EE100A461E206A32B2EC
:100B200001F073FA206A32B2012101F06EFA206AF4
:100B300032B2022101F069FA206A32B2032101F0D7
:100B400064FA206A32B2042101F05FFAD4F8400559
:100B50000021428E206A01F0D8FA204601F056F8B2
:100B6000484601F06BF964224EF66021484601F0D8
:100B700055FA2068394601F09BFA35E2E06801F049
:100B8000CAFA001F0F2800F22B82DFE810F01000D5
:100B900010001000E8012902290229022902290275
:100BA0002902290229022902290229021000A06A29
:100BB00001F0B3FA01F0B3FA0646A068006801F04C
:100BC000B1FA8346314601F0D1FA0190A168BDF92E
:100BD0000400B1F91010091AA06901F0FBFAADF890
:100BE0000800A168BDF90600B1F91210091AE06900
:100BF00001F0F0FAADF80A000299606901F02AFBF1
:100C00008246314601F052FB05462068294601F034
:100C10006CFB8046A068C0F804B00199CDF810B014
:100C2000A068C160A168C1F816A0A068D0F81A2019
:100C30000392A168C1F81A50A0680684606801F0A8
:100C400041FAADF81400606A03A901F020FCADF888
:100C50000000606A01F019FD2069694601F040FD5D
:100C600094F83B00052800F2C081DFE810F0060090
:100C70008300BE014901BE016101204600F024FD50
:100C8000022884F8240122D1206901F0C4F9C0EBC4
:100C90000011DB4A880080FB02322069921002EBCF
:100CA000D272C4F8E42001F0B6F90146204601F002
:100CB00005F8012084F83B00204600F0F9FC06B05E
:100CC0001FFA88F0BDEC048B01B0BDE8F08F01285D
:100CD00000F08B81032821D194ED3A0A2046BBEE27
:100CE000EF0AFCEEC00AC4ED3A0A00F08FFF0620BE
:100CF000072184F83000E06801F00EF9206801F067
:100D000082F9DFF870064188491C418006B01FFA5D
:100D100088F0BDEC048B01B0BDE8F08F042840F0F2
:100D2000648194ED480A2046B8EE400ADFEDB30A2C
:100D300060EE200AFDEEE00AC4ED390A00F066FF1D
:100D40000620072184F83000E06801F0E5F820680B
:100D500001F059F9DFF81C068188491C818006B032
:100D60001FFA88F0BDEC048B01B0BDE8F08F00BF26
:100D700000008047D4F84005A1689FEDA21AB1F9A0
:100D80000C20D0ED060A20EE811AD0ED071A21EED4
:100D9000211A00EE102AD0ED131A6068B8EEC00ACE
:100DA00081EE811AD4ED2E0A40EE010AC4ED2E0A1E
:100DB00001F088F900EE100A6068B8EE400A9FED75
:100DC000921A4188A06800EE901AF8EE600A20EEB0
:100DD000200A20EE010A84ED170AB0F91610DFEDA3
:100DE0008B0AA06801EE101AB8EEC11A21EE000AB3
:100DF00094ED2F1A00EE201A84ED2F1AB0F9181076
:100E000094ED171AD4F8C80000EE101A42F21071CF
:100E1000B8EEC00A20EE010A401C94ED301A884258
:100E200000EE201AC4F8C80084ED301AC0F0DD804E
:100E300000EE100A2046B8EE400AD4ED2E0A80EEED
:100E4000808AD4ED2F0AC0EE808AD4ED300A80EE7D
:100E5000809A00F02DFC206901F0DDF800EE100A08
:100E6000B8EEC00AF2EE040A80EE200ADFED680A4E
:100E700060EE209AD4ED180A40EEC88AD4ED110A2B
:100E800020EE200A9FED631A20EE011AD4ED191A04
:100E900021EE211A01EE089A28EEA80A09EE090AA5
:100EA000B5EE400AF1EE10FA02DBB1EEC08A01E0C5
:100EB0009FED598A9FED590AE06A28EE000ADFED9E
:100EC000580A60EE200A80EEA90A84ED1A0A02F0A0
:100ED0001AF9D4ED170A02209FED521A84F83B004C
:100EE00089EE880A80EE811A20EE010A1FFA88F046
:100EF00084ED330A06B0BDEC048B01B0BDE8F08F81
:100F0000484600F0A3FF484601F0CCF800286CD01A
:100F1000606A01F080F800EE100A2046BAEE670A17
:100F2000BDEEC00A10EE101A09B200F0C7FE0BE0C9
:100F3000206A02F0EEF810B1032084F83B00E0686C
:100F400001F0E9F8062850D1042084F83B0006B0EF
:100F50001FFA88F0BDEC048B01B0BDE8F08F20686B
:100F600001F051F884F8307006B01FFA88F0BDEC3B
:100F7000048B01B0BDE8F08FE068072100F0CCFFE2
:100F800084F8307006B01FFA88F0BDEC048B01B015
:100F9000BDE8F08FE06801F0BEF8142820D1D4F845
:100FA000B400B0F5807F204608BFC4F8B47000F0EC
:100FB00069FA2068032180F83A10D4F8B41004EBE1
:100FC000810282ED4F0AD4F8B400401CC4F8B4008A
:100FD00006B01FFA88F0BDEC048B01B0BDE8F08FBD
:100FE0002068314601F081F9804606B01FFA88F08A
:100FF000BDEC048B01B0BDE8F08F0000CDCC4C3FC0
:1010000067666666000080470000803746CD9337EC
:1010100000007042DB0FC9400000000071C49C3F1B
:1010200000007A44D7B3DD3F0000000070B50446ED
:101030002DED048B86B0E068656B01F06CF894F8D8
:101040003010062909D0C0F01181082969D0C0F0FC
:10105000FC8006B0BDEC048B70BD0B2800F206814D
:10106000DFE810F00C000401040104014F0004014A
:10107000040104010401040104010101204600F0FF
:10108000B1FC002840F0F28094ED100AE068D4ED45
:10109000190A032194ED181A20EE802A81EE022A03
:1010A000F7EE002AF5EE001A32EEC22A22EE212ACD
:1010B000F5EE002A72EE222AB8EE003A32EE833ABA
:1010C00081EE201A03EE001A84ED341AB7EE001AEE
:1010D00031EE421ABDEE003A31EE031A02EE211A49
:1010E00021EE001A21EE000A20EE200A84ED350AD6
:1010F00000F012FF206800F086FF06B0BDEC048B04
:1011000070BD082084F830002046FFF71EF901204A
:1011100084F82401204600F0CBFA06B0BDEC048B25
:1011200070BD94F83B00022840F0A080D4ED331A43
:10113000B4F9483094ED1A2A002161EE821A002099
:10114000DFEDCE2A0E2261EEA22A9FEDCD3A82EE8D
:10115000838AD4ED138AD4ED191A94ED109A21EEF6
:10116000A82A02EE903A012361EE891A94ED183A0A
:1011700022EE092AF8EEE22AC3EE211AC2EE822AF2
:1011800094ED343A9FEDCC0ADFEDCB0A9FEDCA1AFD
:1011900088EE022A83EE093ADFEDC83A9FEDC84A8D
:1011A00003FA02F604EE906AF8EEE44A21EEA45A3D
:1011B000B4EE445AF1EE10FABEBF23EE241AB4EE98
:1011C000441AF1EE10FA12DAB4EE631AF1EE10FAE4
:1011D0000DD422EE240AB4EE440AF1EE10FABEBF9A
:1011E00062EEA40AF4EE440AF1EE10FA23DB521E7A
:1011F00056B2012ED4DAD4ED351A0E2261EEA81AB9
:10120000C1EE881AC1EE891A03FA02F602EE106ADC
:10121000B8EEC22A61EE822AF4EE442AF1EE10FA08
:1012200004DAF4EE632AF1EE10FA23D5521E56B218
:10123000012EE9DA27E052B201EE902AF8EEE11A27
:10124000FDEEE11A11EE901AD5E750B9E0680321DE
:1012500000F062FE002084F8300006B0BDEC048B84
:1012600070BD0B2802D1E06801F059FF06B0BDEC5B
:10127000048B70BD52B201EE902AF8EEE11AFDEE39
:10128000E11A11EE900AFDEEC51AADF80E1011EE3E
:10129000902AADF81000ADF80020BDEEC11A11EE95
:1012A000102A6946ADF80220BDEEC00A10EE102AE1
:1012B000ADF80420BDEEE20A10EE102AADF80620CB
:1012C000BDEEE00A10EE102AADF80820BDEEE40AEB
:1012D00010EE102AADF80A20BDEEC20A10EE102A58
:1012E000ADF80C20606A00F047F894ED331A606A9C
:1012F000DFEDB61A94ED100AD4ED110A61EE211A51
:1013000061EEA01A20EE002AC1EE821AB5EE002A84
:1013100061EE821AFDEEE11A11EE902ADFEDAC1AB1
:1013200012B221EE211A61EE200A80EE800ABDEE93
:10133000C00A10EE101A09B201F0FCFE206900F09C
:10134000EEFE0646206901F005FF0146606A32465E
:1013500001F003FF284600F071FDFA224EF66021ED
:10136000284600F05BFE032084F83B0006B0BDEC8D
:10137000048B70BDBC1000200246088801239083B6
:101380004888D08388881084C888508408899084CD
:101390004889108588895085C889A2F81801088A6B
:1013A000A2F81A010020D085B1F90CC0DFF84C0A70
:1013B00090FBFCF000B258B3B2F82EC000EBD07036
:1013C000C00300145B000CF1010CA2F82EC0F8B1B0
:1013D00000EBD0700CF1010C5B00A2F82EC0C00332
:1013E0000014A8B100EBD0705B000CF1010CA2F866
:1013F0002EC0C003001400280AD000EBD0705B00A0
:101400000CF1010CA2F82EC0C00300140028D3D1A7
:101410009385B1F90C00B2F92C10DFF8E43910FB18
:1014200001F080FB03C31B1203EBD373D38470471B
:10143000D0F840158068DFED9D0A91ED060A60EE58
:10144000200A91ED071A60EE810A91ED131AB0F9A6
:101450000010B0F9020081EE200A00EE901AF8EEBA
:10146000E00A01EE100A60EEC00AB8EEC11A41EEC1
:10147000400AB6EE000A20EE800A70478104B53FAC
:101480000080D844D0F8401580689FED881AB0F9E4
:101490000020D1ED060A20EE811AD1ED071A21EEC7
:1014A000211A00EE102AD1ED131AB8EEC00A81EE0F
:1014B000811A20EE410A70470000000000FEFFC6BE
:1014C00001FEFF460520704730B581B00446E06A52
:1014D000002501F036FD012808BF84F83451E0688A
:1014E00000F019FE0A2806D184F83451284684F801
:1014F000305001B030BD94F830000A281BD8DFE826
:1015000000F006090D11111115151506190094F8B2
:10151000340180B10125284601B030BD022528469E
:1015200001B030BD0325284601B030BD0425284652
:1015300001B030BD0E25284601B030BD90ED180A2F
:1015400001F01BBE90ED190A01F017BE90ED1A0ACA
:1015500001F013BE90ED170A01F00FBE90F83B109A
:1015600004291CBF90F830200A2A22D1D0F8E010BC
:10157000002380F83B30DFF88C2880F8EC30A0F8AE
:10158000183180F81A31A0F81C31C0F82031C0F8A9
:10159000383180F8243181FB0232921002EBD27292
:1015A000C0F8E8204FF4FA72C0F8E820002280F872
:1015B0003020012180F83411DFF82404002101805B
:1015C0004180818070470000CDCCCC3DB0EDB74963
:1015D0000000054410B50446206800F014FD002109
:1015E00084F8301084F8341110BD0000D0F8402584
:1015F00000219FED2E1AD2ED060A20EE811AD2EDBF
:10160000071A21EE211AD2ED131A8268C1EE810A5F
:10161000535EB2F9022001EE103AB8EEC11A21EE83
:10162000601A01EE902A028FF8EEE11A01EEE01A3C
:10163000F6EE000A61EE200AF4EE400AF1EE10FA2E
:101640001DDB0AB1521E028730EEC00ADFEDCC0A64
:10165000B4EE600AF1EE10FA20D490F9D820521EB0
:1016600053B213F1130FB8BF6FF0130280F8D820F4
:1016700090F9D800002858BF0121084670474EF65F
:10168000602C624530EE600ADFEDBD0ABCBF521C23
:101690000287B4EE600AF1EE10FADED590F8D82099
:1016A000521C53B2142BE1DB1422DFE70000804709
:1016B0000021C0F8B810C0F8BC10C0F8C010C0F8C5
:1016C000C410C0F8C810704770B504469FEDC11A29
:1016D0002DED068BD4F84005A1680125B1F90C2049
:1016E000D0ED060A20EE811AD0ED071A21EE211A5C
:1016F00000EE102AD0ED131A6068B8EEC00A81EE31
:10170000811AD4ED2E0A40EE010AC4ED2E0A00F033
:10171000D9FC616800EE100AB8EE400AA0689FED9F
:10172000AE1A4A8800EE902AF8EE600A20EE200AEF
:1017300020EE010A84ED170AB0F91610DFEDA70AB2
:10174000A06801EE101AB8EEC11A21EE000A94ED5D
:101750002F1A00EE201A84ED2F1AB0F9181094ED0C
:10176000171A206900EE101AB8EEC00A20EE010A1E
:1017700094ED301A00EE201A84ED301A00F04BFC84
:1017800046F26761D4ED110A10FB01F194ED311AB4
:10179000881442F2107100EBD07000B200EE100A13
:1017A000D4F8C800B8EEC00A00EE201A401C8842E7
:1017B00084ED311AC4F8C800C0F0DE8000EE100AD3
:1017C0002046B8EE400AD4ED2E0AC0EE808AD4ED51
:1017D0002F0AC0EE809AD4ED300A80EE80AAD4EDB4
:1017E000310A80EE809AFFF763FFB5EE409AF1EE82
:1017F00010FA00F0C180206900F00DFCC0EB001170
:10180000DFF80026880080FB0232921002EBD272D1
:1018100000EE102AB8EEC00ABDEEC00A10EE106A43
:101820009FEDAD0A29EE008A94ED180A40EE689A01
:1018300094ED190A28EE000A00EE28AA29EEA90A5A
:101840000AEE0A0AB5EE400AF1EE10FA02DBF1EEFA
:10185000C08A01E0DFEDA48A04F1F000B4F81811A9
:1018600000EB8100C0ED008A04F58270B4F8182105
:1018700000EB820080ED008AB4F81801401CA4F847
:10188000180180B2052804D3002084F81A51A4F866
:10189000180194F81A01002850D094ED380AB8EED7
:1018A000C00B9FED8E2B20EE021BBDEEC11B11EE77
:1018B000101AB14242DA052204F1F00104F58270F7
:1018C00000F014F99FED872A2046F0EE681AB0EE7A
:1018D000481A00F057F8002894F8EC000ED050B9E0
:1018E000D4F8E410DFF82025711881FB023202EBF6
:1018F000D271C4F8381184F8EC501FE0012815D1DA
:101900009FEDC10A002129EE000A84F8EC10D4ED05
:10191000110A042580EE200ABCEEC00AA4F81C11AE
:1019200084ED480A2846BDEC068B70BDB4F81C0156
:10193000401CA4F81C0180B204280FDA206A01F0D0
:1019400021FC002894F8EC000AD038B100210225CF
:10195000A4F81C112846BDEC068B70BD032508E0D9
:1019600050B1D4F83811B14206D2206A022501F0F4
:1019700013FC0020A4F81C01BDEC068B284670BDAA
:10198000CDCC4C3E01EE200A0146B7EE001A0020F5
:1019900032EE011AF7EE002A21EE001A32EEC22AC8
:1019A00022EE000AB4EE610AF1EE10FA44BFF4EE42
:1019B000411AF1EE10FA0BD59FEDCC0A91ED111AF8
:1019C00080EE010AB4EE600AF1EE10FA48BF012081
:1019D00070470000000080470000803746CD9337F5
:1019E000BC10002030B581B0054695F83C050124B7
:1019F00090B9286801F08BFD4FF47A710020A5F8AA
:101A00002C1141F28831A5F82E11C5F8B4002046FA
:101A100085F83C4501B030BDB5F82E01002853D003
:101A2000401E9FEDD00AA5F82E0105F59E714020BD
:101A3000D1ED000A30EE200AD1ED010A30EE200A85
:101A4000D1ED020A30EE200AD1ED030A1031401E1A
:101A500030EE200AECD1DFEDC40A05F59E7120EED0
:101A6000200A40209FEDBF1AD1ED001A71EEC01A76
:101A700091ED012A32EE402AD1ED022A01EEA11A9F
:101A800072EEC02A91ED033A103102EE021A401EA6
:101A900033EE403A02EEA21A03EE031AE4D121EE2D
:101AA000200ADFEDC90AB4EE600AF1EE10FAA8BF11
:101AB0004FF47A7003DAB5F82C0128B1401EA5F86E
:101AC0002C01204601B030BD0020002485F83C05E3
:101AD000204601B030BD0000DB0FC9409A999999AA
:101AE0009999B93FCDCCCC3D0000000003460FF2E0
:101AF0004430F0B490EC021A90B281B002EE100AB9
:101B000000249FED980ADFED970AB8EE422ADFED38
:101B1000952A58B3C5070AD593ED000A012430EE83
:101B2000200AD1ED000A9FED8F3A70EE830A40083B
:101B300000F01C8003EB840501EB8406641C03EBBE
:101B4000840795ED003A01EB840530EE030A641C2E
:101B500096ED003A401E70EE830A97ED003A30EEA3
:101B6000030A95ED003A70EE830AE3D180EE023A63
:101B7000002094B2D4B392B2D40710D5D3ED002A8A
:101B8000012072EEC33A91ED004AF0EE614ADFEDBA
:101B9000752A43EE844A43EEA32AF0EE641A5208F3
:101BA00000F0248003EB8004B0EE614A01EB800575
:101BB000401C03EB8006D4ED003A01EB800473EE89
:101BC000C33A401CD5ED004A521E03EEA44AD6ED9E
:101BD000004A74EEC34A43EEA32AD4ED003A04EE61
:101BE000A34A44EEA42AF0EE441ADBD1C1EEA22AA5
:101BF00040EE620A01B0F0EE621A80EE820AF0EE68
:101C0000610AF0BC704700000000704230B581B03E
:101C100004469FED731A2DED028BD4F8E80094ED85
:101C2000390AB8EEC00A00EE900AF8EE600AC0EE7B
:101C3000200A20EE818ADFED6B0AB4EE608AF1EEB5
:101C400010FA09DB00EB80109FED678A00EE100AA6
:101C500084ED390AB8EEC00AF2EE040A204620EEFE
:101C6000200A9FED621A80EE010ABDEEC00A10EE56
:101C7000105A29B200F022F8206A2AB2012101F09C
:101C8000A7FC206A2AB2022101F0A2FC206A2AB233
:101C9000032101F09DFC206A2AB2042101F098FC86
:101CA000BDEEC80A012110EE100A82B2206ABDEC16
:101CB000028B01B0BDE8304000F027BA00EE101AE8
:101CC000406AB8EEC00ADFED4A0A20EE200AB5EEFF
:101CD000400AF1EE10FA48BFB1EE400ABDEEC00A6C
:101CE00010EE101A89B201F079BC000017B7D13A92
:101CF00000EE101AB8EE400A80ED110A704700009D
:101D0000F5EE000A30B5044681B060EE200AD4F842
:101D10004005C4ED160A84ED140A84ED150ADFEDC2
:101D2000350A20EE200AD0ED060A20EE200AD0ED7A
:101D3000070A20EE200AD0ED130AA06A80EE200ADE
:101D4000BDEEC00A10EE105A10B1A9B201F049FC64
:101D5000E06A28B1A9B201B0BDE8304001F090B905
:101D600001B030BD000000000000803B90ED150A7E
:101D7000704780ED370A704790ED370A70470000D2
:101D800011B9D0F84015496C1E4A00EE101A81FBBB
:101D90000232B8EEC00ADFED180AC0F8E01020EEFB
:101DA000200AD0F8E0109210BDEEC00A02EBD27209
:101DB00080ED390AC0F8E8204FF4FA72C0F8E82044
:101DC000C06A01F09DB900000BD7233CD0F8E000B9
:101DD0007047D0F8E4007047D0F8E8007047000082
:101DE00000007A4401FF7F4700E87D470000704211
:101DF000CDCC8C3F00008047CDCCCC3E5EEA0F00BE
:101E0000C58D4806676666665655555590ED150AA8
:101E1000704780ED4C0A704790ED4C0A7047D0F83F
:101E20004005B0F848007047D0F8400590F84A00E7
:101E300070470000000000000000000000218160E9
:101E40004160C160016101214161704781B0C36897
:101E50008268012B09D901695B1EC3608A18826000
:101E6000406901B092FBF0F0704704D142684169CB
:101E70004A430021C1608260406901B092FBF0F0EA
:101E80007047407B7047416A002918BF0847704778
:101E9000816A002918BF08477047C1690847F0B434
:101EA0000246106895681318506803EB5004C00789
:101EB00021D54D441FE0F0BC02F10C00704713F82F
:101EC000017B05F8017B491EF9D1A0B1B60813F8D2
:101ED000011B06F00306032E08BF13F8016B01EB8C
:101EE00006214942801C294405D011F8016B05F8F0
:101EF000016B401EF9D1A342DDD013F8016B16F03F
:101F0000030104BF13F8011BC91C30090F28DAD1E3
:101F100013F8010B0F30D6E710B582B00278002419
:101F2000142A0ED8DFE802F019235B2F4A595B5DB3
:101F30005F660D0D0B292B2D393B435241000A00E2
:101F40005CD003291CBF0129072903D0002280216E
:101F500001F04BFB204602B010BD0A46032A4DD0CB
:101F6000012A49D101240170204602B010BD072981
:101F700018BF0D2942D00E2936E00E2918E00F298E
:101F800016E0022914E0072918BF102936D00429C9
:101F900018BF112932D0012926E0112908E01229A1
:101FA00018BF07292AD014291EE0122900E00429AD
:101FB00015D101240170204602B010BD0A46132A33
:101FC00007D101240170204602B010BD0A46042A40
:101FD00014D0072A12D0052A06E006290ED00729B8
:101FE00002E0082900E00929ABD101240170204654
:101FF00002B010BD0A0001D00C2AA2D10124017048
:10200000204602B010BD8168084701EB410300EB98
:10201000830002827047B0F9040070472DE9F04751
:1020200005460F46A86869695FEA020890FBF1F46B
:102030000CD1384601F0F0FA686147430021AF60E7
:1020400000202961E8600120BDE8F0873E1B304692
:1020500001F0E2FA8146204601F0DEFA8246384677
:1020600001F0DAFAD1450E4B28BFD146814588BF31
:102070008146C5F8149009FB04F4AC6069696F608F
:10208000286808FB00F84E43A8FB0332500A401CA6
:1020900096FBF0F1E86001202961BDE8F08700BF00
:1020A000986E128301460020C96801B9012070476B
:1020B00000B581B0C36A01220BB1984702461046B1
:1020C00001B000BDC08870470021C1600161704748
:1020D0008183012202FA01F10183704781807047F8
:1020E00030B581B00446E18301258D40C5EBC53193
:1020F000658301F0A4FAA5EBC531204601B0BDE827
:10210000304001F09EBAC180704701EB410300EB03
:102110008300828170470078704740697047B0F94A
:102120000000704701B481B00E4ABDF90400BDF94A
:10213000063044F6E61CADF8000010FB02F013FB7D
:102140000CFCA0EB4C00C01300F30F0010F5004F87
:10215000ADF8020004BF0449ADF80210009802B0C7
:10216000704700BF1AB6FFFF0180FFFF31B582B094
:1021700008B201F07BFABDF908300190BDF90420E6
:10218000BDF90600BDF90A1013FB02F400FB11446F
:1021900013FB00F0E41304F30F04ADF80040BDF9A5
:1021A00000500A4C11FB0200A54204BF084DADF8D7
:1021B0000050C01300F30F00A042ADF8020004BFAE
:1021C0000348ADF80200009803B030BD0080FFFF67
:1021D0000180FFFFF0B4B0F90430B0F9062000240C
:1021E000B0F91450B0F916604B430AB9002115E05C
:1021F000514382688F1806D5002AC8BF002906DD22
:102200006FF0004703E0002A44BF0029104FC16867
:10221000B94203DB0169B942B8BF394681600A4659
:10222000818BC78B0B4142FA07F1CB189D4206DA2E
:10223000EC1AA4182B46846018B2F0BC7047B34265
:10224000BCBFF41A3346A418846018B2F0BC7047BF
:102250000100008002B481B0BDF904300091BDF9E5
:10226000062013FB03F112FB021C01884943614560
:1022700019D290F8B2104FEA1C6CACEB010C5FFA6B
:102280008CFC00EB4C008088434342434FEAA33C64
:1022900003EB5C43901302EB5042DB13ADF80030CC
:1022A000D213ADF80220009802B0704711B583B088
:1022B00008B201F0DBF9BDF90C300190BDF9042042
:1022C000BDF90600BDF90E1013FB02F411FB00442A
:1022D00011FB02F100FB1310E413ADF80040C01332
:1022E000ADF80200009804B010BD70B481B002B423
:1022F00081B0B0F85030BDF90650BDF90420018E10
:102300005D434A436D426D005119AA1A01EBD17128
:1023100002EBD27249105210002948D5002A17D575
:10232000042480F83A408C1A651404EB95340D149B
:1023300001EBD531A41404EB9303141402EBD43253
:1023400003EB6242A3EB61411D460C46164675E065
:102350002C14002D05EBD43414DC0321AD1A80F8C5
:102360003A10691405EB9135AD1405EB9303151480
:1023700002EBD53203EB62421E46A2EB64411546E6
:102380000C465BE002224D1B80F83A206A1405EBF4
:102390009235AD1405EB93030D1401EBD531A3EB8E
:1023A00061411E4601EB64420D46144646E0002A98
:1023B00016D4012480F83A408C1A651404EB953445
:1023C0000D1401EBD531A41404EB9303141402EBA8
:1023D000D43203EB6242A3EB61411D4614462CE06C
:1023E0002C14002D05EBD43414DC05224D1B80F891
:1023F0003A206A1405EB9235AD1405EB93030D14E6
:1024000001EBD531A3EB614101EB64421C460D4663
:10241000164613E00021AD1A80F83A10691405EB56
:102420009135AD1405EB9303151402EBD53203EB94
:102430006242A2EB64411C4615460E46C186B0F8C6
:102440004E10A0F84060C5878487012943868286A4
:1024500019D1B0F94830418EB0F85420002BB0F9B2
:102460004A30CCBF5118891A4186818E002BB0F9B1
:102470004C30CCBF5118891A8186C18E002BCCBF3D
:1024800052188A1AC286816903B070BC08472DE9C8
:10249000F04F85B00546B5F92A006B6EC0EBC0322F
:1024A0009A42B8BF6A6604DBA0EBC0309842A8BF6E
:1024B0006866AB6EB5F81A016E6E0641B5F92A0072
:1024C0009A4236B2B8BFAA6604DBA0EBC03098428D
:1024D000A8BFA866EB6DB5F81A01D5F868B04BFA3D
:1024E00000FBB5F928000FFA8BFBC0EBC0329A4213
:1024F000B8BFEA6504DBA0EBC0309842A8BFE8652E
:102500002B6EB5F928009A42B8BF2A6604DBA0EB0F
:10251000C0309842A8BF2866B5F81831EA6D88889F
:10252000D5F860E0CDF810E042FA03F44EFA03FE6D
:10253000201A00B2ADF802E0B5F920E0BDF802C003
:10254000CB88CDF80CE0B1F808E0DDF80C80CDF8D0
:1025500008E0B5F91CA0B5F91E90ACEB0303DDF85B
:1025600008C0B5F924E01BB21AFB04F4121BB1F940
:10257000004010FB092204FB0CFCB5F926404FEA91
:102580002C4C1EFB0C22019406FB1828EA8D8DF8BA
:102590000020B5F922C06C6E9DF80070B5F90620D8
:1025A00010FB0C404BFA07F4019F14FB02F407FBED
:1025B0000404BDF90200049F1AFB00F0DDF808A036
:1025C0003F1AB1F9020013FB097900FB0AFAB5F9C9
:1025D00020014FEA2A4A1EFB0A91D5F868E0DDF88F
:1025E0000C90002813FB0CE39DF800E00BFB19197D
:1025F0000199A5F86C60A5F86EB0B5F9000046FA2F
:102600000EFC9A461CFB02F254BF01274FF0FF3725
:102610007E4301FB12AA01F029F800901BFB07F092
:10262000BDF90010404210FB01F1BDF9020016FB9C
:1026300000F0490009144000A1EB204105F13000F1
:10264000FFF7C8FD95F8F01095F80A212881491C7C
:10265000C9B2914208BF002105EB4102B2F87030C7
:10266000A5F80831A2F8700085F8F0102988401804
:102670002880C5F85C806C66C5F86090C5F868A0D5
:10268000B5F9000005B0BDE8F08F10B490F80A412C
:1026900090F80B1190F8F020D0F80431611A07D1AE
:1026A00000F1700131F912105A18B0F908110DE05B
:1026B0008918A142ACBF0C1B0C4600F1700131F926
:1026C00012105A1800F1700131F91410511AB0F8B3
:1026D0001C21C0F8041141FA02F3C38010BC7047FA
:1026E000F0B490F82F200124012A08BFB1F900208E
:1026F0003DD0437BB0F90650828D468895FBF3F3BD
:10270000AA1882859E1990F828304680012B2ED178
:10271000B0F92A3043B9CA5E002180F8294001731C
:10272000028010B2F0BC70475B1E002D4385B1F9EA
:102730000060B0F9327052BFB51A951B4FF0FF34EC
:102740002DB2002D15FB03F393FBF7F313FB04F3FA
:102750001BB208D4012280F82E200988CA1A0280F0
:1027600010B2F0BC704790F82E1001B19A19028097
:1027700010B2F0BC704770B4826F9268136A23F491
:102780008053136290F87320102A18D2846F90F847
:102790007250C36D04EB8504666A326890F872402B
:1027A000D318826FC365036E02EB8405EE6B32684B
:1027B000D318036690F87320521C80F87320002011
:1027C0000880488070BC704710B50446DFF82809BF
:1027D0002061FFF733FB0020A4F85800A4F85A004A
:1027E00020626062A062E0622065D4F89C00C16B48
:1027F000C4F8801081692163002184F83410A1633A
:10280000E163A4F84010A4F84C10A4F84E1090ED29
:10281000000AB8EE400AD0ED070A20EE200ABDEE0D
:10282000C00A10EE101AA4F85C1090ED090AD0ED61
:10283000070A80EE200ABDEEC00A10EE101AA4F8B6
:102840005E1090ED000AB8EE400AD0ED0C0A20EEC2
:10285000200ABDEEC00A10EE101AA4F8601090ED28
:10286000000AB8EE400AD0ED0D0A20EE200ABDEEB7
:10287000C00A10EE100AA4F87400002084F8620068
:102880006066A06684F86C002067D4F89C0090F81D
:102890002010D4F89C0084F87610418CA4F87810AD
:1028A000016CC4F88410416CC4F88810806CC4F8C2
:1028B0008C000020C4F89000C4F8940010BD90F87B
:1028C000621079B90022C16380F834208263A0F8D5
:1028D0004010A0F84C10A0F84E10C0F89010C0F8AE
:1028E000941070470A2180F834107047002180F856
:1028F000341070472DE9F041054695F834002C69F5
:10290000092800F2EF82DFE810F00A004800ED022B
:10291000ED02ED02A000CB004501710111026A68D1
:102920000020002182F82400E86800F0EBFE00217E
:102930000120A963E963A5F84010A5F84810A5F89F
:102940004C10A5F84E10A5F84A0085F86C102868C0
:10295000FFF761FBC0EB0011DFF8A0370022880011
:1029600080FB03632046991001EBD171FFF756FB02
:10297000D5F880104FF47A722046FFF74FFB012004
:1029800085F834006868B0F9101000EE101AB8EE3F
:10299000C00A85ED240ABDE8F0812046FFF756FA0B
:1029A00000EE100A2846B8EEC00A85ED1C0A00F0B9
:1029B000D1FA06462046FFF775FB002800F0928208
:1029C000B5F84E00401C012EA5F84E0005D0B5F814
:1029D000741080B2814280F085822868FFF71BFB6B
:1029E000C0EB0011DFF81427880080FB0232D5F815
:1029F0009C00921002EBD27200EE102A41F2883253
:102A0000B8EEC00A85ED140AD0ED0A0A60EE200A7D
:102A1000FDEEE00A10EE901AA5F85810D0ED0B0A62
:102A200020EE200A0020BDEEC00AE86310EE101A66
:102A3000A5F84000A5F85A1009B26864A5F84E0040
:102A40002046FFF7EBFA05204AE22046FFF7FEF9A1
:102A500000EE100A2846B8EEC00A85ED1C0A00F008
:102A600079FA06462046FFF71DFB002800F03A825F
:102A7000B5F84E00401C012EA5F84E0005D0B5F863
:102A8000741080B2814280F02D820020E863A5F8A6
:102A900040006864A5F84800A5F84E0006201FE233
:102AA00095ED1C0A284600F055FA2868FFF7B3FA9E
:102AB00000EB8002DFF84406E96BB5F85C60520079
:102AC00082FB00306A68801000EBD0704118A86B60
:102AD000E963B2F90C30B5F84020C0186B6C521C99
:102AE00097B2A8635B1CBE42A5F840206B6480F0DF
:102AF000F98192B291FBF2F1B5F84820A5F848109F
:102B0000521A16B2002EA5F84A2044BF324652424D
:102B10000021E963A5F84010B5F86010994203DB85
:102B200012B2042A00F3DE8190FBF3F0A882B5F91B
:102B3000480095F87610DFED7C0A00EE100AB8EE3A
:102B4000C00A60EE200A01EE101AB8EE411A60EEDB
:102B5000810AC5ED060A2868FFF75DFAC0EB00118F
:102B6000DFF898258800B5F9581080FB023220461E
:102B7000921002EBD27200EE102A0022B8EEC00AC8
:102B8000A5F84E2085ED1C0A41F28832FFF746FA7F
:102B90000720A5E12046FFF759F900EE100A284664
:102BA000B8EEC00A85ED1C0A00F0D4F906462046AE
:102BB000FFF778FA002800F09581B5F84E00401C28
:102BC000012EA5F84E0005D0B5F8741080B28142F0
:102BD00080F088810020A863E863A5F8400068645D
:102BE000A5F84800A5F84E00082079E195ED1C0AEB
:102BF000284600F0AFF92868FFF70DFA00EB8002D5
:102C0000DFF8F804E96BB5F85C40520082FB003055
:102C10006A68801000EBD0704118A86BE963B2F9C4
:102C20000C30B5F84020C0186B6C521C96B2A863EB
:102C30005B1CB442A5F840206B6480F0538192B2D3
:102C400091FBF2F1B5F84820A5F84810521A14B2D9
:102C5000002CA5F84A2044BF224652420021E963D5
:102C6000A5F84010B5F86010994203DB12B2042AAF
:102C700000F3388190FBF3F0E882B5F9480095F84D
:102C80007610DFED290AB5F9162000EE100AB5F925
:102C90001400B8EEC00A01EE101AB5F9141060EE77
:102CA000200AB8EE411A20EE810A00EE900AB5F92A
:102CB0001600F8EEE00A85ED070A01EE100AE86852
:102CC000B8EEC11A70EEC10A95ED061A31EE400A4F
:102CD00080EE800ADFED840AB4EE600AF1EE10FAAD
:102CE0009FED821A48BFB0EE600A85ED080A8A425D
:102CF00095ED060AD5ED070A30EE600A20EE010ACE
:102D000095ED071A85ED090A30EE011A85ED091ACD
:102D1000B2BF00220022B5F9781000F0F7FC0020C5
:102D2000A5F84E000920DBE09CC4203FB5F84E001A
:102D3000401CA5F84E002868FFF76DF900EB8002F3
:102D4000DFF8B83395F87610D5ED091A500080FBFE
:102D500003439B1003EBD37300EE101AF8EE400A06
:102D6000B5F84E109FEDD60A01EE103AB8EEC11A32
:102D700021EE001A21EE201AB4EE611AF1EE10FADB
:102D800006DAB5F8743003EB43038B4280F2AA8075
:102D9000D5F89C00B3EE0E2A01EE101AAE68B8EE1C
:102DA000411A102110274FF00008D0ED001A47F605
:102DB000FF72F8EE611A012381EE211AF6EE001A75
:102DC000C1EE811A61EE821AC5ED0C1A95ED082A42
:102DD00021EE022A62EE211A21EE800A20EE200A5C
:102DE00085ED0A1A85ED0B2A85ED190AC0EE010A58
:102DF00090ED001A5FF00F00B8EE411AC0EE810AA4
:102E0000C5ED1A0A03FA00F401EE104AB8EEC11A31
:102E100021EE001ABDEEC11A11EE104A944204DAF6
:102E200041B202E0BCF1100FECD01FFA87FCBCF1FC
:102E3000100F0ED103FA00FC01EE10CAB8EEC11A51
:102E400021EE201ABDEEC11A11EE108A9045B8BFCE
:102E500047B2401E1FFA81FCE4D5BCF1100F07D029
:102E600089B23046FFF734F921B23046FFF736F920
:102E7000B8B2102808D0B9B23046FFF731F90FFACE
:102E800088F13046FFF73FF9B5F97810304600F089
:102E90008DFCB5F878103046494209B200F088FC44
:102EA000304600F087FC0446B5F8780044433046CD
:102EB0002146644200F0C3FB2146304600F0C1FBCE
:102EC0000120012185F86200E86800F01BFC2868F9
:102ED000FFF7A1F80146E868002200F017FC0A207D
:102EE00085F83400BDE8F0810AD7233CAE47213F86
:102EF00010B5044694F86200A8B96268002182F80F
:102F00002410E06800F0FEFB6168E0680022B1F97F
:102F1000101000F0FBFBE0684FF47A620021BDE87E
:102F2000104000F0F3BB10BD002180F86210704724
:102F300090ED140A00F021B90B20704790F834008E
:102F400070470146002091F834100A2908BF01207B
:102F50007047000030B5044681B000252DED048B8C
:102F6000D4F89C102068B0EE408AD1ED0E8AFFF7AD
:102F700052F8C0EB0011614A94ED221AB5EE401AE6
:102F80008900D4ED210A81FB0232921002EBD27249
:102F9000F1EE10FA00EE102AB8EEC09A38EE490AA7
:102FA00060EE800A08BF9FED520A09D0D4ED251AC1
:102FB00070EE611A94ED240A01EE810A70EE800A27
:102FC000B4F8780084ED240AB0EE600A014601EE00
:102FD000101AB8EE411AB4EE601AF1EE10FA48BFBA
:102FE000B0EE410A404201EE100AE068B8EEC11AA4
:102FF000F4EE410AF1EE10FA48BFB0EE410A70EE6D
:10300000C00A002294ED231ABDEEC00A60EE810AC8
:1030100010EE101AC4ED250A09B200F077FB28EE75
:10302000280A94F96C00B4EE409AF1EE10FA1CD420
:10303000B4EE489AF1EE10FA0AD4B0EE000A30EE7F
:10304000680A20EE080AB4EE409AF1EE10FA0CD5A8
:10305000401C41B21429A4BF1420012584F86C003F
:103060002846BDEC048B01B030BD002084F86C0014
:103070002846BDEC048B01B030BD80F87610704757
:10308000A0F87810704780ED0C0A704790ED0C0A9C
:1030900070470000D0F89C1090ED0B0ADFED150A88
:1030A00060EE200A90ED261A60EE810A91ED131A67
:1030B00091ED140A21EE000A80EE800A70470000AC
:1030C0009CC4203FD0F89C1090ED080ADFED090A5F
:1030D00060EE200A90ED261A60EE810A91ED131A37
:1030E00091ED140A21EE000A80EE800A704700007C
:1030F00000000000CB151E354C0C0020676666668C
:10310000C0F88010704780ED260A704790F8620082
:10311000704701460020896801B9012070470146C7
:1031200000200A780B2A04D109200870002088802A
:103130000120704730B5044681B0154604F13000D7
:10314000FEF7CCFF294604F1300001B0BDE8304065
:10315000FEF7D9BFB0F90600704770B504460D46BA
:10316000164604F1300000F025FB00FB05F104F1E8
:10317000300000F021FB268070BD2DED010A009883
:1031800001B070470146002091F8582091F849108D
:103190008A4228BF0120704710B5C46E00218160AB
:1031A00081802046FEF737FF014620460022BDE819
:1031B000104000F003BB70B4826F9268136A23F46E
:1031C0008053136290F87320102A0ED2846F90F807
:1031D0007250436E04EB8504E66B3268D318436685
:1031E00090F87320521C80F87320002008804880DB
:1031F00070BC70470246906F538E80684363938E15
:103200008363D38EC3630164006A118F000B00F0E7
:103210000100012902D10023012013877047F0B477
:1032200081B090F84710826F0029926843D102F173
:1032300018037D4C1E68264046F060061E60116A29
:1032400041F001011162166A002126F0040616629F
:103250005163866F96F88F1001290ED11F6873494C
:103260000F4047F480571F60156A25F0100515625E
:10327000166A46F0400616620FE002290DD11F685B
:103280006A490F4047F400571F60156A45F0100562
:103290001562116A21F04001116253F8045F2C405D
:1032A00044F070041C60116A21F480711162136A89
:1032B00023F4806313620FF2351141600FF2851120
:1032C00041610FF2C911C16059498160012180F843
:1032D000471001B0F0BC704790F84730816F012B68
:1032E0008A6800D07047F0B481B002F11803196801
:1032F0004D4C214041F060011960116A41F001011B
:103300001162866F96F88F10012904D1116A41F07D
:103310000401116205E0022903D1166A26F00406B1
:103320001662B0F8707041497F0857631E680E40FE
:1033300046F4C0461E60156A45F010051562816F9F
:1033400091F88F10012904D1156A45F040051562E6
:1033500005E0022903D1116A21F040011162B0F8A1
:1033600070506D08956353F8041F0C4044F06004DE
:103370001C60116A41F480711162836F93F88F10A1
:10338000012904D1116A41F48061116205E002292A
:1033900003D1136A23F480631362B0F870104908F4
:1033A000D1632449C160244A214942608160234A93
:1033B0000021426180F8471001B0F0BC704702461E
:1033C000B2F87030906F59438068090C51864163A0
:1033D000032182F83A10006A118F000B00F00100FF
:1033E000012902D1002301201387704730B4826F76
:1033F0009268136A23F480531362026E836F90F80D
:103400003A0003EB80030E48DC6B2568A2EB450213
:10341000824203DD47F6FF70824200DB02460A80EB
:103420004A8030BC704700008CFFFEFFFF8CFFFE1F
:10343000598E00085D9C00085D9A0008298A0008E2
:103440000180FFFF816F002289684A636FF00102EB
:103450000A610B695FEAC37CFBD50A614A6C42F4DE
:1034600000424A64816F91F88F20022A0CD18A6948
:10347000C9688A61816FCA69096912048A61806FAB
:10348000026A4069120482617047000070B481B022
:10349000816F8A686FF0010111611369DC07FCD547
:1034A000116101245463B0F870305B1F1364146918
:1034B000E307FCD51161536C43F480635364546C8F
:1034C00044F400445464836F93F88F40022C16D167
:1034D000DC689B69156A40F25556354203D0A361FA
:1034E000836FDC6904E01B04A361836FDC6924043F
:1034F0001B699C61806F046A4069240484611161C6
:10350000D16841F00101D16001B070BC704770B466
:10351000836F6FF001049A6819685B68146115691C
:10352000EE07FCD51461002454639463D463B0F8AF
:103530007040641F14641569EC07FCD5546C44F4A6
:1035400080645464556C45F400455564846F94F868
:103550008F50022D0AD1A569E468A561846FE569E1
:103560002469A561846F256A6469A561032580F8D3
:103570003A508D68846E25F4702504F47024254338
:103580008D609D68806E25F4702500F470200543E1
:103590009D608C6844F480148C60986840F48010BE
:1035A0009860116A41F480511162D06840F00100C6
:1035B000D06070BC70474FF48011C16690F87210F3
:1035C00080F83A10B0F87010491E89B2FFF712BEA9
:1035D00001EB410300EB8300C2817047A0F810119A
:1035E0007047C1844942018570470346B3F802C061
:1035F000187841EA0C0C2CEA0202B3F804C05A8095
:103600000A2841EA0C01998002D122B90B2001E07D
:103610000AB10A2018707047010048BF49420122D0
:103620005FF00100C2F11F0300FA03F399423EBFAD
:10363000521CD3B2202BF5D3511E88407047C16075
:1036400070470161704790F81C1169B9002280F839
:103650001D21012280F81C21D0F82001016841F0D1
:10366000200101600220704701207047A0F5004052
:103670000004800D10F4407181B021D0B1F5807F3D
:103680002CD0B1F5007F05D0B1F5407F0BD000986C
:1036900001B070471A49C2B231F81220C0F1FF00E0
:1036A000ADF8022023E0C0F1FF021549D2B2C0B24A
:1036B00031F81220ADF8022031F91000404219E033
:1036C0000F49C2B231F91220C0F1FF00C0B252421C
:1036D000ADF8022031F9100040420BE0C0F1FF02CA
:1036E0000749D2B231F912205242ADF80220C0B2DD
:1036F00031F91000ADF80000009801B0704700BF2C
:10370000B48F000801700021C16070472DE9F041BD
:1037100082B0064630780C4690460125C0B9304646
:1037200000F08EF8F18CB6F92820A142B8BF002530
:10373000944220DB290032D0B8F1000F20D130783C
:10374000270401280CBF7760B7600020F06025E0F7
:103750007068F28BC11300EB11400014A242A4BFA9
:10376000B6F92420944206DB318C8C42BCBFB6F9FA
:103770002210A142E0DA0025284602B0BDE8F0811F
:103780007480B18B084B271A3F0408FB01F8A8FB93
:103790000332510A491CF16097FBF1F0B0612846F1
:1037A00002B0BDE8F08100BF986E1283818270473D
:1037B000C1827047408B704781607047134690F814
:1037C0002820002A00D070471A00F0B412D1836973
:1037D0008180C18403FB01F2C38A03EB830464008C
:1037E00092FBF4F2447B12FB04F2C280002282843A
:1037F000F0BC7047028E114DC1845343826902FBB5
:1038000001F6C28A02EB8207A3FB0554B0F9065009
:103810007F0096FBF7F6630A447B5B1C36B2838419
:103820009BB295FBF4F212B2B61A36042D0496FB45
:10383000F3F254430562C461F0BC7047986E128382
:103840008068C11300EB11400014704770B582B05E
:1038500090F82C30056A446A55F82360002554F826
:1038600023400AB101231370822900F20384DFE8A8
:1038700011F083008900900097009E00AE00BC000C
:10388000CA00D100D500DC00E300EA00F300FA0032
:10389000010108012401010401045C01400101044B
:1038A0000104010478017F0186018D0194019B01CF
:1038B000AB01AF010104B801C201C601CF01D301C0
:1038C000AB01AF01DC01E001E901ED01F601FA0114
:1038D0000104010403021B023302480262027C025B
:1038E0000104010401040104010401049602A00280
:1038F000AA02B902EA00C802E002010401040104BC
:10390000010401040104010401040104010401048F
:10391000010401040104010401040104010401047F
:103920000104010401040104F8020104010401047A
:1039300001040104010401040104010401041A0347
:103940001E033B0345034F03590363032C03B500D8
:10395000C300F5030104F903FD036D03770383033B
:103960008E039903A203AD03B803C303CD03D503AC
:10397000DD03E5030304ED0300F086FB054628465E
:1039800002B070BDA06A00F082FB0546284602B076
:1039900070BDA06AFEF7BFFB0546284602B070BDA9
:1039A000304600F07AFB0546284602B070BD30462E
:1039B00000F075FBC0EB0011DFF8C42602B08800F0
:1039C00080FB0232951005EBD575284670BD206846
:1039D00000F068FB0546284602B070BD206800F084
:1039E00064FB0546284602B070BD206800F05FFB0E
:1039F0000546284602B070BD2068FFF7DBFE05468D
:103A0000284602B070BD206800F054FB05462846E9
:103A100002B070BD304600F050FBA0E1606800F0DD
:103A200041FB0546284602B070BD606800F03FFBD0
:103A30000546284602B070BD606800F03BFB0546B5
:103A4000284602B070BD304600F037FB0090BDF94B
:103A5000025002B0284670BDA06800F023FB054666
:103A6000284602B070BDA06800F021FB054628463C
:103A700002B070BDA06800F01DFB0546284602B0EC
:103A800070BD816A90F82C0051F8201000200A0FB8
:103A9000092AC1F3036108BFA069092908BFE069C9
:103AA000002800F05D810DF10202694600F00CFB78
:103AB000BDF9005002B0284670BD816A90F82C0014
:103AC00051F8201000200A0F092AC1F3036108BF32
:103AD000A069092908BFE069002800F041816A4611
:103AE0000DF1020100F0F0FABDF9005002B02846D5
:103AF00070BD816A90F82C0051F8201000200A0F48
:103B0000092AC1F3036108BFA069092908BFE06958
:103B1000002800F025810DF10202694600F0D9FA73
:103B2000BDF9005002B0284670BD816A90F82C00A3
:103B300051F8201000200A0F092AC1F3036108BFC1
:103B4000A069092908BFE069002800F009816A46D8
:103B50000DF1020100F0BDFABDF9005002B0284697
:103B600070BD206B00F0C4FA0546284602B070BD57
:103B7000E06A00F0C3FA0546284602B070BDE06B6B
:103B800000F0CFFA0546284602B070BD002100F0D3
:103B9000D5FA0546284602B070BD012100F0CEFAE4
:103BA0000546284602B070BD304600F0D1FAC0EBA1
:103BB0000011DFF8CC2402B0880080FB023295109F
:103BC00005EBD575284670BD304600F0CBFAC6E04F
:103BD000304600F0C7FA0090BDF9025002B0284606
:103BE00070BD6069002800F0478200F0C2FA054607
:103BF000284602B070BD304600F0BEFAAFE0304655
:103C000000F0BAFA0090BDF9025002B0284670BD2B
:103C1000304600F0B8FAA2E0304600F0B4FA009066
:103C2000BDF9025002B0284670BD304600F045FA9A
:103C300095E0304600F041FA0090BDF9025002B024
:103C4000284670BD304600F0A5FA88E0304600F006
:103C5000A1FA0090BDF9025002B0284670BD30466E
:103C600000F0A0FA7BE0304600F09CFA0090BDF92D
:103C7000025002B0284670BD816A90F82C0051F8BD
:103C8000201000200A0F092AC1F3036108BFA069B0
:103C9000092908BFE069002800F0EE81FEF73FFA2D
:103CA0000546284602B070BD816A90F82C0051F894
:103CB000201000200A0F092AC1F3036108BFA06980
:103CC000092908BFE069002800F0D68100F072FAE7
:103CD0000546284602B070BD816A90F82C0051F864
:103CE000201000200A0F092AC1F3036108BFA06950
:103CF000092908BFE069002800F0BE8100F064FADD
:103D00002DE0816A90F82C0051F8201000200A0F55
:103D1000092AC1F3036108BFA069092908BFE06946
:103D2000002800F0A98100F04FFA0090BDF9025080
:103D300002B0284670BD816A90F82C0051F820101E
:103D400000200A0F092AC1F3036108BFA0690929ED
:103D500008BFE069002800F08F8100F043FA00906E
:103D6000BDF9005002B0284670BD816A90F82C0061
:103D700051F8201000200A0F092AC1F3036108BF7F
:103D8000A069092908BFE069002800F0758100F0EA
:103D900029FA0090BDF9025002B0284670BD0269B0
:103DA000002A00F06981002190470546284602B0AC
:103DB00070BD0269002A00F05F810121904705462D
:103DC000284602B070BD606A00F018FAC0EB00111E
:103DD000AB4A02B0880080FB0232951005EBD57526
:103DE000284670BD606A00F00BFAC0EB0012A448D0
:103DF00002B0920082FB0010851005EBD5752846B5
:103E000070BD816A90F82C0051F8201000200A0F34
:103E1000092AC1F3036108BFA069092908BFE06945
:103E2000002800F0298100F0EEF90514284602B0C0
:103E300070BD816A90F82C0051F8201000200A0F04
:103E4000092AC1F3036108BFA069092908BFE06915
:103E5000002800F0118100F0D9F90514284602B0BD
:103E600070BD304600F019F9012830460DD100F040
:103E7000D0F9C0EB0011824A02B0880080FB023208
:103E8000951005EBD575284670BD00F008F9C0EB1C
:103E900000127B4B02B0920082FB03439D1005EBA6
:103EA000D575284670BD0125284602B070BDA06CAE
:103EB00010B1FDF709FB0546E06C10B1FFF73EF8C5
:103EC0002D18EDB2284602B070BDA06C10B1FDF700
:103ED000F9FA0546E06C10B1FFF72EF82D18EDB297
:103EE0006D1E284602B070BDA06C002800F0C48092
:103EF000FDF724FB0546284602B070BDA06C0028E3
:103F000000F0BA80FDF71EFB0546284602B070BDE2
:103F1000A06C002800F0B080FDF718FB054628468D
:103F200002B070BDA06C002800F0A680FDF712FB67
:103F30000546284602B070BDE06C002800F09C8069
:103F4000FEF7F6FF0546284602B070BDA0690028BE
:103F500000F09280FDF795FF0546284602B070BD3F
:103F6000A06C002800F08880FDF700FFFFF705F93E
:103F70000546284602B070BDE06C00287CD0FFF7F3
:103F800085F8FFF7FAF80546284602B070BDA06C28
:103F9000002871D0FDF7F0FEFFF7EFF80546284640
:103FA00002B070BDA06C002866D0FDF70FFF05467B
:103FB000284602B070BDA06C00285DD0FDF72CFF34
:103FC000FFF7DBF80546284602B070BDE06C00281C
:103FD00052D0FFF75FF8FFF7D0F80546284602B049
:103FE00070BDE06C002847D0FFF76CF8FFF7C5F80C
:103FF0000546284602B070BDA06CE8B3FDF706FF89
:10400000FFF7BBF80546284602B070BDA06C98B318
:10401000FDF7DFFE0546284602B070BDA06C58B320
:10402000FDF7DAFE0546284602B070BDA06C18B355
:10403000FDF7F5FE0546284602B070BDA06CD8B16C
:10404000FDF7F2FE0546284602B070BDE06C98B15F
:10405000FFF75CF80546284602B070BD094D02B076
:10406000284670BD1925284602B070BD1025284687
:1040700002B070BD02B11570284602B070BD00BF1D
:1040800067666666A7871B3A90F82C007047014662
:104090008888498840EA01407047407E7047406800
:1040A00000F0BFB8B0F904007047008B7047B0F95A
:1040B00006007047B0F92200704781B0806801693E
:1040C000009101B008467047C38B0B80408C108074
:1040D000704770B504460D46164604F13000FFF7F0
:1040E000E1FF288004F13000FFF7E1FF308070BD70
:1040F0000146C88849884843000C7047017869B96F
:10410000038A026AB0F91E10808C9A1A4A43D113AE
:1041100002EB114200EB224000B27047808A00B2ED
:104120007047B0F9040170478169002918BF08473A
:1041300070474368002B18BF1847704700B581B01F
:10414000836883220BB198470246104601B000BD38
:1041500000B581B04068FDF7E0FF01B05DF804EB09
:10416000FDF759BF81B08068C168009101B0084671
:10417000704790F84800704781B0806801680091EE
:1041800001B00846704781B080684168009101B075
:104190000846704781B08068D0F81610009101B0D1
:1041A0000846704781B08068D0F81A10009101B0BD
:1041B00008467047B0F90410B0F90E00C1EBC131E8
:1041C00091FBF0F000B2704781B0B0F81811C26DE9
:1041D0000A41ADF80020006E0841ADF802000098D9
:1041E00001B0704781B0B0F96C10ADF80010B0F8B4
:1041F0006E00ADF80200009801B07047C08B7047A8
:10420000B0F924007047D0F8FC007047D0F8F800EF
:104210007047014600200A7B012A08BFB1F90E0051
:1042200070474068C11300EB11400014704701460D
:10423000002091F87420012A03D10023402081F846
:104240007430704710B5040001D1012010BD94F8FE
:104250003D0028B90021204684F83C1000F05EFBA8
:10426000022184F83D102068211D00F0EDF80120A6
:1042700084F83D00002010BD10B5040001D10120DC
:1042800010BD94F83D0028B90021204684F83C1068
:1042900000F006FC022184F83D102068211D00F08A
:1042A000D3F8012084F83D00002010BD30B581B066
:1042B000044694F83C000D46012808BF022000F097
:1042C0009680012184F83C100221142A84F83D10C4
:1042D00000F28780DFE802F00B8585851F858585E4
:1042E00034858585488585855D858585710020684F
:1042F000294600F00EF92068816941F008018161CA
:104300002068826922F00402826121688B69286931
:1043100003438B6165E02068294600F02BF9206893
:10432000816941F4006181612068826922F48062C0
:104330008261206881692A6941EA0221816150E035
:104340002068294600F04AF92068C16941F0080157
:10435000C1612068C26922F00402C2612168CB6990
:1043600028690343CB613CE02068294600F069F9E5
:104370002068C16941F40061C1612068C26922F40A
:104380008062C2612068C1692A6941EA0221C16173
:1043900027E02068294600F078F92068416D41F057
:1043A000080141652068426D22F0040242652168DF
:1043B0004B6D286903434B6513E02068294600F0E4
:1043C00087F92068416D41F4006141652068426DC4
:1043D00022F4806242652068416D2A6941EA022127
:1043E0004165012084F83D00002084F83C0001B0C4
:1043F00030BD10B5044694F83C00012801D10220DC
:1044000010BD0122204684F83C20022284F83D2081
:1044100000F082F938B1012084F83D00002084F8D2
:104420003C00012010BD2068C16821F04001C1603E
:104430002068C26822F48042C260012084F83D00F6
:10444000002084F83C0010BDDFF88C3381B0984226
:10445000D0F800C018BFB0F1804F0FD0DFF87C2338
:1044600090421CBFDFF87823904207D0DFF8742316
:1044700090421CBFDFF87023904214D198424A68E2
:104480002CF0700C18BFB0F1804F42EA0C0C25D014
:10449000DFF8482390421FBFDFF844239042DFF843
:1044A000442390421AD0DFF8402390421CBFDFF82B
:1044B0003C23904212D0DFF8382390421CBFDFF833
:1044C000342390420AD0DFF8302390421FBFDFF838
:1044D0002C239042DFF82823904204D1CA682CF4A0
:1044E000407C42EA0C0C4A692CF0800C984242EA6B
:1044F0000C0CC0F800C08A68C2620A68826219BFE8
:10450000DFF8E4229042096901630121416101B0B1
:10451000704770B481B0026A520852000262046AA5
:1045200045688669DFF8DC2224F0020416400A6838
:1045300016438A681443A84A90421CBFAA4B98426B
:1045400007D1CB6824F008041C43904224F00404F3
:1045500002D0A54A904205D14A6925F44075154319
:104560008A6915434560866149684163046201B008
:1045700070BC7047F0B481B0026A22F0100202628F
:10458000036A44688569A04A8E6823F020031540B9
:104590000A6845EA0225904A904243EA06131CBF86
:1045A000914FB84208D123F08003CE6843EA061346
:1045B000904223F0400302D08B4A904206D14E69CC
:1045C0008A6924F44064164344EA860444608561A1
:1045D00049688163036201B0F0BC704770B481B078
:1045E000026A22F480720262036A4468C569854ADD
:1045F00023F4007315400A6815438A6843EA0223CE
:10460000754A90421CBF784EB04208D123F4006333
:10461000CE6843EA0623904223F4806302D0724AB4
:10462000904206D14E698A6924F44054164344EA04
:1046300006144460C5614968C163036201B070BC7F
:10464000704770B4026A22F480520262056A4368BD
:10465000C4696D4A8E6825F4005514400A6844EA1E
:1046600002245D4A904245EA06351CBF5E4A9042EC
:1046700004D123F480434A6943EA82134360C4614E
:1046800049680164056270BC704770B4026A524E9A
:1046900022F480320262056A4368446D5B4A25F465
:1046A000003514400A6814438A68B04245EA02455E
:1046B0001CBF4D4EB04204D123F480334A6943EA13
:1046C00002234360446549688165056270BC704798
:1046D00070B4026A22F480120262056A4368446D73
:1046E0004B4A8E6825F4001514400A6844EA0224F7
:1046F000394A904245EA06551CBF3B4A904204D1D4
:1047000023F480234A6943EA82234360446549686D
:10471000C165056270BC704730B481B003682D4834
:104720009C684A6824F070041443044008680443F9
:104730009C604868402811D0502822D0602832D090
:10474000702842D108698A68C9689C6824F47F444B
:1047500021430A4342EA00229A6036E008680528AD
:1047600008BF012032D0186A1A6A520852001A6231
:104770009A69096922F0F00242EA01129A6118620C
:1047800023E0086989681A6A1C6A640864001C626C
:104790009D6922F00A02114325F0F00545EA001553
:1047A0009D61196211E0086989681A6A22F0100295
:1047B0001A629A691C6A22F4704242EA003224F0BA
:1047C000A0049A6144EA01141C62002001B030BCCC
:1047D00070470000F8FFFEFF0000014000040040A9
:1047E00000080040000C004000040140004001406F
:1047F000004401400048014000180040001C0040F7
:10480000002000408CFFFEFFFF8CFFFE8FFFFEFFAD
:10481000FF8FFFFE82B09748016841F08051016030
:10482000026802F0805200920099416841F4804190
:104830004160406800F4804000900099042002B07C
:1048400000F034B910B586B001A90022002300247D
:104850001CC10CC10068884A904214D18748416944
:1048600041F480714161426902F4807200920099C2
:104870000168362241F004010160006800F0040084
:104880000090009916E07E4A90421BD17B48416916
:1048900041F400714161426902F400720092009992
:1048A00001680C2241F004010160006800F004007E
:1048B0000090009903200192029001A9039371488E
:1048C00000F056F906B010BD10B586B001A900225F
:1048D000002300241CC10CC100686B4A90421BD10C
:1048E0006648016941F000510161026902F000521D
:1048F000009200990168302241F0010101600068D6
:1049000000F001000090009903200192029001A99B
:1049100003935E4800F02CF906B010BD10B586B0C8
:1049200001A90022002300241CC10CC10068584AC0
:1049300090421FD15148416941F0020141614269F1
:1049400002F00202009200990168102241F4807185
:104950000160006800F480700090009902200192CC
:104960000121029003910321059101A90493494873
:1049700000F0FEF806B010BD10B586B06946002202
:10498000002300241CC10CC10068414A904240D160
:104990003A48026842F004020260016801F0040132
:1049A0000591059A026842F001020260016801F077
:1049B00001010591059A026842F002020260006856
:1049C0004FF4E07200F00200059005990220009279
:1049D00003210190029003902A480491694600F057
:1049E000C7F80320022380220490009269460193B5
:1049F00026480293039300F0BBF8022103200191A3
:104A0000029103910321009023480491694600F02C
:104A1000AFF806B010BD10B586B001A90022002382
:104A200000241CC10CC100681C4A90421FD11348CD
:104A3000416941F010014161426902F010020092A7
:104A4000009901684FF4C06241F001010160006803
:104A500000F00100009000990220019207210290CD
:104A6000059101A903930948049300F081F806B069
:104A700010BD0000403802400020014030380240A4
:104A80000021014000080240007400400000024084
:104A900000040140002002400004024000100140D8
:104AA000704700EB4100B0F9320070472A4A4FF6D8
:104AB000FF011368000200F4E0600B40184327492F
:104AC00008431060704730B481B0234B1C68C4F3B6
:104AD0000223C3F10704052C28BF04241D1D072D44
:104AE00034BF0023DB1E012505FA04F4641E2140B7
:104AF000994005FA03F35B1E1A40114309010200B5
:104B000004D41748815401B030BC7047154802F0F6
:104B10000F02104400F8041C01B030BC70470100C3
:104B200007D4012200F01F018A400F4B400943F8CF
:104B300020207047401EB0F1807F01D301207047D4
:104B40000A494860F02081F8130D00208860072092
:104B500008600020704700000CED00E00000FA053E
:104B600000E400E018ED00E000E100E010E000E00B
:104B70002DE9F04F03464FF00009884681B0CA4640
:104B8000CB46DFF8D001DFF8D0110F22D8F800E0D3
:104B90004FF0010C0CFA09FC0CEA0E0EE64540F051
:104BA000CB80D8F80440022C18BF122C0FD14FEA4A
:104BB000D9040BF01C0503EB840402FA05F7266AFE
:104BC000BE43D8F8107007FA05F5354325621D6815
:104BD000032498F8046004FA0AF4E443254006F03C
:104BE000030606FA0AF635431D60D8F80450012D75
:104BF00018BF022D03D0112D18BF122D14D19D689E
:104C0000D8F80C60254006FA0AF635439D605D68C9
:104C100025EA0C0CD8F80450C5F3001505FA09F57F
:104C200045EA0C0CC3F804C0D3F80CC004EA0C0429
:104C3000D8F808C00CFA0AFC4CEA0404DC60D8F886
:104C400004C05FEACC0477D50C6844F480440C605F
:104C50000D68424C05F480450095DDF800C00BF06E
:104C60000C0502FA05F64FEA990C54F82C7027EA65
:104C700006063B4FBB4208BF00272DD0394FBB4231
:104C800008BF012728D0384FBB4208BF022723D0D6
:104C9000364FBB4208BF03271ED0354FBB4208BF6B
:104CA000042719D0334FBB4208BF052714D0324F19
:104CB000BB4208BF06270FD0304FBB4208BF0727B3
:104CC0000AD02F4FBB4208BF082705D02D4FBB424B
:104CD0000CBF09270A2700BF07FA05F5354344F83A
:104CE0002C500468D8F804506FEA0E0C0CEA040447
:104CF000EE0348BF4EEA040404604468D8F8045048
:104D00000CEA0404AE0348BF4EEA0404446084681D
:104D1000D8F804500CEA0404EE0248BF4EEA04043A
:104D20008460C4680CEA0404D8F804C05FEA8C25E7
:104D300048BF4EEA0404C46009F10109B9F10F0F3C
:104D40000BF1040B0AF1020A7FF620AF01B0BDE8B7
:104D5000F08F0000003C0140443802400838014018
:104D6000000002400004024000080240000C024023
:104D7000001002400014024000180240001C0240D3
:104D800000200240002402402DE9F04188460446FC
:104D90008AB000205FEA581516461F468DF80400B9
:104DA00013D06D1E2A460021204600F0BFFA18B924
:104DB0000B208DF805009DE2D4F8C40008F01F0810
:104DC00018B12A46002100F0B1FAB8F10C0F00F238
:104DD0008E82DFE818F08F020D009E0076018C02B3
:104DE0008C028001CB01E00113023A024B025D020A
:104DF000317805208DF805007E2900F28680DFE8F5
:104E000001F04084844F846A6A6A6A6A6A6A6A6ADC
:104E10006A6A747484846A6A6A6A6A84848456607A
:104E20008484848484848484848484848484848442
:104E30008484848484848484848484848484848432
:104E40008484846A8484848474747484848484846C
:104E5000846A8484846A6A6A6A6A6A6A84748484F2
:104E60008484846A84846A6A848484848484848450
:104E70008484848484844F74747474748484847487
:104E800074007578D4F8C40000212A4600F04EFA68
:104E90002A460021204600F049FA8DF8040029E254
:104EA0007278204600F042FA8DF8040022E272780F
:104EB000D4F8C4000021FFF73CF901208DF804006C
:104EC0001BE27278D4F8C4000121FFF732F9012007
:104ED0008DF8040011E27278B378204602EB0322C9
:104EE00000F024FA8DF8040004E27078B278337987
:104EF00000EB0222F07802EB0042204602EB036254
:104F000000F014FA8DF80400F4E102208DF8050099
:104F1000F0E1317803228DF80520822900F2EA8140
:104F2000DFE811F08300C10083008300C100B300FB
:104F3000B300B300B300B300B300B300B300B300D9
:104F4000B300B300B300B300B300B300B300B300C9
:104F5000B300B300B300B300B300B30091009F00EF
:104F6000C100B300B300B3008300E801E801E80129
:104F7000E801E801E801E801E801E801E801E801E9
:104F8000E801E801E801E801E801E801E801E801D9
:104F9000E801E801E801E801E801E801E801E801C9
:104FA000E801E801E801B300E801E801E801E801EF
:104FB000C100C100C100B300B300B300B30083005F
:104FC000C100B300B300B300B300B300B300B3003B
:104FD000B300B300B300B3008300C100E801B30025
:104FE000B300B300B300B300E801E801B300B300BD
:104FF00083008300C100C100C100C100C100830063
:10500000B300B300C100E801B300B3008300C100E6
:10501000C100C100C100C100C100C100C100C10088
:10502000C100C1008300E801830001AA2046FEF709
:105030000DFC00909DF80400012840F05B810123E5
:105040006A46F02166E1D4F8C400002800F05281DD
:105050000021FFF773F88DF8000001236A46F02164
:1050600058E1D4F8C400002800F044810121FFF782
:1050700065F88DF80000206B656B01236A46F0210E
:10508000A84701208DF8040037E101AA2046FEF769
:10509000DDFB00909DF80400012840F02B810223E5
:1050A0006A46F02136E101AA2046FEF7CFFB0090C8
:1050B0009DF80400012840F01D8104236A46F02178
:1050C00028E1317807208DF80500204600F0FAFA33
:1050D0008DF804000EE102A9002000220023002523
:1050E0002DC12DC1D4F8C020002102A81278092AB0
:1050F00022D0C2705FF00101D4F8C020525C092AAE
:105100001AD00DF10B035A54D4F8C020491C525C3C
:10511000092A11D05A54D4F8C020491C525C092ADB
:105120000AD05A54D4F8C020491C525C092A03D032
:105130005A54491C1D29DFDBD4F8C020531D5B5C89
:105140008DF80830D4F8C05020236A18D279427004
:10515000D4F8C020114402AA497A8170206B656B93
:10516000F021A84701208DF80400C6E0317972795A
:10517000F37801EB0220717882B2307800EB0121E4
:10518000B07801EB0041204601EB036100F0F4FA36
:105190008DF80400AEE00DF106000DF10A03009059
:1051A000317802AA204600F001FBBDF90A005C4AF2
:1051B000C0EB0011890081FB023203A9901000EBC3
:1051C000D07008238DF80C0002124A7002140016E9
:1051D0008A70C870BDF80600BDF808200871BDF9D6
:1051E00006008A7103AA00124871BDF80800000A7F
:1051F000C871206B656BF021A8477BE07079B179AD
:1052000000EB012000B200907078B278F17800EBEA
:105210000220327900EB0140424900EB0260327A11
:1052200000EB8003580080FB015101444B11F179E0
:1052300003EBD37301EB0220317882B220461BB21C
:1052400000F0DCFA8DF8040054E0B078F17873785F
:1052500000EB0122307800EB0321204612B209B2A4
:1052600000F0E9FA01208DF8040046E00C212E4DF3
:105270008DF805102946029602A88DF80C7000F0F2
:10528000E8FA00288DF8040040D02B792A6836E02F
:10529000002202A9D4F8C000805CB0B18854D4F8D0
:1052A000C000521C805C80B18854D4F8C000521CED
:1052B000805C002809D08854D4F8C000521C805C5F
:1052C00018B18854521C202AE4DB202A05DA02A8EF
:1052D000C2F12001104400F0C3FA206B656B20235B
:1052E00002AAF021A84701218DF8041005E001224F
:1052F0008DF805209DF8040040B100230022206BAA
:10530000646BF021A0470AB0BDE8F08101230DF1E4
:105310000502FF21206B646BA0470AB0BDE8F08155
:105320006766666689888888B410002074B581B085
:1053300090F82C20436A0124792953F82260036AEB
:1053400053F8225000F2B781DFE811F07A00B5017E
:10535000B5018200B50198009C00A000A400AC003B
:10536000B000B400B800C600CE00D600DE00F900E0
:10537000B501B50119013401B501B501B501B5019A
:10538000B501B501B501B501B501B501B501B5016D
:10539000B501B501B501B501B501B501B501B5015D
:1053A000B501B501B501B501B501B501B501B5014D
:1053B000B501B501B501B501B501B501B501B5013D
:1053C000B501B501B501B501B501B501B50153018F
:1053D000B501B501B501B501B501B501B501B5011D
:1053E000B501B501B501B501B501B501B501B5010D
:1053F000B501B501B501B501B501B501B501B501FD
:10540000B5015B01B501B501B501B501B501B50146
:10541000B501B501B501B501B501B501B501B501DC
:10542000B501B501B501B501B501B501B501B501CC
:10543000B501B5016E01890192019B01A401AC0186
:105440000199C9B200F00FFA0446204602B070BDBF
:105450000198C0B238B9284600F010FA014600227F
:10546000284600F00FFA01A90878012840F02481AD
:105470002846FEF714FE00220146CFE0019930686D
:1054800009B22CE00199306809B230E00199306826
:1054900009B234E02846FEF710FE00900198ADF8FE
:1054A000000012E00199706809B218E00199706873
:1054B00009B21CE00199706809B220E02846FEF7A5
:1054C000FCFD00900198ADF802000099284600F01C
:1054D000E2F9204602B070BD0199B06809B2FCF74C
:1054E000FDFD204602B070BD0199B06809B2FCF71D
:1054F0000AFE204602B070BD0199B06809B200F002
:10550000D9F9204602B070BD806A002550F822000B
:10551000010F0929C0F3036008BFB569092808BF56
:10552000F569002D00F0C8806A460DF10201284699
:10553000FEF7CAFD0199BDF9002009B219E0806AA1
:10554000002550F82200010F0929C0F3036008BFAD
:10555000B569092808BFF569002D00F0AD800DF18F
:10556000020269462846FEF7AFFD019ABDF9001018
:1055700012B2284600F0A0F9204602B070BD806A41
:10558000002550F82200010F0929C0F3036008BF6D
:10559000B569092808BFF569002D00F08D800DF16F
:1055A000020269462846FEF794FD019ABDF90010F3
:1055B00012B218E0806A002550F82200010F092974
:1055C000C0F3036008BFB569092808BFF569002D5D
:1055D00072D06A460DF102012846FEF77AFD019964
:1055E000BDF9002009B22846FDF7A4FD204602B00F
:1055F00070BD0199284609B200F061F9204602B059
:1056000070BD01982E4B002200EB8001490081FB08
:1056100003630B44591101EBD17109B2284600F024
:1056200052F9204602B070BDB06918B10199C9B2F3
:1056300000F050F9306A18B10199C9B200F04AF986
:10564000B06C18B10199C9B2FCF752FBF06C98B379
:105650000199C9B2FDF711FD204602B070BDB06CD2
:1056600050B39DED010AFCF74BFB204602B070BD24
:10567000F06C08B39DED010AFDF705FD204602B070
:1056800070BDB06CC0B19DED010AFCF772FB204605
:1056900002B070BDB06C78B10199FCF771FB204687
:1056A00002B070BDB06C38B19DED010AFCF7B1FBE2
:1056B000204602B070BD0024204602B070BD00BF7D
:1056C0008988888870B590F82C200124036A491EC7
:1056D0000D2953F8225047D8DFE801F04107104761
:1056E000471A24292E4646463307406A50F82200BE
:1056F000806C08B1FBF76EFF28460FE0284600F0EB
:10570000EBF8062831D1284600F0E9F8204670BDB4
:10571000284600F0E1F80028284621D000F0E2F801
:10572000204670BD284600F0E1F8204670BD2846AE
:1057300000F0DFF8204670BD284600F0DEF8204675
:1057400070BD406A50F82260B06C08B1FBF706FFEC
:10575000F06C08B1FDF7E8FB284600F0C7F82846D2
:1057600000F0D3F8204670BD0024204670BD0068CC
:10577000012180F81E11704701EB81030A4930B501
:1057800081B090F82C505B0083FB0141046A1944FE
:10579000491101EBD17154F8250009B200F093F8DA
:1057A000012001B030BD00BF898888882DE9F04311
:1057B00081B08846416A90F82C001646994601252A
:1057C00051F820104C69A4B1089F4146204600F0D2
:1057D000A6F830804146204600F0A7F8A9F800005E
:1057E0004146204600F0A8F83880284601B0BDE8C0
:1057F000F0830025284601B0BDE8F083F0B50C46E3
:1058000081B0416A90F82C001D46BDF9186051F82E
:1058100020104F6921463846FCF777FC2A4621467E
:105820003846FDF7D5FE324621463846FCF7EDFBFB
:10583000012001B0F0BD82B0ADF80010ADF802203B
:1058400090F82C30026A009952F8230002B000F060
:1058500022B800B581B000F07BF8012001B000BD96
:10586000002200F0F7B80246012092F81CC0614502
:1058700001D30020704782F82C1070478068B0F97F
:105880001E0070470182012101760223002103736B
:10589000C2824176704702B403210173BDF8001043
:1058A0004182BDF8021081820121017600214176FA
:1058B00001B0704741847047C1834284704780685B
:1058C0004182818270470123C1810373C2820376C2
:1058D00043767047417370470068FCF71CBC406812
:1058E00000F0E7B800680721FCF716BB0068FDF779
:1058F00016BC00680121FCF70FBB10B504466068B8
:1059000000F0DFF8A168086110BD10B5044603215E
:105910002068FCF701FB012808BF207610BD01EBD1
:10592000410200EB82008089704701EB410200EBED
:105930008200B0F90E00704701EB410200EB8200DB
:10594000B0F9100070470068012180F81F117047FE
:105950002DE9F04306463E4D002083B02870327991
:1059600000270C46002A6CD03068FAB26946805C89
:1059700000F0B2F89DF80400002200285CD010F07E
:105980000301009B00F0148095F800C093F800809C
:1059900005F1040903F10103BCF11E0F09F80C80A5
:1059A000BCBF0CF1010C85F800C0521C491EEBD1A4
:1059B000800841D0DDF800C029785FFA82FE1CF82B
:1059C0000EC005F1040E1E290EF801C0BCBF491C13
:1059D0002970DDF800C0521C29785FFA82FE1CF89D
:1059E0000EC005F1040E1E290EF801C0BCBF491CF3
:1059F0002970DDF800C0521C29785FFA82FE1CF87D
:105A00000EC005F1040E1E290EF801C0BCBF491CD2
:105A10002970DDF800C0521C29785FFA82FE1CF85C
:105A20000EC005F1040E1E290EF801C0BCBF491CB2
:105A30002970521C401EBDD131797F1CF8B28842BA
:105A400092D3281D20602878207103B0BDE8F08330
:105A50007C100020401810F0030308D0C91A1FD38F
:105A6000DB0748BF00F8012D28BF20F8022D1300E6
:105A700030B414461546103928BF20E93C00FAD846
:105A8000490728BF20E90C0048BF40F8042D8900D1
:105A900028BF20F8022D48BF00F8012D30BC704708
:105AA000C91818BF00F8012DCB0728BF00F8012D39
:105AB0007047014600200A78012A04BFC86001200F
:105AC000704781B0B0F92E10ADF80010008EADF81F
:105AD0000200009801B070470E2828D8DFE800F0D7
